{"abi":[{"type":"constructor","inputs":[{"name":"_sponsor","type":"address","internalType":"address"}],"stateMutability":"nonpayable"},{"type":"function","name":"MAX_BATCH","inputs":[],"outputs":[{"name":"","type":"uint256","internalType":"uint256"}],"stateMutability":"view"},{"type":"function","name":"MAX_CID","inputs":[],"outputs":[{"name":"","type":"uint256","internalType":"uint256"}],"stateMutability":"view"},{"type":"function","name":"access","inputs":[{"name":"","type":"bytes32","internalType":"bytes32"},{"name":"","type":"address","internalType":"address"}],"outputs":[{"name":"","type":"bool","internalType":"bool"}],"stateMutability":"view"},{"type":"function","name":"canAccess","inputs":[{"name":"user","type":"address","internalType":"address"},{"name":"contentId","type":"bytes32","internalType":"bytes32"}],"outputs":[{"name":"","type":"bool","internalType":"bool"}],"stateMutability":"view"},{"type":"function","name":"computeContentId","inputs":[{"name":"trackId","type":"bytes32","internalType":"bytes32"},{"name":"owner_","type":"address","internalType":"address"}],"outputs":[{"name":"","type":"bytes32","internalType":"bytes32"}],"stateMutability":"pure"},{"type":"function","name":"content","inputs":[{"name":"","type":"bytes32","internalType":"bytes32"}],"outputs":[{"name":"owner","type":"address","internalType":"address"},{"name":"datasetOwner","type":"address","internalType":"address"},{"name":"pieceCid","type":"bytes","internalType":"bytes"},{"name":"algo","type":"uint8","internalType":"uint8"},{"name":"createdAt","type":"uint64","internalType":"uint64"},{"name":"active","type":"bool","internalType":"bool"}],"stateMutability":"view"},{"type":"function","name":"deactivateFor","inputs":[{"name":"contentOwner","type":"address","internalType":"address"},{"name":"contentId","type":"bytes32","internalType":"bytes32"}],"outputs":[],"stateMutability":"nonpayable"},{"type":"function","name":"getContent","inputs":[{"name":"contentId","type":"bytes32","internalType":"bytes32"}],"outputs":[{"name":"owner_","type":"address","internalType":"address"},{"name":"datasetOwner","type":"address","internalType":"address"},{"name":"pieceCid","type":"bytes","internalType":"bytes"},{"name":"algo","type":"uint8","internalType":"uint8"},{"name":"createdAt","type":"uint64","internalType":"uint64"},{"name":"active","type":"bool","internalType":"bool"}],"stateMutability":"view"},{"type":"function","name":"grantAccessBatchFor","inputs":[{"name":"contentOwner","type":"address","internalType":"address"},{"name":"contentIds","type":"bytes32[]","internalType":"bytes32[]"},{"name":"user","type":"address","internalType":"address"}],"outputs":[],"stateMutability":"nonpayable"},{"type":"function","name":"grantAccessFor","inputs":[{"name":"contentOwner","type":"address","internalType":"address"},{"name":"contentId","type":"bytes32","internalType":"bytes32"},{"name":"user","type":"address","internalType":"address"}],"outputs":[],"stateMutability":"nonpayable"},{"type":"function","name":"owner","inputs":[],"outputs":[{"name":"","type":"address","internalType":"address"}],"stateMutability":"view"},{"type":"function","name":"registerContentFor","inputs":[{"name":"contentOwner","type":"address","internalType":"address"},{"name":"trackId","type":"bytes32","internalType":"bytes32"},{"name":"datasetOwner","type":"address","internalType":"address"},{"name":"pieceCid","type":"bytes","internalType":"bytes"},{"name":"algo","type":"uint8","internalType":"uint8"}],"outputs":[{"name":"contentId","type":"bytes32","internalType":"bytes32"}],"stateMutability":"nonpayable"},{"type":"function","name":"revokeAccessBatchFor","inputs":[{"name":"contentOwner","type":"address","internalType":"address"},{"name":"contentIds","type":"bytes32[]","internalType":"bytes32[]"},{"name":"user","type":"address","internalType":"address"}],"outputs":[],"stateMutability":"nonpayable"},{"type":"function","name":"revokeAccessFor","inputs":[{"name":"contentOwner","type":"address","internalType":"address"},{"name":"contentId","type":"bytes32","internalType":"bytes32"},{"name":"user","type":"address","internalType":"address"}],"outputs":[],"stateMutability":"nonpayable"},{"type":"function","name":"setSponsor","inputs":[{"name":"newSponsor","type":"address","internalType":"address"}],"outputs":[],"stateMutability":"nonpayable"},{"type":"function","name":"sponsor","inputs":[],"outputs":[{"name":"","type":"address","internalType":"address"}],"stateMutability":"view"},{"type":"function","name":"transferOwnership","inputs":[{"name":"newOwner","type":"address","internalType":"address"}],"outputs":[],"stateMutability":"nonpayable"},{"type":"event","name":"AccessGranted","inputs":[{"name":"contentId","type":"bytes32","indexed":true,"internalType":"bytes32"},{"name":"grantee","type":"address","indexed":true,"internalType":"address"}],"anonymous":false},{"type":"event","name":"AccessRevoked","inputs":[{"name":"contentId","type":"bytes32","indexed":true,"internalType":"bytes32"},{"name":"grantee","type":"address","indexed":true,"internalType":"address"}],"anonymous":false},{"type":"event","name":"ContentDeactivated","inputs":[{"name":"contentId","type":"bytes32","indexed":true,"internalType":"bytes32"}],"anonymous":false},{"type":"event","name":"ContentRegistered","inputs":[{"name":"trackId","type":"bytes32","indexed":true,"internalType":"bytes32"},{"name":"contentId","type":"bytes32","indexed":true,"internalType":"bytes32"},{"name":"owner","type":"address","indexed":true,"internalType":"address"},{"name":"datasetOwner","type":"address","indexed":false,"internalType":"address"},{"name":"pieceCid","type":"bytes","indexed":false,"internalType":"bytes"}],"anonymous":false},{"type":"event","name":"OwnerUpdated","inputs":[{"name":"newOwner","type":"address","indexed":true,"internalType":"address"}],"anonymous":false},{"type":"event","name":"SponsorUpdated","inputs":[{"name":"newSponsor","type":"address","indexed":true,"internalType":"address"}],"anonymous":false}],"bytecode":{"object":"0x6080346100fd57601f6110f138819003918201601f19168301916001600160401b03831184841017610101578084926020946040528339810103126100fd57516001600160a01b038116908190036100fd5780156100c9578060018060a01b031933815f5416175f55600154161760015560405190337f4ffd725fc4a22075e9ec71c59edf9c38cdeb588a91b24fc5b61388c5be41282b5f80a27fbc6ac8cce15a58ffbe2b23a9cc2620e6bb8e5b042bee95a9c10bf1a73de3e5a55f80a2610fdb90816101168239f35b60405162461bcd60e51b815260206004820152600c60248201526b3d32b9379039b837b739b7b960a11b6044820152606490fd5b5f80fd5b634e487b7160e01b5f52604160045260245ffdfe6080604081815260049081361015610015575f80fd5b5f3560e01c9283630989106114610af55750826319fbcf5814610a3c5782632dff6941146109d35782634f3cefa9146109a35782635799df5f146108e157826359753fb11461083b5782635cc15001146107cd57826377c93662146107a657826377e2e831146107635782638da5cb5b1461073d578263950bff9f14610722578263b90a0b8a146106b9578263c982f8c01461062d578263cc0de8111461059a578263d87f042a14610181578263ded6c40d1461015557505063f2fde38b146100dc575f80fd5b34610151576020366003190112610151576100f5610b0e565b5f54906001600160a01b039061010e3383851614610e3f565b16809161011c821515610ed0565b6001600160a01b031916175f9081557f4ffd725fc4a22075e9ec71c59edf9c38cdeb588a91b24fc5b61388c5be41282b9080a2005b5f80fd5b3461015157806003193601126101515761017a602092610173610b24565b9035610f09565b9051908152f35b90346101515760a03660031901126101515761019b610b0e565b916044916001600160a01b0390602480359185358481169290839003610151576064966001600160401b039288359190848311610151573660238401121561015157828101359485116101515736848685010111610151576084359060ff82168092036101515761021189600154163314610d3a565b888c16986102208a1515610ed0565b881561056a5787156105355782156105085786156104d657608087116104a15761024c60029d8a610f09565b9b8c5f5260209d8e528b5f2092600384019560ff875460481c1661047157505050916002828e9896948e9b9a989694549081168d81610460575b6001600160a01b031992831617835550600182018054909116891790550180546102af90610ba8565b601f81116103fe575b505f601f871160011461036657928592879592865f80516020610f868339815191529b9a9860609a975f92610359575b50508660011b905f198860031b1c19161790555b81544260081b610100600160481b03166001600160501b03199190911690911717600160481b1790558b519485529584018b9052838b018290529294859301848401375f828201840152601f01601f19168101030190a451908152f35b860101359050855f6102e8565b601f19871690825f52895f20915f5b8181106103cb575092889693925f80516020610f868339815191529b9a9895928860609b9895106103b0575b5050600186811b0190556102fc565b85018601355f19600389901b60f8161c191690555f806103a1565b928b9c9d509a6001899a9b9c899a8584959698999a9b01013581550194019201908f9c9b9a999897969594939291610375565b9080939597999a505f989294969852815f2090601f890160051c8201928910610456575b918d9a99979593918f99979593601f0160051c01905b81811061044557506102b8565b5f81558e9b508f9950600101610438565b9091508190610422565b61046a9114610e3f565b5f8d610286565b8f90600e8f6d616c72656164792061637469766560901b938c91519562461bcd60e51b8752860152840152820152fd5b508a9070706965636543696420746f6f206c6f6e6760781b8460118860208f519562461bcd60e51b8752860152840152820152fd5b508a906d195b5c1d1e481c1a5958d950da5960921b84600e8860208f519562461bcd60e51b8752860152840152820152fd5b508a90687a65726f20616c676f60b81b8460098860208f519562461bcd60e51b8752860152840152820152fd5b508a90703d32b937903230ba30b9b2ba27bbb732b960791b8460118860208f519562461bcd60e51b8752860152840152820152fd5b508a906b1e995c9bc81d1c9858dad25960a21b84600c8860208f519562461bcd60e51b8752860152840152820152fd5b346101515780600319360112610151576105b2610b0e565b90602435916105fe60018060a01b03926105d184600154163314610d3a565b845f5260026020525f20916003830193808554946105f460ff8760481c16610e08565b5416911614610e3f565b60ff60481b191690557f2002e9e187d2c46c824fa710dcf741b70d6a99648b1d5c6f2d6a0751fbe384975f80a2005b346101515761063b36610d06565b60015491926001600160a01b039261067b919061065b9085163314610d3a565b845f5260026020528380875f206105f460ff600383015460481c16610e08565b1691610688831515610d75565b815f526003602052805f20835f526020525f20600160ff198254161790555f80516020610f668339815191525f80a3005b34610151576106c736610d06565b60015491926001600160a01b03926106e7919061065b9085163314610d3a565b16916106f4831515610d75565b815f526003602052805f20835f526020525f2060ff1981541690555f80516020610f468339815191525f80a3005b34610151575f36600319011261015157602090516101f48152f35b34610151575f366003190112610151575f5490516001600160a01b039091168152602090f35b3461015157806003193601126101515760209161077e610b24565b90355f5260038352815f209060018060a01b03165f52825260ff815f20541690519015158152f35b34610151575f3660031901126101515760015490516001600160a01b039091168152602090f35b903461015157602036600319011261015157355f526002602052805f209061083760018060a01b0392838154169360018201541690610813600260038301549201610be0565b935194859460ff8360481c169360ff60018060401b038560081c1694169287610ca3565b0390f35b903461015157602036600319011261015157610855610b0e565b5f546001600160a01b03919061086e9083163314610e3f565b169182156108af57600180546001600160a01b03191684179055827fbc6ac8cce15a58ffbe2b23a9cc2620e6bb8e5b042bee95a9c10bf1a73de3e5a55f80a2005b906020606492519162461bcd60e51b8352820152600c60248201526b3d32b9379039b837b739b7b960a11b6044820152fd5b34610151576108ef36610b3a565b9360018060a0959394951b03918260019661090f82600154163314610d3a565b169361091c851515610d75565b61092a6101f4821115610dad565b5f5b81811061093557005b80866109438a93858b610de4565b35805f52602060028152875f206109748a60039261096960ff8583015460481c16610e08565b54168b8a1614610e3f565b825f528152875f2090835f5252865f2060ff1981541690555f80516020610f468339815191525f80a30161092c565b346101515780600319360112610151576020906109ca6109c1610b0e565b60243590610e77565b90519015158152f35b903461015157602036600319011261015157355f526002602052805f2061083760018060a01b03928383541693600184015416906003610a1560028601610be0565b940154905194859460ff8360481c169360ff60018060401b038560081c1694169287610ca3565b3461015157610a4a36610b3a565b9360018060a0959394951b039182600196610a6a82600154163314610d3a565b1693610a77851515610d75565b610a856101f4821115610dad565b5f5b818110610a9057005b8086610a9e8a93858b610de4565b35805f52602060028152875f20610ac48a60039261096960ff8583015460481c16610e08565b825f528152875f2090835f5252865f208460ff198254161790555f80516020610f668339815191525f80a301610a87565b34610151575f3660031901126101515780608060209252f35b600435906001600160a01b038216820361015157565b602435906001600160a01b038216820361015157565b6060600319820112610151576001600160a01b03600435818116810361015157926001600160401b03926024359084821161015157806023830112156101515781600401359485116101515760248560051b8301011161015157602401929160443590811681036101515790565b90600182811c92168015610bd6575b6020831014610bc257565b634e487b7160e01b5f52602260045260245ffd5b91607f1691610bb7565b90604051915f908054610bf281610ba8565b908186526020926001916001811690815f14610c855750600114610c4c575b50505050829003601f01601f191682016001600160401b03811183821017610c3857604052565b634e487b7160e01b5f52604160045260245ffd5b909293505f52825f2091835f935b838510610c7157505050508301015f808080610c11565b805488860183015293019284908201610c5a565b60ff191688860152505050151560051b84010190505f808080610c11565b9491602060a09598979460ff9360e0936001808a1b038092168a52168289015260c0604089015280519182918260c08b0152018389015e5f828289010152601f80199101168601019616606085015260018060401b031660808401521515910152565b6060906003190112610151576001600160a01b03600435818116810361015157916024359160443590811681036101515790565b15610d4157565b60405162461bcd60e51b815260206004820152600c60248201526b1d5b985d5d1a1bdc9a5e995960a21b6044820152606490fd5b15610d7c57565b60405162461bcd60e51b81526020600482015260096024820152683d32b937903ab9b2b960b91b6044820152606490fd5b15610db457565b60405162461bcd60e51b8152602060048201526008602482015267746f6f206d616e7960c01b6044820152606490fd5b9190811015610df45760051b0190565b634e487b7160e01b5f52603260045260245ffd5b15610e0f57565b60405162461bcd60e51b8152602060048201526008602482015267696e61637469766560c01b6044820152606490fd5b15610e4657565b60405162461bcd60e51b81526020600482015260096024820152683737ba1037bbb732b960b91b6044820152606490fd5b905f52600260205260405f2060ff600382015460481c1615610eca57546001600160a01b0391821691168114908115610eae575090565b9050600360205260405f20905f5260205260ff60405f20541690565b50505f90565b15610ed757565b60405162461bcd60e51b815260206004820152600a6024820152693d32b9379037bbb732b960b11b6044820152606490fd5b60408051602081019283526001600160a01b0390931683820152825290606081016001600160401b03811182821017610c38576040525190209056fee7906b77ea165c70ad8268ce5b59b778a198edf9c1ae4118378eefdc76fce5f4f20afd7b032307b01752ee91e3f6a4b83a5b4ab631f9ab279322fd45634382c0dd3892509f35a785b46f9b7810a17cffe6389b5fd154ae53e1f16a541978a763a264697066735822122064500a1a91893cb609661dba4c539ebfd59a2f16301bfa3312de0ee08832191164736f6c63430008190033","linkReferences":{}},"methodIdentifiers":{"MAX_BATCH()":"950bff9f","MAX_CID()":"09891061","access(bytes32,address)":"77e2e831","canAccess(address,bytes32)":"4f3cefa9","computeContentId(bytes32,address)":"ded6c40d","content(bytes32)":"2dff6941","deactivateFor(address,bytes32)":"cc0de811","getContent(bytes32)":"5cc15001","grantAccessBatchFor(address,bytes32[],address)":"19fbcf58","grantAccessFor(address,bytes32,address)":"c982f8c0","owner()":"8da5cb5b","registerContentFor(address,bytes32,address,bytes,uint8)":"d87f042a","revokeAccessBatchFor(address,bytes32[],address)":"5799df5f","revokeAccessFor(address,bytes32,address)":"b90a0b8a","setSponsor(address)":"59753fb1","sponsor()":"77c93662","transferOwnership(address)":"f2fde38b"},"id":45}