{"abi":[{"type":"constructor","inputs":[{"name":"_sponsor","type":"address","internalType":"address"}],"stateMutability":"nonpayable"},{"type":"function","name":"MAX_CID","inputs":[],"outputs":[{"name":"","type":"uint256","internalType":"uint256"}],"stateMutability":"view"},{"type":"function","name":"MAX_NAME","inputs":[],"outputs":[{"name":"","type":"uint256","internalType":"uint256"}],"stateMutability":"view"},{"type":"function","name":"MAX_TRACKS","inputs":[],"outputs":[{"name":"","type":"uint256","internalType":"uint256"}],"stateMutability":"view"},{"type":"function","name":"VIS_PRIVATE","inputs":[],"outputs":[{"name":"","type":"uint8","internalType":"uint8"}],"stateMutability":"view"},{"type":"function","name":"VIS_PUBLIC","inputs":[],"outputs":[{"name":"","type":"uint8","internalType":"uint8"}],"stateMutability":"view"},{"type":"function","name":"VIS_UNLISTED","inputs":[],"outputs":[{"name":"","type":"uint8","internalType":"uint8"}],"stateMutability":"view"},{"type":"function","name":"consumeNonce","inputs":[{"name":"user","type":"address","internalType":"address"},{"name":"expectedNonce","type":"uint256","internalType":"uint256"}],"outputs":[],"stateMutability":"nonpayable"},{"type":"function","name":"createPlaylistFor","inputs":[{"name":"playlistOwner","type":"address","internalType":"address"},{"name":"name","type":"string","internalType":"string"},{"name":"coverCid","type":"string","internalType":"string"},{"name":"visibility","type":"uint8","internalType":"uint8"},{"name":"trackIds","type":"bytes32[]","internalType":"bytes32[]"}],"outputs":[{"name":"playlistId","type":"bytes32","internalType":"bytes32"}],"stateMutability":"nonpayable"},{"type":"function","name":"deletePlaylist","inputs":[{"name":"playlistId","type":"bytes32","internalType":"bytes32"}],"outputs":[],"stateMutability":"nonpayable"},{"type":"function","name":"getPlaylist","inputs":[{"name":"playlistId","type":"bytes32","internalType":"bytes32"}],"outputs":[{"name":"playlistOwner","type":"address","internalType":"address"},{"name":"visibility","type":"uint8","internalType":"uint8"},{"name":"exists","type":"bool","internalType":"bool"},{"name":"version","type":"uint32","internalType":"uint32"},{"name":"trackCount","type":"uint32","internalType":"uint32"},{"name":"createdAt","type":"uint64","internalType":"uint64"},{"name":"updatedAt","type":"uint64","internalType":"uint64"},{"name":"tracksHash","type":"bytes32","internalType":"bytes32"}],"stateMutability":"view"},{"type":"function","name":"owner","inputs":[],"outputs":[{"name":"","type":"address","internalType":"address"}],"stateMutability":"view"},{"type":"function","name":"ownerNonces","inputs":[{"name":"","type":"address","internalType":"address"}],"outputs":[{"name":"","type":"uint64","internalType":"uint64"}],"stateMutability":"view"},{"type":"function","name":"playlists","inputs":[{"name":"","type":"bytes32","internalType":"bytes32"}],"outputs":[{"name":"owner","type":"address","internalType":"address"},{"name":"visibility","type":"uint8","internalType":"uint8"},{"name":"exists","type":"bool","internalType":"bool"},{"name":"version","type":"uint32","internalType":"uint32"},{"name":"trackCount","type":"uint32","internalType":"uint32"},{"name":"createdAt","type":"uint64","internalType":"uint64"},{"name":"updatedAt","type":"uint64","internalType":"uint64"},{"name":"tracksHash","type":"bytes32","internalType":"bytes32"}],"stateMutability":"view"},{"type":"function","name":"setSponsor","inputs":[{"name":"newSponsor","type":"address","internalType":"address"}],"outputs":[],"stateMutability":"nonpayable"},{"type":"function","name":"setTracks","inputs":[{"name":"playlistId","type":"bytes32","internalType":"bytes32"},{"name":"trackIds","type":"bytes32[]","internalType":"bytes32[]"}],"outputs":[],"stateMutability":"nonpayable"},{"type":"function","name":"sponsor","inputs":[],"outputs":[{"name":"","type":"address","internalType":"address"}],"stateMutability":"view"},{"type":"function","name":"transferOwnership","inputs":[{"name":"newOwner","type":"address","internalType":"address"}],"outputs":[],"stateMutability":"nonpayable"},{"type":"function","name":"updateMeta","inputs":[{"name":"playlistId","type":"bytes32","internalType":"bytes32"},{"name":"name","type":"string","internalType":"string"},{"name":"coverCid","type":"string","internalType":"string"},{"name":"visibility","type":"uint8","internalType":"uint8"}],"outputs":[],"stateMutability":"nonpayable"},{"type":"function","name":"userNonces","inputs":[{"name":"","type":"address","internalType":"address"}],"outputs":[{"name":"","type":"uint256","internalType":"uint256"}],"stateMutability":"view"},{"type":"event","name":"OwnerUpdated","inputs":[{"name":"newOwner","type":"address","indexed":true,"internalType":"address"}],"anonymous":false},{"type":"event","name":"PlaylistCreated","inputs":[{"name":"playlistId","type":"bytes32","indexed":true,"internalType":"bytes32"},{"name":"playlistOwner","type":"address","indexed":true,"internalType":"address"},{"name":"version","type":"uint32","indexed":false,"internalType":"uint32"},{"name":"visibility","type":"uint8","indexed":false,"internalType":"uint8"},{"name":"trackCount","type":"uint32","indexed":false,"internalType":"uint32"},{"name":"tracksHash","type":"bytes32","indexed":false,"internalType":"bytes32"},{"name":"createdAt","type":"uint64","indexed":false,"internalType":"uint64"},{"name":"name","type":"string","indexed":false,"internalType":"string"},{"name":"coverCid","type":"string","indexed":false,"internalType":"string"}],"anonymous":false},{"type":"event","name":"PlaylistDeleted","inputs":[{"name":"playlistId","type":"bytes32","indexed":true,"internalType":"bytes32"},{"name":"version","type":"uint32","indexed":false,"internalType":"uint32"},{"name":"updatedAt","type":"uint64","indexed":false,"internalType":"uint64"}],"anonymous":false},{"type":"event","name":"PlaylistMetaUpdated","inputs":[{"name":"playlistId","type":"bytes32","indexed":true,"internalType":"bytes32"},{"name":"version","type":"uint32","indexed":false,"internalType":"uint32"},{"name":"visibility","type":"uint8","indexed":false,"internalType":"uint8"},{"name":"updatedAt","type":"uint64","indexed":false,"internalType":"uint64"},{"name":"name","type":"string","indexed":false,"internalType":"string"},{"name":"coverCid","type":"string","indexed":false,"internalType":"string"}],"anonymous":false},{"type":"event","name":"PlaylistTracksSet","inputs":[{"name":"playlistId","type":"bytes32","indexed":true,"internalType":"bytes32"},{"name":"version","type":"uint32","indexed":false,"internalType":"uint32"},{"name":"trackCount","type":"uint32","indexed":false,"internalType":"uint32"},{"name":"tracksHash","type":"bytes32","indexed":false,"internalType":"bytes32"},{"name":"updatedAt","type":"uint64","indexed":false,"internalType":"uint64"},{"name":"trackIds","type":"bytes32[]","indexed":false,"internalType":"bytes32[]"}],"anonymous":false},{"type":"event","name":"SponsorUpdated","inputs":[{"name":"newSponsor","type":"address","indexed":true,"internalType":"address"}],"anonymous":false}],"bytecode":{"object":"0x6080346100fd57601f61120138819003918201601f19168301916001600160401b03831184841017610101578084926020946040528339810103126100fd57516001600160a01b038116908190036100fd5780156100c9578060018060a01b031933815f5416175f55600154161760015560405190337f4ffd725fc4a22075e9ec71c59edf9c38cdeb588a91b24fc5b61388c5be41282b5f80a27fbc6ac8cce15a58ffbe2b23a9cc2620e6bb8e5b042bee95a9c10bf1a73de3e5a55f80a26110eb90816101168239f35b60405162461bcd60e51b815260206004820152600c60248201526b3d32b9379039b837b739b7b960a11b6044820152606490fd5b5f80fd5b634e487b7160e01b5f52604160045260245ffdfe6080806040526004361015610012575f80fd5b5f3560e01c9081630989106114610d4c5750806327db337c14610c4d5780632f7801f414610c15578063447ad29914610bfa57806348de925b14610bdf5780634d9fe9791461070057806356916b04146106c057806359753fb11461061b578063756bf2541461060057806377c93662146105d85780637cda7655146104d95780638da5cb5b146105b15780639f20060f14610595578063b7a97dd01461057b578063d4aa96e9146104d9578063d9b2c5a114610424578063ea0078d81461037a578063ec4c1a80146101935763f2fde38b146100ed575f80fd5b3461018f57602036600319011261018f57610106610d95565b5f54906001600160a01b039061011f3383851614610f40565b1690811561015d576001600160a01b03191681175f9081557f4ffd725fc4a22075e9ec71c59edf9c38cdeb588a91b24fc5b61388c5be41282b9080a2005b60405162461bcd60e51b815260206004820152600a6024820152693d32b9379037bbb732b960b11b6044820152606490fd5b5f80fd5b3461018f57608036600319011261018f576004356001600160401b0360243581811161018f576101c7903690600401610dab565b9060443583811161018f576101e0903690600401610dab565b90916101ea610dd8565b9361020060018060a01b03600154163314610de8565b865f52600260205260405f2080549661021e60ff8960a81c16610e23565b60408311610345576080851161030c5760ff871690600282116102d6574216809263ffffffff809a60b01c1661025390610e5b565b9861025e9082610f03565b6102688982610e70565b6001019061027591610eb6565b604051978897168752602087015260408601526060850160a0905260a085019061029e92610f20565b9083820360808501526102b092610f20565b037fee96f1638dfcd56f7bb0abb8ec08865b23e96bf36a56432a6bdef7f2c819b58c91a2005b60405162461bcd60e51b815260206004820152600e60248201526d626164207669736962696c69747960901b6044820152606490fd5b60405162461bcd60e51b8152602060048201526011602482015270636f76657243696420746f6f206c6f6e6760781b6044820152606490fd5b60405162461bcd60e51b815260206004820152600d60248201526c6e616d6520746f6f206c6f6e6760981b6044820152606490fd5b3461018f57604036600319011261018f57610393610d95565b600154602435916001600160a01b03916103b09083163314610de8565b16805f5260046020528160405f2054036103f357600182018092116103df575f52600460205260405f20555f80f35b634e487b7160e01b5f52601160045260245ffd5b60405162461bcd60e51b8152602060048201526009602482015268626164206e6f6e636560b81b6044820152606490fd5b3461018f57602036600319011261018f5760043561044d60018060a01b03600154163314610de8565b805f5260026020527f45ff90b98002a40ff0934d69ffb0c2e8a482cb8c9bbf15abcedc50f0b7a73a396040805f2080549061048d60ff8360a81c16610e23565b600180841b034216906104cb82600163ffffffff936104b0858860b01c16610e5b565b60ff60a81b1990971681556104c58782610e70565b01610eb6565b8351921682526020820152a2005b3461018f57602036600319011261018f576004355f9081526002602081815260409283902080546001820154919093015484516001600160a01b038516815260ff60a086811c82169583019590955260a886901c1615158187015263ffffffff60b086901c8116606083015260d09590951c90941660808501526001600160401b0380831693850193909352931c1660c082015260e081019190915261010090f35b3461018f575f36600319011261018f5760206040515f8152f35b3461018f575f36600319011261018f5760206040516101f48152f35b3461018f575f36600319011261018f575f546040516001600160a01b039091168152602090f35b3461018f575f36600319011261018f576001546040516001600160a01b039091168152602090f35b3461018f575f36600319011261018f57602060405160408152f35b3461018f57602036600319011261018f57610634610d95565b5f546001600160a01b03919061064d9083163314610f40565b16801561068c57600180546001600160a01b031916821790557fbc6ac8cce15a58ffbe2b23a9cc2620e6bb8e5b042bee95a9c10bf1a73de3e5a55f80a2005b60405162461bcd60e51b815260206004820152600c60248201526b3d32b9379039b837b739b7b960a11b6044820152606490fd5b3461018f57602036600319011261018f576001600160a01b036106e1610d95565b165f526003602052602060018060401b0360405f205416604051908152f35b3461018f5760a036600319011261018f57610719610d95565b60249081356001600160401b03811161018f5761073a903690600401610dab565b91906044356001600160401b03811161018f5761075b903690600401610dab565b92610764610dd8565b906084356001600160401b03811161018f57610784903690600401610d65565b95909461079c60018060a01b03600154163314610de8565b6001600160a01b03831615610ba65760408811610b725760808211610b3a57600260ff851611610b05576107d08787610f78565b6001600160a01b0383165f908152600360205260409020805498906001600160401b03808b1614610af2576001600160401b03198a166001600160401b039a8b16600181018c1691909117909155604080516001600160a01b0387166020820152428c16918101919091526060808201929092529081529860808a01908111908a1117610adf5760808901604052885160208a012098895f52600260205260ff60405f205460a81c16610aa7575061088988888b61100e565b604051909a6001600160401b03610100830190811190831117610a94575060ff8b96610a4d610a89975f805160206110968339815191529b9760209f8f9e9c988f9863ffffffff8f8a610a34956101007f7a2154ab35d26c1396dcd0e535ee67a8f6c0c0d4ea64f689726204f3af35db739d0160405260018060a01b03891682528b8b1660208301526001604083015260016060830152838316608083015260018060401b03421660a083015260018060401b03421660c083015260e08201528c5f52602060029052600260e060405f209260018060a01b0381511660018060a01b031985541617845560208e610984918301511685610f03565b604081015115158454908f60a81b9060a81b16908f60a81b19161784556109b18660608301511685610e70565b6109c18660808301511685610e93565b60a08101516001850180546001600160401b0319166001600160401b0392831617815560c08301516109f4921690610eb6565b0151910155604051998a9960018b521660208a01521660408801528d606088015260018060401b034216608088015260e060a088015260e0870191610f20565b84810360c08601526001600160a01b0390921697610f20565b0390a36040519384936001855263ffffffff82168a860152604085015260018060401b034216606085015260a0608085015260a0840191610edf565b0390a2604051908152f35b634e487b7160e01b5f9081526041600452fd5b608060649162461bcd60e51b8282015260206084820152600e60a48201526d616c72656164792065786973747360901b60c482015201fd5b89634e487b7160e01b5f5260416004525ffd5b8a634e487b7160e01b5f5260116004525ffd5b60405162461bcd60e51b815260206004820152600e818b01526d626164207669736962696c69747960901b6044820152606490fd5b60405162461bcd60e51b8152602060048201526011818b015270636f76657243696420746f6f206c6f6e6760781b6044820152606490fd5b60405162461bcd60e51b815260206004820152600d818b01526c6e616d6520746f6f206c6f6e6760981b6044820152606490fd5b60405162461bcd60e51b8152602060048201526012818b0152713d32b93790383630bcb634b9ba27bbb732b960711b6044820152606490fd5b3461018f575f36600319011261018f57602060405160018152f35b3461018f575f36600319011261018f57602060405160028152f35b3461018f57602036600319011261018f576001600160a01b03610c36610d95565b165f526004602052602060405f2054604051908152f35b3461018f57604036600319011261018f576004356024356001600160401b0380821161018f57610d47610c925f80516020611096833981519152933690600401610d65565b9190610ca960018060a01b03600154163314610de8565b855f52600260205260405f2092835494610cc860ff8760a81c16610e23565b610cd28284610f78565b4216610ce763ffffffff809760b01c16610e5b565b94610cf383858b61100e565b90610cfe8782610e70565b81600289861692610d0f8482610e93565b610d1c8660018301610eb6565b015560405197889716875260208701526040860152606085015260a0608085015260a0840191610edf565b0390a2005b3461018f575f36600319011261018f5780608060209252f35b9181601f8401121561018f578235916001600160401b03831161018f576020808501948460051b01011161018f57565b600435906001600160a01b038216820361018f57565b9181601f8401121561018f578235916001600160401b03831161018f576020838186019501011161018f57565b6064359060ff8216820361018f57565b15610def57565b60405162461bcd60e51b815260206004820152600c60248201526b1d5b985d5d1a1bdc9a5e995960a21b6044820152606490fd5b15610e2a57565b60405162461bcd60e51b81526020600482015260096024820152681b9bdd08199bdd5b9960ba1b6044820152606490fd5b90600163ffffffff809316019182116103df57565b805463ffffffff60b01b191660b09290921b63ffffffff60b01b16919091179055565b805463ffffffff60d01b191660d09290921b63ffffffff60d01b16919091179055565b8054600160401b600160801b03191660409290921b600160401b600160801b0316919091179055565b81835290916001600160fb1b03831161018f5760209260051b809284830137010190565b805460ff60a01b191660a09290921b60ff60a01b16919091179055565b908060209392818452848401375f828201840152601f01601f1916010190565b15610f4757565b60405162461bcd60e51b81526020600482015260096024820152683737ba1037bbb732b960b91b6044820152606490fd5b6101f48211610fd7575f5b828110610f8f57505050565b8060051b82013515610fa357600101610f83565b60405162461bcd60e51b815260206004820152600c60248201526b1e995c9bc81d1c9858dad25960a21b6044820152606490fd5b60405162461bcd60e51b815260206004820152600f60248201526e746f6f206d616e7920747261636b7360881b6044820152606490fd5b9161105560405192839260208401957feb680221e491e1e970b384547bb938b44de0e16750f1bd830e9f671c9026d203875260408501526060808501526080840191610edf565b601f199190038181018352601f011681016001600160401b038111828210176110815760405251902090565b634e487b7160e01b5f52604160045260245ffdfea5e1bde741e61093f4b3e82bd40e2baef4f37a03777d646f723bd3026b4869a2a264697066735822122062b7c31f30388a2a9b1c5c22611d9bd68df391e288680ac42fc3226f86cd8e6764736f6c63430008190033","linkReferences":{}},"methodIdentifiers":{"MAX_CID()":"09891061","MAX_NAME()":"756bf254","MAX_TRACKS()":"9f20060f","VIS_PRIVATE()":"447ad299","VIS_PUBLIC()":"b7a97dd0","VIS_UNLISTED()":"48de925b","consumeNonce(address,uint256)":"ea0078d8","createPlaylistFor(address,string,string,uint8,bytes32[])":"4d9fe979","deletePlaylist(bytes32)":"d9b2c5a1","getPlaylist(bytes32)":"d4aa96e9","owner()":"8da5cb5b","ownerNonces(address)":"56916b04","playlists(bytes32)":"7cda7655","setSponsor(address)":"59753fb1","setTracks(bytes32,bytes32[])":"27db337c","sponsor()":"77c93662","transferOwnership(address)":"f2fde38b","updateMeta(bytes32,string,string,uint8)":"ec4c1a80","userNonces(address)":"2f7801f4"},"id":21}