{"abi":[{"type":"constructor","inputs":[],"stateMutability":"nonpayable"},{"type":"function","name":"MAX_CID","inputs":[],"outputs":[{"name":"","type":"uint256","internalType":"uint256"}],"stateMutability":"view"},{"type":"function","name":"MAX_NAME","inputs":[],"outputs":[{"name":"","type":"uint256","internalType":"uint256"}],"stateMutability":"view"},{"type":"function","name":"MAX_TRACKS","inputs":[],"outputs":[{"name":"","type":"uint256","internalType":"uint256"}],"stateMutability":"view"},{"type":"function","name":"VIS_PRIVATE","inputs":[],"outputs":[{"name":"","type":"uint8","internalType":"uint8"}],"stateMutability":"view"},{"type":"function","name":"VIS_PUBLIC","inputs":[],"outputs":[{"name":"","type":"uint8","internalType":"uint8"}],"stateMutability":"view"},{"type":"function","name":"VIS_UNLISTED","inputs":[],"outputs":[{"name":"","type":"uint8","internalType":"uint8"}],"stateMutability":"view"},{"type":"function","name":"createPlaylist","inputs":[{"name":"name","type":"string","internalType":"string"},{"name":"coverCid","type":"string","internalType":"string"},{"name":"visibility","type":"uint8","internalType":"uint8"},{"name":"trackIds","type":"bytes32[]","internalType":"bytes32[]"}],"outputs":[{"name":"playlistId","type":"bytes32","internalType":"bytes32"}],"stateMutability":"nonpayable"},{"type":"function","name":"deletePlaylist","inputs":[{"name":"playlistId","type":"bytes32","internalType":"bytes32"}],"outputs":[],"stateMutability":"nonpayable"},{"type":"function","name":"getPlaylist","inputs":[{"name":"playlistId","type":"bytes32","internalType":"bytes32"}],"outputs":[{"name":"playlistOwner","type":"address","internalType":"address"},{"name":"visibility","type":"uint8","internalType":"uint8"},{"name":"exists","type":"bool","internalType":"bool"},{"name":"version","type":"uint32","internalType":"uint32"},{"name":"trackCount","type":"uint32","internalType":"uint32"},{"name":"createdAt","type":"uint64","internalType":"uint64"},{"name":"updatedAt","type":"uint64","internalType":"uint64"},{"name":"tracksHash","type":"bytes32","internalType":"bytes32"}],"stateMutability":"view"},{"type":"function","name":"owner","inputs":[],"outputs":[{"name":"","type":"address","internalType":"address"}],"stateMutability":"view"},{"type":"function","name":"ownerNonces","inputs":[{"name":"","type":"address","internalType":"address"}],"outputs":[{"name":"","type":"uint64","internalType":"uint64"}],"stateMutability":"view"},{"type":"function","name":"playlists","inputs":[{"name":"","type":"bytes32","internalType":"bytes32"}],"outputs":[{"name":"owner","type":"address","internalType":"address"},{"name":"visibility","type":"uint8","internalType":"uint8"},{"name":"exists","type":"bool","internalType":"bool"},{"name":"version","type":"uint32","internalType":"uint32"},{"name":"trackCount","type":"uint32","internalType":"uint32"},{"name":"createdAt","type":"uint64","internalType":"uint64"},{"name":"updatedAt","type":"uint64","internalType":"uint64"},{"name":"tracksHash","type":"bytes32","internalType":"bytes32"}],"stateMutability":"view"},{"type":"function","name":"setTracks","inputs":[{"name":"playlistId","type":"bytes32","internalType":"bytes32"},{"name":"trackIds","type":"bytes32[]","internalType":"bytes32[]"}],"outputs":[],"stateMutability":"nonpayable"},{"type":"function","name":"transferOwnership","inputs":[{"name":"newOwner","type":"address","internalType":"address"}],"outputs":[],"stateMutability":"nonpayable"},{"type":"function","name":"updateMeta","inputs":[{"name":"playlistId","type":"bytes32","internalType":"bytes32"},{"name":"name","type":"string","internalType":"string"},{"name":"coverCid","type":"string","internalType":"string"},{"name":"visibility","type":"uint8","internalType":"uint8"}],"outputs":[],"stateMutability":"nonpayable"},{"type":"event","name":"OwnerUpdated","inputs":[{"name":"newOwner","type":"address","indexed":true,"internalType":"address"}],"anonymous":false},{"type":"event","name":"PlaylistCreated","inputs":[{"name":"playlistId","type":"bytes32","indexed":true,"internalType":"bytes32"},{"name":"playlistOwner","type":"address","indexed":true,"internalType":"address"},{"name":"version","type":"uint32","indexed":false,"internalType":"uint32"},{"name":"visibility","type":"uint8","indexed":false,"internalType":"uint8"},{"name":"trackCount","type":"uint32","indexed":false,"internalType":"uint32"},{"name":"tracksHash","type":"bytes32","indexed":false,"internalType":"bytes32"},{"name":"createdAt","type":"uint64","indexed":false,"internalType":"uint64"},{"name":"name","type":"string","indexed":false,"internalType":"string"},{"name":"coverCid","type":"string","indexed":false,"internalType":"string"}],"anonymous":false},{"type":"event","name":"PlaylistDeleted","inputs":[{"name":"playlistId","type":"bytes32","indexed":true,"internalType":"bytes32"},{"name":"version","type":"uint32","indexed":false,"internalType":"uint32"},{"name":"updatedAt","type":"uint64","indexed":false,"internalType":"uint64"}],"anonymous":false},{"type":"event","name":"PlaylistMetaUpdated","inputs":[{"name":"playlistId","type":"bytes32","indexed":true,"internalType":"bytes32"},{"name":"version","type":"uint32","indexed":false,"internalType":"uint32"},{"name":"visibility","type":"uint8","indexed":false,"internalType":"uint8"},{"name":"updatedAt","type":"uint64","indexed":false,"internalType":"uint64"},{"name":"name","type":"string","indexed":false,"internalType":"string"},{"name":"coverCid","type":"string","indexed":false,"internalType":"string"}],"anonymous":false},{"type":"event","name":"PlaylistTracksSet","inputs":[{"name":"playlistId","type":"bytes32","indexed":true,"internalType":"bytes32"},{"name":"version","type":"uint32","indexed":false,"internalType":"uint32"},{"name":"trackCount","type":"uint32","indexed":false,"internalType":"uint32"},{"name":"tracksHash","type":"bytes32","indexed":false,"internalType":"bytes32"},{"name":"updatedAt","type":"uint64","indexed":false,"internalType":"uint64"},{"name":"trackIds","type":"bytes32[]","indexed":false,"internalType":"bytes32[]"}],"anonymous":false}],"bytecode":{"object":"0x60808060405234604d575f80546001600160a01b031916339081178255907f4ffd725fc4a22075e9ec71c59edf9c38cdeb588a91b24fc5b61388c5be41282b9080a2610e1b90816100528239f35b5f80fdfe6080806040526004361015610012575f80fd5b5f3560e01c9081630989106114610af15750806327db337c146109f6578063413bcca71461059e578063447ad2991461058357806348de925b1461056857806356916b0414610524578063756bf254146105095780637cda76551461040a5780638da5cb5b146104e25780639f20060f146104c6578063b7a97dd0146104ac578063d4aa96e91461040a578063d9b2c5a11461035b578063ec4c1a80146101695763f2fde38b146100c1575f80fd5b34610165576020366003190112610165576004356001600160a01b0381811691829003610165576100f75f549182163314610b9f565b8115610133576001600160a01b03191681175f9081557f4ffd725fc4a22075e9ec71c59edf9c38cdeb588a91b24fc5b61388c5be41282b9080a2005b60405162461bcd60e51b815260206004820152600a6024820152693d32b9379037bbb732b960b11b6044820152606490fd5b5f80fd5b34610165576080366003190112610165576004356001600160401b036024358181116101655761019d903690600401610b3a565b90604435838111610165576101b6903690600401610b3a565b90916064359360ff851680860361016557875f52602090600182526101f860405f20546101e860ff8260a81c16610b67565b6001600160a01b03163314610b9f565b885f526001825260405f20976040841161032657608086116102ed57600282116102b7574216918263ffffffff998a815460b01c1661023690610bd7565b996102419082610c7f565b61024b8a82610bec565b6001019061025891610c32565b60405198899816885287015260408601526060850160a0905260a085019061027f92610c9c565b90838203608085015261029192610c9c565b037fee96f1638dfcd56f7bb0abb8ec08865b23e96bf36a56432a6bdef7f2c819b58c91a2005b60405162461bcd60e51b815260048101849052600e60248201526d626164207669736962696c69747960901b6044820152606490fd5b60405162461bcd60e51b8152600481018490526011602482015270636f76657243696420746f6f206c6f6e6760781b6044820152606490fd5b60405162461bcd60e51b815260048101849052600d60248201526c6e616d6520746f6f206c6f6e6760981b6044820152606490fd5b3461016557602036600319011261016557600435805f52600160205261038e60405f20546101e860ff8260a81c16610b67565b805f5260016020527f45ff90b98002a40ff0934d69ffb0c2e8a482cb8c9bbf15abcedc50f0b7a73a396040805f20600180831b0342168154916103fc82600163ffffffff936103e1858860b01c16610bd7565b60ff60a81b1990971681556103f68782610bec565b01610c32565b8351921682526020820152a2005b34610165576020366003190112610165576004355f9081526001602081815260409283902080549281015460029091015484516001600160a01b038516815260ff60a086811c82169583019590955260a886901c1615158187015263ffffffff60b086901c8116606083015260d09590951c90941660808501526001600160401b0380831693850193909352931c1660c082015260e081019190915261010090f35b34610165575f3660031901126101655760206040515f8152f35b34610165575f3660031901126101655760206040516101f48152f35b34610165575f366003190112610165575f546040516001600160a01b039091168152602090f35b34610165575f36600319011261016557602060405160408152f35b34610165576020366003190112610165576004356001600160a01b03811690819003610165575f526002602052602060018060401b0360405f205416604051908152f35b34610165575f36600319011261016557602060405160018152f35b34610165575f36600319011261016557602060405160028152f35b34610165576080366003190112610165576004356001600160401b038111610165576105ce903690600401610b3a565b906024356001600160401b038111610165576105ee903690600401610b3a565b906044359060ff82168203610165576064356001600160401b0381116101655761061c903690600401610b0a565b939091604087116109c1576080821161098857600260ff851611610952576106448584610cbc565b335f908152600260205260409020805497906001600160401b03808a161461093e576001600160401b031989166001600160401b03998a16600181018b169190911790915560408051336020820152428b16918101919091526060808201929092529081529760808901908111908911176108f257608088016040528751602089012097885f52600160205260ff60405f205460a81c1661090657506106eb86858a610d52565b604051909590926001600160401b036101008501908111908511176108f2578998846101008b9601604052338152886020820160ff861681526040830190600182528c6060850160018152608086019163ffffffff16825260a0860193600160401b600190034216855260c0870193600160401b600190034216855260e088019687528c5f52600160205260405f2097600160a01b60019003905116600160a01b60019003198954161788555160ff166107a59088610c7f565b51865460ff60a81b191690151560a81b60ff60a81b16178655516107cf9063ffffffff1686610bec565b5163ffffffff166107e09085610c0f565b90516001840180546001600160401b0319166001600160401b03928316178155915161080e92911690610c32565b5190600201556040519384936001855260ff16602085015263ffffffff8a166040850152886060850152600160401b600190034216608085015260a0840160e0905260e084019061085e92610c9c565b82810360c0840152339561087192610c9c565b037f7a2154ab35d26c1396dcd0e535ee67a8f6c0c0d4ea64f689726204f3af35db7391a36040519283926001845263ffffffff821660208501526040840152600160401b60019003421660608401526080830160a0905260a08301906108d692610c5b565b035f80516020610dc683398151915291a2604051908152602090f35b634e487b7160e01b5f52604160045260245ffd5b608060649162461bcd60e51b8282015260206084820152600e60a48201526d616c72656164792065786973747360901b60c482015201fd5b634e487b7160e01b5f52601160045260245ffd5b60405162461bcd60e51b815260206004820152600e60248201526d626164207669736962696c69747960901b6044820152606490fd5b60405162461bcd60e51b8152602060048201526011602482015270636f76657243696420746f6f206c6f6e6760781b6044820152606490fd5b60405162461bcd60e51b815260206004820152600d60248201526c6e616d6520746f6f206c6f6e6760981b6044820152606490fd5b34610165576040366003190112610165576004356001600160401b03602435818111610165575f80516020610dc683398151915291610a3c610aec923690600401610b0a565b9290855f526001602052610a5d60405f20546101e860ff8260a81c16610b67565b855f52600160205260405f2092610a748583610cbc565b42169363ffffffff94610a8c86865460b01c16610bd7565b94610a9883858b610d52565b90610aa38782610bec565b81600289861692610ab48482610c0f565b610ac18660018301610c32565b015560405197889716875260208701526040860152606085015260a0608085015260a0840191610c5b565b0390a2005b34610165575f3660031901126101655780608060209252f35b9181601f84011215610165578235916001600160401b038311610165576020808501948460051b01011161016557565b9181601f84011215610165578235916001600160401b038311610165576020838186019501011161016557565b15610b6e57565b60405162461bcd60e51b81526020600482015260096024820152681b9bdd08199bdd5b9960ba1b6044820152606490fd5b15610ba657565b60405162461bcd60e51b81526020600482015260096024820152683737ba1037bbb732b960b91b6044820152606490fd5b90600163ffffffff8093160191821161093e57565b805463ffffffff60b01b191660b09290921b63ffffffff60b01b16919091179055565b805463ffffffff60d01b191660d09290921b63ffffffff60d01b16919091179055565b8054600160401b600160801b03191660409290921b600160401b600160801b0316919091179055565b81835290916001600160fb1b0383116101655760209260051b809284830137010190565b805460ff60a01b191660a09290921b60ff60a01b16919091179055565b908060209392818452848401375f828201840152601f01601f1916010190565b6101f48211610d1b575f5b828110610cd357505050565b8060051b82013515610ce757600101610cc7565b60405162461bcd60e51b815260206004820152600c60248201526b1e995c9bc81d1c9858dad25960a21b6044820152606490fd5b60405162461bcd60e51b815260206004820152600f60248201526e746f6f206d616e7920747261636b7360881b6044820152606490fd5b91610d9960405192839260208401957feb680221e491e1e970b384547bb938b44de0e16750f1bd830e9f671c9026d203875260408501526060808501526080840191610c5b565b601f199190038181018352601f011681016001600160401b038111828210176108f2576040525190209056fea5e1bde741e61093f4b3e82bd40e2baef4f37a03777d646f723bd3026b4869a2a2646970667358221220f0f06cd823d82565f66598a516e8e6c889dcde9e8c3063506602eb93c5a84dcf64736f6c63430008190033","linkReferences":{}},"methodIdentifiers":{"MAX_CID()":"09891061","MAX_NAME()":"756bf254","MAX_TRACKS()":"9f20060f","VIS_PRIVATE()":"447ad299","VIS_PUBLIC()":"b7a97dd0","VIS_UNLISTED()":"48de925b","createPlaylist(string,string,uint8,bytes32[])":"413bcca7","deletePlaylist(bytes32)":"d9b2c5a1","getPlaylist(bytes32)":"d4aa96e9","owner()":"8da5cb5b","ownerNonces(address)":"56916b04","playlists(bytes32)":"7cda7655","setTracks(bytes32,bytes32[])":"27db337c","transferOwnership(address)":"f2fde38b","updateMeta(bytes32,string,string,uint8)":"ec4c1a80"},"id":48}