{"abi":[{"type":"function","name":"MAX_BATCH","inputs":[],"outputs":[{"name":"","type":"uint256","internalType":"uint256"}],"stateMutability":"view"},{"type":"function","name":"follow","inputs":[{"name":"followee","type":"address","internalType":"address"}],"outputs":[],"stateMutability":"nonpayable"},{"type":"function","name":"followBatch","inputs":[{"name":"followees","type":"address[]","internalType":"address[]"}],"outputs":[],"stateMutability":"nonpayable"},{"type":"function","name":"followBatchFor","inputs":[{"name":"follower","type":"address","internalType":"address"},{"name":"followees","type":"address[]","internalType":"address[]"}],"outputs":[],"stateMutability":"nonpayable"},{"type":"function","name":"followFor","inputs":[{"name":"follower","type":"address","internalType":"address"},{"name":"followee","type":"address","internalType":"address"}],"outputs":[],"stateMutability":"nonpayable"},{"type":"function","name":"followerCount","inputs":[{"name":"","type":"address","internalType":"address"}],"outputs":[{"name":"","type":"uint256","internalType":"uint256"}],"stateMutability":"view"},{"type":"function","name":"followingCount","inputs":[{"name":"","type":"address","internalType":"address"}],"outputs":[{"name":"","type":"uint256","internalType":"uint256"}],"stateMutability":"view"},{"type":"function","name":"follows","inputs":[{"name":"","type":"address","internalType":"address"},{"name":"","type":"address","internalType":"address"}],"outputs":[{"name":"","type":"bool","internalType":"bool"}],"stateMutability":"view"},{"type":"function","name":"getFollowCounts","inputs":[{"name":"user","type":"address","internalType":"address"}],"outputs":[{"name":"followers","type":"uint256","internalType":"uint256"},{"name":"following","type":"uint256","internalType":"uint256"}],"stateMutability":"view"},{"type":"function","name":"unfollow","inputs":[{"name":"followee","type":"address","internalType":"address"}],"outputs":[],"stateMutability":"nonpayable"},{"type":"function","name":"unfollowFor","inputs":[{"name":"follower","type":"address","internalType":"address"},{"name":"followee","type":"address","internalType":"address"}],"outputs":[],"stateMutability":"nonpayable"},{"type":"event","name":"Followed","inputs":[{"name":"follower","type":"address","indexed":true,"internalType":"address"},{"name":"followee","type":"address","indexed":true,"internalType":"address"}],"anonymous":false},{"type":"event","name":"Unfollowed","inputs":[{"name":"follower","type":"address","indexed":true,"internalType":"address"},{"name":"followee","type":"address","indexed":true,"internalType":"address"}],"anonymous":false},{"type":"error","name":"BadBatchSize","inputs":[]},{"type":"error","name":"Unauthorized","inputs":[]},{"type":"error","name":"ZeroAddress","inputs":[]}],"bytecode":{"object":"0x60808060405234601557610625908161001a8239f35b5f80fdfe60406080815260049081361015610014575f80fd5b5f3560e01c908163015a4ead146102f8578163039e27eb1461029357816330b3a8901461025d57816347fb37681461021b5781634dbf27cc146101f957816357df3f27146101bc5781635d1ca47614610170578163645487071461013a578163767efedf146100ef578163950bff9f146100d5575063cf8711c814610097575f80fd5b346100d15760203660031901126100d15780356001600160401b0381116100d1576100cf916100c891369101610346565b9033610432565b005b5f80fd5b346100d1575f3660031901126100d1576020905160328152f35b9050346100d157806003193601126100d15761010961031a565b610111610330565b916001600160a01b038216330361012c576100cf8383610376565b516282b42960e81b81528390fd5b346100d15760203660031901126100d1576020906001600160a01b0361015e61031a565b165f5260028252805f20549051908152f35b346100d157806003193601126100d15760209061018b61031a565b610193610330565b9060018060a01b038091165f525f8452825f2091165f52825260ff815f20541690519015158152f35b9050346100d157806003193601126100d1576101d661031a565b6101de610330565b916001600160a01b038216330361012c576100cf8383610523565b346100d15760203660031901126100d1576100cf61021561031a565b33610523565b346100d15760203660031901126100d1576001600160a01b0361023c61031a565b165f526001602052805f20546002602052815f205482519182526020820152f35b346100d15760203660031901126100d1576020906001600160a01b0361028161031a565b165f5260018252805f20549051908152f35b9050346100d157806003193601126100d1576102ad61031a565b906024356001600160401b0381116100d1576102cc9036908501610346565b9290916001600160a01b03821633036102ea57506100cf9350610432565b516282b42960e81b81528490fd5b346100d15760203660031901126100d1576100cf61031461031a565b33610376565b600435906001600160a01b03821682036100d157565b602435906001600160a01b03821682036100d157565b9181601f840112156100d1578235916001600160401b0383116100d1576020808501948460051b0101116100d157565b6001600160a01b039081169081158015610428575b61041657815f526020905f8252604090815f20941693845f52825260ff815f2054161561041057825f525f8252805f20845f528252805f2060ff198154169055600182526002815f20925f1993848154019055845f52525f209081540190557f25b48012798806863072289354ed0b3849b73152482d9c6694e5cbb35f38d5e35f80a3565b50505050565b60405163d92e233d60e01b8152600490fd5b508083161561038b565b6001600160a01b03908116929183156104165782158015610519575b610507575f5b838110610462575050505050565b8060051b820135908382168092036100d15781156104165781600192871415806104e7575b610493575b5001610454565b865f5260205f81526040805f20835f5282526002815f209286938460ff19825416179055838152825f208481540190558a5f52525f20908154019055865f805160206105d08339815191525f80a35f61048c565b50865f5260ff60205f8152604090815f2090845f52525f20541615610487565b6040516340023b1760e11b8152600490fd5b506032831161044e565b6001600160a01b0390811691821580156105c5575b61041657169081811480156105a6575b6105a257805f525f60205260405f20825f5260205260405f20600160ff19825416179055600160205260405f2060018154019055805f52600260205260405f20600181540190555f805160206105d08339815191525f80a3565b5050565b50805f525f60205260405f20825f5260205260ff60405f205416610548565b508181161561053856fe6178e95c138f06036cdc07a49ed6a3d23008969fa143baeceb037ebae22e8d14a2646970667358221220f4a2d31c8d7674e7e8ed8d9abe68fffe2f5b95089141eaee701661666b461c2664736f6c63430008190033","linkReferences":{}},"methodIdentifiers":{"MAX_BATCH()":"950bff9f","follow(address)":"4dbf27cc","followBatch(address[])":"cf8711c8","followBatchFor(address,address[])":"039e27eb","followFor(address,address)":"57df3f27","followerCount(address)":"30b3a890","followingCount(address)":"64548707","follows(address,address)":"5d1ca476","getFollowCounts(address)":"47fb3768","unfollow(address)":"015a4ead","unfollowFor(address,address)":"767efedf"},"id":46}