{"abi":[{"type":"constructor","inputs":[{"name":"_treasury","type":"address","internalType":"address"},{"name":"_owner","type":"address","internalType":"address"}],"stateMutability":"nonpayable"},{"type":"receive","stateMutability":"payable"},{"type":"function","name":"GRACE_PERIOD","inputs":[],"outputs":[{"name":"","type":"uint256","internalType":"uint256"}],"stateMutability":"view"},{"type":"function","name":"MIN_DURATION","inputs":[],"outputs":[{"name":"","type":"uint256","internalType":"uint256"}],"stateMutability":"view"},{"type":"function","name":"adminRegister","inputs":[{"name":"parentNode","type":"bytes32","internalType":"bytes32"},{"name":"label","type":"string","internalType":"string"},{"name":"to","type":"address","internalType":"address"},{"name":"duration","type":"uint256","internalType":"uint256"}],"outputs":[{"name":"tokenId","type":"uint256","internalType":"uint256"}],"stateMutability":"nonpayable"},{"type":"function","name":"approve","inputs":[{"name":"to","type":"address","internalType":"address"},{"name":"tokenId","type":"uint256","internalType":"uint256"}],"outputs":[],"stateMutability":"nonpayable"},{"type":"function","name":"available","inputs":[{"name":"parentNode","type":"bytes32","internalType":"bytes32"},{"name":"label","type":"string","internalType":"string"}],"outputs":[{"name":"","type":"bool","internalType":"bool"}],"stateMutability":"view"},{"type":"function","name":"balanceOf","inputs":[{"name":"owner","type":"address","internalType":"address"}],"outputs":[{"name":"","type":"uint256","internalType":"uint256"}],"stateMutability":"view"},{"type":"function","name":"clearPrimaryName","inputs":[],"outputs":[],"stateMutability":"nonpayable"},{"type":"function","name":"configureTld","inputs":[{"name":"parentNode","type":"bytes32","internalType":"bytes32"},{"name":"pricePerYear","type":"uint256","internalType":"uint256"},{"name":"minLabelLength","type":"uint8","internalType":"uint8"},{"name":"maxDuration","type":"uint256","internalType":"uint256"},{"name":"registrationsOpen","type":"bool","internalType":"bool"}],"outputs":[],"stateMutability":"nonpayable"},{"type":"function","name":"expiries","inputs":[{"name":"","type":"uint256","internalType":"uint256"}],"outputs":[{"name":"","type":"uint256","internalType":"uint256"}],"stateMutability":"view"},{"type":"function","name":"getApproved","inputs":[{"name":"tokenId","type":"uint256","internalType":"uint256"}],"outputs":[{"name":"","type":"address","internalType":"address"}],"stateMutability":"view"},{"type":"function","name":"isApprovedForAll","inputs":[{"name":"owner","type":"address","internalType":"address"},{"name":"operator","type":"address","internalType":"address"}],"outputs":[{"name":"","type":"bool","internalType":"bool"}],"stateMutability":"view"},{"type":"function","name":"isReserved","inputs":[{"name":"parentNode","type":"bytes32","internalType":"bytes32"},{"name":"label","type":"string","internalType":"string"}],"outputs":[{"name":"","type":"bool","internalType":"bool"}],"stateMutability":"view"},{"type":"function","name":"lengthPricing","inputs":[{"name":"","type":"bytes32","internalType":"bytes32"}],"outputs":[{"name":"enabled","type":"bool","internalType":"bool"},{"name":"mult1","type":"uint16","internalType":"uint16"},{"name":"mult2","type":"uint16","internalType":"uint16"},{"name":"mult3","type":"uint16","internalType":"uint16"},{"name":"mult4","type":"uint16","internalType":"uint16"},{"name":"freeMinLength","type":"uint8","internalType":"uint8"}],"stateMutability":"view"},{"type":"function","name":"name","inputs":[],"outputs":[{"name":"","type":"string","internalType":"string"}],"stateMutability":"view"},{"type":"function","name":"nodeOf","inputs":[{"name":"tokenId","type":"uint256","internalType":"uint256"}],"outputs":[{"name":"","type":"bytes32","internalType":"bytes32"}],"stateMutability":"pure"},{"type":"function","name":"operatorRegister","inputs":[{"name":"parentNode","type":"bytes32","internalType":"bytes32"},{"name":"label","type":"string","internalType":"string"},{"name":"to","type":"address","internalType":"address"},{"name":"duration","type":"uint256","internalType":"uint256"}],"outputs":[{"name":"tokenId","type":"uint256","internalType":"uint256"}],"stateMutability":"nonpayable"},{"type":"function","name":"operators","inputs":[{"name":"","type":"bytes32","internalType":"bytes32"},{"name":"","type":"address","internalType":"address"}],"outputs":[{"name":"","type":"bool","internalType":"bool"}],"stateMutability":"view"},{"type":"function","name":"owner","inputs":[],"outputs":[{"name":"","type":"address","internalType":"address"}],"stateMutability":"view"},{"type":"function","name":"ownerOf","inputs":[{"name":"tokenId","type":"uint256","internalType":"uint256"}],"outputs":[{"name":"","type":"address","internalType":"address"}],"stateMutability":"view"},{"type":"function","name":"premiumPrice","inputs":[{"name":"","type":"bytes32","internalType":"bytes32"},{"name":"","type":"bytes32","internalType":"bytes32"}],"outputs":[{"name":"","type":"uint256","internalType":"uint256"}],"stateMutability":"view"},{"type":"function","name":"premiumPriceForLabel","inputs":[{"name":"parentNode","type":"bytes32","internalType":"bytes32"},{"name":"label","type":"string","internalType":"string"}],"outputs":[{"name":"","type":"uint256","internalType":"uint256"}],"stateMutability":"view"},{"type":"function","name":"price","inputs":[{"name":"parentNode","type":"bytes32","internalType":"bytes32"},{"name":"label","type":"string","internalType":"string"},{"name":"duration","type":"uint256","internalType":"uint256"}],"outputs":[{"name":"","type":"uint256","internalType":"uint256"}],"stateMutability":"view"},{"type":"function","name":"primaryName","inputs":[{"name":"addr","type":"address","internalType":"address"}],"outputs":[{"name":"label","type":"string","internalType":"string"},{"name":"parentNode","type":"bytes32","internalType":"bytes32"}],"stateMutability":"view"},{"type":"function","name":"primaryNode","inputs":[{"name":"addr","type":"address","internalType":"address"}],"outputs":[{"name":"","type":"bytes32","internalType":"bytes32"}],"stateMutability":"view"},{"type":"function","name":"primaryTokenId","inputs":[{"name":"","type":"address","internalType":"address"}],"outputs":[{"name":"","type":"uint256","internalType":"uint256"}],"stateMutability":"view"},{"type":"function","name":"records","inputs":[],"outputs":[{"name":"","type":"address","internalType":"address"}],"stateMutability":"view"},{"type":"function","name":"register","inputs":[{"name":"parentNode","type":"bytes32","internalType":"bytes32"},{"name":"label","type":"string","internalType":"string"},{"name":"duration","type":"uint256","internalType":"uint256"}],"outputs":[{"name":"tokenId","type":"uint256","internalType":"uint256"}],"stateMutability":"payable"},{"type":"function","name":"registerFor","inputs":[{"name":"parentNode","type":"bytes32","internalType":"bytes32"},{"name":"label","type":"string","internalType":"string"},{"name":"to","type":"address","internalType":"address"},{"name":"duration","type":"uint256","internalType":"uint256"}],"outputs":[{"name":"tokenId","type":"uint256","internalType":"uint256"}],"stateMutability":"payable"},{"type":"function","name":"renew","inputs":[{"name":"tokenId","type":"uint256","internalType":"uint256"},{"name":"duration","type":"uint256","internalType":"uint256"}],"outputs":[],"stateMutability":"payable"},{"type":"function","name":"renounceOwnership","inputs":[],"outputs":[],"stateMutability":"nonpayable"},{"type":"function","name":"reserved","inputs":[{"name":"","type":"bytes32","internalType":"bytes32"},{"name":"","type":"bytes32","internalType":"bytes32"}],"outputs":[{"name":"","type":"bool","internalType":"bool"}],"stateMutability":"view"},{"type":"function","name":"safeTransferFrom","inputs":[{"name":"from","type":"address","internalType":"address"},{"name":"to","type":"address","internalType":"address"},{"name":"tokenId","type":"uint256","internalType":"uint256"}],"outputs":[],"stateMutability":"nonpayable"},{"type":"function","name":"safeTransferFrom","inputs":[{"name":"from","type":"address","internalType":"address"},{"name":"to","type":"address","internalType":"address"},{"name":"tokenId","type":"uint256","internalType":"uint256"},{"name":"data","type":"bytes","internalType":"bytes"}],"outputs":[],"stateMutability":"nonpayable"},{"type":"function","name":"setApprovalForAll","inputs":[{"name":"operator","type":"address","internalType":"address"},{"name":"approved","type":"bool","internalType":"bool"}],"outputs":[],"stateMutability":"nonpayable"},{"type":"function","name":"setLengthPricing","inputs":[{"name":"parentNode","type":"bytes32","internalType":"bytes32"},{"name":"enabled","type":"bool","internalType":"bool"},{"name":"mult1","type":"uint16","internalType":"uint16"},{"name":"mult2","type":"uint16","internalType":"uint16"},{"name":"mult3","type":"uint16","internalType":"uint16"},{"name":"mult4","type":"uint16","internalType":"uint16"},{"name":"freeMinLength","type":"uint8","internalType":"uint8"}],"outputs":[],"stateMutability":"nonpayable"},{"type":"function","name":"setMaxDuration","inputs":[{"name":"parentNode","type":"bytes32","internalType":"bytes32"},{"name":"maxDur","type":"uint256","internalType":"uint256"}],"outputs":[],"stateMutability":"nonpayable"},{"type":"function","name":"setMinLabelLength","inputs":[{"name":"parentNode","type":"bytes32","internalType":"bytes32"},{"name":"minLen","type":"uint8","internalType":"uint8"}],"outputs":[],"stateMutability":"nonpayable"},{"type":"function","name":"setOperator","inputs":[{"name":"parentNode","type":"bytes32","internalType":"bytes32"},{"name":"operator","type":"address","internalType":"address"},{"name":"allowed","type":"bool","internalType":"bool"}],"outputs":[],"stateMutability":"nonpayable"},{"type":"function","name":"setPremiumPrice","inputs":[{"name":"parentNode","type":"bytes32","internalType":"bytes32"},{"name":"labelHash","type":"bytes32","internalType":"bytes32"},{"name":"premium","type":"uint256","internalType":"uint256"}],"outputs":[],"stateMutability":"nonpayable"},{"type":"function","name":"setPremiumPrices","inputs":[{"name":"parentNode","type":"bytes32","internalType":"bytes32"},{"name":"labelHashes","type":"bytes32[]","internalType":"bytes32[]"},{"name":"prices","type":"uint256[]","internalType":"uint256[]"}],"outputs":[],"stateMutability":"nonpayable"},{"type":"function","name":"setPrice","inputs":[{"name":"parentNode","type":"bytes32","internalType":"bytes32"},{"name":"pricePerYear","type":"uint256","internalType":"uint256"}],"outputs":[],"stateMutability":"nonpayable"},{"type":"function","name":"setPrimaryName","inputs":[{"name":"tokenId","type":"uint256","internalType":"uint256"}],"outputs":[],"stateMutability":"nonpayable"},{"type":"function","name":"setRecords","inputs":[{"name":"_records","type":"address","internalType":"address"}],"outputs":[],"stateMutability":"nonpayable"},{"type":"function","name":"setRegistrationsOpen","inputs":[{"name":"parentNode","type":"bytes32","internalType":"bytes32"},{"name":"open","type":"bool","internalType":"bool"}],"outputs":[],"stateMutability":"nonpayable"},{"type":"function","name":"setReservedHashes","inputs":[{"name":"parentNode","type":"bytes32","internalType":"bytes32"},{"name":"hashes","type":"bytes32[]","internalType":"bytes32[]"},{"name":"status","type":"bool","internalType":"bool"}],"outputs":[],"stateMutability":"nonpayable"},{"type":"function","name":"setTldAdmin","inputs":[{"name":"parentNode","type":"bytes32","internalType":"bytes32"},{"name":"admin","type":"address","internalType":"address"}],"outputs":[],"stateMutability":"nonpayable"},{"type":"function","name":"setTreasury","inputs":[{"name":"_treasury","type":"address","internalType":"address"}],"outputs":[],"stateMutability":"nonpayable"},{"type":"function","name":"supportsInterface","inputs":[{"name":"interfaceId","type":"bytes4","internalType":"bytes4"}],"outputs":[{"name":"","type":"bool","internalType":"bool"}],"stateMutability":"view"},{"type":"function","name":"symbol","inputs":[],"outputs":[{"name":"","type":"string","internalType":"string"}],"stateMutability":"view"},{"type":"function","name":"tldAdmin","inputs":[{"name":"","type":"bytes32","internalType":"bytes32"}],"outputs":[{"name":"","type":"address","internalType":"address"}],"stateMutability":"view"},{"type":"function","name":"tldExists","inputs":[{"name":"","type":"bytes32","internalType":"bytes32"}],"outputs":[{"name":"","type":"bool","internalType":"bool"}],"stateMutability":"view"},{"type":"function","name":"tlds","inputs":[{"name":"","type":"bytes32","internalType":"bytes32"}],"outputs":[{"name":"pricePerYear","type":"uint256","internalType":"uint256"},{"name":"minLabelLength","type":"uint8","internalType":"uint8"},{"name":"maxDuration","type":"uint256","internalType":"uint256"},{"name":"registrationsOpen","type":"bool","internalType":"bool"}],"stateMutability":"view"},{"type":"function","name":"tokenIdToLabel","inputs":[{"name":"","type":"uint256","internalType":"uint256"}],"outputs":[{"name":"","type":"string","internalType":"string"}],"stateMutability":"view"},{"type":"function","name":"tokenIdToParentNode","inputs":[{"name":"","type":"uint256","internalType":"uint256"}],"outputs":[{"name":"","type":"bytes32","internalType":"bytes32"}],"stateMutability":"view"},{"type":"function","name":"tokenURI","inputs":[{"name":"tokenId","type":"uint256","internalType":"uint256"}],"outputs":[{"name":"","type":"string","internalType":"string"}],"stateMutability":"view"},{"type":"function","name":"transferFrom","inputs":[{"name":"from","type":"address","internalType":"address"},{"name":"to","type":"address","internalType":"address"},{"name":"tokenId","type":"uint256","internalType":"uint256"}],"outputs":[],"stateMutability":"nonpayable"},{"type":"function","name":"transferOwnership","inputs":[{"name":"newOwner","type":"address","internalType":"address"}],"outputs":[],"stateMutability":"nonpayable"},{"type":"function","name":"treasury","inputs":[],"outputs":[{"name":"","type":"address","internalType":"address"}],"stateMutability":"view"},{"type":"function","name":"withdrawETH","inputs":[],"outputs":[],"stateMutability":"nonpayable"},{"type":"event","name":"Approval","inputs":[{"name":"owner","type":"address","indexed":true,"internalType":"address"},{"name":"approved","type":"address","indexed":true,"internalType":"address"},{"name":"tokenId","type":"uint256","indexed":true,"internalType":"uint256"}],"anonymous":false},{"type":"event","name":"ApprovalForAll","inputs":[{"name":"owner","type":"address","indexed":true,"internalType":"address"},{"name":"operator","type":"address","indexed":true,"internalType":"address"},{"name":"approved","type":"bool","indexed":false,"internalType":"bool"}],"anonymous":false},{"type":"event","name":"LengthPricingUpdated","inputs":[{"name":"parentNode","type":"bytes32","indexed":true,"internalType":"bytes32"},{"name":"enabled","type":"bool","indexed":false,"internalType":"bool"},{"name":"mult1","type":"uint16","indexed":false,"internalType":"uint16"},{"name":"mult2","type":"uint16","indexed":false,"internalType":"uint16"},{"name":"mult3","type":"uint16","indexed":false,"internalType":"uint16"},{"name":"mult4","type":"uint16","indexed":false,"internalType":"uint16"},{"name":"freeMinLength","type":"uint8","indexed":false,"internalType":"uint8"}],"anonymous":false},{"type":"event","name":"MaxDurationUpdated","inputs":[{"name":"parentNode","type":"bytes32","indexed":true,"internalType":"bytes32"},{"name":"newMaxDuration","type":"uint256","indexed":false,"internalType":"uint256"}],"anonymous":false},{"type":"event","name":"MinLabelLengthUpdated","inputs":[{"name":"parentNode","type":"bytes32","indexed":true,"internalType":"bytes32"},{"name":"newMinLength","type":"uint8","indexed":false,"internalType":"uint8"}],"anonymous":false},{"type":"event","name":"OperatorUpdated","inputs":[{"name":"parentNode","type":"bytes32","indexed":true,"internalType":"bytes32"},{"name":"operator","type":"address","indexed":true,"internalType":"address"},{"name":"allowed","type":"bool","indexed":false,"internalType":"bool"}],"anonymous":false},{"type":"event","name":"OwnershipTransferred","inputs":[{"name":"previousOwner","type":"address","indexed":true,"internalType":"address"},{"name":"newOwner","type":"address","indexed":true,"internalType":"address"}],"anonymous":false},{"type":"event","name":"PaymentConfigUpdated","inputs":[{"name":"token","type":"address","indexed":true,"internalType":"address"},{"name":"treasury","type":"address","indexed":true,"internalType":"address"}],"anonymous":false},{"type":"event","name":"PremiumPriceUpdated","inputs":[{"name":"parentNode","type":"bytes32","indexed":true,"internalType":"bytes32"},{"name":"labelHash","type":"bytes32","indexed":true,"internalType":"bytes32"},{"name":"price","type":"uint256","indexed":false,"internalType":"uint256"}],"anonymous":false},{"type":"event","name":"PriceUpdated","inputs":[{"name":"parentNode","type":"bytes32","indexed":true,"internalType":"bytes32"},{"name":"newPrice","type":"uint256","indexed":false,"internalType":"uint256"}],"anonymous":false},{"type":"event","name":"PrimaryNameCleared","inputs":[{"name":"addr","type":"address","indexed":true,"internalType":"address"}],"anonymous":false},{"type":"event","name":"PrimaryNameSet","inputs":[{"name":"addr","type":"address","indexed":true,"internalType":"address"},{"name":"tokenId","type":"uint256","indexed":true,"internalType":"uint256"}],"anonymous":false},{"type":"event","name":"RecordsContractUpdated","inputs":[{"name":"newRecords","type":"address","indexed":false,"internalType":"address"}],"anonymous":false},{"type":"event","name":"RegistrationsOpenUpdated","inputs":[{"name":"parentNode","type":"bytes32","indexed":true,"internalType":"bytes32"},{"name":"open","type":"bool","indexed":false,"internalType":"bool"}],"anonymous":false},{"type":"event","name":"ReservedUpdated","inputs":[{"name":"parentNode","type":"bytes32","indexed":true,"internalType":"bytes32"},{"name":"labelHash","type":"bytes32","indexed":true,"internalType":"bytes32"},{"name":"isReserved","type":"bool","indexed":false,"internalType":"bool"}],"anonymous":false},{"type":"event","name":"SubnameRegistered","inputs":[{"name":"parentNode","type":"bytes32","indexed":true,"internalType":"bytes32"},{"name":"tokenId","type":"uint256","indexed":true,"internalType":"uint256"},{"name":"label","type":"string","indexed":false,"internalType":"string"},{"name":"owner","type":"address","indexed":true,"internalType":"address"},{"name":"expiry","type":"uint256","indexed":false,"internalType":"uint256"}],"anonymous":false},{"type":"event","name":"SubnameRenewed","inputs":[{"name":"tokenId","type":"uint256","indexed":true,"internalType":"uint256"},{"name":"newExpiry","type":"uint256","indexed":false,"internalType":"uint256"}],"anonymous":false},{"type":"event","name":"TldAdminUpdated","inputs":[{"name":"parentNode","type":"bytes32","indexed":true,"internalType":"bytes32"},{"name":"admin","type":"address","indexed":true,"internalType":"address"}],"anonymous":false},{"type":"event","name":"TldConfigured","inputs":[{"name":"parentNode","type":"bytes32","indexed":true,"internalType":"bytes32"}],"anonymous":false},{"type":"event","name":"Transfer","inputs":[{"name":"from","type":"address","indexed":true,"internalType":"address"},{"name":"to","type":"address","indexed":true,"internalType":"address"},{"name":"tokenId","type":"uint256","indexed":true,"internalType":"uint256"}],"anonymous":false},{"type":"error","name":"AlreadyRegistered","inputs":[]},{"type":"error","name":"DurationTooLong","inputs":[]},{"type":"error","name":"ERC721IncorrectOwner","inputs":[{"name":"sender","type":"address","internalType":"address"},{"name":"tokenId","type":"uint256","internalType":"uint256"},{"name":"owner","type":"address","internalType":"address"}]},{"type":"error","name":"ERC721InsufficientApproval","inputs":[{"name":"operator","type":"address","internalType":"address"},{"name":"tokenId","type":"uint256","internalType":"uint256"}]},{"type":"error","name":"ERC721InvalidApprover","inputs":[{"name":"approver","type":"address","internalType":"address"}]},{"type":"error","name":"ERC721InvalidOperator","inputs":[{"name":"operator","type":"address","internalType":"address"}]},{"type":"error","name":"ERC721InvalidOwner","inputs":[{"name":"owner","type":"address","internalType":"address"}]},{"type":"error","name":"ERC721InvalidReceiver","inputs":[{"name":"receiver","type":"address","internalType":"address"}]},{"type":"error","name":"ERC721InvalidSender","inputs":[{"name":"sender","type":"address","internalType":"address"}]},{"type":"error","name":"ERC721NonexistentToken","inputs":[{"name":"tokenId","type":"uint256","internalType":"uint256"}]},{"type":"error","name":"Expired","inputs":[]},{"type":"error","name":"InsufficientPayment","inputs":[]},{"type":"error","name":"InvalidAddress","inputs":[]},{"type":"error","name":"InvalidArrayLength","inputs":[]},{"type":"error","name":"InvalidLabel","inputs":[]},{"type":"error","name":"InvalidMultiplier","inputs":[]},{"type":"error","name":"LabelTooShort","inputs":[]},{"type":"error","name":"NotAuthorized","inputs":[]},{"type":"error","name":"OwnableInvalidOwner","inputs":[{"name":"owner","type":"address","internalType":"address"}]},{"type":"error","name":"OwnableUnauthorizedAccount","inputs":[{"name":"account","type":"address","internalType":"address"}]},{"type":"error","name":"PremiumOnly","inputs":[]},{"type":"error","name":"ReentrancyGuardReentrantCall","inputs":[]},{"type":"error","name":"RegistrationsClosed","inputs":[]},{"type":"error","name":"Reserved","inputs":[]},{"type":"error","name":"TransferFailed","inputs":[]},{"type":"error","name":"UnknownTld","inputs":[]}],"bytecode":{"object":"0x6080346103c157601f19906001600160401b03601f61366038819003828101861685019190848311868410176102ef5780869260409485528339810103126103c15761004a836103e4565b9161005860208095016103e4565b916100616103c5565b94600c86526b48656176656e204e616d657360a01b818701526100826103c5565b9660068852652422a0ab22a760d11b8289015286518481116102ef575f546001988982811c921680156103b7575b858310146102d1578186849311610369575b50849086831160011461030e575f92610303575b50505f19600383901b1c191690881b175f555b87519384116102ef5786548781811c911680156102e5575b838210146102d15783811161028e575b508192841160011461022d57505081929394955f92610222575b50505f19600383901b1c191690841b1783555b6001600160a01b0390811691821561020a57600680546001600160a01b031980821686179092556040519591949084167f8be0079c531659141344cd1fd0a4f28419497f9722a3daafe3b4186f6b6457e05f80a37f9b779b17422d0df92223018b32b4d1fa46e071723d6817e2486d003becc55f0055169081156101fb5781906007541617600755604051905f7fc5d3e00c640eabfaf5ddc55feceab6976873338302fbb6bd7aab1b45779102aa8180a361326790816103f98239f35b63e6c4247b60e01b8352600483fd5b604051631e4fbdf760e01b81525f6004820152602490fd5b015190505f8061012b565b5f878152828120918516989193925b898210610277575050838798979596971061025f575b505050811b01835561013e565b01515f1960f88460031b161c191690555f8080610252565b80898596829496860151815501950193019061023c565b875f52825f208480870160051c8201928588106102c8575b0160051c019088905b8281106102bd575050610111565b5f81550188906102af565b925081926102a6565b634e487b7160e01b5f52602260045260245ffd5b90607f1690610101565b634e487b7160e01b5f52604160045260245ffd5b015190505f806100d6565b90848b9416915f8052865f20925f5b88828210610353575050841161033b575b505050811b015f556100e9565b01515f1960f88460031b161c191690555f808061032e565b8385015186558e9790950194938401930161031d565b9091505f8052845f208680850160051c8201928786106103ae575b918c91869594930160051c01915b8281106103a05750506100c2565b5f81558594508c9101610392565b92508192610384565b91607f16916100b0565b5f80fd5b60408051919082016001600160401b038111838210176102ef57604052565b51906001600160a01b03821682036103c15756fe6080604090808252600480361015610021575b505050361561001f575f80fd5b005b5f3560e01c91826301ffc9a714611bb45750816306fdde0314611b2457816307dda41114611ad3578163081812fc14611a9b578163095ea7b3146119bf57816310d8d74d14611929578163189049881461183b57816318909aa6146117fe5781631e56ca53146117da578163237ad20f146117ae57816323b872dd1461179757816332fea0d2146116e65781633556fc75146116b757816342842e0e1461168957816343e72799146115df5781634487caf2146115a85781634f46f7da1461156c57816357de7fa8146114b15781635a031e83146112e357816361d027b3146112bb5781636250b58e1461124e5781636352211e1461121f57816370a08231146111cb578163715018a6146111835781637247d8871461115757816374b13cf4146110c25781638847fbc91461100857816389833db714610fc65781638da5cb5b14610f9e5781638f68e2f714610f1657816393c3551714610ee557816395a3be9914610ebd57816395d89b4114610df857816396f7343f14610dd157816397d8c49214610cb5578163991d6fde14610c9d5781639afcba4314610c785781639c81176614610bdf578163a22cb46514610b2f578163a4f6965714610abe578163a67aa19414610aa1578163b6a6d17714610a83578163b88d4fde14610a1a578163b8bc3d231461095e578163b9b5bec91461093f578163b9cce32814610918578163bd0aa9bc146107db578163c1a287e2146107be578163c1b312021461071d578163c475abff146105a1578163c87b56dd14610553578163cdd2a489146104f8578163e086e5ec146104af578163e985e9c514610461578163eba951aa14610421578163f0f44260146103a7578163f2fde38b14610331578163fb827fa8146102ed575063ff669b10146102b8578080610012565b346102e9575f3660031901126102e9575f903382526012602052812055335f805160206131728339815191525f80a2005b5f80fd5b82346102e957806003193601126102e957602091610309611c58565b90355f52600e8352815f209060018060a01b03165f52825260ff815f20541690519015158152f35b9050346102e95760203660031901126102e95761034c611c42565b90610355612e25565b6001600160a01b03918216928315610391575050600680546001600160a01b031981168417909155165f805160206131b28339815191525f80a3005b905f6024925191631e4fbdf760e01b8352820152fd5b9050346102e95760203660031901126102e9576103c2611c42565b6103ca612e25565b6001600160a01b031691821561041457600780546001600160a01b03191684179055825f7fc5d3e00c640eabfaf5ddc55feceab6976873338302fbb6bd7aab1b45779102aa8180a3005b5163e6c4247b60e01b8152fd5b82346102e95760203660031901126102e95761044361043e611c42565b61250e565b825183815292839261045791840190611c1e565b9060208301520390f35b82346102e957806003193601126102e95760209061047d611c42565b610485611c58565b9060018060a01b038091165f5260058452825f2091165f52825260ff815f20541690519015158152f35b82346102e9575f3660031901126102e9576104c8612e25565b5f80808060018060a01b036006541647905af16104e36124df565b50156104eb57005b516312171d8360e31b8152fd5b9050346102e95760203660031901126102e957355f52600c602052805f20549061054f61ffff915192839260ff8260481c1691818160381c1691808260281c169160ff828260181c16928260081c16911687611f94565b0390f35b82346102e95760203660031901126102e95761057261054f9235612596565b505f815161057f81611de1565b5280519061058c82611de1565b5f825251918291602083526020830190611c1e565b9050816003193601126102e957803590602435926105bd6126bf565b825f52602091600f8352815f2054805f526009845260ff835f2054161561070e57805f5260088452825f20906301e1338087106106fe57600282015480151590816106f4575b506106e457855f5260118552835f20549283156106d6576276a70084018085116106c35742116106b557509161067c61067788889994610689967fc6f94ce76767d6d26f0e5e481088c477653a00bc52a325e7c08deb59b9a78bab9a5f5260108a52610671895f2054611d82565b91613011565b612e85565b428111156106ae57611fdd565b90845f526011835281815f205551908152a260015f8051602061321283398151915255005b5042611fdd565b8451630407b05b60e31b8152fd5b601182634e487b7160e01b5f525260245ffd5b8451633d36cb8d60e01b8152fd5b8351634a94fa8360e11b81528390fd5b905087115f610603565b8351633d36cb8d60e01b81528390fd5b509051631b0812ed60e11b8152fd5b9050346102e95760a03660031901126102e95735906044359060ff82168092036102e9576084359081151582036102e95761078a60019261075c612e25565b855f5260086020526003835f20602435815585810160ff199788825416179055606435600282015501611fcc565b60096020525f20918254161790557f4cb04288c5ac70eb1edbf52992134749fcc3885d00270e2c32be46e06e51f2d25f80a2005b82346102e9575f3660031901126102e957602090516276a7008152f35b9050346102e95760603660031901126102e9576001600160401b039181356024358481116102e9576108109036908501611f13565b9390946044359081116102e95761082a9036908301611f13565b6006549194909291336001600160a01b0391821614159081610900575b506108f357835f52602091600960205260ff825f205416156108e5578387036108d757505f5b86811061087657005b806108846001928689612304565b35865f52600b8552835f2061089a838b8d612304565b355f528552835f20556108ae81898b612304565b35865f805160206131f2833981519152866108ca858a8d612304565b358751908152a30161086d565b9051634ec4810560e11b8152fd5b9051631b0812ed60e11b8152fd5b5163ea8e4eb560e01b8152fd5b9050845f52600d602052815f2054163314155f610847565b82346102e95760203660031901126102e957602091355f5260118252805f20549051908152f35b60208361095761094e36611edc565b92913392612328565b9051908152f35b9050346102e957816003193601126102e95780359161097b611c93565b600654909290336001600160a01b0391821614159081610a02575b506109f457835f52600960205260ff825f205416156108e557507fccd884e06770052d0bfc1e5508e20c73a56d50602095337ae1d5022d450c594091602091845f52600883526109eb826003835f2001611fcc565b519015158152a2005b905163ea8e4eb560e01b8152fd5b9050845f52600d602052825f2054163314155f610996565b346102e95760803660031901126102e957610a33611c42565b610a3b611c58565b604435906064356001600160401b0381116102e957366023820112156102e95761001f94816024610a7193369301359101611f5e565b92610a7d8383836120fe565b33612ee4565b82346102e9575f3660031901126102e957602090516301e133808152f35b9050346102e95760203660031901126102e9576020915190358152f35b82346102e95760203660031901126102e957813591610adc83612596565b336001600160a01b03909116036109f457825f526011602052815f20544211610b2157508190335f5260126020525f2055335f805160206131928339815191525f80a3005b9051630407b05b60e31b8152fd5b82346102e957806003193601126102e957610b48611c42565b90610b51611c93565b913315610bc9576001600160a01b0316928315610bb45750335f526005602052805f20835f52602052610b8682825f20611fcc565b5190151581527f17307eab39ab6107e8899845ad3d59bd9653f200f220920489ca2b5937696c3160203392a3005b836024925191630b61174360e31b8352820152fd5b815163a9fbf51f60e01b81525f81860152602490fd5b82346102e957610bee36611c6e565b6006549193909291336001600160a01b0391821614159081610c60575b506109f457835f52600960205260ff825f205416156108e557507fa6d674fc8c7b671cbaabf743c71fb5f0ced936f4287c7091e77e31d5cb13083f91602091845f5260088352816002825f20015551908152a2005b9050845f52600d602052825f20541633141585610c0b565b82346102e95760203660031901126102e957602090610957610c98611c42565b61248d565b602083610957610cac36611d37565b93929092612328565b82346102e95760603660031901126102e9578135906024356001600160401b0381116102e957610ce89036908501611f13565b610cf3939193611c84565b600654909590336001600160a01b0391821614159081610db9575b50610dab57825f52602090600960205260ff855f20541615610d9d57508515155f5b838110610d3957005b600190855f52600a8452865f20610d5182878b612304565b355f528452610d6289885f20611fcc565b610d6d81868a612304565b35867ff627314b7004b29b74af9460124e7b4fc0d2a74df16daf2f43003e419e1fc092868a51878152a301610d30565b8451631b0812ed60e11b8152fd5b835163ea8e4eb560e01b8152fd5b9050835f52600d602052845f20541633141587610d0e565b82346102e95760203660031901126102e957602091355f52600f8252805f20549051908152f35b82346102e9575f3660031901126102e9578051905f908260019260015493610e1f85611d82565b90818452602095866001821691825f14610e9b575050600114610e5e575b505061054f9291610e4f910385611e17565b51928284938452830190611c1e565b9085925060015f52825f20915f925b828410610e835750505082010181610e4f610e3d565b8054848a018601528895508794909301928101610e6d565b60ff19168682015292151560051b85019092019250839150610e4f9050610e3d565b82346102e9575f3660031901126102e95760135490516001600160a01b039091168152602090f35b82346102e957602090610ef736611c6e565b905f52600a8352815f20905f52825260ff815f20541690519015158152f35b82346102e957806003193601126102e957813590610f32611c58565b92610f3b612e25565b825f52600960205260ff825f205416156108e557505f828152600d60205290812080546001600160a01b0319166001600160a01b0390941693841790557f2922178e8030ec851c674e4744a2f713cca2ee8e91681f13d5395f11336662f69080a3005b82346102e9575f3660031901126102e95760065490516001600160a01b039091168152602090f35b82346102e957602090610fee610fdb36611ccf565b92915f52600a8552835f20923691611f5e565b8381519101205f52825260ff815f20541690519015158152f35b82346102e95761101736611edc565b9491835f94929452600960205260ff855f205416156110b257815f526008602052845f209261104685836125d0565b156110a4576301e1338087106110a4576002840154801515908161109a575b5061108c575091839161108060209794610957963691611f5e565b87815191012091612e51565b8551634a94fa8360e11b8152fd5b9050871188611065565b8551633d36cb8d60e01b8152fd5b8451631b0812ed60e11b81528390fd5b9050346102e95760603660031901126102e9576006546024359282359260443592336001600160a01b039182161415908161113f575b506109f457835f52600960205260ff825f205416156108e557505f805160206131f283398151915291602091845f52600b8352805f20865f52835281815f205551908152a3005b9050845f52600d602052825f2054163314155f6110f8565b82346102e95760203660031901126102e957602091355f526009825260ff815f20541690519015158152f35b346102e9575f3660031901126102e95761119b612e25565b600680546001600160a01b031981169091555f906001600160a01b03165f805160206131b28339815191528280a3005b82346102e95760203660031901126102e9576001600160a01b036111ed611c42565b16801561120957602092505f5260038252805f20549051908152f35b81516322718ad960e21b81525f81850152602490fd5b82346102e95760203660031901126102e95761123d60209235612596565b90516001600160a01b039091168152f35b82346102e95760203660031901126102e95760207fdc12c30dbabb5f04df7f21b1d95f0433cd8420a0d75adb416ac908caed674e209161128c611c42565b611294612e25565b601380546001600160a01b0319166001600160a01b039290921691821790559051908152a1005b82346102e9575f3660031901126102e95760075490516001600160a01b039091168152602090f35b9050346102e95760e03660031901126102e957803590611301611c93565b6044359161ffff90818416958685036102e95760643590838216928383036102e957608435938585168086036102e95760a435968716908188036102e95760c4359b60ff8d168d036102e957600654336001600160a01b0391821614159081611499575b50611489578b5f52600960205260ff865f2054161561147957908993929184611438575b5050505061142a57509161142593918798937fc6e5d1749ea961c1b59720a673dffbdcfcd0b59a77aa7d28d739a7e6ffa9da6e985f52600c602052805f206113d18882611fcc565b805460ff60481b8760481b169062ffff008b60081b1690610100600160501b0319161764ffff0000008560181b161761ffff60281b8660281b161761ffff60381b8760381b16171790555196879687611f94565b0390a2005b9051631bc4bcf760e21b8152fd5b15935090918315611470575b508215611467575b50811561145e575b505f808080611389565b9050155f611454565b1591505f61144c565b1592505f611444565b8551631b0812ed60e11b81528590fd5b855163ea8e4eb560e01b81528590fd5b90508c5f52600d602052865f2054163314155f611365565b82346102e9576114c036611d37565b926114cf9594959291926126bf565b855f526020956009875260ff865f2054161561155c57805f52600e8752855f20335f52875260ff865f2054161561154c5761153495969750805f5260088852865f209061152f868585611523368383611f5e565b8d8151910120956126ee565b612762565b9060015f805160206132128339815191525551908152f35b855163ea8e4eb560e01b81528890fd5b8551631b0812ed60e11b81528890fd5b82346102e95760203660031901126102e95761054f91355f526010602052611595815f20611e3a565b9051918291602083526020830190611c1e565b82346102e95760203660031901126102e9576020906001600160a01b036115cd611c42565b165f5260128252805f20549051908152f35b82346102e9576115ee36611d37565b956115fd9491949392936126bf565b600654336001600160a01b0391821614159081611671575b5061166357815f52600960205260ff865f20541615611655575091611534939183602097945f5260088852865f209061152f868585611523368383611f5e565b8551631b0812ed60e11b8152fd5b855163ea8e4eb560e01b8152fd5b9050825f52600d602052865f20541633141588611615565b82346102e95761001f9061169c36611d02565b919251926116a984611de1565b5f8452610a7d8383836120fe565b82346102e95760203660031901126102e957602091355f52600d825260018060a01b03815f2054169051908152f35b9050346102e957816003193601126102e9578035916024359160ff83168093036102e957600654336001600160a01b039182161415908161177f575b506109f457835f52600960205260ff825f205416156108e557507fe2f2c2b6b17503ade9b05229233b5e6942c5a9b5302d20e3aa6fed6b16cd42d391602091845f52600883526001815f20018260ff1982541617905551908152a2005b9050845f52600d602052825f2054163314155f611722565b346102e95761001f6117a836611d02565b916120fe565b82346102e9576020906117c036611c6e565b905f52600b8352815f20905f528252805f20549051908152f35b82346102e9576020906117f56117ef36611ccf565b91611ffe565b90519015158152f35b82346102e95760209061182661181336611ccf565b92915f52600b8552835f20923691611f5e565b8381519101205f528252805f20549051908152f35b82346102e95760603660031901126102e957813590611858611c58565b90611861611c84565b60065490926001600160a01b0391821633141580611912575b61190257845f52600960205260ff835f205416156118f257169384156118e457507f9c599b0317fae533e30bcd63451a66ac81c5a0bd20b560eec7977c1d01e3f6d991602091845f52600e8352805f20865f5283526118db82825f20611fcc565b519015158152a3005b905163e6c4247b60e01b8152fd5b8251631b0812ed60e11b81528690fd5b825163ea8e4eb560e01b81528690fd5b50845f52600d60205281835f20541633141561187a565b82346102e95761193836611c6e565b6006549193909291336001600160a01b03918216141590816119a7575b506109f457835f52600960205260ff825f205416156108e557507f46eec4e0eeeef5830de3472bb39db7e52b1c809286dc87c4b85b20e003cc70c391602091845f526008835281815f205551908152a2005b9050845f52600d602052825f20541633141585611955565b82346102e957806003193601126102e9576119d8611c42565b916024356119e581612596565b33151580611a88575b80611a61575b611a4b576001600160a01b039485169482918691167f8c5be1e5ebec7d5bd14f71427d1e84f3dd0314c0f7b2291e5b200ac8c7c3b9255f80a45f9081526020919091522080546001600160a01b0319169091179055005b835163a9fbf51f60e01b81523381850152602490fd5b5060018060a01b0381165f526005602052835f20335f5260205260ff845f205416156119f4565b506001600160a01b0381163314156119ee565b82346102e95760203660031901126102e9578160209235611abb81612596565b505f52825260018060a01b03815f2054169051908152f35b82346102e95760203660031901126102e957608091355f526008602052805f209081549160ff6001820154169160ff6003600284015493015416928151948552602085015283015215156060820152f35b82346102e9575f3660031901126102e9578051905f90825f5492611b4784611d82565b808352602094600190866001821691825f14610e9b575050600114611b7857505061054f9291610e4f910385611e17565b908592505f8052825f20915f925b828410611b9c5750505082010181610e4f610e3d565b8054848a018601528895508794909301928101611b86565b90346102e95760203660031901126102e957359063ffffffff60e01b82168092036102e9576020916380ac58cd60e01b8114908115611c0d575b8115611bfc575b5015158152f35b6301ffc9a760e01b14905083611bf5565b635b5e139f60e01b81149150611bee565b805180835260209291819084018484015e5f828201840152601f01601f1916010190565b600435906001600160a01b03821682036102e957565b602435906001600160a01b03821682036102e957565b60409060031901126102e9576004359060243590565b6044359081151582036102e957565b6024359081151582036102e957565b9181601f840112156102e9578235916001600160401b0383116102e957602083818601950101116102e957565b9060406003198301126102e95760043591602435906001600160401b0382116102e957611cfe91600401611ca2565b9091565b60609060031901126102e9576001600160a01b039060043582811681036102e9579160243590811681036102e9579060443590565b9060806003198301126102e95760043591602435906001600160401b0382116102e957611d6691600401611ca2565b90916044356001600160a01b03811681036102e9579060643590565b90600182811c92168015611db0575b6020831014611d9c57565b634e487b7160e01b5f52602260045260245ffd5b91607f1691611d91565b6001600160401b038111611dcd57604052565b634e487b7160e01b5f52604160045260245ffd5b602081019081106001600160401b03821117611dcd57604052565b606081019081106001600160401b03821117611dcd57604052565b601f909101601f19168101906001600160401b03821190821017611dcd57604052565b9060405191825f8254611e4c81611d82565b908184526020946001916001811690815f14611eba5750600114611e7c575b505050611e7a92500383611e17565b565b5f90815285812095935091905b818310611ea2575050611e7a93508201015f8080611e6b565b85548884018501529485019487945091830191611e89565b92505050611e7a94925060ff191682840152151560051b8201015f8080611e6b565b9060606003198301126102e95760043591602435906001600160401b0382116102e957611f0b91600401611ca2565b909160443590565b9181601f840112156102e9578235916001600160401b0383116102e9576020808501948460051b0101116102e957565b6001600160401b038111611dcd57601f01601f191660200190565b929192611f6a82611f43565b91611f786040519384611e17565b8294818452818301116102e9578281602093845f960137010152565b901515815261ffff9182166020820152918116604083015291821660608201529116608082015260ff9190911660a082015260c00190565b9060ff801983541691151516179055565b91908201809211611fea57565b634e487b7160e01b5f52601160045260245ffd5b919091805f526020916009835260409360ff855f205416156120eb5760088452845f2060ff600382015416156120f45761203883836125d0565b156120f4576001015460ff1682106120eb57612055913691611f5e565b828151910120815f52600b8352835f20815f528352835f20546120e357815f52600a8352835f20815f52835260ff845f2054166120e357835190838201928352848201528381526120a581611dfc565b5190205f90815260028252829020546001600160a01b0316156120dc57601190525f20546276a7008101809111611fea5742101590565b5050600190565b505050505f90565b50505050505f90565b5050505050505f90565b6001600160a01b0391821692909183156122ec57815f52602092600284528260409583875f2054168015158080916122e4575b6122b8575b806122a5575b612282575b50815f526002865283875f20541695331515806121f0575b50600290876121d1575b5f838152600382528981208054600101905584815291905287812080546001600160a01b0319168317905586905f805160206131d28339815191529080a416928383036121b05750505050565b6064945051926364283d7b60e01b8452600484015260248301526044820152fd5b6121da84613067565b875f5260038152885f205f198154019055612163565b9192509080612241575b15612208579084915f612159565b868587612225576024915190637e27328960e01b82526004820152fd5b604491519063177e802f60e01b82523360048301526024820152fd5b503386148015612266575b806121fa5750845f52600481523384885f205416146121fa565b50855f5260058152865f20335f52815260ff875f20541661224c565b805f52601287525f888120555f805160206131728339815191525f80a25f612141565b50805f526012875282885f20541461213c565b9091925060118752875f205442116122d35790859291612136565b8751630407b05b60e31b8152600490fd5b506001612131565b604051633250574960e11b81525f6004820152602490fd5b91908110156123145760051b0190565b634e487b7160e01b5f52603260045260245ffd5b94939291906123356126bf565b855f5260206009815260409660ff885f2054161561247c57805f5260088252875f2097612363368686611f5e565b8381519101209260ff60038b0154161561246b5761238186866125d0565b156124495760ff60018b015416861061245a576301e1338088106124495760028a0154801515908161243f575b5061242e57825f52600b8152815f20845f528152815f205461241d57825f52600a8152815f2090845f525260ff815f20541661240d575061152f610677878685856123f99c9d612e51565b9060015f8051602061321283398151915255565b51637d79fa0f60e11b8152600490fd5b81516304419a3b60e31b8152600490fd5b8151634a94fa8360e11b8152600490fd5b905088115f6123ae565b8151633d36cb8d60e01b8152600490fd5b8151631406d65b60e11b8152600490fd5b8151632596f79960e01b8152600490fd5b8751631b0812ed60e11b8152600490fd5b6001600160a01b039081165f818152601260205260409020549182156124d857825f52600260205260405f205416036124d357601160205260405f205442116124d35790565b505f90565b5050505f90565b3d15612509573d906124f082611f43565b916124fe6040519384611e17565b82523d5f602084013e565b606090565b9060018060a01b0380921691825f526012602052604092835f205491821561258857825f526002602052845f2054160361257457805f526011602052825f20544211612574575f526010602052612570825f2092600f6020525f205492611e3a565b9190565b50905161258081611de1565b5f8152905f90565b505050905161258081611de1565b5f818152600260205260409020546001600160a01b03169081156125b8575090565b60249060405190637e27328960e01b82526004820152fd5b6125db913691611f5e565b805180159081156126b4575b506124d3575f5b8151808210156126ac5760ff60f81b602083850101511690606160f81b821015918261269d575b600360fc1b811015908161268e575b602d60f81b1492159081612685575b508061267d575b6120e35781612657575b50612651576001016125ee565b50505f90565b821591508115612669575b505f612644565b5f19810191508111611fea5781145f612662565b50811561263a565b9050155f612633565b603960f81b8111159150612624565b603d60f91b8111159250612615565b505050600190565b603f9150115f6125e7565b5f8051602061321283398151915260028154146126dc5760029055565b604051633ee5aeb560e01b8152600490fd5b916126f8916125d0565b1561273a576301e13380821061273a57600201548015159182612730575b505061271e57565b604051634a94fa8360e11b8152600490fd5b1190505f80612716565b604051633d36cb8d60e01b8152600490fd5b818110612757575050565b5f815560010161274c565b919290949593956040908151602090818101905f998783528582015284815261278a81611dfc565b51902097885f5260029687835260018060a01b039384865f205416612c2d575b8a8352600f845285832088905560108452858320906001600160401b038811612c19576127d78254611d82565b601f8111612be0575b50839188601f8111600114612b7857612813938691612b6d575b508960011b905f198b60031b1c19161790555b42611fdd565b938a8352601184528486842055855161282b81611de1565b838152818d16998a15612b55578c5f5280865282885f205416801515808091612b4d575b612b2d575b80612b1a575b612af7575b508c5f528086528c8b848a5f2054168015159384612ad8575b5f83815260038b528c812080546001019055848152908a528b812080546001600160a01b031916841790555f805160206131d28339815191529080a4612ac0578c3b6129ba575b50601354168061292c575b509285949285927faa9394e2cc8163192c12c5c13a97e45bd1a35bed37a87d29bd9f9349f8e096f5976060966129058e9f9e809d9e9f613084565b865198878a98895288015287870137848401860152830152601f01601f19168101030190a4565b80979695949392973b156129b6579087809260448d88519b8c938492630d1550db60e11b845280600485015260248401525af19b8c156129ac578b9c9b98999a9b612983575b9b50909192939495969998976128ca565b9193959750919395976129968491611dba565b6129a85791879593918b979593612972565b8280fd5b85513d84823e3d90fd5b8780fd5b9a5f85809e9b9d96612a038f8b9f9c9a99869e9c51958680948193630a85bd0160e11b9a8b84523360048501528460248501526044840152608060648401526084830190611c1e565b03925af19182915f93612a7f575b5050612a49578d8d8d612a226124df565b8051939084612a43578251633250574960e11b815260048101859052602490fd5b84925001fd5b63ffffffff60e09e9697999c989a9d9b9e1b1603612a67575f6128bf565b8551633250574960e11b8152600481018a9052602490fd5b9080929350813d8311612ab9575b612a978183611e17565b810103126102e957516001600160e01b0319811681036102e957905f8f612a11565b503d612a8d565b86516339e3563760e11b815260048101859052602490fd5b612ae184613067565b815f5260038a528b5f205f198154019055612878565b805f52601287525f898120555f805160206131728339815191525f80a25f61285f565b50805f52601287528d895f20541461285a565b60118852895f2054421115612854578951630407b05b60e31b8152600490fd5b50600161284f565b8751633250574960e11b815260048101869052602490fd5b90508401355f6127fa565b5080855285852085938a601f1981165b89818810612bc45750612813965010612bab575b5050600189811b01905561280d565b8501355f1960038c901b60f8161c191690555f80612b9c565b83890135855596870196600190940193909201918c9150612b88565b612c0990838652868620601f8b0160051c810191888c10612c0f575b601f0160051c019061274c565b5f6127e0565b9091508190612bfc565b634e487b7160e01b84526041600452602484fd5b60118452855f20546276a7008101809111611fea574210612e14578a5f5288845284865f205416801515808091612e0d575b612ded575b80612dda575b612db7575b508a5f5288845284865f2054168b5f8215928315612d98575b8282528c885289822080546001600160a01b03191690555f805160206131d28339815191528280a4612d80578a5f52600f84525f8681205560108452855f20612cd18154611d82565b9081612d44575b50508a5f52601184525f86812055846013541680612cf7575b506127aa565b803b156102e9575f809160248e8a5194859384926306c07aeb60e31b845260048401525af18015612d3a5715612cf157612d32919350611dba565b5f915f612cf1565b87513d5f823e3d90fd5b81601f5f9311600114612d5b5750555b5f80612cd8565b908083918252612d79601f898420940160051c84016001850161274c565b5555612d54565b8551637e27328960e01b8152600481018c9052602490fd5b612da183613067565b8082526003885289822082198154019055612c88565b805f52601285525f878120555f805160206131728339815191525f80a25f612c6f565b50805f52601285528b875f205414612c6a565b60118652875f2054421115612c64578751630407b05b60e31b8152600490fd5b505f612c5f565b8551630ea075bf60e21b8152600490fd5b6006546001600160a01b03163303612e3957565b60405163118cdaa760e01b8152336004820152602490fd5b939291815f52600b60205260405f20905f5260205260405f20549384612e7e57612e7b9450613011565b90565b5050505090565b8015612edc57803403612eca576007545f918291829182916001600160a01b03165af1612eb06124df565b5015612eb857565b6040516312171d8360e31b8152600490fd5b60405163cd1c886760e01b8152600490fd5b5034612eca57565b9291803b612ef4575b5050505050565b604051630a85bd0160e11b8082526001600160a01b03958616600483015292851660248201526044810193909352608060648401529092169260209082908190612f42906084830190611c1e565b03815f875af15f9181612fb9575b50612f875782612f5e6124df565b8051919082612f8057604051633250574960e11b815260048101839052602490fd5b6020915001fd5b6001600160e01b03191603612fa157505f80808080612eed565b60249060405190633250574960e11b82526004820152fd5b9091506020813d602011612ff6575b81612fd560209383611e17565b810103126102e957516001600160e01b0319811681036102e957905f612f50565b3d9150612fc8565b81810292918115918404141715611fea57565b929091825f52600c60205260ff60405f205460481c16801515908161305c575b506120e3576301e133809361304c613053926130589561310b565b9054612ffe565b612ffe565b0490565b90508110155f613031565b5f90815260046020526040902080546001600160a01b0319169055565b60018060a01b0380911690815f52601260205260405f20548281151592836130f0575b5050816130d9575b506130d557805f5260126020528160405f20555f805160206131928339815191525f80a3565b5050565b90505f52601160205260405f20544211155f6130af565b90918093505f52600260205260405f2054161490825f6130a7565b5f52600c60205260405f20549060ff8216156120dc5760018114613166576002811461315b5760038114613150576004146131465750600190565b60381c61ffff1690565b5060281c61ffff1690565b5060181c61ffff1690565b5060081c61ffff169056fe8e8f5c3f8787ad607244e1eee8fa7299f2d75cc3ac3b7f3d775fca0da7b3343f41f2b80eda6de6f23cab2e867951d054a48d6794db479c1d252bb840a374b62c8be0079c531659141344cd1fd0a4f28419497f9722a3daafe3b4186f6b6457e0ddf252ad1be2c89b69c2b068fc378daa952ba7f163c4a11628f55a4df523b3ef37347fe3c208efdea258592bcdf59693b523fc9a4a8cefc2ad6ef872188cfe619b779b17422d0df92223018b32b4d1fa46e071723d6817e2486d003becc55f00a264697066735822122063f84a3351f7e71a87479c69f6f18d7fb0d37046784c2e2aa557a4c96dfa619864736f6c63430008190033","linkReferences":{}},"methodIdentifiers":{"GRACE_PERIOD()":"c1a287e2","MIN_DURATION()":"b6a6d177","adminRegister(bytes32,string,address,uint256)":"43e72799","approve(address,uint256)":"095ea7b3","available(bytes32,string)":"1e56ca53","balanceOf(address)":"70a08231","clearPrimaryName()":"ff669b10","configureTld(bytes32,uint256,uint8,uint256,bool)":"c1b31202","expiries(uint256)":"b9cce328","getApproved(uint256)":"081812fc","isApprovedForAll(address,address)":"e985e9c5","isReserved(bytes32,string)":"89833db7","lengthPricing(bytes32)":"cdd2a489","name()":"06fdde03","nodeOf(uint256)":"a67aa194","operatorRegister(bytes32,string,address,uint256)":"57de7fa8","operators(bytes32,address)":"fb827fa8","owner()":"8da5cb5b","ownerOf(uint256)":"6352211e","premiumPrice(bytes32,bytes32)":"237ad20f","premiumPriceForLabel(bytes32,string)":"18909aa6","price(bytes32,string,uint256)":"8847fbc9","primaryName(address)":"eba951aa","primaryNode(address)":"9afcba43","primaryTokenId(address)":"4487caf2","records()":"95a3be99","register(bytes32,string,uint256)":"b9b5bec9","registerFor(bytes32,string,address,uint256)":"991d6fde","renew(uint256,uint256)":"c475abff","renounceOwnership()":"715018a6","reserved(bytes32,bytes32)":"93c35517","safeTransferFrom(address,address,uint256)":"42842e0e","safeTransferFrom(address,address,uint256,bytes)":"b88d4fde","setApprovalForAll(address,bool)":"a22cb465","setLengthPricing(bytes32,bool,uint16,uint16,uint16,uint16,uint8)":"5a031e83","setMaxDuration(bytes32,uint256)":"9c811766","setMinLabelLength(bytes32,uint8)":"32fea0d2","setOperator(bytes32,address,bool)":"18904988","setPremiumPrice(bytes32,bytes32,uint256)":"74b13cf4","setPremiumPrices(bytes32,bytes32[],uint256[])":"bd0aa9bc","setPrice(bytes32,uint256)":"10d8d74d","setPrimaryName(uint256)":"a4f69657","setRecords(address)":"6250b58e","setRegistrationsOpen(bytes32,bool)":"b8bc3d23","setReservedHashes(bytes32,bytes32[],bool)":"97d8c492","setTldAdmin(bytes32,address)":"8f68e2f7","setTreasury(address)":"f0f44260","supportsInterface(bytes4)":"01ffc9a7","symbol()":"95d89b41","tldAdmin(bytes32)":"3556fc75","tldExists(bytes32)":"7247d887","tlds(bytes32)":"07dda411","tokenIdToLabel(uint256)":"4f46f7da","tokenIdToParentNode(uint256)":"96f7343f","tokenURI(uint256)":"c87b56dd","transferFrom(address,address,uint256)":"23b872dd","transferOwnership(address)":"f2fde38b","treasury()":"61d027b3","withdrawETH()":"e086e5ec"},"id":57}