{"abi":[{"type":"constructor","inputs":[{"name":"_treasury","type":"address","internalType":"address"},{"name":"_owner","type":"address","internalType":"address"}],"stateMutability":"nonpayable"},{"type":"receive","stateMutability":"payable"},{"type":"function","name":"GRACE_PERIOD","inputs":[],"outputs":[{"name":"","type":"uint256","internalType":"uint256"}],"stateMutability":"view"},{"type":"function","name":"MIN_DURATION","inputs":[],"outputs":[{"name":"","type":"uint256","internalType":"uint256"}],"stateMutability":"view"},{"type":"function","name":"approve","inputs":[{"name":"to","type":"address","internalType":"address"},{"name":"tokenId","type":"uint256","internalType":"uint256"}],"outputs":[],"stateMutability":"nonpayable"},{"type":"function","name":"available","inputs":[{"name":"parentNode","type":"bytes32","internalType":"bytes32"},{"name":"label","type":"string","internalType":"string"}],"outputs":[{"name":"","type":"bool","internalType":"bool"}],"stateMutability":"view"},{"type":"function","name":"balanceOf","inputs":[{"name":"owner","type":"address","internalType":"address"}],"outputs":[{"name":"","type":"uint256","internalType":"uint256"}],"stateMutability":"view"},{"type":"function","name":"clearPrimaryName","inputs":[],"outputs":[],"stateMutability":"nonpayable"},{"type":"function","name":"configureTld","inputs":[{"name":"parentNode","type":"bytes32","internalType":"bytes32"},{"name":"pricePerYear","type":"uint256","internalType":"uint256"},{"name":"minLabelLength","type":"uint8","internalType":"uint8"},{"name":"maxDuration","type":"uint256","internalType":"uint256"},{"name":"registrationsOpen","type":"bool","internalType":"bool"}],"outputs":[],"stateMutability":"nonpayable"},{"type":"function","name":"expiries","inputs":[{"name":"","type":"uint256","internalType":"uint256"}],"outputs":[{"name":"","type":"uint256","internalType":"uint256"}],"stateMutability":"view"},{"type":"function","name":"getApproved","inputs":[{"name":"tokenId","type":"uint256","internalType":"uint256"}],"outputs":[{"name":"","type":"address","internalType":"address"}],"stateMutability":"view"},{"type":"function","name":"isApprovedForAll","inputs":[{"name":"owner","type":"address","internalType":"address"},{"name":"operator","type":"address","internalType":"address"}],"outputs":[{"name":"","type":"bool","internalType":"bool"}],"stateMutability":"view"},{"type":"function","name":"isReserved","inputs":[{"name":"parentNode","type":"bytes32","internalType":"bytes32"},{"name":"label","type":"string","internalType":"string"}],"outputs":[{"name":"","type":"bool","internalType":"bool"}],"stateMutability":"view"},{"type":"function","name":"name","inputs":[],"outputs":[{"name":"","type":"string","internalType":"string"}],"stateMutability":"view"},{"type":"function","name":"nodeOf","inputs":[{"name":"tokenId","type":"uint256","internalType":"uint256"}],"outputs":[{"name":"","type":"bytes32","internalType":"bytes32"}],"stateMutability":"pure"},{"type":"function","name":"owner","inputs":[],"outputs":[{"name":"","type":"address","internalType":"address"}],"stateMutability":"view"},{"type":"function","name":"ownerOf","inputs":[{"name":"tokenId","type":"uint256","internalType":"uint256"}],"outputs":[{"name":"","type":"address","internalType":"address"}],"stateMutability":"view"},{"type":"function","name":"price","inputs":[{"name":"parentNode","type":"bytes32","internalType":"bytes32"},{"name":"label","type":"string","internalType":"string"},{"name":"duration","type":"uint256","internalType":"uint256"}],"outputs":[{"name":"","type":"uint256","internalType":"uint256"}],"stateMutability":"view"},{"type":"function","name":"primaryName","inputs":[{"name":"addr","type":"address","internalType":"address"}],"outputs":[{"name":"label","type":"string","internalType":"string"},{"name":"parentNode","type":"bytes32","internalType":"bytes32"}],"stateMutability":"view"},{"type":"function","name":"primaryNode","inputs":[{"name":"addr","type":"address","internalType":"address"}],"outputs":[{"name":"","type":"bytes32","internalType":"bytes32"}],"stateMutability":"view"},{"type":"function","name":"primaryTokenId","inputs":[{"name":"","type":"address","internalType":"address"}],"outputs":[{"name":"","type":"uint256","internalType":"uint256"}],"stateMutability":"view"},{"type":"function","name":"records","inputs":[],"outputs":[{"name":"","type":"address","internalType":"address"}],"stateMutability":"view"},{"type":"function","name":"register","inputs":[{"name":"parentNode","type":"bytes32","internalType":"bytes32"},{"name":"label","type":"string","internalType":"string"},{"name":"duration","type":"uint256","internalType":"uint256"}],"outputs":[{"name":"tokenId","type":"uint256","internalType":"uint256"}],"stateMutability":"payable"},{"type":"function","name":"registerFor","inputs":[{"name":"parentNode","type":"bytes32","internalType":"bytes32"},{"name":"label","type":"string","internalType":"string"},{"name":"to","type":"address","internalType":"address"},{"name":"duration","type":"uint256","internalType":"uint256"}],"outputs":[{"name":"tokenId","type":"uint256","internalType":"uint256"}],"stateMutability":"payable"},{"type":"function","name":"renew","inputs":[{"name":"tokenId","type":"uint256","internalType":"uint256"},{"name":"duration","type":"uint256","internalType":"uint256"}],"outputs":[],"stateMutability":"payable"},{"type":"function","name":"renounceOwnership","inputs":[],"outputs":[],"stateMutability":"nonpayable"},{"type":"function","name":"reserved","inputs":[{"name":"","type":"bytes32","internalType":"bytes32"},{"name":"","type":"bytes32","internalType":"bytes32"}],"outputs":[{"name":"","type":"bool","internalType":"bool"}],"stateMutability":"view"},{"type":"function","name":"safeTransferFrom","inputs":[{"name":"from","type":"address","internalType":"address"},{"name":"to","type":"address","internalType":"address"},{"name":"tokenId","type":"uint256","internalType":"uint256"}],"outputs":[],"stateMutability":"nonpayable"},{"type":"function","name":"safeTransferFrom","inputs":[{"name":"from","type":"address","internalType":"address"},{"name":"to","type":"address","internalType":"address"},{"name":"tokenId","type":"uint256","internalType":"uint256"},{"name":"data","type":"bytes","internalType":"bytes"}],"outputs":[],"stateMutability":"nonpayable"},{"type":"function","name":"setApprovalForAll","inputs":[{"name":"operator","type":"address","internalType":"address"},{"name":"approved","type":"bool","internalType":"bool"}],"outputs":[],"stateMutability":"nonpayable"},{"type":"function","name":"setMaxDuration","inputs":[{"name":"parentNode","type":"bytes32","internalType":"bytes32"},{"name":"maxDur","type":"uint256","internalType":"uint256"}],"outputs":[],"stateMutability":"nonpayable"},{"type":"function","name":"setMinLabelLength","inputs":[{"name":"parentNode","type":"bytes32","internalType":"bytes32"},{"name":"minLen","type":"uint8","internalType":"uint8"}],"outputs":[],"stateMutability":"nonpayable"},{"type":"function","name":"setPrice","inputs":[{"name":"parentNode","type":"bytes32","internalType":"bytes32"},{"name":"pricePerYear","type":"uint256","internalType":"uint256"}],"outputs":[],"stateMutability":"nonpayable"},{"type":"function","name":"setPrimaryName","inputs":[{"name":"tokenId","type":"uint256","internalType":"uint256"}],"outputs":[],"stateMutability":"nonpayable"},{"type":"function","name":"setRecords","inputs":[{"name":"_records","type":"address","internalType":"address"}],"outputs":[],"stateMutability":"nonpayable"},{"type":"function","name":"setRegistrationsOpen","inputs":[{"name":"parentNode","type":"bytes32","internalType":"bytes32"},{"name":"open","type":"bool","internalType":"bool"}],"outputs":[],"stateMutability":"nonpayable"},{"type":"function","name":"setReservedHashes","inputs":[{"name":"parentNode","type":"bytes32","internalType":"bytes32"},{"name":"hashes","type":"bytes32[]","internalType":"bytes32[]"},{"name":"status","type":"bool","internalType":"bool"}],"outputs":[],"stateMutability":"nonpayable"},{"type":"function","name":"setTreasury","inputs":[{"name":"_treasury","type":"address","internalType":"address"}],"outputs":[],"stateMutability":"nonpayable"},{"type":"function","name":"supportsInterface","inputs":[{"name":"interfaceId","type":"bytes4","internalType":"bytes4"}],"outputs":[{"name":"","type":"bool","internalType":"bool"}],"stateMutability":"view"},{"type":"function","name":"symbol","inputs":[],"outputs":[{"name":"","type":"string","internalType":"string"}],"stateMutability":"view"},{"type":"function","name":"tldExists","inputs":[{"name":"","type":"bytes32","internalType":"bytes32"}],"outputs":[{"name":"","type":"bool","internalType":"bool"}],"stateMutability":"view"},{"type":"function","name":"tlds","inputs":[{"name":"","type":"bytes32","internalType":"bytes32"}],"outputs":[{"name":"pricePerYear","type":"uint256","internalType":"uint256"},{"name":"minLabelLength","type":"uint8","internalType":"uint8"},{"name":"maxDuration","type":"uint256","internalType":"uint256"},{"name":"registrationsOpen","type":"bool","internalType":"bool"}],"stateMutability":"view"},{"type":"function","name":"tokenIdToLabel","inputs":[{"name":"","type":"uint256","internalType":"uint256"}],"outputs":[{"name":"","type":"string","internalType":"string"}],"stateMutability":"view"},{"type":"function","name":"tokenIdToParentNode","inputs":[{"name":"","type":"uint256","internalType":"uint256"}],"outputs":[{"name":"","type":"bytes32","internalType":"bytes32"}],"stateMutability":"view"},{"type":"function","name":"tokenURI","inputs":[{"name":"tokenId","type":"uint256","internalType":"uint256"}],"outputs":[{"name":"","type":"string","internalType":"string"}],"stateMutability":"view"},{"type":"function","name":"transferFrom","inputs":[{"name":"from","type":"address","internalType":"address"},{"name":"to","type":"address","internalType":"address"},{"name":"tokenId","type":"uint256","internalType":"uint256"}],"outputs":[],"stateMutability":"nonpayable"},{"type":"function","name":"transferOwnership","inputs":[{"name":"newOwner","type":"address","internalType":"address"}],"outputs":[],"stateMutability":"nonpayable"},{"type":"function","name":"treasury","inputs":[],"outputs":[{"name":"","type":"address","internalType":"address"}],"stateMutability":"view"},{"type":"function","name":"withdrawETH","inputs":[],"outputs":[],"stateMutability":"nonpayable"},{"type":"event","name":"Approval","inputs":[{"name":"owner","type":"address","indexed":true,"internalType":"address"},{"name":"approved","type":"address","indexed":true,"internalType":"address"},{"name":"tokenId","type":"uint256","indexed":true,"internalType":"uint256"}],"anonymous":false},{"type":"event","name":"ApprovalForAll","inputs":[{"name":"owner","type":"address","indexed":true,"internalType":"address"},{"name":"operator","type":"address","indexed":true,"internalType":"address"},{"name":"approved","type":"bool","indexed":false,"internalType":"bool"}],"anonymous":false},{"type":"event","name":"MaxDurationUpdated","inputs":[{"name":"parentNode","type":"bytes32","indexed":true,"internalType":"bytes32"},{"name":"newMaxDuration","type":"uint256","indexed":false,"internalType":"uint256"}],"anonymous":false},{"type":"event","name":"MinLabelLengthUpdated","inputs":[{"name":"parentNode","type":"bytes32","indexed":true,"internalType":"bytes32"},{"name":"newMinLength","type":"uint8","indexed":false,"internalType":"uint8"}],"anonymous":false},{"type":"event","name":"OwnershipTransferred","inputs":[{"name":"previousOwner","type":"address","indexed":true,"internalType":"address"},{"name":"newOwner","type":"address","indexed":true,"internalType":"address"}],"anonymous":false},{"type":"event","name":"PaymentConfigUpdated","inputs":[{"name":"token","type":"address","indexed":true,"internalType":"address"},{"name":"treasury","type":"address","indexed":true,"internalType":"address"}],"anonymous":false},{"type":"event","name":"PriceUpdated","inputs":[{"name":"parentNode","type":"bytes32","indexed":true,"internalType":"bytes32"},{"name":"newPrice","type":"uint256","indexed":false,"internalType":"uint256"}],"anonymous":false},{"type":"event","name":"PrimaryNameCleared","inputs":[{"name":"addr","type":"address","indexed":true,"internalType":"address"}],"anonymous":false},{"type":"event","name":"PrimaryNameSet","inputs":[{"name":"addr","type":"address","indexed":true,"internalType":"address"},{"name":"tokenId","type":"uint256","indexed":true,"internalType":"uint256"}],"anonymous":false},{"type":"event","name":"RecordsContractUpdated","inputs":[{"name":"newRecords","type":"address","indexed":false,"internalType":"address"}],"anonymous":false},{"type":"event","name":"RegistrationsOpenUpdated","inputs":[{"name":"parentNode","type":"bytes32","indexed":true,"internalType":"bytes32"},{"name":"open","type":"bool","indexed":false,"internalType":"bool"}],"anonymous":false},{"type":"event","name":"ReservedUpdated","inputs":[{"name":"parentNode","type":"bytes32","indexed":true,"internalType":"bytes32"},{"name":"labelHash","type":"bytes32","indexed":true,"internalType":"bytes32"},{"name":"isReserved","type":"bool","indexed":false,"internalType":"bool"}],"anonymous":false},{"type":"event","name":"SubnameRegistered","inputs":[{"name":"parentNode","type":"bytes32","indexed":true,"internalType":"bytes32"},{"name":"tokenId","type":"uint256","indexed":true,"internalType":"uint256"},{"name":"label","type":"string","indexed":false,"internalType":"string"},{"name":"owner","type":"address","indexed":true,"internalType":"address"},{"name":"expiry","type":"uint256","indexed":false,"internalType":"uint256"}],"anonymous":false},{"type":"event","name":"SubnameRenewed","inputs":[{"name":"tokenId","type":"uint256","indexed":true,"internalType":"uint256"},{"name":"newExpiry","type":"uint256","indexed":false,"internalType":"uint256"}],"anonymous":false},{"type":"event","name":"TldConfigured","inputs":[{"name":"parentNode","type":"bytes32","indexed":true,"internalType":"bytes32"}],"anonymous":false},{"type":"event","name":"Transfer","inputs":[{"name":"from","type":"address","indexed":true,"internalType":"address"},{"name":"to","type":"address","indexed":true,"internalType":"address"},{"name":"tokenId","type":"uint256","indexed":true,"internalType":"uint256"}],"anonymous":false},{"type":"error","name":"AlreadyRegistered","inputs":[]},{"type":"error","name":"DurationTooLong","inputs":[]},{"type":"error","name":"ERC721IncorrectOwner","inputs":[{"name":"sender","type":"address","internalType":"address"},{"name":"tokenId","type":"uint256","internalType":"uint256"},{"name":"owner","type":"address","internalType":"address"}]},{"type":"error","name":"ERC721InsufficientApproval","inputs":[{"name":"operator","type":"address","internalType":"address"},{"name":"tokenId","type":"uint256","internalType":"uint256"}]},{"type":"error","name":"ERC721InvalidApprover","inputs":[{"name":"approver","type":"address","internalType":"address"}]},{"type":"error","name":"ERC721InvalidOperator","inputs":[{"name":"operator","type":"address","internalType":"address"}]},{"type":"error","name":"ERC721InvalidOwner","inputs":[{"name":"owner","type":"address","internalType":"address"}]},{"type":"error","name":"ERC721InvalidReceiver","inputs":[{"name":"receiver","type":"address","internalType":"address"}]},{"type":"error","name":"ERC721InvalidSender","inputs":[{"name":"sender","type":"address","internalType":"address"}]},{"type":"error","name":"ERC721NonexistentToken","inputs":[{"name":"tokenId","type":"uint256","internalType":"uint256"}]},{"type":"error","name":"Expired","inputs":[]},{"type":"error","name":"InsufficientPayment","inputs":[]},{"type":"error","name":"InvalidAddress","inputs":[]},{"type":"error","name":"InvalidLabel","inputs":[]},{"type":"error","name":"LabelTooShort","inputs":[]},{"type":"error","name":"NotAuthorized","inputs":[]},{"type":"error","name":"OwnableInvalidOwner","inputs":[{"name":"owner","type":"address","internalType":"address"}]},{"type":"error","name":"OwnableUnauthorizedAccount","inputs":[{"name":"account","type":"address","internalType":"address"}]},{"type":"error","name":"ReentrancyGuardReentrantCall","inputs":[]},{"type":"error","name":"RegistrationsClosed","inputs":[]},{"type":"error","name":"Reserved","inputs":[]},{"type":"error","name":"TransferFailed","inputs":[]},{"type":"error","name":"UnknownTld","inputs":[]}],"bytecode":{"object":"0x6080346103c157601f19906001600160401b03601f612f2238819003828101861685019190848311868410176102ef5780869260409485528339810103126103c15761004a836103e4565b9161005860208095016103e4565b916100616103c5565b94600c86526b48656176656e204e616d657360a01b818701526100826103c5565b9660068852652422a0ab22a760d11b8289015286518481116102ef575f546001988982811c921680156103b7575b858310146102d1578186849311610369575b50849086831160011461030e575f92610303575b50505f19600383901b1c191690881b175f555b87519384116102ef5786548781811c911680156102e5575b838210146102d15783811161028e575b508192841160011461022d57505081929394955f92610222575b50505f19600383901b1c191690841b1783555b6001600160a01b0390811691821561020a57600680546001600160a01b031980821686179092556040519591949084167f8be0079c531659141344cd1fd0a4f28419497f9722a3daafe3b4186f6b6457e05f80a37f9b779b17422d0df92223018b32b4d1fa46e071723d6817e2486d003becc55f0055169081156101fb5781906007541617600755604051905f7fc5d3e00c640eabfaf5ddc55feceab6976873338302fbb6bd7aab1b45779102aa8180a3612b2990816103f98239f35b63e6c4247b60e01b8352600483fd5b604051631e4fbdf760e01b81525f6004820152602490fd5b015190505f8061012b565b5f878152828120918516989193925b898210610277575050838798979596971061025f575b505050811b01835561013e565b01515f1960f88460031b161c191690555f8080610252565b80898596829496860151815501950193019061023c565b875f52825f208480870160051c8201928588106102c8575b0160051c019088905b8281106102bd575050610111565b5f81550188906102af565b925081926102a6565b634e487b7160e01b5f52602260045260245ffd5b90607f1690610101565b634e487b7160e01b5f52604160045260245ffd5b015190505f806100d6565b90848b9416915f8052865f20925f5b88828210610353575050841161033b575b505050811b015f556100e9565b01515f1960f88460031b161c191690555f808061032e565b8385015186558e9790950194938401930161031d565b9091505f8052845f208680850160051c8201928786106103ae575b918c91869594930160051c01915b8281106103a05750506100c2565b5f81558594508c9101610392565b92508192610384565b91607f16916100b0565b5f80fd5b60408051919082016001600160401b038111838210176102ef57604052565b51906001600160a01b03821682036103c15756fe608080604052600436101561001c575b50361561001a575f80fd5b005b5f3560e01c90816301ffc9a714611bf45750806306fdde0314611b6a57806307dda41114611b16578063081812fc14611ada578063095ea7b3146119f957806310d8d74d146119945780631e56ca531461197157806323b872dd1461195a57806332fea0d2146118d657806342842e0e146118a95780634487caf2146118715780634f46f7da1461183357806361d027b31461180b5780636250b58e1461179f5780636352211e1461176f57806370a0823114611719578063715018a6146116d15780637247d887146116a25780638847fbc91461162e57806389833db7146115e85780638da5cb5b146115c057806393c355171461158557806395a3be991461155d57806395d89b411461149d57806396f7343f1461147357806397d8c49214611382578063991d6fde14610ebb5780639afcba4314610e905780639c81176614610e28578063a22cb46514610d70578063a4f6965714610cfb578063a67aa19414610cde578063b6a6d17714610cc0578063b88d4fde14610c54578063b8bc3d2314610bd5578063b9b5bec9146106d3578063b9cce328146106a9578063c1a287e21461068c578063c1b31202146105ea578063c475abff14610487578063c87b56dd14610432578063e086e5ec146103e5578063e985e9c514610393578063eba951aa14610351578063f0f44260146102d6578063f2fde38b146102635763ff669b101461022d575f61000f565b3461025f575f36600319011261025f57335f52600e6020525f6040812055335f80516020612a548339815191525f80a2005b5f80fd5b3461025f57602036600319011261025f5761027c611c83565b6102846123dd565b6001600160a01b039081169081156102be57600680546001600160a01b031981168417909155165f80516020612a948339815191525f80a3005b604051631e4fbdf760e01b81525f6004820152602490fd5b3461025f57602036600319011261025f576102ef611c83565b6102f76123dd565b6001600160a01b0316801561033f57600780546001600160a01b031916821790555f7fc5d3e00c640eabfaf5ddc55feceab6976873338302fbb6bd7aab1b45779102aa8180a3005b60405163e6c4247b60e01b8152600490fd5b3461025f57602036600319011261025f57610389610375610370611c83565b61231b565b604051928392604084526040840190611c5f565b9060208301520390f35b3461025f57604036600319011261025f576103ac611c83565b6103b4611c99565b9060018060a01b038091165f52600560205260405f2091165f52602052602060ff60405f2054166040519015158152f35b3461025f575f36600319011261025f576103fd6123dd565b5f80808060018060a01b036006541647905af16104186122ec565b501561042057005b6040516312171d8360e31b8152600490fd5b3461025f57602036600319011261025f5761044e6004356123a3565b505f60405161045c81611db9565b5261048360405161046c81611db9565b5f8152604051918291602083526020830190611c5f565b0390f35b604036600319011261025f576004356024356104a1612727565b815f526020600b815260405f2054805f526009825260ff60405f205416156105d8575f526008815260405f206301e1338083106105aa57600281015480151590816105ce575b506105bc57835f52600d825260405f20549283156105aa576276a7008401808511610596574211610584577fc6f94ce76767d6d26f0e5e481088c477653a00bc52a325e7c08deb59b9a78bab93610549610544836105569561270c565b612756565b4281111561057d57611f4b565b835f52600d82528060405f2055604051908152a260015f80516020612ad483398151915255005b5042611f4b565b604051630407b05b60e31b8152600490fd5b634e487b7160e01b5f52601160045260245ffd5b604051633d36cb8d60e01b8152600490fd5b604051634a94fa8360e11b8152600490fd5b90508311856104e7565b604051631b0812ed60e11b8152600490fd5b3461025f5760a036600319011261025f5760043560443560ff811680910361025f57608435801515810361025f57610654906106246123dd565b835f526008602052600360405f2060243581556001810160ff199586825416179055606435600282015501612273565b6009602052600160405f20918254161790557f4cb04288c5ac70eb1edbf52992134749fcc3885d00270e2c32be46e06e51f2d25f80a2005b3461025f575f36600319011261025f5760206040516276a7008152f35b3461025f57602036600319011261025f576004355f52600d602052602060405f2054604051908152f35b6106dc36611eb4565b91905f6106e7612727565b845f526020946009865260ff60405f205416156105d857805f526008865260405f2093610715368583611f15565b8781519101209460ff60038201541615610bc3576107338583612409565b156105aa5760019560ff87830154168610610bb1576301e1338088106105aa5760028201548015159081610ba7575b506105bc57835f52600a895260405f20815f52895260ff60405f205416610b95576040518981019185835260408201526040815261079f81611dd4565b51902096875f526002895260018060a01b0391818360405f205416610a60575b610544906107cc9261270c565b878552600b89526040808620859055600c8a528520906001600160401b038711610a4c576107fa8254611d5a565b601f8111610a13575b50859187601f81116001146109ab57806108359161083e958a916109a0575b508160011b915f199060031b1c19161790565b90555b42611f4b565b90878552600d895281604086205560405161085881611db9565b8581523315610987578161086c8a336125f6565b1661096e5790610882899594939286333361282a565b600f541694856108f1575b8495506108a95f80516020612a348339815191529495336127a3565b866040519360408552816040860152606085013760608784010152888201526060813396601f80199101168101030190a45f80516020612ad483398151915255604051908152f35b9193509193803b1561096a57818091604460405180948193630d1550db60e11b83528d60048401528d60248401525af1801561095f579088959493929161093e575b50908493929161088d565b81929394955061094d90611d92565b61095c57908693929189610933565b80fd5b6040513d84823e3d90fd5b5080fd5b6040516339e3563760e11b815260048101879052602490fd5b604051633250574960e11b815260048101879052602490fd5b90508701358e610822565b508087528a8720879389601f1981168e5b8d8289106109f857505061083e9650106109df575b50508888811b019055610838565b8601355f1960038b901b60f8161c191690558b806109d1565b848b013586559781019790940193909201918b91508e6109bc565b610a3c908388528b8820601f8a0160051c8101918d8b10610a42575b601f0160051c0190612284565b8a610803565b9091508190610a2f565b634e487b7160e01b86526041600452602486fd5b50600d8a5260405f20546276a7008101809111610596574210610b835782610a878a612500565b1615610b6a57885f52600b8a525f6040812055600c8a5260405f20610aac8154611d5a565b9081610b2e575b5050885f52600d8a525f60408120558183600f541680610ad4575b506107bf565b8091503b1561025f575f809160248c60405194859384926306c07aeb60e31b845260048401525af18015610b2357610b0e575b8290610ace565b610b19919650611d92565b5f94610544610b07565b6040513d5f823e3d90fd5b818c601f5f9411600114610b47575050555b8a80610ab3565b8284528320918391610b6390601f0160051c84018d8501612284565b5555610b40565b604051637e27328960e01b8152600481018a9052602490fd5b604051630ea075bf60e21b8152600490fd5b604051637d79fa0f60e11b8152600490fd5b905088118a610762565b604051631406d65b60e11b8152600490fd5b604051632596f79960e01b8152600490fd5b3461025f57604036600319011261025f57600435610bf1611eeb565b610bf96123dd565b815f52600960205260ff60405f205416156105d85760207fccd884e06770052d0bfc1e5508e20c73a56d50602095337ae1d5022d450c594091835f5260088252610c4981600360405f2001612273565b6040519015158152a2005b3461025f57608036600319011261025f57610c6d611c83565b610c75611c99565b6064359190604435906001600160401b03841161025f573660238501121561025f57610cae61001a943690602481600401359101611f15565b92610cba838383612049565b3361293d565b3461025f575f36600319011261025f5760206040516301e133808152f35b3461025f57602036600319011261025f5760206040516004358152f35b3461025f57602036600319011261025f57600435610d18816123a3565b336001600160a01b0390911603610d5e57805f52600d60205260405f2054421161058457335f52600e6020528060405f2055335f80516020612a748339815191525f80a3005b60405163ea8e4eb560e01b8152600490fd5b3461025f57604036600319011261025f57610d89611c83565b610d91611eeb565b903315610e10576001600160a01b0316908115610df757335f52600560205260405f20825f52602052610dc78160405f20612273565b60405190151581527f17307eab39ab6107e8899845ad3d59bd9653f200f220920489ca2b5937696c3160203392a3005b604051630b61174360e31b815260048101839052602490fd5b60405163a9fbf51f60e01b81525f6004820152602490fd5b3461025f57610e3636611caf565b610e3e6123dd565b815f52600960205260ff60405f205416156105d85760207fa6d674fc8c7b671cbaabf743c71fb5f0ced936f4287c7091e77e31d5cb13083f91835f526008825280600260405f200155604051908152a2005b3461025f57602036600319011261025f576020610eb3610eae611c83565b61229a565b604051908152f35b608036600319011261025f576024356001600160401b03811161025f57610ee6903690600401611cc5565b6044356001600160a01b038116900361025f575f91610f03612727565b6004355f52600960205260ff60405f205416156105d8576004355f52600860205260405f2091610f34368284611f15565b6020815191012060ff60038501541615610bc357610f528284612409565b156105aa5760ff6001850154168210610bb1576301e13380606435106105aa5760028401548015159081611376575b506105bc576004355f52600a60205260405f20815f5260205260ff60405f205416610b955760405160208101916004358352604082015260408152610fc581611dd4565b5190205f818152600260205260409020549093906001600160a01b0316611257575b610544610ff7916064359061270c565b828452600b6020526004356040852055600c6020526040842060018060401b038211611243576110278154611d5a565b601f8111611213575b508482601f81116001146111b0578061105c9288916111a557508160011b915f199060031b1c19161790565b90555b61106b60643542611f4b565b838552600d60205280604086205560405161108581611db9565b8581526044356001600160a01b031615610987576001600160a01b036110ad866044356125f6565b1661096e576110c090856044353361282a565b600f546001600160a01b03168061114b575b509083916020956110e5846044356127a3565b826040519560408752816040880152606087013760608386010152858401525f80516020612a3483398151915260018060a01b03604435169360608160043594601f80199101168101030190a460015f80516020612ad483398151915255604051908152f35b8086913b1561096a578190604460405180948193630d1550db60e11b83528a60048401528a60248401525af1801561119a57156110d25761118c8691611d92565b61119657856110d2565b8480fd5b6040513d88823e3d90fd5b905085013588610822565b508186526020862090865b601f19851681106111fb575083601f198116106111e2575b5050600182811b01905561105f565b8401355f19600385901b60f8161c1916905585806111d3565b909160206001819285890135815501930191016111bb565b61123d9082875260208720601f850160051c81019160208610610a4257601f0160051c0190612284565b85611030565b634e487b7160e01b85526041600452602485fd5b600d60205260405f20546276a7008101809111610596574210610b83576001600160a01b0361128585612500565b161561135d57835f52600b6020525f6040812055600c60205260405f206112ac8154611d5a565b9081611320575b50505f848152600d6020526040812055600f546001600160a01b0316806112db575b50610fe7565b803b1561025f575f80916024604051809481936306c07aeb60e31b83528a60048401525af18015610b2357156112d557611316919550611d92565b5f936105446112d5565b81601f5f93116001146113375750555b85806112b3565b908083918252611356601f60208420940160051c840160018501612284565b5555611330565b604051637e27328960e01b815260048101859052602490fd5b90506064351186610f81565b3461025f57606036600319011261025f576004356024356001600160401b0380821161025f573660238301121561025f57816004013590811161025f576024820191602436918360051b01011161025f57604435928315159182850361025f576113ea6123dd565b815f526020600960205260ff60405f205416156105d8575f5b82811061140c57005b600190845f52600a835260405f2061142582868a61224f565b355f5283526114378860405f20612273565b61144281858961224f565b35857ff627314b7004b29b74af9460124e7b4fc0d2a74df16daf2f43003e419e1fc092856040518a8152a301611403565b3461025f57602036600319011261025f576004355f52600b602052602060405f2054604051908152f35b3461025f575f36600319011261025f576040515f600182600154926114c184611d5a565b92838352602094856001821691825f1461153d575050600114611500575b506114ec92500383611def565b610483604051928284938452830190611c5f565b84915060015f52815f20905f915b8583106115255750506114ec9350820101856114df565b8054838901850152879450869390920191810161150e565b60ff1916858201526114ec95151560051b85010192508791506114df9050565b3461025f575f36600319011261025f57600f546040516001600160a01b039091168152602090f35b3461025f57604036600319011261025f576004355f52600a60205260405f206024355f52602052602060ff60405f2054166040519015158152f35b3461025f575f36600319011261025f576006546040516001600160a01b039091168152602090f35b3461025f5761160e6115f936611cf2565b92915f52600a60205260405f20923691611f15565b602081519101205f52602052602060ff60405f2054166040519015158152f35b3461025f5761163c36611eb4565b9290815f52600960205260ff60405f205416156105d857611668915f52600860205260405f2092612409565b156105aa576301e1338082106105aa5760028101548015159081611698575b506105bc57602091610eb39161270c565b9050821183611687565b3461025f57602036600319011261025f576004355f526009602052602060ff60405f2054166040519015158152f35b3461025f575f36600319011261025f576116e96123dd565b600680546001600160a01b031981169091555f906001600160a01b03165f80516020612a948339815191528280a3005b3461025f57602036600319011261025f576001600160a01b0361173a611c83565b168015611757575f526003602052602060405f2054604051908152f35b6040516322718ad960e21b81525f6004820152602490fd5b3461025f57602036600319011261025f57602061178d6004356123a3565b6040516001600160a01b039091168152f35b3461025f57602036600319011261025f577fdc12c30dbabb5f04df7f21b1d95f0433cd8420a0d75adb416ac908caed674e2060206117db611c83565b6117e36123dd565b600f80546001600160a01b0319166001600160a01b03929092169182179055604051908152a1005b3461025f575f36600319011261025f576007546040516001600160a01b039091168152602090f35b3461025f57602036600319011261025f576004355f52600c60205261048361185d60405f20611e12565b604051918291602083526020830190611c5f565b3461025f57602036600319011261025f576001600160a01b03611892611c83565b165f52600e602052602060405f2054604051908152f35b3461025f5761001a6118ba36611d25565b90604051926118c884611db9565b5f8452610cba838383612049565b3461025f57604036600319011261025f5760043560243560ff811680910361025f576119006123dd565b815f52600960205260ff60405f205416156105d85760207fe2f2c2b6b17503ade9b05229233b5e6942c5a9b5302d20e3aa6fed6b16cd42d391835f5260088252600160405f20018160ff19825416179055604051908152a2005b3461025f5761001a61196b36611d25565b91612049565b3461025f57602061198a61198436611cf2565b91611f58565b6040519015158152f35b3461025f576119a236611caf565b6119aa6123dd565b815f52600960205260ff60405f205416156105d85760207f46eec4e0eeeef5830de3472bb39db7e52b1c809286dc87c4b85b20e003cc70c391835f52600882528060405f2055604051908152a2005b3461025f57604036600319011261025f57611a12611c83565b602435611a1e816123a3565b33151580611ac7575b80611a9e575b611a86576001600160a01b039283169282918491167f8c5be1e5ebec7d5bd14f71427d1e84f3dd0314c0f7b2291e5b200ac8c7c3b9255f80a45f90815260046020526040902080546001600160a01b0319169091179055005b60405163a9fbf51f60e01b8152336004820152602490fd5b5060018060a01b0381165f52600560205260405f20335f5260205260ff60405f20541615611a2d565b506001600160a01b038116331415611a27565b3461025f57602036600319011261025f57600435611af7816123a3565b505f526004602052602060018060a01b0360405f205416604051908152f35b3461025f57602036600319011261025f576004355f526008602052608060405f2080549060ff6001820154169060ff6003600283015492015416916040519384526020840152604083015215156060820152f35b3461025f575f36600319011261025f576040515f80549082611b8b83611d5a565b91828252602093600190856001821691825f1461153d575050600114611bb857506114ec92500383611def565b8491505f8052815f20905f915b858310611bdc5750506114ec9350820101856114df565b80548389018501528794508693909201918101611bc5565b3461025f57602036600319011261025f576004359063ffffffff60e01b821680920361025f576020916380ac58cd60e01b8114908115611c4e575b8115611c3d575b5015158152f35b6301ffc9a760e01b14905083611c36565b635b5e139f60e01b81149150611c2f565b805180835260209291819084018484015e5f828201840152601f01601f1916010190565b600435906001600160a01b038216820361025f57565b602435906001600160a01b038216820361025f57565b604090600319011261025f576004359060243590565b9181601f8401121561025f578235916001600160401b03831161025f576020838186019501011161025f57565b90604060031983011261025f5760043591602435906001600160401b03821161025f57611d2191600401611cc5565b9091565b606090600319011261025f576001600160a01b0390600435828116810361025f5791602435908116810361025f579060443590565b90600182811c92168015611d88575b6020831014611d7457565b634e487b7160e01b5f52602260045260245ffd5b91607f1691611d69565b6001600160401b038111611da557604052565b634e487b7160e01b5f52604160045260245ffd5b602081019081106001600160401b03821117611da557604052565b606081019081106001600160401b03821117611da557604052565b601f909101601f19168101906001600160401b03821190821017611da557604052565b9060405191825f8254611e2481611d5a565b908184526020946001916001811690815f14611e925750600114611e54575b505050611e5292500383611def565b565b5f90815285812095935091905b818310611e7a575050611e5293508201015f8080611e43565b85548884018501529485019487945091830191611e61565b92505050611e5294925060ff191682840152151560051b8201015f8080611e43565b90606060031983011261025f5760043591602435906001600160401b03821161025f57611ee391600401611cc5565b909160443590565b60243590811515820361025f57565b6001600160401b038111611da557601f01601f191660200190565b929192611f2182611efa565b91611f2f6040519384611def565b82948184528183011161025f578281602093845f960137010152565b9190820180921161059657565b919091805f526020916009835260409360ff855f205416156120365760088452845f2060ff6003820154161561203f57611f928383612409565b1561203f576001015460ff16821061203657825f52600a8452845f20611fb9368484611f15565b8581519101205f52845260ff855f20541661203657611fd9913691611f15565b82815191012083519083820192835284820152838152611ff881611dd4565b5190205f90815260028252829020546001600160a01b03161561202f57600d90525f20546276a70081018091116105965742101590565b5050600190565b50505050505f90565b5050505050505f90565b6001600160a01b03918216929091831561223757815f52602092600284528260409583875f20541680151580809161222f575b612203575b806121f0575b6121cd575b50815f526002865283875f205416953315158061213b575b506002908761211c575b5f838152600382528981208054600101905584815291905287812080546001600160a01b0319168317905586905f80516020612ab48339815191529080a416928383036120fb5750505050565b6064945051926364283d7b60e01b8452600484015260248301526044820152fd5b61212584612a16565b875f5260038152885f205f1981540190556120ae565b919250908061218c575b15612153579084915f6120a4565b868587612170576024915190637e27328960e01b82526004820152fd5b604491519063177e802f60e01b82523360048301526024820152fd5b5033861480156121b1575b806121455750845f52600481523384885f20541614612145565b50855f5260058152865f20335f52815260ff875f205416612197565b805f52600e87525f888120555f80516020612a548339815191525f80a25f61208c565b50805f52600e875282885f205414612087565b90919250600d8752875f2054421161221e5790859291612081565b8751630407b05b60e31b8152600490fd5b50600161207c565b604051633250574960e11b81525f6004820152602490fd5b919081101561225f5760051b0190565b634e487b7160e01b5f52603260045260245ffd5b9060ff801983541691151516179055565b81811061228f575050565b5f8155600101612284565b6001600160a01b039081165f818152600e60205260409020549182156122e557825f52600260205260405f205416036122e057600d60205260405f205442116122e05790565b505f90565b5050505f90565b3d15612316573d906122fd82611efa565b9161230b6040519384611def565b82523d5f602084013e565b606090565b9060018060a01b0380921691825f52600e602052604092835f205491821561239557825f526002602052845f2054160361238157805f52600d602052825f20544211612381575f52600c60205261237d825f2092600b6020525f205492611e12565b9190565b50905161238d81611db9565b5f8152905f90565b505050905161238d81611db9565b5f818152600260205260409020546001600160a01b03169081156123c5575090565b60249060405190637e27328960e01b82526004820152fd5b6006546001600160a01b031633036123f157565b60405163118cdaa760e01b8152336004820152602490fd5b612414913691611f15565b805180159081156124f5575b506122e0575f5b8151808210156124ed5760ff60f81b602083850101511690606160f81b82101591826124de575b600360fc1b81101590816124cf575b602d60f81b14921590816124c6575b50806124be575b6124b65781612490575b5061248a57600101612427565b50505f90565b8215915081156124a2575b505f61247d565b5f198101915081116105965781145f61249b565b505050505f90565b508115612473565b9050155f61246c565b603960f81b811115915061245d565b603d60f91b811115925061244e565b505050600190565b603f9150115f612420565b805f526020906002825260018060a01b0360409080825f2054168015158080916125ef575b6125cf575b6002929190806125bc575b612599575b50835f52818552825f205416938461257a575b5f84815291905290812080546001600160a01b0319169055825f80516020612ab48339815191528280a490565b61258384612a16565b845f5260038152825f205f19815401905561254d565b805f52600e86525f848120555f80516020612a548339815191525f80a25f61253a565b50805f52600e865284845f205414612535565b600d8652835f205442111561252a578351630407b05b60e31b8152600490fd5b505f612525565b90805f5260206002815260018060a01b0360409080825f205416801515808091612701575b6126e1575b6002929190806126ce575b6126ab575b50845f5281845280835f205416958661268c575b169283612676575b845f52525f208160018060a01b0319825416179055825f80516020612ab48339815191525f80a490565b835f5260038152825f206001815401905561264c565b61269586612a16565b865f5260038552835f205f198154019055612644565b805f52600e85525f848120555f80516020612a548339815191525f80a25f612630565b50805f52600e855285845f20541461262b565b600d8552835f2054421115612620578351630407b05b60e31b8152600490fd5b50828716151561261b565b54818102918183041490151715610596576301e13380900490565b5f80516020612ad483398151915260028154146127445760029055565b604051633ee5aeb560e01b8152600490fd5b801561279b57803403612789576007545f918291829182916001600160a01b03165af16127816122ec565b501561042057565b60405163cd1c886760e01b8152600490fd5b503461278957565b60018060a01b0380911690815f52600e60205260405f205482811515928361280f575b5050816127f8575b506127f457805f52600e6020528160405f20555f80516020612a748339815191525f80a3565b5050565b90505f52600d60205260405f20544211155f6127ce565b90918093505f52600260205260405f2054161490825f6127c6565b91929092833b61283b575b50505050565b60209060018060a01b03809516946128826040519485938493630a85bd0160e11b988986521660048501525f60248501526044840152608060648401526084830190611c5f565b03815f875af15f91816128f8575b506128c7578261289e6122ec565b80519190826128c057604051633250574960e11b815260048101839052602490fd5b6020915001fd5b6001600160e01b031916036128e057505f808080612835565b60249060405190633250574960e11b82526004820152fd5b9091506020813d602011612935575b8161291460209383611def565b8101031261025f57516001600160e01b03198116810361025f57905f612890565b3d9150612907565b9291803b61294d575b5050505050565b604051630a85bd0160e11b8082526001600160a01b0395861660048301529285166024820152604481019390935260806064840152909216926020908290819061299b906084830190611c5f565b03815f875af15f91816129d1575b506129b7578261289e6122ec565b6001600160e01b031916036128e057505f80808080612946565b9091506020813d602011612a0e575b816129ed60209383611def565b8101031261025f57516001600160e01b03198116810361025f57905f6129a9565b3d91506129e0565b5f90815260046020526040902080546001600160a01b031916905556feaa9394e2cc8163192c12c5c13a97e45bd1a35bed37a87d29bd9f9349f8e096f58e8f5c3f8787ad607244e1eee8fa7299f2d75cc3ac3b7f3d775fca0da7b3343f41f2b80eda6de6f23cab2e867951d054a48d6794db479c1d252bb840a374b62c8be0079c531659141344cd1fd0a4f28419497f9722a3daafe3b4186f6b6457e0ddf252ad1be2c89b69c2b068fc378daa952ba7f163c4a11628f55a4df523b3ef9b779b17422d0df92223018b32b4d1fa46e071723d6817e2486d003becc55f00a26469706673582212201cb41eb57f91ece76d65c583969028fa819e1926824e081fe2a950705dd4e9ca64736f6c63430008190033","linkReferences":{}},"methodIdentifiers":{"GRACE_PERIOD()":"c1a287e2","MIN_DURATION()":"b6a6d177","approve(address,uint256)":"095ea7b3","available(bytes32,string)":"1e56ca53","balanceOf(address)":"70a08231","clearPrimaryName()":"ff669b10","configureTld(bytes32,uint256,uint8,uint256,bool)":"c1b31202","expiries(uint256)":"b9cce328","getApproved(uint256)":"081812fc","isApprovedForAll(address,address)":"e985e9c5","isReserved(bytes32,string)":"89833db7","name()":"06fdde03","nodeOf(uint256)":"a67aa194","owner()":"8da5cb5b","ownerOf(uint256)":"6352211e","price(bytes32,string,uint256)":"8847fbc9","primaryName(address)":"eba951aa","primaryNode(address)":"9afcba43","primaryTokenId(address)":"4487caf2","records()":"95a3be99","register(bytes32,string,uint256)":"b9b5bec9","registerFor(bytes32,string,address,uint256)":"991d6fde","renew(uint256,uint256)":"c475abff","renounceOwnership()":"715018a6","reserved(bytes32,bytes32)":"93c35517","safeTransferFrom(address,address,uint256)":"42842e0e","safeTransferFrom(address,address,uint256,bytes)":"b88d4fde","setApprovalForAll(address,bool)":"a22cb465","setMaxDuration(bytes32,uint256)":"9c811766","setMinLabelLength(bytes32,uint8)":"32fea0d2","setPrice(bytes32,uint256)":"10d8d74d","setPrimaryName(uint256)":"a4f69657","setRecords(address)":"6250b58e","setRegistrationsOpen(bytes32,bool)":"b8bc3d23","setReservedHashes(bytes32,bytes32[],bool)":"97d8c492","setTreasury(address)":"f0f44260","supportsInterface(bytes4)":"01ffc9a7","symbol()":"95d89b41","tldExists(bytes32)":"7247d887","tlds(bytes32)":"07dda411","tokenIdToLabel(uint256)":"4f46f7da","tokenIdToParentNode(uint256)":"96f7343f","tokenURI(uint256)":"c87b56dd","transferFrom(address,address,uint256)":"23b872dd","transferOwnership(address)":"f2fde38b","treasury()":"61d027b3","withdrawETH()":"e086e5ec"},"id":53}