{"abi":[{"type":"constructor","inputs":[{"name":"hubV2","type":"address","internalType":"address"},{"name":"scopeSeed","type":"string","internalType":"string"},{"name":"rawCfg","type":"tuple","internalType":"struct SelfUtils.UnformattedVerificationConfigV2","components":[{"name":"olderThan","type":"uint256","internalType":"uint256"},{"name":"forbiddenCountries","type":"string[]","internalType":"string[]"},{"name":"ofacEnabled","type":"bool","internalType":"bool"}]}],"stateMutability":"nonpayable"},{"type":"function","name":"getConfigId","inputs":[{"name":"","type":"bytes32","internalType":"bytes32"},{"name":"","type":"bytes32","internalType":"bytes32"},{"name":"","type":"bytes","internalType":"bytes"}],"outputs":[{"name":"","type":"bytes32","internalType":"bytes32"}],"stateMutability":"view"},{"type":"function","name":"nullifierOwner","inputs":[{"name":"","type":"uint256","internalType":"uint256"}],"outputs":[{"name":"","type":"address","internalType":"address"}],"stateMutability":"view"},{"type":"function","name":"onVerificationSuccess","inputs":[{"name":"output","type":"bytes","internalType":"bytes"},{"name":"userData","type":"bytes","internalType":"bytes"}],"outputs":[],"stateMutability":"nonpayable"},{"type":"function","name":"scope","inputs":[],"outputs":[{"name":"","type":"uint256","internalType":"uint256"}],"stateMutability":"view"},{"type":"function","name":"verificationConfig","inputs":[],"outputs":[{"name":"olderThanEnabled","type":"bool","internalType":"bool"},{"name":"olderThan","type":"uint256","internalType":"uint256"},{"name":"forbiddenCountriesEnabled","type":"bool","internalType":"bool"}],"stateMutability":"view"},{"type":"function","name":"verificationConfigId","inputs":[],"outputs":[{"name":"","type":"bytes32","internalType":"bytes32"}],"stateMutability":"view"},{"type":"function","name":"verifiedAt","inputs":[{"name":"","type":"address","internalType":"address"}],"outputs":[{"name":"","type":"uint64","internalType":"uint64"}],"stateMutability":"view"},{"type":"function","name":"verifySelfProof","inputs":[{"name":"proofPayload","type":"bytes","internalType":"bytes"},{"name":"userContextData","type":"bytes","internalType":"bytes"}],"outputs":[],"stateMutability":"nonpayable"},{"type":"event","name":"Verified","inputs":[{"name":"user","type":"address","indexed":true,"internalType":"address"},{"name":"timestamp","type":"uint64","indexed":false,"internalType":"uint64"},{"name":"nullifier","type":"uint256","indexed":false,"internalType":"uint256"}],"anonymous":false},{"type":"error","name":"InvalidDataFormat","inputs":[]},{"type":"error","name":"NullifierAlreadyUsed","inputs":[]},{"type":"error","name":"UnauthorizedCaller","inputs":[]},{"type":"error","name":"UserIdentifierNotAddress","inputs":[]}],"bytecode":{"object":"0x60a080604052346104cd576113b0803803809161001c82856105b9565b83398101906060818303126104cd5780516001600160a01b03811692908390036104cd5760208201516001600160401b0381116104cd578161005f9184016105f7565b604083015190926001600160401b0382116104cd5701906060828203126104cd5760405191606083016001600160401b0381118482101761056f576040528051835260208101516001600160401b0381116104cd5781019180601f840112156104cd578251926001600160401b03841161056f578360051b90604051946100e960208401876105b9565b8552602080860192820101918383116104cd5760208201905b83821061054257505050505060208301918252604001519283151584036104cd5761014190604084019485528560805261013a61063d565b90306106b1565b5f556040519061015082610583565b5f82525f60208301525f604083015260809260405161016f85826105b9565b843682376060840152606092846040519161018a86846105b9565b8536843701526040519461019e84876105b9565b83368737805115158652805115156020870152511515604086015251938415159151938451151596604051926101d483856105b9565b823685375f98865b88518b10156102ab5760208b60051b8a0101519060038251036102405761023860209182806001956040519584879551918291018487015e8401908282015f8152815193849201905e01015f815203601f1981018352826105b9565b9a01996101dc565b60405162461bcd60e51b815260206004820152603760248201527f496e76616c696420636f756e74727920636f64653a206d75737420626520657860448201527f6163746c7920332063686172616374657273206c6f6e670000000000000000006064820152608490fd5b9392919089855197601f8901808a1161030a57601e8a0190811161030a57601f9004995f5b8b811080610538575b15610393575f5f5b601f81106103325750600482101561031e578160051b8b01525f19811461030a576001016102d0565b634e487b7160e01b5f52601160045260245ffd5b634e487b7160e01b5f52603260045260245ffd5b9082601f02601f8104840361030a578261034b916109dd565b8d811061035d575b50906001016102e1565b610367908c6109ea565b5160f81c6001600160fd1b038316830361030a5760019161038d918460031b1b906109dd565b90610353565b5090868994939285604051916103a883610583565b8483528560208401528660408401528201520194855260ff80196003541691161760035560045560ff8019600554169116176005555f5b60048110610523575050515f905f5b600381106104fe575050600a55604051906309ddb09160e01b825260ff6003541615156004830152600454602483015260ff600554161515604483015281606481016006905f905b600482106104e457505050610144815f60209460ff600a54818116151560e4860152818160081c16151561010486015260101c1615156101248401525af19081156104d9575f916104a3575b50600b556040516108ce9182610ae2833951818181610193015261033e0152f35b90506020813d6020116104d1575b816104be602093836105b9565b810103126104cd575182610482565b5f80fd5b3d91506104b1565b6040513d5f823e3d90fd5b825481528593506001928301929190910190602001610436565b90916020600191845115159060ff808660031b9316831b921b191617930191016103ee565b600190602083519301928160060155016103df565b50600481106102d9565b81516001600160401b0381116104cd57602091610564878480948801016105f7565b815201910190610102565b634e487b7160e01b5f52604160045260245ffd5b60a081019081106001600160401b0382111761056f57604052565b604081019081106001600160401b0382111761056f57604052565b601f909101601f19168101906001600160401b0382119082101761056f57604052565b6001600160401b03811161056f57601f01601f191660200190565b81601f820112156104cd5780519061060e826105dc565b9261061c60405194856105b9565b828452602083830101116104cd57815f9260208093018386015e8301015290565b61a4ec461461066c5762aa044c4614610654575f90565b730a782f7f9f8aac6e0bacaf3cd4aa292c3275c6f290565b73f134707a4c4a3a76b8410fc0294d620a7c34158190565b919060408301925f905b6002821061069b57505050565b602080600192855181520193019101909161068e565b90916001600160a01b03169081156109d657604080519093916001600160a01b0316906106de85826105b9565b601081526f181899199a1a9b1b9c1cb0b131b232b360811b60208201528451916107096060846105b9565b602a835260208301604036823783511561031e576030905382516001101561031e57607860218401535f5b6014811061093857505050601f61074a816105dc565b610756865191826105b9565b818152601f19610765836105dc565b013660208301375f5b82811061090d575061077f906109fb565b9161078a600b6105dc565b91610797875193846105b9565b600b8352601f196107a8600b6105dc565b013660208501375b602a81106108d55750506107f792916107cc82602093506109fb565b8651916107d88361059e565b825282820152855180948192632b0aac7f60e11b835260048301610684565b0381865afa9182156108cb575f92610895575b50906108479261081b6020936109fb565b8551926108278461059e565b83528383015284518080958194632b0aac7f60e11b835260048301610684565b03915afa91821561088c57505f9161085d575090565b90506020813d602011610884575b81610878602093836105b9565b810103126104cd575190565b3d915061086b565b513d5f823e3d90fd5b91506020823d6020116108c3575b816108b0602093836105b9565b810103126104cd5790519061084761080a565b3d91506108a3565b84513d5f823e3d90fd5b6001600160f81b03196108e882846109ea565b511690601e19810181811161030a576109066001935f1a91866109ea565b53016107b0565b6001906001600160f81b031961092382876109ea565b51165f1a61093182856109ea565b530161076e565b600c810180821161030a57602081101561031e5782901a906001600160f81b031961096a600484901c600f16866109ea565b5116918160011b928284046002148315171561030a5783600201908160021161030a5761099a905f1a91886109ea565b536001600160f81b0319906109b290600f16866109ea565b5116916003018060031161030a576109cf6001935f1a91876109ea565b5301610734565b5050505f90565b9190820180921161030a57565b90815181101561031e570160200190565b90601f825111610a8e575f805b8351821015610a8957607f610a1d83866109ea565b5160f81c11610a4457600190610a3383866109ea565b5160f81c9060081b17910190610a08565b60405162461bcd60e51b815260206004820152601c60248201527f4e6f6e2d415343494920636861726163746572206465746563746564000000006044820152606490fd5b925050565b60405162461bcd60e51b815260206004820152602560248201527f537472696e6720746f6f206c6f6e6720666f7220426967496e7420636f6e76656044820152643939b4b7b760d91b6064820152608490fdfe6080806040526004361015610012575f80fd5b5f905f3560e01c908163037b410e1461073c575080636e62d0a8146107205780638d2d8d6a146102ec578063ada1b319146102ae578063bb44374414610291578063c1a4d5911461025f578063d161802b146100c05763dd612c2e14610076575f80fd5b346100bd5760203660031901126100bd576004356001600160a01b038116908190036100bb576040826001600160401b03926020945260018452205416604051908152f35b505b80fd5b503461024c57604036600319011261024c576004356001600160401b03811161024c576100f1903690600401610801565b906024356001600160401b03811161024c57610111903690600401610801565b92602081106102505760408410610250578360201161024c578360401161024c5760406101d99161014936603f1988018487016107ad565b5061018a6060600b54925f5490808651998a93600160f91b60208601525f6021860152888501528484013781015f838201520301601f198101875286610771565b60018060a01b037f0000000000000000000000000000000000000000000000000000000000000000169580835195869360208501528484013781015f838201520301601f198101835282610771565b823b1561024c576102219261020f5f809460405196879586948593637bf41d7760e11b8552604060048601526044850190610874565b83810360031901602485015290610874565b03925af1801561024157610233575080f35b61023f91505f90610771565b005b6040513d5f823e3d90fd5b5f80fd5b63a512e2ff60e01b5f5260045ffd5b3461024c57602036600319011261024c576004355f526002602052602060018060a01b0360405f205416604051908152f35b3461024c575f36600319011261024c576020600b54604051908152f35b3461024c57606036600319011261024c576044356001600160401b03811161024c576102de9036906004016107e3565b506020600b54604051908152f35b3461024c57604036600319011261024c576004356001600160401b03811161024c5761031c9036906004016107e3565b6024356001600160401b03811161024c5761033b9036906004016107e3565b507f00000000000000000000000000000000000000000000000000000000000000006001600160a01b03163303610711578051810190602082019060208184031261024c576020810151906001600160401b03821161024c570191610240908390031261024c57604051906101a082018281106001600160401b038211176106ed5760405260208301518252604083015191602081019283526060840151936040820194855282609f8201121561024c576040516103fa608082610771565b8061010083019185831161024c5760808401905b8382106107015750506060840152516001600160401b03811161024c5783602061043a9284010161082e565b60808301526101208101516001600160401b03811161024c5760209082010183601f8201121561024c578051906001600160401b0382116106ed578160051b906040519261048b6020840185610771565b83526020808401928201019186831161024c5760208201905b8382106106c0575050505060a08301526101408101516001600160401b03811161024c578360206104d79284010161082e565b60c08301526101608101516001600160401b03811161024c578360206104ff9284010161082e565b60e08301526101808101516001600160401b03811161024c578360206105279284010161082e565b6101008301526101a08101516001600160401b03811161024c578360206105509284010161082e565b6101208301526101c08101516001600160401b03811161024c578360206105799284010161082e565b6101408301526101e08101516101608301528261021f8201121561024c57604051926105a6606085610771565b8391610260810191821161024c5761020001915b8183106106a7575050506101800152805160a01c610698575181515f908152600260205260409020546001600160a01b039182169291168015159083908261068d575b505061067e576040817fa919d4cb032fba0c2b1fd7908daab2eaac87214061e0c150ee928fdab19c4a0192515f526002602052815f20846bffffffffffffffffffffffff60a01b8254161790556001600160401b03421690845f526001602052825f20826001600160401b03198254161790555182519182526020820152a2005b636569570160e11b5f5260045ffd5b1415905082846105fd565b633d8271ff60e01b5f5260045ffd5b8251801515810361024c578152602092830192016105ba565b81516001600160401b03811161024c576020916106e28a84809488010161082e565b8152019101906104a4565b634e487b7160e01b5f52604160045260245ffd5b815181526020918201910161040e565b635c427cd960e01b5f5260045ffd5b3461024c575f36600319011261024c5760205f54604051908152f35b3461024c575f36600319011261024c5760609060ff6003541660045460ff600554169115158352602083015215156040820152f35b90601f801991011681019081106001600160401b038211176106ed57604052565b6001600160401b0381116106ed57601f01601f191660200190565b9291926107b982610792565b916107c76040519384610771565b82948184528183011161024c578281602093845f960137010152565b9080601f8301121561024c578160206107fe933591016107ad565b90565b9181601f8401121561024c578235916001600160401b03831161024c576020838186019501011161024c57565b81601f8201121561024c5780519061084582610792565b926108536040519485610771565b8284526020838301011161024c57815f9260208093018386015e8301015290565b805180835260209291819084018484015e5f828201840152601f01601f191601019056fea264697066735822122030ef6e7be7c1a642ac21d30b642c51aea4c45ed5e1f668f3c4501112791de43364736f6c634300081c0033","linkReferences":{}},"methodIdentifiers":{"getConfigId(bytes32,bytes32,bytes)":"ada1b319","nullifierOwner(uint256)":"c1a4d591","onVerificationSuccess(bytes,bytes)":"8d2d8d6a","scope()":"6e62d0a8","verificationConfig()":"037b410e","verificationConfigId()":"bb443744","verifiedAt(address)":"dd612c2e","verifySelfProof(bytes,bytes)":"d161802b"},"id":26}