{"abi":[{"type":"constructor","inputs":[{"name":"hubV2","type":"address","internalType":"address"},{"name":"scopeSeed","type":"string","internalType":"string"},{"name":"rawCfg","type":"tuple","internalType":"struct SelfUtils.UnformattedVerificationConfigV2","components":[{"name":"olderThan","type":"uint256","internalType":"uint256"},{"name":"forbiddenCountries","type":"string[]","internalType":"string[]"},{"name":"ofacEnabled","type":"bool","internalType":"bool"}]}],"stateMutability":"nonpayable"},{"type":"function","name":"getConfigId","inputs":[{"name":"","type":"bytes32","internalType":"bytes32"},{"name":"","type":"bytes32","internalType":"bytes32"},{"name":"","type":"bytes","internalType":"bytes"}],"outputs":[{"name":"","type":"bytes32","internalType":"bytes32"}],"stateMutability":"view"},{"type":"function","name":"nationality","inputs":[{"name":"","type":"address","internalType":"address"}],"outputs":[{"name":"","type":"string","internalType":"string"}],"stateMutability":"view"},{"type":"function","name":"nullifierOwner","inputs":[{"name":"","type":"uint256","internalType":"uint256"}],"outputs":[{"name":"","type":"address","internalType":"address"}],"stateMutability":"view"},{"type":"function","name":"onVerificationSuccess","inputs":[{"name":"output","type":"bytes","internalType":"bytes"},{"name":"userData","type":"bytes","internalType":"bytes"}],"outputs":[],"stateMutability":"nonpayable"},{"type":"function","name":"scope","inputs":[],"outputs":[{"name":"","type":"uint256","internalType":"uint256"}],"stateMutability":"view"},{"type":"function","name":"verificationConfig","inputs":[],"outputs":[{"name":"olderThanEnabled","type":"bool","internalType":"bool"},{"name":"olderThan","type":"uint256","internalType":"uint256"},{"name":"forbiddenCountriesEnabled","type":"bool","internalType":"bool"}],"stateMutability":"view"},{"type":"function","name":"verificationConfigId","inputs":[],"outputs":[{"name":"","type":"bytes32","internalType":"bytes32"}],"stateMutability":"view"},{"type":"function","name":"verifiedAt","inputs":[{"name":"","type":"address","internalType":"address"}],"outputs":[{"name":"","type":"uint64","internalType":"uint64"}],"stateMutability":"view"},{"type":"function","name":"verifySelfProof","inputs":[{"name":"proofPayload","type":"bytes","internalType":"bytes"},{"name":"userContextData","type":"bytes","internalType":"bytes"}],"outputs":[],"stateMutability":"nonpayable"},{"type":"event","name":"Verified","inputs":[{"name":"user","type":"address","indexed":true,"internalType":"address"},{"name":"timestamp","type":"uint64","indexed":false,"internalType":"uint64"},{"name":"nullifier","type":"uint256","indexed":false,"internalType":"uint256"},{"name":"nationality","type":"string","indexed":false,"internalType":"string"}],"anonymous":false},{"type":"error","name":"InvalidDataFormat","inputs":[]},{"type":"error","name":"NullifierAlreadyUsed","inputs":[]},{"type":"error","name":"UnauthorizedCaller","inputs":[]},{"type":"error","name":"UserIdentifierNotAddress","inputs":[]}],"bytecode":{"object":"0x60a080604052346104cd57611638803803809161001c82856105b9565b83398101906060818303126104cd5780516001600160a01b03811692908390036104cd5760208201516001600160401b0381116104cd578161005f9184016105f7565b604083015190926001600160401b0382116104cd5701906060828203126104cd5760405191606083016001600160401b0381118482101761056f576040528051835260208101516001600160401b0381116104cd5781019180601f840112156104cd578251926001600160401b03841161056f578360051b90604051946100e960208401876105b9565b8552602080860192820101918383116104cd5760208201905b83821061054257505050505060208301918252604001519283151584036104cd5761014190604084019485528560805261013a61063d565b90306106b1565b5f556040519061015082610583565b5f82525f60208301525f604083015260809260405161016f85826105b9565b843682376060840152606092846040519161018a86846105b9565b8536843701526040519461019e84876105b9565b83368737805115158652805115156020870152511515604086015251938415159151938451151596604051926101d483856105b9565b823685375f98865b88518b10156102ab5760208b60051b8a0101519060038251036102405761023860209182806001956040519584879551918291018487015e8401908282015f8152815193849201905e01015f815203601f1981018352826105b9565b9a01996101dc565b60405162461bcd60e51b815260206004820152603760248201527f496e76616c696420636f756e74727920636f64653a206d75737420626520657860448201527f6163746c7920332063686172616374657273206c6f6e670000000000000000006064820152608490fd5b9392919089855197601f8901808a1161030a57601e8a0190811161030a57601f9004995f5b8b811080610538575b15610393575f5f5b601f81106103325750600482101561031e578160051b8b01525f19811461030a576001016102d0565b634e487b7160e01b5f52601160045260245ffd5b634e487b7160e01b5f52603260045260245ffd5b9082601f02601f8104840361030a578261034b916109dd565b8d811061035d575b50906001016102e1565b610367908c6109ea565b5160f81c6001600160fd1b038316830361030a5760019161038d918460031b1b906109dd565b90610353565b5090868994939285604051916103a883610583565b8483528560208401528660408401528201520194855260ff80196004541691161760045560055560ff8019600654169116176006555f5b60048110610523575050515f905f5b600381106104fe575050600b55604051906309ddb09160e01b825260ff6004541615156004830152600554602483015260ff600654161515604483015281606481016007905f905b600482106104e457505050610144815f60209460ff600b54818116151560e4860152818160081c16151561010486015260101c1615156101248401525af19081156104d9575f916104a3575b50600c55604051610b569182610ae283395181818161028d01526104380152f35b90506020813d6020116104d1575b816104be602093836105b9565b810103126104cd575182610482565b5f80fd5b3d91506104b1565b6040513d5f823e3d90fd5b825481528593506001928301929190910190602001610436565b90916020600191845115159060ff808660031b9316831b921b191617930191016103ee565b600190602083519301928160070155016103df565b50600481106102d9565b81516001600160401b0381116104cd57602091610564878480948801016105f7565b815201910190610102565b634e487b7160e01b5f52604160045260245ffd5b60a081019081106001600160401b0382111761056f57604052565b604081019081106001600160401b0382111761056f57604052565b601f909101601f19168101906001600160401b0382119082101761056f57604052565b6001600160401b03811161056f57601f01601f191660200190565b81601f820112156104cd5780519061060e826105dc565b9261061c60405194856105b9565b828452602083830101116104cd57815f9260208093018386015e8301015290565b61a4ec461461066c5762aa044c4614610654575f90565b730a782f7f9f8aac6e0bacaf3cd4aa292c3275c6f290565b73f134707a4c4a3a76b8410fc0294d620a7c34158190565b919060408301925f905b6002821061069b57505050565b602080600192855181520193019101909161068e565b90916001600160a01b03169081156109d657604080519093916001600160a01b0316906106de85826105b9565b601081526f181899199a1a9b1b9c1cb0b131b232b360811b60208201528451916107096060846105b9565b602a835260208301604036823783511561031e576030905382516001101561031e57607860218401535f5b6014811061093857505050601f61074a816105dc565b610756865191826105b9565b818152601f19610765836105dc565b013660208301375f5b82811061090d575061077f906109fb565b9161078a600b6105dc565b91610797875193846105b9565b600b8352601f196107a8600b6105dc565b013660208501375b602a81106108d55750506107f792916107cc82602093506109fb565b8651916107d88361059e565b825282820152855180948192632b0aac7f60e11b835260048301610684565b0381865afa9182156108cb575f92610895575b50906108479261081b6020936109fb565b8551926108278461059e565b83528383015284518080958194632b0aac7f60e11b835260048301610684565b03915afa91821561088c57505f9161085d575090565b90506020813d602011610884575b81610878602093836105b9565b810103126104cd575190565b3d915061086b565b513d5f823e3d90fd5b91506020823d6020116108c3575b816108b0602093836105b9565b810103126104cd5790519061084761080a565b3d91506108a3565b84513d5f823e3d90fd5b6001600160f81b03196108e882846109ea565b511690601e19810181811161030a576109066001935f1a91866109ea565b53016107b0565b6001906001600160f81b031961092382876109ea565b51165f1a61093182856109ea565b530161076e565b600c810180821161030a57602081101561031e5782901a906001600160f81b031961096a600484901c600f16866109ea565b5116918160011b928284046002148315171561030a5783600201908160021161030a5761099a905f1a91886109ea565b536001600160f81b0319906109b290600f16866109ea565b5116916003018060031161030a576109cf6001935f1a91876109ea565b5301610734565b5050505f90565b9190820180921161030a57565b90815181101561031e570160200190565b90601f825111610a8e575f805b8351821015610a8957607f610a1d83866109ea565b5160f81c11610a4457600190610a3383866109ea565b5160f81c9060081b17910190610a08565b60405162461bcd60e51b815260206004820152601c60248201527f4e6f6e2d415343494920636861726163746572206465746563746564000000006044820152606490fd5b925050565b60405162461bcd60e51b815260206004820152602560248201527f537472696e6720746f6f206c6f6e6720666f7220426967496e7420636f6e76656044820152643939b4b7b760d91b6064820152608490fdfe6080806040526004361015610012575f80fd5b5f905f3560e01c908163037b410e1461098c575080636e62d0a8146109705780638d2d8d6a146103e6578063ada1b319146103a8578063bb4437441461038b578063c1a4d59114610359578063d161802b146101ba578063dd612c2e146101745763ec94526914610081575f80fd5b34610171576020366003190112610171576004356001600160a01b0381169081900361016f5781526002602052604081209060405191818154916100c483610a7e565b80865292600181169081156101455750600114610104575b610100856100ec818703826109c1565b604051918291602083526020830190610ab6565b0390f35b815260208120939250905b80821061012b575090915081016020016100ec826101006100dc565b91926001816020925483858801015201910190929161010f565b869550610100969350602092506100ec94915060ff191682840152151560051b82010192936100dc565b505b80fd5b5034610171576020366003190112610171576004356001600160a01b0381169081900361016f576040826001600160401b03926020945260018452205416604051908152f35b5034610346576040366003190112610346576004356001600160401b038111610346576101eb903690600401610a51565b906024356001600160401b0381116103465761020b903690600401610a51565b926020811061034a576040841061034a578360201161034657836040116103465760406102d39161024336603f1988018487016109fd565b506102846060600c54925f5490808651998a93600160f91b60208601525f6021860152888501528484013781015f838201520301601f1981018752866109c1565b60018060a01b037f0000000000000000000000000000000000000000000000000000000000000000169580835195869360208501528484013781015f838201520301601f1981018352826109c1565b823b156103465761031b926103095f809460405196879586948593637bf41d7760e11b8552604060048601526044850190610ab6565b83810360031901602485015290610ab6565b03925af1801561033b5761032d575080f35b61033991505f906109c1565b005b6040513d5f823e3d90fd5b5f80fd5b63a512e2ff60e01b5f5260045ffd5b34610346576020366003190112610346576004355f526003602052602060018060a01b0360405f205416604051908152f35b34610346575f366003190112610346576020600c54604051908152f35b34610346576060366003190112610346576044356001600160401b038111610346576103d8903690600401610a33565b506020600c54604051908152f35b34610346576040366003190112610346576004356001600160401b03811161034657610416903690600401610a33565b6024356001600160401b03811161034657610435903690600401610a33565b507f00000000000000000000000000000000000000000000000000000000000000006001600160a01b0316330361096157805181016020810191602081830312610346576020810151906001600160401b038211610346570190610240908290031261034657604051916101a083018381106001600160401b038211176108ce5760405260208201518352604082015190602084019182526060830151936040810194855281609f85011215610346576040516104f36080826109c1565b806101008601918483116103465760808701905b8382106109515750506060830152516001600160401b0381116103465782602061053392870101610ada565b60808201526101208401516001600160401b0381116103465760209085010182601f82011215610346578051906001600160401b0382116108ce578160051b906040519261058460208401856109c1565b8352602080840192820101918583116103465760208201905b838210610924575050505060a08201526101408401516001600160401b038111610346578260206105d092870101610ada565b60c08201526101608401516001600160401b038111610346578260206105f892870101610ada565b9360e082019485526101808101516001600160401b0381116103465783602061062392840101610ada565b6101008301526101a08101516001600160401b0381116103465783602061064c92840101610ada565b6101208301526101c08101516001600160401b0381116103465783602061067592840101610ada565b6101408301526101e08101516101608301528261021f8201121561034657604051926106a26060856109c1565b839161026081019182116103465761020001915b81831061090b575050506101800152805160a01c6108fc575182515f908152600360205260409020546001600160a01b03918216929116801515908390826108f1575b50506108e25782515f52600360205260405f20826bffffffffffffffffffffffff60a01b8254161790556001600160401b034216825f52600160205260405f20816001600160401b0319825416179055815193835f52600260205260405f2085516001600160401b0381116108ce576107728254610a7e565b601f8111610889575b506020601f82116001146108005790806107f09493927f4fe74c541f979ca1308a97ef024f09772b233a7c1d764fb7480d3b794a3179c098995f926107f5575b50508160011b915f199060031b1c19161790555b51925160405193849384526020840152606060408401526060830190610ab6565b0390a2005b0151905089806107bb565b601f19821697835f52815f20985f5b81811061087157509860019284926107f09796957f4fe74c541f979ca1308a97ef024f09772b233a7c1d764fb7480d3b794a3179c09b9c10610859575b505050811b0190556107cf565b01515f1960f88460031b161c1916905589808061084c565b838301518b556001909a01996020938401930161080f565b825f5260205f20601f830160051c810191602084106108c4575b601f0160051c01905b8181106108b9575061077b565b5f81556001016108ac565b90915081906108a3565b634e487b7160e01b5f52604160045260245ffd5b636569570160e11b5f5260045ffd5b1415905082856106f9565b633d8271ff60e01b5f5260045ffd5b82518015158103610346578152602092830192016106b6565b81516001600160401b0381116103465760209161094689848094880101610ada565b81520191019061059d565b8151815260209182019101610507565b635c427cd960e01b5f5260045ffd5b34610346575f3660031901126103465760205f54604051908152f35b34610346575f3660031901126103465760609060ff6004541660055460ff600654169115158352602083015215156040820152f35b90601f801991011681019081106001600160401b038211176108ce57604052565b6001600160401b0381116108ce57601f01601f191660200190565b929192610a09826109e2565b91610a1760405193846109c1565b829481845281830111610346578281602093845f960137010152565b9080601f8301121561034657816020610a4e933591016109fd565b90565b9181601f84011215610346578235916001600160401b038311610346576020838186019501011161034657565b90600182811c92168015610aac575b6020831014610a9857565b634e487b7160e01b5f52602260045260245ffd5b91607f1691610a8d565b805180835260209291819084018484015e5f828201840152601f01601f1916010190565b81601f8201121561034657805190610af1826109e2565b92610aff60405194856109c1565b8284526020838301011161034657815f9260208093018386015e830101529056fea2646970667358221220e593bcc96463f1c2f330c69625c486060e44d23aded1a29218f5d61e6c18ba8b64736f6c634300081c0033","linkReferences":{}},"methodIdentifiers":{"getConfigId(bytes32,bytes32,bytes)":"ada1b319","nationality(address)":"ec945269","nullifierOwner(uint256)":"c1a4d591","onVerificationSuccess(bytes,bytes)":"8d2d8d6a","scope()":"6e62d0a8","verificationConfig()":"037b410e","verificationConfigId()":"bb443744","verifiedAt(address)":"dd612c2e","verifySelfProof(bytes,bytes)":"d161802b"},"id":26}