{"abi":[{"type":"constructor","inputs":[{"name":"paymentToken_","type":"address","internalType":"address"},{"name":"oracle_","type":"address","internalType":"address"},{"name":"treasury_","type":"address","internalType":"address"},{"name":"feeBps_","type":"uint16","internalType":"uint16"},{"name":"challengeWindowSeconds_","type":"uint48","internalType":"uint48"},{"name":"challengeBond_","type":"uint256","internalType":"uint256"},{"name":"lateCancelPenaltyBps_","type":"uint16","internalType":"uint16"},{"name":"noAttestBufferSeconds_","type":"uint48","internalType":"uint48"},{"name":"disputeTimeoutSeconds_","type":"uint48","internalType":"uint48"}],"stateMutability":"nonpayable"},{"type":"receive","stateMutability":"payable"},{"type":"function","name":"BPS","inputs":[],"outputs":[{"name":"","type":"uint256","internalType":"uint256"}],"stateMutability":"view"},{"type":"function","name":"MAX_CHALLENGE_WINDOW","inputs":[],"outputs":[{"name":"","type":"uint48","internalType":"uint48"}],"stateMutability":"view"},{"type":"function","name":"MAX_DISPUTE_TIMEOUT","inputs":[],"outputs":[{"name":"","type":"uint48","internalType":"uint48"}],"stateMutability":"view"},{"type":"function","name":"MAX_NO_ATTEST_BUFFER","inputs":[],"outputs":[{"name":"","type":"uint48","internalType":"uint48"}],"stateMutability":"view"},{"type":"function","name":"acceptOwnership","inputs":[],"outputs":[],"stateMutability":"nonpayable"},{"type":"function","name":"acceptRequest","inputs":[{"name":"requestId","type":"uint256","internalType":"uint256"},{"name":"startTime","type":"uint48","internalType":"uint48"},{"name":"graceMins","type":"uint32","internalType":"uint32"},{"name":"minOverlapMins","type":"uint32","internalType":"uint32"},{"name":"cancelCutoffMins","type":"uint32","internalType":"uint32"}],"outputs":[{"name":"slotId","type":"uint256","internalType":"uint256"},{"name":"bookingId","type":"uint256","internalType":"uint256"}],"stateMutability":"nonpayable"},{"type":"function","name":"attest","inputs":[{"name":"bookingId","type":"uint256","internalType":"uint256"},{"name":"outcome","type":"uint8","internalType":"enum SessionEscrowV1.Outcome"},{"name":"metricsHash","type":"bytes32","internalType":"bytes32"}],"outputs":[],"stateMutability":"nonpayable"},{"type":"function","name":"book","inputs":[{"name":"slotId","type":"uint256","internalType":"uint256"}],"outputs":[{"name":"bookingId","type":"uint256","internalType":"uint256"}],"stateMutability":"nonpayable"},{"type":"function","name":"bookingTerms","inputs":[{"name":"","type":"uint256","internalType":"uint256"}],"outputs":[{"name":"feeBps","type":"uint16","internalType":"uint16"},{"name":"lateCancelPenaltyBps","type":"uint16","internalType":"uint16"},{"name":"challengeWindow","type":"uint48","internalType":"uint48"},{"name":"noAttestBuffer","type":"uint48","internalType":"uint48"},{"name":"disputeTimeout","type":"uint48","internalType":"uint48"},{"name":"challengeBond","type":"uint256","internalType":"uint256"}],"stateMutability":"view"},{"type":"function","name":"bookings","inputs":[{"name":"","type":"uint256","internalType":"uint256"}],"outputs":[{"name":"slotId","type":"uint256","internalType":"uint256"},{"name":"guest","type":"address","internalType":"address"},{"name":"amount","type":"uint256","internalType":"uint256"},{"name":"status","type":"uint8","internalType":"enum SessionEscrowV1.SessionBookingStatus"},{"name":"oracleOutcome","type":"uint8","internalType":"enum SessionEscrowV1.Outcome"},{"name":"metricsHash","type":"bytes32","internalType":"bytes32"},{"name":"attestedAt","type":"uint64","internalType":"uint64"},{"name":"finalizableAt","type":"uint64","internalType":"uint64"},{"name":"challenger","type":"address","internalType":"address"},{"name":"bondAmount","type":"uint256","internalType":"uint256"},{"name":"disputedAt","type":"uint64","internalType":"uint64"}],"stateMutability":"view"},{"type":"function","name":"cancelBookingAsGuest","inputs":[{"name":"bookingId","type":"uint256","internalType":"uint256"}],"outputs":[],"stateMutability":"nonpayable"},{"type":"function","name":"cancelBookingAsHost","inputs":[{"name":"bookingId","type":"uint256","internalType":"uint256"}],"outputs":[],"stateMutability":"nonpayable"},{"type":"function","name":"cancelRequest","inputs":[{"name":"requestId","type":"uint256","internalType":"uint256"}],"outputs":[],"stateMutability":"nonpayable"},{"type":"function","name":"cancelSlot","inputs":[{"name":"slotId","type":"uint256","internalType":"uint256"}],"outputs":[],"stateMutability":"nonpayable"},{"type":"function","name":"challenge","inputs":[{"name":"bookingId","type":"uint256","internalType":"uint256"}],"outputs":[],"stateMutability":"nonpayable"},{"type":"function","name":"challengeBond","inputs":[],"outputs":[{"name":"","type":"uint256","internalType":"uint256"}],"stateMutability":"view"},{"type":"function","name":"challengeWindow","inputs":[],"outputs":[{"name":"","type":"uint48","internalType":"uint48"}],"stateMutability":"view"},{"type":"function","name":"claimIfUnattested","inputs":[{"name":"bookingId","type":"uint256","internalType":"uint256"}],"outputs":[],"stateMutability":"nonpayable"},{"type":"function","name":"createRequest","inputs":[{"name":"hostTarget","type":"address","internalType":"address"},{"name":"windowStart","type":"uint48","internalType":"uint48"},{"name":"windowEnd","type":"uint48","internalType":"uint48"},{"name":"durationMins","type":"uint32","internalType":"uint32"},{"name":"amount","type":"uint256","internalType":"uint256"},{"name":"expiry","type":"uint48","internalType":"uint48"}],"outputs":[{"name":"requestId","type":"uint256","internalType":"uint256"}],"stateMutability":"nonpayable"},{"type":"function","name":"createSlot","inputs":[{"name":"startTime","type":"uint48","internalType":"uint48"},{"name":"durationMins","type":"uint32","internalType":"uint32"},{"name":"graceMins","type":"uint32","internalType":"uint32"},{"name":"minOverlapMins","type":"uint32","internalType":"uint32"},{"name":"cancelCutoffMins","type":"uint32","internalType":"uint32"}],"outputs":[{"name":"slotId","type":"uint256","internalType":"uint256"}],"stateMutability":"nonpayable"},{"type":"function","name":"createSlots","inputs":[{"name":"inputs","type":"tuple[]","internalType":"struct SessionEscrowV1.SessionSlotInput[]","components":[{"name":"startTime","type":"uint48","internalType":"uint48"},{"name":"durationMins","type":"uint32","internalType":"uint32"},{"name":"graceMins","type":"uint32","internalType":"uint32"},{"name":"minOverlapMins","type":"uint32","internalType":"uint32"},{"name":"cancelCutoffMins","type":"uint32","internalType":"uint32"}]}],"outputs":[{"name":"firstSlotId","type":"uint256","internalType":"uint256"}],"stateMutability":"nonpayable"},{"type":"function","name":"disputeTimeout","inputs":[],"outputs":[{"name":"","type":"uint48","internalType":"uint48"}],"stateMutability":"view"},{"type":"function","name":"feeBps","inputs":[],"outputs":[{"name":"","type":"uint16","internalType":"uint16"}],"stateMutability":"view"},{"type":"function","name":"finalize","inputs":[{"name":"bookingId","type":"uint256","internalType":"uint256"}],"outputs":[],"stateMutability":"nonpayable"},{"type":"function","name":"finalizeDisputeByTimeout","inputs":[{"name":"bookingId","type":"uint256","internalType":"uint256"}],"outputs":[],"stateMutability":"nonpayable"},{"type":"function","name":"getBooking","inputs":[{"name":"bookingId","type":"uint256","internalType":"uint256"}],"outputs":[{"name":"","type":"tuple","internalType":"struct SessionEscrowV1.SessionBooking","components":[{"name":"slotId","type":"uint256","internalType":"uint256"},{"name":"guest","type":"address","internalType":"address"},{"name":"amount","type":"uint256","internalType":"uint256"},{"name":"status","type":"uint8","internalType":"enum SessionEscrowV1.SessionBookingStatus"},{"name":"oracleOutcome","type":"uint8","internalType":"enum SessionEscrowV1.Outcome"},{"name":"metricsHash","type":"bytes32","internalType":"bytes32"},{"name":"attestedAt","type":"uint64","internalType":"uint64"},{"name":"finalizableAt","type":"uint64","internalType":"uint64"},{"name":"challenger","type":"address","internalType":"address"},{"name":"bondAmount","type":"uint256","internalType":"uint256"},{"name":"disputedAt","type":"uint64","internalType":"uint64"}]}],"stateMutability":"view"},{"type":"function","name":"getBookingTerms","inputs":[{"name":"bookingId","type":"uint256","internalType":"uint256"}],"outputs":[{"name":"","type":"tuple","internalType":"struct SessionEscrowV1.BookingTerms","components":[{"name":"feeBps","type":"uint16","internalType":"uint16"},{"name":"lateCancelPenaltyBps","type":"uint16","internalType":"uint16"},{"name":"challengeWindow","type":"uint48","internalType":"uint48"},{"name":"noAttestBuffer","type":"uint48","internalType":"uint48"},{"name":"disputeTimeout","type":"uint48","internalType":"uint48"},{"name":"challengeBond","type":"uint256","internalType":"uint256"}]}],"stateMutability":"view"},{"type":"function","name":"getRequest","inputs":[{"name":"requestId","type":"uint256","internalType":"uint256"}],"outputs":[{"name":"","type":"tuple","internalType":"struct SessionEscrowV1.SessionRequest","components":[{"name":"hostTarget","type":"address","internalType":"address"},{"name":"guest","type":"address","internalType":"address"},{"name":"windowStart","type":"uint48","internalType":"uint48"},{"name":"windowEnd","type":"uint48","internalType":"uint48"},{"name":"durationMins","type":"uint32","internalType":"uint32"},{"name":"amount","type":"uint256","internalType":"uint256"},{"name":"expiry","type":"uint48","internalType":"uint48"},{"name":"status","type":"uint8","internalType":"enum SessionEscrowV1.SessionRequestStatus"},{"name":"slotId","type":"uint256","internalType":"uint256"},{"name":"bookingId","type":"uint256","internalType":"uint256"},{"name":"host","type":"address","internalType":"address"}]}],"stateMutability":"view"},{"type":"function","name":"getSlot","inputs":[{"name":"slotId","type":"uint256","internalType":"uint256"}],"outputs":[{"name":"","type":"tuple","internalType":"struct SessionEscrowV1.SessionSlot","components":[{"name":"host","type":"address","internalType":"address"},{"name":"startTime","type":"uint48","internalType":"uint48"},{"name":"durationMins","type":"uint32","internalType":"uint32"},{"name":"price","type":"uint256","internalType":"uint256"},{"name":"graceMins","type":"uint32","internalType":"uint32"},{"name":"minOverlapMins","type":"uint32","internalType":"uint32"},{"name":"cancelCutoffMins","type":"uint32","internalType":"uint32"},{"name":"status","type":"uint8","internalType":"enum SessionEscrowV1.SessionSlotStatus"}]}],"stateMutability":"view"},{"type":"function","name":"hostBasePrice","inputs":[{"name":"","type":"address","internalType":"address"}],"outputs":[{"name":"","type":"uint256","internalType":"uint256"}],"stateMutability":"view"},{"type":"function","name":"lateCancelPenaltyBps","inputs":[],"outputs":[{"name":"","type":"uint16","internalType":"uint16"}],"stateMutability":"view"},{"type":"function","name":"nextBookingId","inputs":[],"outputs":[{"name":"","type":"uint256","internalType":"uint256"}],"stateMutability":"view"},{"type":"function","name":"nextRequestId","inputs":[],"outputs":[{"name":"","type":"uint256","internalType":"uint256"}],"stateMutability":"view"},{"type":"function","name":"nextSlotId","inputs":[],"outputs":[{"name":"","type":"uint256","internalType":"uint256"}],"stateMutability":"view"},{"type":"function","name":"noAttestBuffer","inputs":[],"outputs":[{"name":"","type":"uint48","internalType":"uint48"}],"stateMutability":"view"},{"type":"function","name":"oracle","inputs":[],"outputs":[{"name":"","type":"address","internalType":"address"}],"stateMutability":"view"},{"type":"function","name":"owed","inputs":[{"name":"","type":"address","internalType":"address"}],"outputs":[{"name":"","type":"uint256","internalType":"uint256"}],"stateMutability":"view"},{"type":"function","name":"owner","inputs":[],"outputs":[{"name":"","type":"address","internalType":"address"}],"stateMutability":"view"},{"type":"function","name":"paymentToken","inputs":[],"outputs":[{"name":"","type":"address","internalType":"contract IERC20"}],"stateMutability":"view"},{"type":"function","name":"pendingOwner","inputs":[],"outputs":[{"name":"","type":"address","internalType":"address"}],"stateMutability":"view"},{"type":"function","name":"requests","inputs":[{"name":"","type":"uint256","internalType":"uint256"}],"outputs":[{"name":"hostTarget","type":"address","internalType":"address"},{"name":"guest","type":"address","internalType":"address"},{"name":"windowStart","type":"uint48","internalType":"uint48"},{"name":"windowEnd","type":"uint48","internalType":"uint48"},{"name":"durationMins","type":"uint32","internalType":"uint32"},{"name":"amount","type":"uint256","internalType":"uint256"},{"name":"expiry","type":"uint48","internalType":"uint48"},{"name":"status","type":"uint8","internalType":"enum SessionEscrowV1.SessionRequestStatus"},{"name":"slotId","type":"uint256","internalType":"uint256"},{"name":"bookingId","type":"uint256","internalType":"uint256"},{"name":"host","type":"address","internalType":"address"}],"stateMutability":"view"},{"type":"function","name":"resolveDispute","inputs":[{"name":"bookingId","type":"uint256","internalType":"uint256"},{"name":"finalOutcome","type":"uint8","internalType":"enum SessionEscrowV1.Outcome"}],"outputs":[],"stateMutability":"nonpayable"},{"type":"function","name":"setChallengeBond","inputs":[{"name":"a","type":"uint256","internalType":"uint256"}],"outputs":[],"stateMutability":"nonpayable"},{"type":"function","name":"setChallengeWindow","inputs":[{"name":"s","type":"uint48","internalType":"uint48"}],"outputs":[],"stateMutability":"nonpayable"},{"type":"function","name":"setDisputeTimeout","inputs":[{"name":"s","type":"uint48","internalType":"uint48"}],"outputs":[],"stateMutability":"nonpayable"},{"type":"function","name":"setFeeBps","inputs":[{"name":"bps","type":"uint16","internalType":"uint16"}],"outputs":[],"stateMutability":"nonpayable"},{"type":"function","name":"setHostBasePrice","inputs":[{"name":"price","type":"uint256","internalType":"uint256"}],"outputs":[],"stateMutability":"nonpayable"},{"type":"function","name":"setLateCancelPenaltyBps","inputs":[{"name":"bps","type":"uint16","internalType":"uint16"}],"outputs":[],"stateMutability":"nonpayable"},{"type":"function","name":"setNoAttestBuffer","inputs":[{"name":"s","type":"uint48","internalType":"uint48"}],"outputs":[],"stateMutability":"nonpayable"},{"type":"function","name":"setOracle","inputs":[{"name":"o","type":"address","internalType":"address"}],"outputs":[],"stateMutability":"nonpayable"},{"type":"function","name":"setTreasury","inputs":[{"name":"t","type":"address","internalType":"address"}],"outputs":[],"stateMutability":"nonpayable"},{"type":"function","name":"slotToBooking","inputs":[{"name":"","type":"uint256","internalType":"uint256"}],"outputs":[{"name":"","type":"uint256","internalType":"uint256"}],"stateMutability":"view"},{"type":"function","name":"slots","inputs":[{"name":"","type":"uint256","internalType":"uint256"}],"outputs":[{"name":"host","type":"address","internalType":"address"},{"name":"startTime","type":"uint48","internalType":"uint48"},{"name":"durationMins","type":"uint32","internalType":"uint32"},{"name":"price","type":"uint256","internalType":"uint256"},{"name":"graceMins","type":"uint32","internalType":"uint32"},{"name":"minOverlapMins","type":"uint32","internalType":"uint32"},{"name":"cancelCutoffMins","type":"uint32","internalType":"uint32"},{"name":"status","type":"uint8","internalType":"enum SessionEscrowV1.SessionSlotStatus"}],"stateMutability":"view"},{"type":"function","name":"sweepNative","inputs":[],"outputs":[],"stateMutability":"nonpayable"},{"type":"function","name":"sweepTokenExcess","inputs":[],"outputs":[],"stateMutability":"nonpayable"},{"type":"function","name":"totalHeld","inputs":[],"outputs":[{"name":"","type":"uint256","internalType":"uint256"}],"stateMutability":"view"},{"type":"function","name":"transferOwnership","inputs":[{"name":"n","type":"address","internalType":"address"}],"outputs":[],"stateMutability":"nonpayable"},{"type":"function","name":"treasury","inputs":[],"outputs":[{"name":"","type":"address","internalType":"address"}],"stateMutability":"view"},{"type":"function","name":"withdrawOwed","inputs":[],"outputs":[],"stateMutability":"nonpayable"},{"type":"function","name":"withdrawOwed","inputs":[{"name":"to","type":"address","internalType":"address"}],"outputs":[],"stateMutability":"nonpayable"},{"type":"event","name":"Attested","inputs":[{"name":"bookingId","type":"uint256","indexed":true,"internalType":"uint256"},{"name":"outcome","type":"uint8","indexed":false,"internalType":"enum SessionEscrowV1.Outcome"},{"name":"metricsHash","type":"bytes32","indexed":false,"internalType":"bytes32"},{"name":"finalizableAt","type":"uint64","indexed":false,"internalType":"uint64"}],"anonymous":false},{"type":"event","name":"ChallengeBondUpdated","inputs":[{"name":"oldChallengeBond","type":"uint256","indexed":false,"internalType":"uint256"},{"name":"newChallengeBond","type":"uint256","indexed":false,"internalType":"uint256"}],"anonymous":false},{"type":"event","name":"ChallengeWindowUpdated","inputs":[{"name":"oldChallengeWindow","type":"uint48","indexed":false,"internalType":"uint48"},{"name":"newChallengeWindow","type":"uint48","indexed":false,"internalType":"uint48"}],"anonymous":false},{"type":"event","name":"Challenged","inputs":[{"name":"bookingId","type":"uint256","indexed":true,"internalType":"uint256"},{"name":"challenger","type":"address","indexed":true,"internalType":"address"},{"name":"bondAmount","type":"uint256","indexed":false,"internalType":"uint256"}],"anonymous":false},{"type":"event","name":"DisputeTimeoutUpdated","inputs":[{"name":"oldDisputeTimeout","type":"uint48","indexed":false,"internalType":"uint48"},{"name":"newDisputeTimeout","type":"uint48","indexed":false,"internalType":"uint48"}],"anonymous":false},{"type":"event","name":"FeeBpsUpdated","inputs":[{"name":"oldFeeBps","type":"uint16","indexed":false,"internalType":"uint16"},{"name":"newFeeBps","type":"uint16","indexed":false,"internalType":"uint16"}],"anonymous":false},{"type":"event","name":"Finalized","inputs":[{"name":"bookingId","type":"uint256","indexed":true,"internalType":"uint256"},{"name":"finalOutcome","type":"uint8","indexed":false,"internalType":"enum SessionEscrowV1.Outcome"},{"name":"hostPaid","type":"uint256","indexed":false,"internalType":"uint256"},{"name":"guestRefund","type":"uint256","indexed":false,"internalType":"uint256"},{"name":"feePaid","type":"uint256","indexed":false,"internalType":"uint256"}],"anonymous":false},{"type":"event","name":"HostBasePriceSet","inputs":[{"name":"host","type":"address","indexed":true,"internalType":"address"},{"name":"price","type":"uint256","indexed":false,"internalType":"uint256"}],"anonymous":false},{"type":"event","name":"LateCancelPenaltyBpsUpdated","inputs":[{"name":"oldPenaltyBps","type":"uint16","indexed":false,"internalType":"uint16"},{"name":"newPenaltyBps","type":"uint16","indexed":false,"internalType":"uint16"}],"anonymous":false},{"type":"event","name":"NativeSwept","inputs":[{"name":"amount","type":"uint256","indexed":false,"internalType":"uint256"}],"anonymous":false},{"type":"event","name":"NoAttestBufferUpdated","inputs":[{"name":"oldNoAttestBuffer","type":"uint48","indexed":false,"internalType":"uint48"},{"name":"newNoAttestBuffer","type":"uint48","indexed":false,"internalType":"uint48"}],"anonymous":false},{"type":"event","name":"OracleUpdated","inputs":[{"name":"oldOracle","type":"address","indexed":true,"internalType":"address"},{"name":"newOracle","type":"address","indexed":true,"internalType":"address"}],"anonymous":false},{"type":"event","name":"OwedWithdrawn","inputs":[{"name":"from","type":"address","indexed":true,"internalType":"address"},{"name":"to","type":"address","indexed":true,"internalType":"address"},{"name":"amount","type":"uint256","indexed":false,"internalType":"uint256"}],"anonymous":false},{"type":"event","name":"OwnershipTransferStarted","inputs":[{"name":"previousOwner","type":"address","indexed":true,"internalType":"address"},{"name":"pendingOwner","type":"address","indexed":true,"internalType":"address"}],"anonymous":false},{"type":"event","name":"OwnershipTransferred","inputs":[{"name":"previousOwner","type":"address","indexed":true,"internalType":"address"},{"name":"newOwner","type":"address","indexed":true,"internalType":"address"}],"anonymous":false},{"type":"event","name":"Resolved","inputs":[{"name":"bookingId","type":"uint256","indexed":true,"internalType":"uint256"},{"name":"finalOutcome","type":"uint8","indexed":false,"internalType":"enum SessionEscrowV1.Outcome"}],"anonymous":false},{"type":"event","name":"SessionBooked","inputs":[{"name":"bookingId","type":"uint256","indexed":true,"internalType":"uint256"},{"name":"slotId","type":"uint256","indexed":true,"internalType":"uint256"},{"name":"guest","type":"address","indexed":true,"internalType":"address"},{"name":"amount","type":"uint256","indexed":false,"internalType":"uint256"}],"anonymous":false},{"type":"event","name":"SessionBookingCancelled","inputs":[{"name":"bookingId","type":"uint256","indexed":true,"internalType":"uint256"},{"name":"reason","type":"uint8","indexed":false,"internalType":"enum SessionEscrowV1.Outcome"},{"name":"refund","type":"uint256","indexed":false,"internalType":"uint256"},{"name":"penalty","type":"uint256","indexed":false,"internalType":"uint256"},{"name":"hostPaid","type":"uint256","indexed":false,"internalType":"uint256"},{"name":"feePaid","type":"uint256","indexed":false,"internalType":"uint256"}],"anonymous":false},{"type":"event","name":"SessionRequestAccepted","inputs":[{"name":"requestId","type":"uint256","indexed":true,"internalType":"uint256"},{"name":"host","type":"address","indexed":true,"internalType":"address"},{"name":"slotId","type":"uint256","indexed":false,"internalType":"uint256"},{"name":"bookingId","type":"uint256","indexed":false,"internalType":"uint256"},{"name":"startTime","type":"uint48","indexed":false,"internalType":"uint48"}],"anonymous":false},{"type":"event","name":"SessionRequestCancelled","inputs":[{"name":"requestId","type":"uint256","indexed":true,"internalType":"uint256"},{"name":"refund","type":"uint256","indexed":false,"internalType":"uint256"}],"anonymous":false},{"type":"event","name":"SessionRequestCreated","inputs":[{"name":"requestId","type":"uint256","indexed":true,"internalType":"uint256"},{"name":"hostTarget","type":"address","indexed":true,"internalType":"address"},{"name":"guest","type":"address","indexed":true,"internalType":"address"},{"name":"windowStart","type":"uint48","indexed":false,"internalType":"uint48"},{"name":"windowEnd","type":"uint48","indexed":false,"internalType":"uint48"},{"name":"durationMins","type":"uint32","indexed":false,"internalType":"uint32"},{"name":"amount","type":"uint256","indexed":false,"internalType":"uint256"},{"name":"expiry","type":"uint48","indexed":false,"internalType":"uint48"}],"anonymous":false},{"type":"event","name":"SessionSlotCancelled","inputs":[{"name":"slotId","type":"uint256","indexed":true,"internalType":"uint256"}],"anonymous":false},{"type":"event","name":"SessionSlotCreated","inputs":[{"name":"slotId","type":"uint256","indexed":true,"internalType":"uint256"},{"name":"host","type":"address","indexed":true,"internalType":"address"},{"name":"startTime","type":"uint48","indexed":false,"internalType":"uint48"},{"name":"durationMins","type":"uint32","indexed":false,"internalType":"uint32"},{"name":"price","type":"uint256","indexed":false,"internalType":"uint256"}],"anonymous":false},{"type":"event","name":"TokenSwept","inputs":[{"name":"amount","type":"uint256","indexed":false,"internalType":"uint256"}],"anonymous":false},{"type":"event","name":"TreasuryUpdated","inputs":[{"name":"oldTreasury","type":"address","indexed":true,"internalType":"address"},{"name":"newTreasury","type":"address","indexed":true,"internalType":"address"}],"anonymous":false},{"type":"event","name":"UnattestedRefunded","inputs":[{"name":"bookingId","type":"uint256","indexed":true,"internalType":"uint256"},{"name":"refund","type":"uint256","indexed":false,"internalType":"uint256"}],"anonymous":false},{"type":"error","name":"SafeERC20FailedOperation","inputs":[{"name":"token","type":"address","internalType":"address"}]}],"bytecode":{"object":"0x60a03461022f57601f61393a38819003918201601f19168301916001600160401b03831184841017610245578084926101209460405283398101031261022f5761004881610259565b9061005560208201610259565b61006160408301610259565b61006d6060840161026d565b6100796080850161027c565b9160a08501519161008c60c0870161026d565b936100a661010061009f60e08a0161027c565b980161027c565b60015f819055600a819055600b819055600c55976001600160a01b031695861561022f576001600160a01b03169485151580610233575b1561022f576107d061ffff84161161022f5761ffff1694612710861161022f57841561022f5762278d0065ffffffffffff83161161022f5762278d0065ffffffffffff89161161022f5762ed4e0065ffffffffffff8a161161022f5767ffffffffffff0000966080523360018060a01b0319600154161760015560018060a01b031960035416176003556004549065ffffffffffff60b01b9060b01b169260018060a01b03169063ffffffff60e01b16179061ffff60a01b9060a01b1617176004556005556dffffffffffff00000000000000006006549460401b169360018060701b031916179160101b161717600655604051335f7f8be0079c531659141344cd1fd0a4f28419497f9722a3daafe3b4186f6b6457e08180a36136aa90816102908239608051818181610e1d015281816113d60152818161244e0152818161271701528181612da7015261338e0152f35b5f80fd5b506001600160a01b03841615156100dd565b634e487b7160e01b5f52604160045260245ffd5b51906001600160a01b038216820361022f57565b519061ffff8216820361022f57565b519065ffffffffffff8216820361022f5756fe6080806040526004361015610015575b505b5f80fd5b5f3560e01c908163023b1fc914612b2657508063046570ea14612b0557806305261aea146128455780630d9d763e146127c55780630ec95c49146127475780631116fd041461266857806318c281a6146126025780631dab301e14612530578063249d39e91461251457806324a9d853146124f057806326bc522c1461249a57806326f20c791461247d5780633013ce29146124395780633015394c1461239157806333fe248b146120de578063387dd9e91461204e57806339a72c5c146120285780634053ef0b14611e3d5780634244c4a214611d3e57806342cc019a14611ca357806343d859bf14611c7e578063475b019314611c5457806351586ecb14611c155780635230515114611c375780635bdfbeb514611c1a57806360c5849114611c1557806361d027b314611bed578063699eb23f14611b145780636a5c841a1461199c5780636a84a9851461197f5780637314e04c1461191457806379ba5097146118a55780637adbf973146118285780637ae15ac1146117bb5780637d47a828146116c45780637dc0d1d01461169c5780637eba7ba614611562578063804ebda71461154557806381d12c581461147b57806381e4f6601461115d57806384ff69851461112e578063856b9b031461109d578063861a1412146110755780638da5cb5b1461104d57806390955aa714610eac578063ab803a7614610e87578063ab82d9a014610cc9578063b8a02e9814610ca1578063bdbc483414610b06578063c04c22a414610ade578063c58343ef14610955578063df18e0471461091d578063e30c3978146108f5578063e55e421114610744578063f0f44260146106c7578063f2fde38b14610651578063f3ac7d7714610619578063f43cc773146105fc578063f7c405101461034b5763ff2d438b146102b5575f61000f565b34610011576020366003190112610011576102ce612be4565b6001546001600160a01b031633036100115762ed4e0065ffffffffffff8216116100115765ffffffffffff7ffdab44b9ce774464b149f6907fb20c83e884f1f18bd105cb762c1aa7c4939eb391610346600654918360401b8160401b168460401b1984161760065560405193849360401c1683612d6c565b0390a1005b346100115760203660031901126100115760043560015f54036100115760025f55805f52600e60205260405f206003810160ff81541660078110156105e857600103610011576001820180549091906001600160a01b031633036100115782545f52600d60205260405f2065ffffffffffff815460a01c16918242101561001157600282019263ffffffff845460401c16603c810290808204603c14901517156105d4576103f891612d85565b815460ff1916600217909155421161047b5750805460ff60601b1916905581545f9081526011602052604081205554600290910180545f51602061366a5f395f51905f529260a09291610453916001600160a01b0316613319565b54604051906005825260208201525f60408201525f60608201525f6080820152a25b60015f55005b9290600360601b60ff60601b19825416179055835f52600f60205260405f209061271061050e61ffff826105046002604051966104b788612c7a565b6001895499868b168a5265ffffffffffff878c60101c169b8c60208d0152818160201c1660408d0152818160501c1660608d015260801c1660808b0152015460a089015201549687612d11565b0493511683612d11565b049061051a8282612d85565b906105258185612d85565b93610539846105348588612d04565b612d04565b03610011575f51602061366a5f395f51905f529560a09585806105bb575b5050836105a3575b828061058a575b505060405193600585526020850152604084015260608301526080820152a2610475565b61059c91600180891b03905416613319565b8782610566565b6105b684600180891b0360045416613319565b61055f565b6105cd916001808a1b03905416613319565b8885610557565b634e487b7160e01b5f52601160045260245ffd5b634e487b7160e01b5f52602160045260245ffd5b34610011575f366003190112610011576020600854604051908152f35b34610011576020366003190112610011576001600160a01b0361063a612c4f565b165f526007602052602060405f2054604051908152f35b346100115760203660031901126100115761066a612c4f565b6001546001600160a01b03169033829003610011576001600160a01b031690811561001157600280546001600160a01b031916831790557f38d16b8cac22d99fc7c124b9cd0de2d3fa1faef420bfe791d8c362d765e227005f80a3005b34610011576020366003190112610011576106e0612c4f565b6001546001600160a01b03163303610011576001600160a01b0316801561001157600480546001600160a01b0319811683179091556001600160a01b03167f4ab5be82436d353e61ca18726e984e561f5c1cc7c6d38b29d2553c790434705a5f80a3005b34610011576040366003190112610011576004356024356006811015610011576001546001600160a01b031633036100115760015f54036100115760025f55815f52600e60205260405f20906003820190815460ff811660078110156105e857600403610011575f906001831480156108e8575b8281156108d8575b50156100115760081c60ff169060068210156105e8576105e85783545f908152600d60205260409020546001850154600686018054600788018054885460ff1916600517895592976001600160a01b039283169693958316949092169291610829908890612d24565b6001600160401b034211610011575f51602061362a5f395f51905f52986020986008925f91610864426001600160401b031660058601612d43565b80546001600160a01b0319169055550180546001600160401b0319169055836108a1575b505050505061089a6040518092612bb8565ba260015f55005b85146108bc5750506108b291613319565b8480808080610888565b6108cc9381036108d15750613319565b6108b2565b9050613319565b90506105e85760038314826107c0565b505f9150600283146107b8565b34610011575f366003190112610011576002546040516001600160a01b039091168152602090f35b34610011576020366003190112610011576001600160a01b0361093e612c4f565b165f526009602052602060405f2054604051908152f35b346100115760203660031901126100115761096e612e89565b506004355f52601060205260405f206040519061098a82612ca9565b600160a01b6001900381541682526001810154906020830191600160a01b600190038116835260408401908060a01c65ffffffffffff168252606085019060d01c8152600283015463ffffffff1660808601908152600384015460a0870190815260048501549160c088019265ffffffffffff8116845260301c60ff169360e0890194610a1681612bc5565b85526005870154956101008a019687526006880154976101208b01988952600160a01b60019003906007015416986101408b01998a526040519a600160a01b600190039051168b52600160a01b6001900390511660208b01525165ffffffffffff1660408a01525165ffffffffffff1660608901525163ffffffff1660808801525160a08701525165ffffffffffff1660c086015251610ab581612bc5565b60e08501525161010084015251610120830152516001600160a01b031661014082015261016090f35b34610011575f36600319011261001157602065ffffffffffff60065460401c16604051908152f35b346100115760203660031901126100115760043560015f54036100115760025f55805f52600e60205260405f206003810160ff81541660078110156105e8576001036100115781545f52600d60205260405f2091600181019160018060a01b0383541633148015610c8e575b1561001157835463ffffffff8160d01c1690603c820291808304603c14901517156105d457610c1b9165ffffffffffff610baf9260a01c16612d04565b865f52600f60205260405f2090604051610bc881612c7a565b60a0600184549461ffff8616845261ffff8660101c16602085015265ffffffffffff8660201c16604085015265ffffffffffff808760501c169687606087015260801c1660808501520154910152612d04565b421061001157805460ff191660061790556002928301805460ff60601b1916600160611b1790559054910180547f917c69b2cefdfea85d4c0c2794149409e80aa6c099826d9dfcfc306ba043d69b9260209291610c80916001600160a01b0316613319565b54604051908152a260015f55005b5083546001600160a01b03163314610b72565b34610011575f36600319011261001157602065ffffffffffff60065460101c16604051908152f35b346100115760203660031901126100115760043560015f54036100115760025f55805f52600e60205260405f2090600382019160ff83541660078110156105e85760030361001157600581015460401c6001600160401b03164210156100115760a092825f52600f60205260405f20600160405191610d4783612c7a565b65ffffffffffff815461ffff8116855261ffff8160101c166020860152818160201c166040860152818160501c16606086015260801c1660808401520154948591015281545f52600d60205260405f2060018060a01b036001840154163314908115610e73575b501561001157805460ff191660041790556006810180546001600160a01b03191633179055600781018390556001600160401b03421161001157600890810180546001600160401b031916426001600160401b031617905554610e12908390612d04565b600855610e418230337f0000000000000000000000000000000000000000000000000000000000000000613287565b6040519182527ff2cbc3bae809b898e4918c93cc3a0617e734ec62b3fccc2f3e58ce66cb15ad2860203393a360015f55005b546001600160a01b03163314905085610dae565b34610011575f3660031901126100115760015f54036100115760025f55610475612f20565b346100115760203660031901126100115760043560015f54036100115760025f55805f52600e60205260405f206003810160ff81541660078110156105e857600403610011576008820180546001600160401b0316801561001157610f7090855f52600f60205260405f2090604051610f2481612c7a565b60a0600165ffffffffffff855461ffff8116855261ffff8160101c166020860152818160201c166040860152818160501c16606086015260801c16948560808501520154910152612d04565b42106100115782545f908152600d60205260409020546001840154600685018054600787018054875460ff191660051788559096929592946001600160a01b039283169491939083169291909116906001600160401b034211610011575f51602061362a5f395f51905f529860209860ff985f92610ffb90426001600160401b031690600501612d43565b80546001600160a01b03191690555580546001600160401b031916905582611034575b505050505460081c1661089a6040518092612bb8565b6110449381036108d15750613319565b8580808061101e565b34610011575f366003190112610011576001546040516001600160a01b039091168152602090f35b34610011575f36600319011261001157602065ffffffffffff60045460b01c16604051908152f35b34610011576020366003190112610011576110b6612be4565b6001546001600160a01b031633036100115762278d0065ffffffffffff8216116100115765ffffffffffff7f106f319ff2a7865a563aa99bb7c269b4879041eba2eaf3a25868e9b461fcbd4b91610346600454918360b01b8160b01b168460b01b1984161760045560405193849360b01c1683612d6c565b3461001157602036600319011261001157611147612c4f565b60015f5403610011576104759060025f55613345565b346100115760c036600319011261001157611176612c4f565b61117e612bcf565b6044359165ffffffffffff83168093036100115761119a612c0c565b60843560a4359165ffffffffffff83168093036100115760015f54036100115760025f5581156100115763ffffffff169283151580611470575b1561001157603c4201948542116105d45765ffffffffffff169485111561001157848610610011574283111561001157858311610011576001600160a01b0316928361144b575b600c549561122887612eeb565b600c5560405161123781612ca9565b858152876020820133815260408301908982526060840190858252608085019087825260a0860189815260c08701928b845260e0880192600184526101008901955f87526101208a01975f89526101408b01995f8b525f52601060205260405f209a600160a01b6001900390600160a01b6001900390511616600160a01b60019003198c5416178b5560018b0192600160a01b6001900390600160a01b6001900390511616600160a01b60019003198454161783555165ffffffffffff166112ff9083612ef9565b5181546001600160d01b031660d09190911b6001600160d01b0319161790555160028801805463ffffffff191663ffffffff909216919091179055516003870155905160048601805465ffffffffffff191665ffffffffffff909216919091178155905161136c81612bc5565b61137581612bc5565b815460ff60301b191660309190911b60ff60301b1617905551600584015551600683015551600790910180546001600160a01b0319166001600160a01b03929092169190911790556008546113cb908490612d04565b6008556113fa8330337f0000000000000000000000000000000000000000000000000000000000000000613287565b604051958652602086015260408501526060840152608083015282339260a07f907d10db0ff880252feccfc2b663663b3bdc8c93b135e429d9c9f157af4fe1aa91a460015f55604051908152602090f35b835f52600760205260405f205480611464575b5061121b565b8210610011578661145e565b5060f08411156111d4565b34610011576020366003190112610011576004355f52601060205261016060405f2060018060a01b038154169060018101549063ffffffff600282015416600382015465ffffffffffff600484015460ff8160301c1692600586015494600687015496600760018060a01b039101541697604051998a5260018060a01b03811660208b0152848160a01c1660408b015260d01c60608a0152608089015260a08801521660c086015261152c81612bc5565b60e0850152610100840152610120830152610140820152f35b34610011575f366003190112610011576020600a54604051908152f35b34610011576020366003190112610011575f60e060405161158281612cc5565b8281528260208201528260408201528260608201528260808201528260a08201528260c082015201526004355f52600d60205261010060405f20604051906115c982612cc5565b63ffffffff81549160018060a01b038316845281602085019365ffffffffffff8160a01c16855281604087019160d01c16815281600260018501549460608901958652015493608088019082861682528260a08a0194818860201c16865265ffffffffffff60ff60c08d0199848160401c168b5260601c169a60e08d019b61165081612bc5565b8c526040519c60018060a01b039051168d52511660208c0152511660408a015251606089015251166080870152511660a0850152511660c08301525161169581612bc5565b60e0820152f35b34610011575f366003190112610011576003546040516001600160a01b039091168152602090f35b34610011576020366003190112610011576004356001600160401b03811161001157366023820112156100115760048101356001600160401b0381116100115736602460a083028401011161001157335f52600760205260405f205491821561001157811515806117b0575b1561001157600a545f5b838110156117a55760a0810283019060248201359165ffffffffffff831683036100115760019281611771604461179e9401612eda565b8961177e60648401612eda565b9161179760a461179060848701612eda565b9501612eda565b94336133e0565b500161173a565b602082604051908152f35b5060c8821115611730565b34610011576020366003190112610011576004355f52600f60205260c060405f206001815491015465ffffffffffff6040519261ffff8116845261ffff8160101c166020850152818160201c166040850152818160501c16606085015260801c16608083015260a0820152f35b3461001157602036600319011261001157611841612c4f565b6001546001600160a01b03163303610011576001600160a01b0316801561001157600380546001600160a01b0319811683179091556001600160a01b03167f078c3b417dadf69374a59793b829c52001247130433427049317bde56607b1b75f80a3005b34610011575f366003190112610011576002546001600160a01b038116903382900361001157600180546001600160a01b0319808216851790925591166002556001600160a01b03167f8be0079c531659141344cd1fd0a4f28419497f9722a3daafe3b4186f6b6457e05f80a3005b346100115760a03660031901126100115761192d612be4565b6024359063ffffffff8216820361001157611946612bf9565b61194e612c0c565b611956612c1f565b91335f52600760205260405f205480156100115760209561197795336133e0565b604051908152f35b34610011575f366003190112610011576020600c54604051908152f35b34610011576020366003190112610011576119b5612e89565b506004355f52600e60205260405f206040516119d081612ca9565b8154815260018201546001600160a01b03166020820190815260028301546040830190815260038401546060840194919060ff81169060078210156105e85760ff91875260081c1694608085019060068710156105e857958152600483015460a0860190815260058401546001600160401b0380821660c08901908152604092831c821660e08a0190815260068801546001600160a01b039081166101008c0190815260078a01546101208d019081526008909a01549094166101408c0190815285519b518c5299511660208b01529551928901929092529751610160989493919291611ad091611ac59060608b0190612bab565b516080890190612bb8565b5160a0870152516001600160401b0390811660c08701529051811660e086015290516001600160a01b03166101008501529051610120840152905116610140820152f35b34610011576020366003190112610011575f60a0604051611b3481612c7a565b82815282602082015282604082015282606082015282608082015201526004355f52600f60205260c060405f20604051611b6d81612c7a565b65ffffffffffff82548161ffff821694858552816020860161ffff8560101c16815261ffff6040880191838760201c16835260a0600160608b0196868a60501c1688528660808d019a60801c168a5201549901988952604051998a52511660208901525116604087015251166060850152511660808301525160a0820152f35b34610011575f366003190112610011576004546040516001600160a01b039091168152602090f35b612c32565b34610011575f36600319011261001157602060405162ed4e008152f35b34610011575f366003190112610011576020600554604051908152f35b34610011576020366003190112610011576004355f526011602052602060405f2054604051908152f35b34610011575f3660031901126100115760015f54036100115760025f55610475612d92565b3461001157602036600319011261001157611cbc612be4565b6001546001600160a01b031633036100115762278d0065ffffffffffff8216116100115765ffffffffffff7f61b085e37d382d88a75cdf179d9194385e8a90499677f858cf6c5c48a9afa8bf916103466006549167ffffffffffff00008160101b1667ffffffffffff00001984161760065560405193849360101c1683612d6c565b346100115760203660031901126100115760043560015f54036100115760025f55805f52600e60205260405f20600381019060ff82541660078110156105e8576001036100115780545f52600d60205260405f209081543360018060a01b038216036100115760a01c65ffffffffffff1642101561001157825460ff19166002908117909355908201805460ff60601b1916600160611b17905580545f908152601160205260408120556001810154910180545f51602061366a5f395f51905f529260a09291611e16916001600160a01b0316613319565b54604051906004825260208201525f60408201525f60608201525f6080820152a260015f55005b346100115760a036600319011261001157600435611e59612bcf565b90611e62612bf9565b91611e6b612c0c565b611e73612c1f565b9260015f54036100115760025f55805f52601060205260405f209260048401938454600160ff8260301c16611ea781612bc5565b036100115765ffffffffffff1642116100115760018101805490969094336001600160a01b038716146100115782546001600160a01b03168061201c575b50335f52600760205260405f205491821515918261200c575b65ffffffffffff86169765ffffffffffff8160a01c168910159081611ffe575b501561001157603c42018042116105d4578811156100115760409a600796611f7495611f5d9515611ff257905b63ffffffff60028901541690336133e0565b96546003830154906001600160a01b031688612fae565b855460ff60301b1916600360301b1790955560058101869055600681018590550180546001600160a01b0319163390811790915585518581526020810185905280870193909352917fe6d90ea495ccfaee0ee4e68d1bc346d0f33e53f9853f691c4f2c9b3284994ddb90606090a360015f5582519182526020820152f35b50600387015490611f4b565b905060d01c8811158c611f1e565b8360038601541015611efe575f80fd5b33036100115789611ee5565b34610011575f3660031901126100115760015f54036100115760025f5561047533613345565b34610011576020366003190112610011576004355f52600d60205261010060405f2080549063ffffffff6002600183015492015460ff8160601c1692826040519560018060a01b038116875265ffffffffffff8160a01c16602088015260d01c16604086015260608501528181166080850152818160201c1660a085015260401c1660c083015261169581612bc5565b3461001157606036600319011261001157600435602435600681101561001157600354604435906001600160a01b0316330361001157825f52600e60205260405f20916003830160ff81541660078110156105e857600103610011578115610011575f600183148015612385575b818115612375575b50156100115784545f52600d60205260405f2080549063ffffffff65ffffffffffff8360a01c169260d01c1691603c830292808404603c14901517156105d45760026121a08483612d04565b92015463ffffffff8116603c810290808204603c14901517156105d4576121c79083612d04565b946105e85760028714801561236b575b1561231e57505050814210610011576121ef91612d04565b4211610011578161220b915b805460ff19166003178155612d24565b600483018290556001600160401b0342116100115760059290920180546001600160401b031916426001600160401b03161781555f848152600f60205260409081902090519193916122af919061226181612c7a565b60a0600183549361ffff8516845261ffff8560101c16602085015265ffffffffffff808660201c1695866040870152818160501c16606087015260801c166080850152015491015242612d04565b916001600160401b038311610011577f24864fe9462927cd9bc51f0ddd3cfcaa0bf2716a83459138d79d7e1e35a36f4c936060936122f6906001600160401b031682612d43565b60018060401b03905460401c16906123116040518094612bb8565b60208301526040820152a2005b90925063ffffffff91935060201c16603c810290808204603c14901517156105d45761234991612d04565b421061001157611c2081018091116105d4574211610011578161220b916121fb565b50600387146121d7565b90506105e8576003831481612154565b50505f6002831461214c565b346100115760203660031901126100115760043560015f54036100115760025f55805f52601060205260405f206004810190815491600160ff8460301c166123d881612bc5565b036100115760018201546001600160a01b0316903382036100115760ff60301b19909316600160311b1790925560030180547f94684a270daf50c31a66751a64dea889bc82836f26721c7fc1bab4ff445b69129260209291610c8091613319565b34610011575f366003190112610011576040517f00000000000000000000000000000000000000000000000000000000000000006001600160a01b03168152602090f35b34610011575f366003190112610011576020600b54604051908152f35b3461001157602036600319011261001157600435801561001157335f5260076020528060405f20556040519081527f4e6c8dfd21634b9172efbe1eeee02b6311ba19d102e37d9570677a3ad47212fe60203392a2005b34610011575f36600319011261001157602061ffff60045460a01c16604051908152f35b34610011575f3660031901126100115760206040516127108152f35b34610011576020366003190112610011576004355f52600e60205261016060405f2080549060018060a01b03600182015416906002810154600382015460048301546125cd60058501549260018060a01b0360068701541694600787015496600860018060401b039101541697604051998a5260208a015260408901526125bd6060890160ff8316612bab565b60ff608089019160081c16612bb8565b60a08601526001600160401b0381811660c087015260409190911c1660e0850152610100840152610120830152610140820152f35b3461001157602036600319011261001157600154600435906001600160a01b031633036100115780156100115760407f27dee1ef8a88ee5cc611b2f0fb4dfc4eb15d16866782c4c848c9c48f4a86eae691600554908060055582519182526020820152a1005b346100115760203660031901126100115760043560015f54036100115760025f55805f52600d60205260405f209060ff600283015460601c166126aa81612bc5565b610011578154603c42018042116105d45765ffffffffffff8260a01c16111561001157815f52601160205260405f2054610011576001600160a01b031633146100115761273b6127036001602094015480933390612fae565b9161271081600854612d04565b60085530337f0000000000000000000000000000000000000000000000000000000000000000613287565b60015f55604051908152f35b346100115760203660031901126100115760043561ffff811690818103610011576001546001600160a01b03163303610011576127108211610011577fea93df5a714cf271a61bd5ee9a7c1b86d1d16f41a20f84f1b2500f90dda3af949161034661ffff926006549284198416176006556040519384931683612c65565b34610011576020366003190112610011576004355f818152600d6020526040902080546001600160a01b0316330361001157600201805460ff8160601c1661280c81612bc5565b6100115760ff60601b1916600160611b1790557fd04692252eb386bc1bc47a15f8bf6bc81bc702521ef547c018d2afa2fb2d384b5f80a2005b346100115760203660031901126100115760043560015f54036100115760025f55805f52600e60205260405f206003810160ff81541660078110156105e85760038114908115612afa575b501561001157600582015460401c6001600160401b031642106100115781545f52600d60205260405f2091835f52600f60205260405f20916001604051936128d785612c7a565b65ffffffffffff815461ffff8116875261ffff8160101c166020880152818160201c166040880152818160501c16606088015260801c166080860152015460a0840152600660ff1982541617815560028401600360601b60ff60601b1982541617905560ff815460081c169360018060a01b039054169361ffff600260018060a01b03600186015416940154945116905f905f945f916006811015806105e857600182148015612aee575b15612a205750505050509160ff84926129ba6127106129b25f51602061360a5f395f51905f529997608099612d11565b048095612d85565b9484612a04575b85806129f4575b50505b5460081c16926129de6040518095612bb8565b602084015260408301526060820152a260015f55005b6129fd91613319565b88856129c8565b600454612a1b9086906001600160a01b0316613319565b6129c1565b809993989594999792976105e857600282148015612ae2575b15612a695750505050509160ff60809492612a64855f51602061360a5f395f51905f52989694613319565b6129cb565b929650929750929395506105e8576005036100115760ff608094612aa16127106129b25f51602061360a5f395f51905f529987612d11565b9484612ac6575b8580612ab6575b50506129cb565b612abf91613319565b8885612aaf565b600454612add9086906001600160a01b0316613319565b612aa8565b50505f60048214612a39565b50505f60038214612982565b600591501484612890565b34610011575f36600319011261001157602061ffff60065416604051908152f35b34610011576020366003190112610011576004359061ffff8216808303610011576001546001600160a01b03163303610011576107d01061001157806103467f8d10f5697a370f640ed5d474159aba3cc86e9bc260a5e9d2db875ad992cb1a1f9361ffff6004548160a01b8360a01b168260a01b1982161760045560a01c1683612c65565b9060078210156105e85752565b9060068210156105e85752565b600411156105e857565b6024359065ffffffffffff8216820361001157565b6004359065ffffffffffff8216820361001157565b6044359063ffffffff8216820361001157565b6064359063ffffffff8216820361001157565b6084359063ffffffff8216820361001157565b34610011575f36600319011261001157602060405162278d008152f35b600435906001600160a01b038216820361001157565b61ffff91821681529116602082015260400190565b60c081019081106001600160401b03821117612c9557604052565b634e487b7160e01b5f52604160045260245ffd5b61016081019081106001600160401b03821117612c9557604052565b61010081019081106001600160401b03821117612c9557604052565b601f909101601f19168101906001600160401b03821190821017612c9557604052565b919082018092116105d457565b818102929181159184041417156105d457565b9060068110156105e85761ff0082549160081b169061ff001916179055565b8054600160401b600160801b03191660409290921b600160401b600160801b0316919091179055565b65ffffffffffff91821681529116602082015260400190565b919082039182116105d457565b6040516370a0823160e01b81523060048201527f0000000000000000000000000000000000000000000000000000000000000000906020816024816001600160a01b0386165afa908115612e7e575f91612e4c575b506008549182821115612e3057612e27612e115f51602061364a5f395f51905f5294602094612d85565b600454909283916001600160a01b0316906135b1565b604051908152a1565b5050505f51602061364a5f395f51905f5260206040515f8152a1565b90506020813d602011612e76575b81612e6760209383612ce1565b8101031261001157515f612de7565b3d9150612e5a565b6040513d5f823e3d90fd5b60405190612e9682612ca9565b5f610140838281528260208201528260408201528260608201528260808201528260a08201528260c08201528260e082015282610100820152826101208201520152565b3563ffffffff811681036100115790565b5f1981146105d45760010190565b805465ffffffffffff60a01b191660a09290921b65ffffffffffff60a01b16919091179055565b478015612f94575f8080808460018060a01b03600454165af13d15612f8f573d6001600160401b038111612c955760405190612f66601f8201601f191660200183612ce1565b81525f60203d92013e5b156100115760205f51602061368a5f395f51905f5291604051908152a1565b612f70565b505f51602061368a5f395f51905f5260206040515f8152a1565b929192805f52600d602052600260405f20019160ff835460601c16612fd281612bc5565b61001157815f52601160205260405f205461001157600b5490612ff482612eeb565b600b558195835f5260116020528260405f20556040519061301482612ca9565b848252602082019260018060a01b0316958684526040830192828452606081016001815260808201955f875260a08301955f875260c08401975f895260e08501985f8a526101008601915f83526101208701935f85526101408801955f87528d5f52600e60205260405f209851895560018060a01b03905116600189019060018060a01b031660018060a01b031982541617905551600288015560038701955160078110156105e85760ff80198854169116178655519060068210156105e8577f629dc84b4562ce5134c489592d47293cdad8e89d7ea6523a2bf064bb954a30579a60209a61310861313794600899612d24565b51600489015590516005880180546001600160401b0319166001600160401b0392831617815591511690612d43565b51600685810180546001600160a01b0319166001600160a01b0393909316929092179091559051600785015590519190920180546001600160401b0319166001600160401b039290921691909117905560045490546005546040519260019261319f85612c7a565b61ffff8260a01c16855287850161ffff8216815265ffffffffffff604087019360b01c168352606086019065ffffffffffff8360101c16825265ffffffffffff608088019360401c16835260a087019485528b5f52600f8a5261ffff60405f2097511661ffff198854161787555186549365ffffffffffff8b1b90518b1b169165ffffffffffff60501b905160501b169265ffffffffffff60801b905160801b169363ffff000065ffffffffffff60801b199260101b1690620100008860801b0319161716171717835551910155600160601b60ff60601b19825416179055604051908152a4565b6040516323b872dd60e01b5f9081526001600160a01b039384166004529290931660245260449390935260209060648180865af19060015f51148216156132f8575b6040525f606052156132d85750565b635274afe760e01b5f9081526001600160a01b0391909116600452602490fd5b90600181151661331057823b15153d151616906132c9565b503d5f823e3d90fd5b81156133415760018060a01b03165f52600960205261333d60405f20918254612d04565b9055565b5050565b6001600160a01b03811690811561001157335f52600960205260405f205490811561001157816133b291335f5260096020525f604081205561338982600854612d85565b6008557f00000000000000000000000000000000000000000000000000000000000000006135b1565b6040519081527fa6cd4410234ac9de9d1307f26fd9ec5124f511a9135d59c0904879dd8ae28e1060203392a3565b969591939293841561001157603c4201918242116105d45765ffffffffffff16918211156100115763ffffffff1694851515806135a6575b156100115763ffffffff16918583116100115763ffffffff169361276085116100115761348a957f0a7485cbe2641ede2fefae85de83e7807d709f95d409e3c32aa6cbc795e860d294606094600a5497889161347383612eeb565b600a5563ffffffff806002859f6040519e8f612cc5565b60018060a01b03169d8e815289602082018c815261350b65ffffffffffff60408501928d84526060860194855287608087019d168d5260a08601998a5260c086019a8b5260e086019b5f8d525f52600d60205260405f209560018060a01b039060018060a01b039051161660018060a01b0319875416178655511684612ef9565b518254908560d01b9060d01b16908560d01b1916178255516001820155019551161663ffffffff19855416178455519083549063ffffffff60401b905160401b169163ffffffff60201b9060201b1690600160201b60018a1b031916171782555161357581612bc5565b61357e81612bc5565b81549060ff871b90871b169060ff871b191617905560405192835260208301526040820152a3565b5060f0861115613418565b916040519163a9059cbb60e01b5f5260018060a01b031660045260245260205f60448180865af19060015f51148216156135f1575b604052156132d85750565b90600181151661331057823b15153d151616906135e656fed96b99f82f8b864e76999d053eb26c3447b27db4b1ac5bbdb7ca128edc47e8af8a1c7850cb95b6648c597d19ad5a66ce32698f83f344546e66f4229ce5dacff9aea05ec7362bb7ab2c09b63a3a833265687676386ad1fcdcfbda550fd80fcf1ac933a7a4f002c0d60bdc00ce06c642f38f9e3f02dc9887ac471261e20cf0e76d1ed033bc10f1dd641f4df398853976d2b76ee062cce863301929fe8ee8336faa","linkReferences":{}},"methodIdentifiers":{"BPS()":"249d39e9","MAX_CHALLENGE_WINDOW()":"51586ecb","MAX_DISPUTE_TIMEOUT()":"5bdfbeb5","MAX_NO_ATTEST_BUFFER()":"60c58491","acceptOwnership()":"79ba5097","acceptRequest(uint256,uint48,uint32,uint32,uint32)":"4053ef0b","attest(uint256,uint8,bytes32)":"33fe248b","book(uint256)":"1116fd04","bookingTerms(uint256)":"7ae15ac1","bookings(uint256)":"1dab301e","cancelBookingAsGuest(uint256)":"f7c40510","cancelBookingAsHost(uint256)":"4244c4a2","cancelRequest(uint256)":"3015394c","cancelSlot(uint256)":"0d9d763e","challenge(uint256)":"ab82d9a0","challengeBond()":"52305151","challengeWindow()":"861a1412","claimIfUnattested(uint256)":"bdbc4834","createRequest(address,uint48,uint48,uint32,uint256,uint48)":"81e4f660","createSlot(uint48,uint32,uint32,uint32,uint32)":"7314e04c","createSlots((uint48,uint32,uint32,uint32,uint32)[])":"7d47a828","disputeTimeout()":"c04c22a4","feeBps()":"24a9d853","finalize(uint256)":"05261aea","finalizeDisputeByTimeout(uint256)":"90955aa7","getBooking(uint256)":"6a5c841a","getBookingTerms(uint256)":"699eb23f","getRequest(uint256)":"c58343ef","getSlot(uint256)":"7eba7ba6","hostBasePrice(address)":"f3ac7d77","lateCancelPenaltyBps()":"046570ea","nextBookingId()":"26f20c79","nextRequestId()":"6a84a985","nextSlotId()":"804ebda7","noAttestBuffer()":"b8a02e98","oracle()":"7dc0d1d0","owed(address)":"df18e047","owner()":"8da5cb5b","paymentToken()":"3013ce29","pendingOwner()":"e30c3978","requests(uint256)":"81d12c58","resolveDispute(uint256,uint8)":"e55e4211","setChallengeBond(uint256)":"18c281a6","setChallengeWindow(uint48)":"856b9b03","setDisputeTimeout(uint48)":"ff2d438b","setFeeBps(uint16)":"023b1fc9","setHostBasePrice(uint256)":"26bc522c","setLateCancelPenaltyBps(uint16)":"0ec95c49","setNoAttestBuffer(uint48)":"42cc019a","setOracle(address)":"7adbf973","setTreasury(address)":"f0f44260","slotToBooking(uint256)":"475b0193","slots(uint256)":"387dd9e9","sweepNative()":"ab803a76","sweepTokenExcess()":"43d859bf","totalHeld()":"f43cc773","transferOwnership(address)":"f2fde38b","treasury()":"61d027b3","withdrawOwed()":"39a72c5c","withdrawOwed(address)":"84ff6985"},"id":6}