{"abi":[{"type":"constructor","inputs":[{"name":"_registrar","type":"address","internalType":"address"},{"name":"_owner","type":"address","internalType":"address"},{"name":"_sponsor","type":"address","internalType":"address"}],"stateMutability":"nonpayable"},{"type":"function","name":"COIN_TYPE_ETH","inputs":[],"outputs":[{"name":"","type":"uint256","internalType":"uint256"}],"stateMutability":"view"},{"type":"function","name":"addr","inputs":[{"name":"node","type":"bytes32","internalType":"bytes32"}],"outputs":[{"name":"","type":"address","internalType":"address"}],"stateMutability":"view"},{"type":"function","name":"addr","inputs":[{"name":"node","type":"bytes32","internalType":"bytes32"},{"name":"coinType","type":"uint256","internalType":"uint256"}],"outputs":[{"name":"","type":"bytes","internalType":"bytes"}],"stateMutability":"view"},{"type":"function","name":"clearRecords","inputs":[{"name":"node","type":"bytes32","internalType":"bytes32"}],"outputs":[],"stateMutability":"nonpayable"},{"type":"function","name":"contenthash","inputs":[{"name":"node","type":"bytes32","internalType":"bytes32"}],"outputs":[{"name":"","type":"bytes","internalType":"bytes"}],"stateMutability":"view"},{"type":"function","name":"isActive","inputs":[{"name":"node","type":"bytes32","internalType":"bytes32"}],"outputs":[{"name":"","type":"bool","internalType":"bool"}],"stateMutability":"view"},{"type":"function","name":"isAuthorized","inputs":[{"name":"node","type":"bytes32","internalType":"bytes32"},{"name":"addr_","type":"address","internalType":"address"}],"outputs":[{"name":"","type":"bool","internalType":"bool"}],"stateMutability":"view"},{"type":"function","name":"nodeToTokenId","inputs":[{"name":"","type":"bytes32","internalType":"bytes32"}],"outputs":[{"name":"","type":"uint256","internalType":"uint256"}],"stateMutability":"view"},{"type":"function","name":"nodeVersion","inputs":[{"name":"","type":"bytes32","internalType":"bytes32"}],"outputs":[{"name":"","type":"uint64","internalType":"uint64"}],"stateMutability":"view"},{"type":"function","name":"nonces","inputs":[{"name":"","type":"bytes32","internalType":"bytes32"}],"outputs":[{"name":"","type":"uint256","internalType":"uint256"}],"stateMutability":"view"},{"type":"function","name":"owner","inputs":[],"outputs":[{"name":"","type":"address","internalType":"address"}],"stateMutability":"view"},{"type":"function","name":"registerNode","inputs":[{"name":"node","type":"bytes32","internalType":"bytes32"},{"name":"tokenId","type":"uint256","internalType":"uint256"}],"outputs":[],"stateMutability":"nonpayable"},{"type":"function","name":"registrar","inputs":[],"outputs":[{"name":"","type":"address","internalType":"contract IRegistry"}],"stateMutability":"view"},{"type":"function","name":"renounceOwnership","inputs":[],"outputs":[],"stateMutability":"nonpayable"},{"type":"function","name":"setAddr","inputs":[{"name":"node","type":"bytes32","internalType":"bytes32"},{"name":"coinType","type":"uint256","internalType":"uint256"},{"name":"addr_","type":"bytes","internalType":"bytes"}],"outputs":[],"stateMutability":"nonpayable"},{"type":"function","name":"setAddr","inputs":[{"name":"node","type":"bytes32","internalType":"bytes32"},{"name":"addr_","type":"address","internalType":"address"}],"outputs":[],"stateMutability":"nonpayable"},{"type":"function","name":"setContenthash","inputs":[{"name":"node","type":"bytes32","internalType":"bytes32"},{"name":"hash","type":"bytes","internalType":"bytes"}],"outputs":[],"stateMutability":"nonpayable"},{"type":"function","name":"setRecords","inputs":[{"name":"node","type":"bytes32","internalType":"bytes32"},{"name":"ethAddr","type":"address","internalType":"address"},{"name":"textKeys","type":"string[]","internalType":"string[]"},{"name":"textValues","type":"string[]","internalType":"string[]"},{"name":"contenthash_","type":"bytes","internalType":"bytes"}],"outputs":[],"stateMutability":"nonpayable"},{"type":"function","name":"setRecordsFor","inputs":[{"name":"node","type":"bytes32","internalType":"bytes32"},{"name":"keys","type":"string[]","internalType":"string[]"},{"name":"values","type":"string[]","internalType":"string[]"},{"name":"signature","type":"bytes","internalType":"bytes"}],"outputs":[],"stateMutability":"nonpayable"},{"type":"function","name":"setRegistrar","inputs":[{"name":"_registrar","type":"address","internalType":"address"}],"outputs":[],"stateMutability":"nonpayable"},{"type":"function","name":"setSponsor","inputs":[{"name":"_sponsor","type":"address","internalType":"address"}],"outputs":[],"stateMutability":"nonpayable"},{"type":"function","name":"setText","inputs":[{"name":"node","type":"bytes32","internalType":"bytes32"},{"name":"key","type":"string","internalType":"string"},{"name":"value","type":"string","internalType":"string"}],"outputs":[],"stateMutability":"nonpayable"},{"type":"function","name":"setTextFor","inputs":[{"name":"node","type":"bytes32","internalType":"bytes32"},{"name":"key","type":"string","internalType":"string"},{"name":"value","type":"string","internalType":"string"},{"name":"signature","type":"bytes","internalType":"bytes"}],"outputs":[],"stateMutability":"nonpayable"},{"type":"function","name":"sponsor","inputs":[],"outputs":[{"name":"","type":"address","internalType":"address"}],"stateMutability":"view"},{"type":"function","name":"supportsInterface","inputs":[{"name":"interfaceId","type":"bytes4","internalType":"bytes4"}],"outputs":[{"name":"","type":"bool","internalType":"bool"}],"stateMutability":"pure"},{"type":"function","name":"text","inputs":[{"name":"node","type":"bytes32","internalType":"bytes32"},{"name":"key","type":"string","internalType":"string"}],"outputs":[{"name":"","type":"string","internalType":"string"}],"stateMutability":"view"},{"type":"function","name":"transferOwnership","inputs":[{"name":"newOwner","type":"address","internalType":"address"}],"outputs":[],"stateMutability":"nonpayable"},{"type":"event","name":"AddrChanged","inputs":[{"name":"node","type":"bytes32","indexed":true,"internalType":"bytes32"},{"name":"coinType","type":"uint256","indexed":false,"internalType":"uint256"},{"name":"addr","type":"bytes","indexed":false,"internalType":"bytes"}],"anonymous":false},{"type":"event","name":"ContenthashChanged","inputs":[{"name":"node","type":"bytes32","indexed":true,"internalType":"bytes32"},{"name":"contenthash","type":"bytes","indexed":false,"internalType":"bytes"}],"anonymous":false},{"type":"event","name":"OwnershipTransferred","inputs":[{"name":"previousOwner","type":"address","indexed":true,"internalType":"address"},{"name":"newOwner","type":"address","indexed":true,"internalType":"address"}],"anonymous":false},{"type":"event","name":"RecordsCleared","inputs":[{"name":"node","type":"bytes32","indexed":true,"internalType":"bytes32"},{"name":"newVersion","type":"uint64","indexed":false,"internalType":"uint64"}],"anonymous":false},{"type":"event","name":"RegistrarUpdated","inputs":[{"name":"newRegistrar","type":"address","indexed":false,"internalType":"address"}],"anonymous":false},{"type":"event","name":"SponsorUpdated","inputs":[{"name":"newSponsor","type":"address","indexed":false,"internalType":"address"}],"anonymous":false},{"type":"event","name":"TextChanged","inputs":[{"name":"node","type":"bytes32","indexed":true,"internalType":"bytes32"},{"name":"key","type":"string","indexed":false,"internalType":"string"},{"name":"value","type":"string","indexed":false,"internalType":"string"}],"anonymous":false},{"type":"error","name":"InvalidAddress","inputs":[]},{"type":"error","name":"InvalidSignature","inputs":[]},{"type":"error","name":"NotAuthorized","inputs":[]},{"type":"error","name":"OwnableInvalidOwner","inputs":[{"name":"owner","type":"address","internalType":"address"}]},{"type":"error","name":"OwnableUnauthorizedAccount","inputs":[{"name":"account","type":"address","internalType":"address"}]}],"bytecode":{"object":"0x6080346100e957601f61279438819003918201601f19168301916001600160401b038311848410176100ed578084926060946040528339810103126100e95761004781610101565b90610060604061005960208401610101565b9201610101565b6001600160a01b03918216919082156100d157815f549460018060a01b03199480868816175f558260405197167f8be0079c531659141344cd1fd0a4f28419497f9722a3daafe3b4186f6b6457e05f80a3168360015416176001551690600854161760085561267e90816101168239f35b604051631e4fbdf760e01b81525f6004820152602490fd5b5f80fd5b634e487b7160e01b5f52604160045260245ffd5b51906001600160a01b03821682036100e95756fe6080806040526004361015610012575f80fd5b5f3560e01c90816301ffc9a7146117fc57508063035496031461144857806310f13a8c146112de5780631a2aa1b6146112aa5780632b20e39714611282578063304e6ade146111575780633603d758146110be5780633b3b57de1461108e57806341cf32911461106457806355f3e9771461103257806359753fb114610fc657806359d1d43c14610fac5780635c36901c14610f82578063715018a614610f3e57806377c9366214610f165780637fe5f8c414610ad55780638b95dd711461094f5780638da5cb5b14610928578063956db465146108f85780639e317f12146108ce5780639f1fa15514610450578063bc1c58d114610431578063d5fa2b0014610271578063e96a650414610256578063f1cb7e0614610224578063f2fde38b146101b55763faab9d3914610145575f80fd5b346101b15760203660031901126101b1577fe696533f02cb3abcaaf5e85cd893de5abf147a82fd1496ddd3e5219da0a66437602061018161190d565b610189612438565b600180546001600160a01b0319166001600160a01b03929092169182179055604051908152a1005b5f80fd5b346101b15760203660031901126101b1576101ce61190d565b6101d6612438565b6001600160a01b0390811690811561020c575f548260018060a01b03198216175f55165f805160206125e98339815191525f80a3005b604051631e4fbdf760e01b81525f6004820152602490fd5b346101b15761025261023e610238366118c4565b90611f9c565b604051918291602083526020830190611939565b0390f35b346101b1575f3660031901126101b1576020604051603c8152f35b346101b15760403660031901126101b15760043561028d611923565b6102973383611e07565b1561041f575f8281526003602090815260409182902054915160609390931b6001600160601b03191683820181905260148452909290916001600160401b039081166102e283611a0a565b855f526004855260405f20905f52845260405f20603c5f52845260405f2091805191821161040b5761031e826103188554611af1565b85611b29565b8490601f831160011461039357926103568361038394604097945f8051602061262983398151915299975f92610388575b5050611b78565b90555b835190838201526014815261036d81611a0a565b8351938493603c85528401526040830190611939565b0390a2005b015190508a8061034f565b90601f19831691845f52865f20925f5b8181106103f4575093604096935f805160206126298339815191529896936001938361038398106103dc575b505050811b019055610359565b01515f1960f88460031b161c191690558980806103cf565b9293886001819287860151815501950193016103a3565b634e487b7160e01b5f52604160045260245ffd5b60405163ea8e4eb560e01b8152600490fd5b346101b15760203660031901126101b15761025261023e600435611f4e565b346101b15760803660031901126101b1576024356001600160401b0381116101b15761048090369060040161195d565b906044356001600160401b0381116101b1576104a090369060040161195d565b6064356001600160401b0381116101b1576104bf903690600401611897565b6008546001600160a01b0316331480156108bb575b6104dd9061198d565b6104e8838714611d74565b6004355f52600260205260405f2054906105038215156119c8565b6001546040516317399c6560e31b8152600481018490526001600160a01b0390911692602082602481875afa91821561086f575f92610885575b50610554826020931515908161087a575b50611a63565b6024604051809581936331a9108f60e11b835260048301525afa90811561086f578493878988955f95610824575b506106736037610678936105e26020946105d461067d9a9b6004355f526007885260405f20549d6105c260405196879560408c8801526060870191611ec5565b848103601f1901604086015291611ec5565b03601f198101835282611a40565b838151910120836105fd6105f7600435612006565b92612006565b6106068c612134565b82604051978895743432b0bb32b71d3932b1b7b9323996b130ba31b41d60591b82880152805191829101603588015e8501601d60f91b93846035830152805192839101603683015e019160368301528051928391018583015e015f83820152036017810184520182611a40565b6121f4565b6122cf565b6001600160a01b0391821691160361081257600181018091116107fe576004355f52600760205260405f2055600360205260018060401b0360405f205416935f5b8181106106c757005b6106d2818486611db2565b6004355f52600560205260405f20885f526020526106fe60405f206106f885878b611db2565b90611ad8565b916001600160401b03821161040b5761071b826103188554611af1565b5f90601f83116001146107945791806107409260019695945f92610789575050611b78565b90555b6107805f805160206125c983398151915261075f83868a611db2565b61076d85898b969496611db2565b6040939193519384936004359785611baa565b0390a2016106be565b013590508b8061034f565b835f5260205f20915f5b601f19851681106107e657509183916001969594938794601f198116106107cd575b505050811b019055610743565b01355f19600384901b60f8161c191690558a80806107c0565b9092602060018192868601358155019401910161079e565b634e487b7160e01b5f52601160045260245ffd5b604051638baa579f60e01b8152600490fd5b61067d95506037610678936105e26020946105d461085a61067396883d8a11610868575b6108528183611a40565b810190611a9e565b9a5050945050935050610582565b503d610848565b6040513d5f823e3d90fd5b90504211158b61054e565b91506020823d6020116108b3575b816108a060209383611a40565b810103126101b15790519061055461053d565b3d9150610893565b505f546001600160a01b031633146104d4565b346101b15760203660031901126101b1576004355f526007602052602060405f2054604051908152f35b346101b15760403660031901126101b157602061091e610916611923565b600435611e07565b6040519015158152f35b346101b1575f3660031901126101b1575f546040516001600160a01b039091168152602090f35b346101b15760603660031901126101b1576001600160401b036004356024356044358381116101b157610986903690600401611897565b91906109923385611e07565b1561041f57603c821480610aca575b610ab857835f52602092600384528560405f2054166004855260405f20905f52845260405f20835f52845260405f2095811161040b576109eb816109e58854611af1565b88611b29565b5f95601f8211600114610a4457906103839291610a2082805f80516020612629833981519152999a5f91610a39575b50611b78565b90555b6040805195869586528501526040840191611b8a565b90508501358b610a1a565b601f198216815f52855f20905f5b818110610aa15750905f805160206126298339815191529798846103839695949310610a88575b5050600182811b019055610a23565b8401355f19600385901b60f8161c191690558880610a79565b858a01358355988701986001909201918701610a52565b60405163e6c4247b60e01b8152600490fd5b5060148314156109a1565b346101b15760a03660031901126101b157610aee611923565b6044356001600160401b0381116101b157610b0d90369060040161195d565b916064356001600160401b0381116101b157610b2d90369060040161195d565b92906084356001600160401b0381116101b157610b4e903690600401611897565b949095610b5d33600435611e07565b1561041f57610b6d828214611d74565b6004355f908152600360205260409020546001600160401b0316946001600160a01b038116610dbd575b505f5b818110610cad5787878781610bab57005b6004355f52600660205260405f20905f5260205260405f209160018060401b03821161040b57610bdf826103188554611af1565b5f92601f8311600114610c38579061038391610c1284805f8051602061260983398151915296975f91610c2d5750611b78565b90555b60405191829160208352600435956020840191611b8a565b905084013588610a1a565b601f198316815f5260205f20905f5b818110610c9557509084955f805160206126098339815191529561038395949310610c7c575b5050600185811b019055610c15565b8301355f19600388901b60f8161c191690558580610c6d565b84870135835560209687019660019093019201610c47565b610cb8818486611db2565b6004355f52600560205260405f20885f52602052610cde60405f206106f885878b611db2565b916001600160401b03821161040b57610cfb826103188554611af1565b5f90601f8311600114610d53579180610d209260019695945f92610d48575050611b78565b90555b610d3f5f805160206125c983398151915261075f83868a611db2565b0390a201610b9a565b013590508d8061034f565b835f95949392955260205f20905f955b601f1984168710610da5576001965083601f19811610610d8c575b505050831b83019055610d23565b01355f19600384901b60f8161c191690558b8080610d7e565b81810135835560209687019660019093019201610d63565b604051606082901b6001600160601b031916602082015260148152610de181611a0a565b6004355f52600460205260405f20875f5260205260405f20603c5f5260205260405f209080519060018060401b03821161040b57610e23826103188554611af1565b602090601f8311600114610eae57610e4492915f9183610ea3575050611b78565b90555b60405160609190911b6001600160601b031916602082015260148152610e6c81611a0a565b5f80516020612629833981519152604051603c81526040602082015280610e9a600435946040830190611939565b0390a287610b97565b015190508c8061034f565b9190835f5260205f20905f935b601f1984168510610efb576001945083601f19811610610ee3575b505050811b019055610e47565b01515f1960f88460031b161c191690558b8080610ed6565b81810151835560209485019460019093019290910190610ebb565b346101b1575f3660031901126101b1576008546040516001600160a01b039091168152602090f35b346101b1575f3660031901126101b157610f56612438565b5f80546001600160a01b0319811682556001600160a01b03165f805160206125e98339815191528280a3005b346101b15760203660031901126101b1576020610fa0600435612368565b90506040519015158152f35b346101b15761025261023e610fc0366118da565b91611d12565b346101b15760203660031901126101b1577fbc6ac8cce15a58ffbe2b23a9cc2620e6bb8e5b042bee95a9c10bf1a73de3e5a5602061100261190d565b61100a612438565b600880546001600160a01b0319166001600160a01b03929092169182179055604051908152a1005b346101b15760203660031901126101b1576004355f526003602052602060018060401b0360405f205416604051908152f35b346101b15760203660031901126101b1576004355f526002602052602060405f2054604051908152f35b346101b15760203660031901126101b15760206110ac600435611ca2565b6040516001600160a01b039091168152f35b346101b15760203660031901126101b1576004356110e760018060a01b03600154163314611bd4565b5f8181526003602052604090208054906001600160401b03808316600101918183116107fe577fe79ca3b930e014fa0d9e9417aa011799d57f972451d131c26084c12e32725ea09382602094169060018060401b031916179055835f526003825260405f205416604051908152a2005b346101b157611165366118da565b906111703384611e07565b1561041f575f83815260036020908152604080832054600683528184206001600160401b03918216855283529220909291841161040b576111bb846111b58354611af1565b83611b29565b5f601f851160011461120d5791610383916111ee86805f805160206126098339815191529897965f916112025750611b78565b90555b604051938385948552840191611b8a565b90508401358a610a1a565b601f19851690825f52845f20915f5b81811061126b5750916103839391875f805160206126098339815191529897969410611252575b5050600185811b0190556111f1565b8301355f19600388901b60f8161c191690558780611243565b91928660018192868901358155019401920161121c565b346101b1575f3660031901126101b1576001546040516001600160a01b039091168152602090f35b346101b1576112b8366118c4565b906112ce60018060a01b03600154163314611bd4565b5f52600260205260405f20555f80f35b346101b15760603660031901126101b1576001600160401b036004356024358281116101b157611312903690600401611897565b906044358481116101b15761132b903690600401611897565b946113363386611e07565b1561041f57845f526020600381528160405f2054166005825260405f20905f52815261136660405f208686611ad8565b91871161040b576113818761137b8454611af1565b84611b29565b5f90601f88116001146113d057509186916113b6835f805160206125c98339815191529899610383965f916113c55750611b78565b90555b60405194859485611baa565b90508401358b610a1a565b90601f198816835f52825f20925f905b828210611430575050918893915f805160206125c98339815191529899610383969410611417575b5050600183811b0190556113b9565b8301355f19600386901b60f8161c191690558880611408565b80600185968294968a013581550195019301906113e0565b346101b15760803660031901126101b1576024356001600160401b0381116101b157611478903690600401611897565b906044356001600160401b0381116101b157611498903690600401611897565b926064356001600160401b0381116101b1576114b8903690600401611897565b9060018060a01b0360085416331480156117e9575b6114d69061198d565b6004355f52600260205260405f2054906114f18215156119c8565b6001546040516317399c6560e31b8152600481018490526001600160a01b0390911692602082602481875afa91821561086f575f926117b3575b50611541826020931515908161087a5750611a63565b6024604051809581936331a9108f60e11b835260048301525afa91821561086f575f92611792575b506004355f52600760205260405f20549261158388611abd565b916115916040519384611a40565b88835236898801116101b15761067860206106736032865f848f808f836116559d013783010152838151910120838d8c828d6115e06115da6115d4600435612006565b97612006565b91612134565b92604051998a976e3432b0bb32b71d3932b1b7b932399d60891b828a0152805191829101602f8a015e870181601d60f91b9687602f84015260308301370190846030830152805192839101603183015e019160318301528051928391018583015e015f83820152036012810184520182611a40565b6001600160a01b0391821691160361081257600181018091116107fe576004355f52600760205260405f2055600360205260018060401b0360405f205416600560205260405f20905f526020526116b060405f208285611ad8565b6001600160401b03851161040b576116cc856111b58354611af1565b5f601f861160011461171c5794610383916116fe82805f805160206125c983398151915298995f916117115750611b78565b90555b6040519384936004359785611baa565b90508701358a610a1a565b601f19861690825f5260205f20915f5b81811061177a5750916103839391885f805160206125c983398151915298999410611761575b5050600182811b019055611701565b8601355f19600385901b60f8161c191690558780611752565b9192602060018192868a01358155019401920161172c565b6117ac91925060203d602011610868576108528183611a40565b9087611569565b91506020823d6020116117e1575b816117ce60209383611a40565b810103126101b15790519061154161152b565b3d91506117c1565b505f546001600160a01b031633146114cd565b346101b15760203660031901126101b1576004359063ffffffff60e01b82168092036101b1576020916301ffc9a760e01b8114908115611886575b8115611875575b8115611864575b8115611853575b5015158152f35b63bc1c58d160e01b1490508361184c565b631674750f60e21b81149150611845565b6378e5bf0360e11b8114915061183e565b631d9dabef60e11b81149150611837565b9181601f840112156101b1578235916001600160401b0383116101b157602083818601950101116101b157565b60409060031901126101b1576004359060243590565b9060406003198301126101b15760043591602435906001600160401b0382116101b15761190991600401611897565b9091565b600435906001600160a01b03821682036101b157565b602435906001600160a01b03821682036101b157565b805180835260209291819084018484015e5f828201840152601f01601f1916010190565b9181601f840112156101b1578235916001600160401b0383116101b1576020808501948460051b0101116101b157565b1561199457565b60405162461bcd60e51b815260206004820152600c60248201526b27b7363c9039b837b739b7b960a11b6044820152606490fd5b156119cf57565b60405162461bcd60e51b8152602060048201526013602482015272139bd919481b9bdd081c9959da5cdd195c9959606a1b6044820152606490fd5b604081019081106001600160401b0382111761040b57604052565b602081019081106001600160401b0382111761040b57604052565b601f909101601f19168101906001600160401b0382119082101761040b57604052565b15611a6a57565b60405162461bcd60e51b815260206004820152600c60248201526b13985b5948195e1c1a5c995960a21b6044820152606490fd5b908160209103126101b157516001600160a01b03811681036101b15790565b6001600160401b03811161040b57601f01601f191660200190565b6020919283604051948593843782019081520301902090565b90600182811c92168015611b1f575b6020831014611b0b57565b634e487b7160e01b5f52602260045260245ffd5b91607f1691611b00565b601f8211611b3657505050565b5f5260205f20906020601f840160051c83019310611b6e575b601f0160051c01905b818110611b63575050565b5f8155600101611b58565b9091508190611b4f565b8160011b915f199060031b1c19161790565b908060209392818452848401375f828201840152601f01601f1916010190565b9290611bc390611bd19593604086526040860191611b8a565b926020818503910152611b8a565b90565b15611bdb57565b60405162461bcd60e51b815260206004820152600e60248201526d27b7363c903932b3b4b9ba3930b960911b6044820152606490fd5b80545f9392611c1f82611af1565b918282526020936001916001811690815f14611c835750600114611c45575b5050505050565b90939495505f92919252835f2092845f945b838610611c6f57505050500101905f80808080611c3e565b805485870183015294019385908201611c57565b60ff19168685015250505090151560051b010191505f80808080611c3e565b611cab81612368565b91909115611d0c575f52600460205260405f209060018060401b03165f5260205260405f20603c5f52602052611ced611cf460405f2060405192838092611c11565b0382611a40565b6014815110611d07576020015160601c90565b505f90565b50505f90565b611d1b81612368565b92909215611d5e57611ced93611bd193611d52935f52600560205260405f209060018060401b03165f5260205260405f2091611ad8565b60405192838092611c11565b50505050604051611d6e81611a25565b5f815290565b15611d7b57565b60405162461bcd60e51b815260206004820152600f60248201526e098cadccee8d040dad2e6dac2e8c6d608b1b6044820152606490fd5b9190811015611df35760051b81013590601e19813603018212156101b15701803591906001600160401b0383116101b15760200182360381136101b1579190565b634e487b7160e01b5f52603260045260245ffd5b5f546001600160a01b03929190831682841614611ebd575f52600260205260405f2054918215611eb657602060249160015416604051928380926317399c6560e31b82528760048301525afa90811561086f575f91611e84575b508015908115611e7a575b50611d0c57611bd191612463565b905042115f611e6c565b90506020813d602011611eae575b81611e9f60209383611a40565b810103126101b157515f611e61565b3d9150611e92565b5050505f90565b505050600190565b908281815260208091019360208360051b82010194845f925b858410611eef575050505050505090565b90919293949596601f198282030184528735601e19843603018112156101b15783018681019190356001600160401b0381116101b15780360383136101b157611f3d88928392600195611b8a565b990194019401929594939190611ede565b611f5781612368565b91909115611f8e575f52600660205260405f209060018060401b03165f52602052611ced611bd160405f2060405192838092611c11565b5050604051611d6e81611a25565b611fa581612368565b91909115611fe6575f52600460205260405f209060018060401b03165f5260205260405f20905f52602052611ced611bd160405f2060405192838092611c11565b505050604051611d6e81611a25565b908151811015611df3570160200190565b60405190608082016001600160401b0381118382101761040b576040526042825260208083016060368237835115611df3576030905382519160019260011015611df357607860218501536040519061205e82611a0a565b601082526f181899199a1a9b1b9c1cb0b131b232b360811b60208301525f5b83811061208c57505050505090565b81811a60046001600160f81b0319806120aa84841c60ff1688611ff5565b51169284891b936002908686048214871517156121215785820180921161212157918b6120df600f936120e7955f1a92611ff5565b531687611ff5565b511690600392830180931161210e5750906121078793925f1a9189611ff5565b530161207d565b601190634e487b7160e01b5f525260245ffd5b601185634e487b7160e01b5f525260245ffd5b80156121d65780815f925b6121bd575061214d82611abd565b9161215b6040519384611a40565b80835281601f1961216b83611abd565b013660208601375b61217c57505090565b5f1981019081116107fe578091600a91603083830681018091116107fe5760f81b6001600160f81b0319165f1a906121b49086611ff5565b53049081612173565b90915f1981146107fe576001019190600a90048061213f565b506040516121e381611a0a565b60018152600360fc1b602082015290565b6121fd46612134565b6122c9603a61220b30612006565b9261226760226040518096602094859182808086019c8d815192839201905e8501601d60f91b938483830152805192839101602183015e019160218301528051928391018583015e015f83820152036002810187520185611a40565b6122718451612134565b9460405194828693840197790ca2ba3432b932bab69029b4b3b732b21026b2b9b9b0b3b29d0560311b89528051918291018686015e830190848201905f8252519283915e015f8382015203601a810184520182611a40565b51902090565b9160410361232e5760408101355f1a601b811061231c575b602092835f9360ff6080946040519485521682840152803560408401520135606082015282805260015afa1561086f575f5190565b601b019060ff82116107fe57906122e7565b60405162461bcd60e51b8152602060048201526012602482015271092dcecc2d8d2c840e6d2ce40d8cadccee8d60731b6044820152606490fd5b805f5260206002815260405f205491821561242f576001546040516317399c6560e31b815260048101949094528290849060249082906001600160a01b03165afa801561086f575f90612401575b6003935080159081156123f7575b506123df575f525260018060401b0360405f20541690600190565b5f90815291905260408120546001600160401b031691565b905042115f6123c4565b508183813d8311612428575b6124178183611a40565b810103126101b157600392516123b6565b503d61240d565b5050505f905f90565b5f546001600160a01b0316330361244b57565b60405163118cdaa760e01b8152336004820152602490fd5b6001546040516331a9108f60e11b8152600481018390526001600160a01b039182169360209392918481602481895afa5f91816125a9575b506124aa575050505050505f90565b8280911691169181831461259e5784936040519063020604bf60e21b8252600482015284816024818a5afa5f918161257f575b50612563575b5050604490604051958693849263e985e9c560e01b8452600484015260248301525afa9182915f9361252a575b505061251b57505f90565b612525575f611d07565b600190565b9080929350813d831161255c575b6125428183611a40565b810103126101b1575180151581036101b157905f80612510565b503d612538565b8392945016146125765782915f806124e3565b50505050600190565b612597919250863d8811610868576108528183611a40565b905f6124dd565b505050505050600190565b6125c1919250863d8811610868576108528183611a40565b905f61249b56fed8c9334b1a9c2f9da342a0a2b32629c1a229b6445dad78947f674b44444a75508be0079c531659141344cd1fd0a4f28419497f9722a3daafe3b4186f6b6457e0e379c1624ed7e714cc0937528a32359d69d5281337765313dba4e081b72d7578fb6b36b568d5689ec98617abfd8ff0eccaade0ed49cef564581c257947852f32a2646970667358221220c1801ffd694c85128b982e83b6c9c489e8b638a1922e5ab9ad9d30ec33c01aeb64736f6c63430008190033","linkReferences":{}},"methodIdentifiers":{"COIN_TYPE_ETH()":"e96a6504","addr(bytes32)":"3b3b57de","addr(bytes32,uint256)":"f1cb7e06","clearRecords(bytes32)":"3603d758","contenthash(bytes32)":"bc1c58d1","isActive(bytes32)":"5c36901c","isAuthorized(bytes32,address)":"956db465","nodeToTokenId(bytes32)":"41cf3291","nodeVersion(bytes32)":"55f3e977","nonces(bytes32)":"9e317f12","owner()":"8da5cb5b","registerNode(bytes32,uint256)":"1a2aa1b6","registrar()":"2b20e397","renounceOwnership()":"715018a6","setAddr(bytes32,address)":"d5fa2b00","setAddr(bytes32,uint256,bytes)":"8b95dd71","setContenthash(bytes32,bytes)":"304e6ade","setRecords(bytes32,address,string[],string[],bytes)":"7fe5f8c4","setRecordsFor(bytes32,string[],string[],bytes)":"9f1fa155","setRegistrar(address)":"faab9d39","setSponsor(address)":"59753fb1","setText(bytes32,string,string)":"10f13a8c","setTextFor(bytes32,string,string,bytes)":"03549603","sponsor()":"77c93662","supportsInterface(bytes4)":"01ffc9a7","text(bytes32,string)":"59d1d43c","transferOwnership(address)":"f2fde38b"},"id":55}