{"abi":[{"type":"constructor","inputs":[{"name":"operator_","type":"address","internalType":"address"}],"stateMutability":"nonpayable"},{"type":"function","name":"MAX_LYRICS_REF","inputs":[],"outputs":[{"name":"","type":"uint256","internalType":"uint256"}],"stateMutability":"view"},{"type":"function","name":"getLyrics","inputs":[{"name":"trackId","type":"bytes32","internalType":"bytes32"}],"outputs":[{"name":"lyricsRef","type":"string","internalType":"string"},{"name":"lyricsHash","type":"bytes32","internalType":"bytes32"},{"name":"version","type":"uint32","internalType":"uint32"},{"name":"submitter","type":"address","internalType":"address"},{"name":"timestamp","type":"uint64","internalType":"uint64"}],"stateMutability":"view"},{"type":"function","name":"hasLyrics","inputs":[{"name":"trackId","type":"bytes32","internalType":"bytes32"}],"outputs":[{"name":"","type":"bool","internalType":"bool"}],"stateMutability":"view"},{"type":"function","name":"isOperator","inputs":[{"name":"","type":"address","internalType":"address"}],"outputs":[{"name":"","type":"bool","internalType":"bool"}],"stateMutability":"view"},{"type":"function","name":"lyricsEntries","inputs":[{"name":"","type":"bytes32","internalType":"bytes32"}],"outputs":[{"name":"lyricsRef","type":"string","internalType":"string"},{"name":"lyricsHash","type":"bytes32","internalType":"bytes32"},{"name":"version","type":"uint32","internalType":"uint32"},{"name":"submitter","type":"address","internalType":"address"},{"name":"timestamp","type":"uint64","internalType":"uint64"}],"stateMutability":"view"},{"type":"function","name":"overwriteLyrics","inputs":[{"name":"trackId","type":"bytes32","internalType":"bytes32"},{"name":"lyricsRef","type":"string","internalType":"string"},{"name":"lyricsHash","type":"bytes32","internalType":"bytes32"}],"outputs":[],"stateMutability":"nonpayable"},{"type":"function","name":"owner","inputs":[],"outputs":[{"name":"","type":"address","internalType":"address"}],"stateMutability":"view"},{"type":"function","name":"setLyrics","inputs":[{"name":"trackId","type":"bytes32","internalType":"bytes32"},{"name":"lyricsRef","type":"string","internalType":"string"},{"name":"lyricsHash","type":"bytes32","internalType":"bytes32"}],"outputs":[],"stateMutability":"nonpayable"},{"type":"function","name":"setOperator","inputs":[{"name":"operator_","type":"address","internalType":"address"},{"name":"active","type":"bool","internalType":"bool"}],"outputs":[],"stateMutability":"nonpayable"},{"type":"function","name":"transferOwnership","inputs":[{"name":"newOwner","type":"address","internalType":"address"}],"outputs":[],"stateMutability":"nonpayable"},{"type":"event","name":"LyricsOverwritten","inputs":[{"name":"trackId","type":"bytes32","indexed":true,"internalType":"bytes32"},{"name":"lyricsRef","type":"string","indexed":false,"internalType":"string"},{"name":"lyricsHash","type":"bytes32","indexed":false,"internalType":"bytes32"},{"name":"version","type":"uint32","indexed":false,"internalType":"uint32"},{"name":"submitter","type":"address","indexed":false,"internalType":"address"},{"name":"timestamp","type":"uint64","indexed":false,"internalType":"uint64"}],"anonymous":false},{"type":"event","name":"LyricsSet","inputs":[{"name":"trackId","type":"bytes32","indexed":true,"internalType":"bytes32"},{"name":"lyricsRef","type":"string","indexed":false,"internalType":"string"},{"name":"lyricsHash","type":"bytes32","indexed":false,"internalType":"bytes32"},{"name":"version","type":"uint32","indexed":false,"internalType":"uint32"},{"name":"submitter","type":"address","indexed":false,"internalType":"address"},{"name":"timestamp","type":"uint64","indexed":false,"internalType":"uint64"}],"anonymous":false},{"type":"event","name":"OperatorUpdated","inputs":[{"name":"operator","type":"address","indexed":true,"internalType":"address"},{"name":"active","type":"bool","indexed":false,"internalType":"bool"}],"anonymous":false},{"type":"event","name":"OwnerUpdated","inputs":[{"name":"newOwner","type":"address","indexed":true,"internalType":"address"}],"anonymous":false},{"type":"error","name":"Unauthorized","inputs":[]},{"type":"error","name":"ZeroAddress","inputs":[]}],"bytecode":{"object":"0x6080346100ee57601f610e4238819003918201601f19168301916001600160401b038311848410176100f2578084926020946040528339810103126100ee57516001600160a01b038116908190036100ee5780156100dc573360018060a01b03195f5416175f55805f52600160205260405f20600160ff198254161790557f966c160e1c4dbc7df8d69af4ace01e9297c3cf016397b7914971f2fbfa32672d6020604051337f4ffd725fc4a22075e9ec71c59edf9c38cdeb588a91b24fc5b61388c5be41282b5f80a260018152a2604051610d3b90816101078239f35b60405163d92e233d60e01b8152600490fd5b5f80fd5b634e487b7160e01b5f52604160045260245ffdfe608060409080825260049081361015610016575f80fd5b5f3560e01c9081630a1aab831461062157508063412377fe146105c55780634824cad8146102d4578063558a72971461022e5780636d70f7ae146101f25780638da5cb5b146101cb578063d91dc0cc14610198578063dddbeb2a1461017d578063f2fde38b146100f05763fe82b7571461008e575f80fd5b346100ec5760203660031901126100ec57355f526002602052805f20906100e860018301546100c1600285015494610912565b925193849360c082901c92602083901c6001600160a01b03169263ffffffff1691866109b4565b0390f35b5f80fd5b5090346100ec5760203660031901126100ec5761010b610a12565b5f54906001600160a01b0390818316330361016e571691821561015f57506001600160a01b03191681175f9081557f4ffd725fc4a22075e9ec71c59edf9c38cdeb588a91b24fc5b61388c5be41282b9080a2005b5163d92e233d60e01b81528390fd5b505050516282b42960e81b8152fd5b82346100ec575f3660031901126100ec576020905160a08152f35b5090346100ec5760203660031901126100ec57602091355f526002825263ffffffff6002825f2001541615159051908152f35b82346100ec575f3660031901126100ec575f5490516001600160a01b039091168152602090f35b82346100ec5760203660031901126100ec576020906001600160a01b03610217610a12565b165f526001825260ff815f20541690519015158152f35b5090346100ec57806003193601126100ec57610248610a12565b90602435918215158093036100ec575f546001600160a01b039190821633036102c557169283156102b757507f966c160e1c4dbc7df8d69af4ace01e9297c3cf016397b7914971f2fbfa32672d91602091845f5260018352805f2060ff1981541660ff841617905551908152a2005b905163d92e233d60e01b8152fd5b82516282b42960e81b81528590fd5b5090346100ec576102e436610852565b949193909293335f5260019560209680885260ff845f2054161561016e5761030d871515610a28565b610318861515610a63565b61032560a0871115610a9b565b6103376103328785610bcc565b610ad6565b610342821515610b13565b865f5260028852835f20600281019163ffffffff968784541680156105915788111561055b576001600160401b0392838a116105485782818b8e6103878a95546108a3565b601f81116104eb575b505f90601f831160011461047b57505f91610470575b505f1960038e901b1c19168c831b1781555b0155835491888316019088821161045d57506104589694927ff73cc59797fa1e3a86397970878eaf202e4e13ee963405e0c905f0a0b441330f9a9b9694928961043793169063ffffffff19161783556104113384610b4b565b42168280546001600160c01b031660c09290921b6001600160c01b031916919091179055565b54925196879660c085901c9585901c6001600160a01b031694169287610b74565b0390a2005b601190634e487b7160e01b5f525260245ffd5b90508901355f6103a6565b91601f198116845f528c845f20945f915b8383106104c357505050106104aa575b5050818c811b0181556103b8565b8a01355f1960038f901b60f8161c191690555f8061049c565b859892979950819590829550969193960135815501950193018794928f918c9795938e61048c565b929450925050825f52815f2090601f8d0160051c8201928d1061053e575b8e86938a95938f93601f0160051c01905b8181106105275750610390565b925093929450505f815501918b8e86938a9561051a565b9091508190610509565b604182634e487b7160e01b5f525260245ffd5b865162461bcd60e51b81529081018b9052601060248201526f76657273696f6e206f766572666c6f7760801b6044820152606490fd5b875162461bcd60e51b81528083018d9052600e60248201526d1b1e5c9a58dcc81b9bdd081cd95d60921b6044820152606490fd5b50346100ec5760203660031901126100ec57355f526002602052805f206100e86105ee82610912565b6001830154600290930154935193849360c082901c92602083901c6001600160a01b03169263ffffffff169190866109b4565b8284346100ec5761063136610852565b94929493919093335f52600160209781895260ff855f20541615610845575061065b871515610a28565b610666861515610a63565b61067360a0871115610a9b565b6106806103328785610bcc565b61068b821515610b13565b865f5260028852835f2094600286019163ffffffff968784541661080d576001600160401b0392838a116107fa57506106c481546108a3565b601f81116107b4575b505f601f8a11600114610738579282865f80516020610ce68339815191529c9d989694610437948d806104589d9b995f9161072d575b505f19600383901b1c191690831b1781555b0155835463ffffffff19161783556104113384610b4b565b90508a01355f610703565b601f198a1690825f528c5f20915f5b81811061079f57509684610437945f80516020610ce68339815191529e9f9a98968e84999682966104589f9d8311610786575b5050811b018155610715565b8c01355f19600384901b60f8161c191690555f8061077a565b89830135845592850192918e01918e01610747565b815f528b5f20601f8b0160051c8101918d8c106107f0575b601f0160051c019083905b8281106107e55750506106cd565b5f81550183906107d7565b90915081906107cc565b604190634e487b7160e01b5f525260245ffd5b865162461bcd60e51b81528084018c905260126024820152711b1e5c9a58dcc8185b1c9958591e481cd95d60721b6044820152606490fd5b6282b42960e81b81528590fd5b60606003198201126100ec57600435916001600160401b0391602435908382116100ec57806023830112156100ec5781600401359384116100ec57602484830101116100ec57602401919060443590565b90600182811c921680156108d1575b60208310146108bd57565b634e487b7160e01b5f52602260045260245ffd5b91607f16916108b2565b601f909101601f19168101906001600160401b038211908210176108fe57604052565b634e487b7160e01b5f52604160045260245ffd5b9060405191825f8254610924816108a3565b908184526020946001916001811690815f146109925750600114610954575b505050610952925003836108db565b565b5f90815285812095935091905b81831061097a57505061095293508201015f8080610943565b85548884018501529485019487945091830191610961565b9250505061095294925060ff191682840152151560051b8201015f8080610943565b939060809360c0602063ffffffff939998959960a0895280519182918260a08c015201838a015e5f82828a010152601f801991011687010197602087015216604085015260018060a01b0316606084015260018060401b0316910152565b600435906001600160a01b03821682036100ec57565b15610a2f57565b60405162461bcd60e51b815260206004820152600c60248201526b1e995c9bc81d1c9858dad25960a21b6044820152606490fd5b15610a6a57565b60405162461bcd60e51b815260206004820152600960248201526832b6b83a3c903932b360b91b6044820152606490fd5b15610aa257565b60405162461bcd60e51b815260206004820152600c60248201526b72656620746f6f206c6f6e6760a01b6044820152606490fd5b15610add57565b60405162461bcd60e51b815260206004820152600e60248201526d726566206d7573742061723a2f2f60901b6044820152606490fd5b15610b1a57565b60405162461bcd60e51b81526020600482015260096024820152680f4cae4de40d0c2e6d60bb1b6044820152606490fd5b8054600160201b600160c01b03191660209290921b600160201b600160c01b0316919091179055565b94919360c08560809663ffffffff949a99969a60a08a528160a08b0152838a01375f82828a010152601f801991011687010197602087015216604085015260018060a01b0316606084015260018060401b0316910152565b906001600160401b0381116108fe5760405190610bf3601f8201601f1916602001836108db565b808252602082019236828201116100ec57815f92602092863783010152805160058110610cde5715610c6d5790516001600160f81b0319908116606160f81b14919082610cbf575b82610ca0575b82610c81575b82610c5157505090565b908092505160041015610c6d576024602f60f81b920151161490565b634e487b7160e01b5f52603260045260245ffd5b9150805160031015610c6d5760238101518216602f60f81b1491610c47565b9150805160021015610c6d5760228101518216601d60f91b1491610c41565b9150805160011015610c6d5760218101518216603960f91b1491610c3b565b5050505f9056fe87a61cea6afae12155adaef52355529afdaa857c8875b35cac2f508da69db2eba264697066735822122009ff149098f8985a993c78d78207e93e274b75e8ded3ac573030dcbd21897faf64736f6c63430008190033","linkReferences":{}},"methodIdentifiers":{"MAX_LYRICS_REF()":"dddbeb2a","getLyrics(bytes32)":"fe82b757","hasLyrics(bytes32)":"d91dc0cc","isOperator(address)":"6d70f7ae","lyricsEntries(bytes32)":"412377fe","overwriteLyrics(bytes32,string,bytes32)":"4824cad8","owner()":"8da5cb5b","setLyrics(bytes32,string,bytes32)":"0a1aab83","setOperator(address,bool)":"558a7297","transferOwnership(address)":"f2fde38b"},"id":44}