{"abi":[{"type":"constructor","inputs":[],"stateMutability":"nonpayable"},{"type":"function","name":"MAX_ATTEMPTS","inputs":[],"outputs":[{"name":"","type":"uint256","internalType":"uint256"}],"stateMutability":"view"},{"type":"function","name":"owner","inputs":[],"outputs":[{"name":"","type":"address","internalType":"address"}],"stateMutability":"view"},{"type":"function","name":"submitAttempts","inputs":[{"name":"user","type":"address","internalType":"address"},{"name":"studySetKeys","type":"bytes32[]","internalType":"bytes32[]"},{"name":"questionIds","type":"bytes32[]","internalType":"bytes32[]"},{"name":"ratings","type":"uint8[]","internalType":"uint8[]"},{"name":"scores","type":"uint16[]","internalType":"uint16[]"},{"name":"timestamps","type":"uint64[]","internalType":"uint64[]"}],"outputs":[],"stateMutability":"nonpayable"},{"type":"function","name":"transferOwnership","inputs":[{"name":"newOwner","type":"address","internalType":"address"}],"outputs":[],"stateMutability":"nonpayable"},{"type":"event","name":"AttemptSubmitted","inputs":[{"name":"user","type":"address","indexed":true,"internalType":"address"},{"name":"studySetKey","type":"bytes32","indexed":true,"internalType":"bytes32"},{"name":"questionId","type":"bytes32","indexed":true,"internalType":"bytes32"},{"name":"rating","type":"uint8","indexed":false,"internalType":"uint8"},{"name":"score","type":"uint16","indexed":false,"internalType":"uint16"},{"name":"timestamp","type":"uint64","indexed":false,"internalType":"uint64"}],"anonymous":false},{"type":"event","name":"OwnerUpdated","inputs":[{"name":"newOwner","type":"address","indexed":true,"internalType":"address"}],"anonymous":false},{"type":"error","name":"NotUserSender","inputs":[]},{"type":"error","name":"Unauthorized","inputs":[]},{"type":"error","name":"ZeroAddress","inputs":[]}],"bytecode":{"object":"0x60808060405234604d575f80546001600160a01b031916339081178255907f4ffd725fc4a22075e9ec71c59edf9c38cdeb588a91b24fc5b61388c5be41282b9080a261054790816100528239f35b5f80fdfe60a0806040526004361015610012575f80fd5b5f3560e01c90816330e4349c1461048e575080638da5cb5b14610467578063eb2b7585146100db5763f2fde38b14610048575f80fd5b346100d75760203660031901126100d7576100616104a7565b5f54906001600160a01b039081831633036100c657169081156100b4576001600160a01b03191681175f9081557f4ffd725fc4a22075e9ec71c59edf9c38cdeb588a91b24fc5b61388c5be41282b9080a2005b60405163d92e233d60e01b8152600490fd5b6040516282b42960e81b8152600490fd5b5f80fd5b346100d75760c03660031901126100d7576100f46104a7565b6080526024356001600160401b0381116100d7576101169036906004016104bd565b906044356001600160401b0381116100d7576101369036906004016104bd565b906064356001600160401b0381116100d7576101569036906004016104bd565b90939092906084356001600160401b0381116100d75761017a9036906004016104bd565b90929060a4356001600160401b0381116100d75761019c9036906004016104bd565b60805191979092916001600160a01b0316156100b4576080516001600160a01b0316330361045557838a148061044c575b80610443575b8061043a575b156104035760c88a116103cc575f5b8a81106101f157005b6101fc818c886104ed565b35156103945761020d81868a6104ed565b351561035d5761021e81838c6104ed565b359060ff821682036100d757600160ff831610158061034f575b1561031d5761024881858a6104ed565b359161ffff831683036100d75761271061ffff8416116102ec57898b9161028a8f89610283878d8f82809661027c926104ed565b35976104ed565b35956104ed565b356001600160401b038116908190036100d75761ffff60019660ff6040519416845216602083015260408201527f32651667bdceb04da031773c7bf5a7edfe8bc9e704413ff1450d57b7cd6e3d106060868060a01b036080511692a4016101e8565b60405162461bcd60e51b81526020600482015260096024820152686261642073636f726560b81b6044820152606490fd5b60405162461bcd60e51b815260206004820152600a60248201526962616420726174696e6760b01b6044820152606490fd5b50600460ff83161115610238565b60405162461bcd60e51b815260206004820152600f60248201526e1e995c9bc81c5d595cdd1a5bdb9259608a1b6044820152606490fd5b60405162461bcd60e51b815260206004820152601060248201526f7a65726f2073747564795365744b657960801b6044820152606490fd5b60405162461bcd60e51b815260206004820152600f60248201526e626174636820746f6f206c6172676560881b6044820152606490fd5b60405162461bcd60e51b815260206004820152600f60248201526e0d8cadccee8d040dad2e6dac2e8c6d608b1b6044820152606490fd5b50828a146101d9565b50818a146101d3565b50808a146101cd565b604051636916f8c760e01b8152600490fd5b346100d7575f3660031901126100d7575f546040516001600160a01b039091168152602090f35b346100d7575f3660031901126100d7578060c860209252f35b600435906001600160a01b03821682036100d757565b9181601f840112156100d7578235916001600160401b0383116100d7576020808501948460051b0101116100d757565b91908110156104fd5760051b0190565b634e487b7160e01b5f52603260045260245ffdfea26469706673582212206f16f40ef1528aafc8837f0671508b98fd200af0d091b60d1d908668ad5895d464736f6c63430008190033","linkReferences":{}},"methodIdentifiers":{"MAX_ATTEMPTS()":"30e4349c","owner()":"8da5cb5b","submitAttempts(address,bytes32[],bytes32[],uint8[],uint16[],uint64[])":"eb2b7585","transferOwnership(address)":"f2fde38b"},"id":57}