{"abi":[{"type":"constructor","inputs":[{"name":"registry_","type":"address","internalType":"address"},{"name":"paymentToken_","type":"address","internalType":"address"},{"name":"treasury_","type":"address","internalType":"address"},{"name":"owner_","type":"address","internalType":"address"},{"name":"policySigner_","type":"address","internalType":"address"}],"stateMutability":"nonpayable"},{"type":"function","name":"SHORT_NAME_LIFETIME_CAP","inputs":[],"outputs":[{"name":"","type":"uint16","internalType":"uint16"}],"stateMutability":"view"},{"type":"function","name":"SHORT_NAME_MAX_LEN","inputs":[],"outputs":[{"name":"","type":"uint8","internalType":"uint8"}],"stateMutability":"view"},{"type":"function","name":"buyWithPermit","inputs":[{"name":"label","type":"string","internalType":"string"},{"name":"permit","type":"tuple","internalType":"struct PremiumNameStoreV2.NamePermit","components":[{"name":"buyer","type":"address","internalType":"address"},{"name":"recipient","type":"address","internalType":"address"},{"name":"parentNode","type":"bytes32","internalType":"bytes32"},{"name":"labelHash","type":"bytes32","internalType":"bytes32"},{"name":"duration","type":"uint256","internalType":"uint256"},{"name":"maxPrice","type":"uint256","internalType":"uint256"},{"name":"policyType","type":"uint8","internalType":"uint8"},{"name":"nullifierHash","type":"bytes32","internalType":"bytes32"},{"name":"nonce","type":"uint256","internalType":"uint256"},{"name":"deadline","type":"uint256","internalType":"uint256"}]},{"name":"signature","type":"bytes","internalType":"bytes"}],"outputs":[{"name":"tokenId","type":"uint256","internalType":"uint256"}],"stateMutability":"nonpayable"},{"type":"function","name":"eip712Domain","inputs":[],"outputs":[{"name":"fields","type":"bytes1","internalType":"bytes1"},{"name":"name","type":"string","internalType":"string"},{"name":"version","type":"string","internalType":"string"},{"name":"chainId","type":"uint256","internalType":"uint256"},{"name":"verifyingContract","type":"address","internalType":"address"},{"name":"salt","type":"bytes32","internalType":"bytes32"},{"name":"extensions","type":"uint256[]","internalType":"uint256[]"}],"stateMutability":"view"},{"type":"function","name":"listings","inputs":[{"name":"","type":"bytes32","internalType":"bytes32"},{"name":"","type":"bytes32","internalType":"bytes32"}],"outputs":[{"name":"price","type":"uint256","internalType":"uint256"},{"name":"duration","type":"uint256","internalType":"uint256"},{"name":"enabled","type":"bool","internalType":"bool"}],"stateMutability":"view"},{"type":"function","name":"owner","inputs":[],"outputs":[{"name":"","type":"address","internalType":"address"}],"stateMutability":"view"},{"type":"function","name":"paused","inputs":[],"outputs":[{"name":"","type":"bool","internalType":"bool"}],"stateMutability":"view"},{"type":"function","name":"paymentToken","inputs":[],"outputs":[{"name":"","type":"address","internalType":"contract IERC20"}],"stateMutability":"view"},{"type":"function","name":"policySigner","inputs":[],"outputs":[{"name":"","type":"address","internalType":"address"}],"stateMutability":"view"},{"type":"function","name":"quote","inputs":[{"name":"parentNode","type":"bytes32","internalType":"bytes32"},{"name":"label","type":"string","internalType":"string"}],"outputs":[{"name":"","type":"tuple","internalType":"struct PremiumNameStoreV2.Listing","components":[{"name":"price","type":"uint256","internalType":"uint256"},{"name":"duration","type":"uint256","internalType":"uint256"},{"name":"enabled","type":"bool","internalType":"bool"}]}],"stateMutability":"view"},{"type":"function","name":"registry","inputs":[],"outputs":[{"name":"","type":"address","internalType":"contract IRegistryV2Policy"}],"stateMutability":"view"},{"type":"function","name":"renounceOwnership","inputs":[],"outputs":[],"stateMutability":"nonpayable"},{"type":"function","name":"setListing","inputs":[{"name":"parentNode","type":"bytes32","internalType":"bytes32"},{"name":"label","type":"string","internalType":"string"},{"name":"price","type":"uint256","internalType":"uint256"},{"name":"duration","type":"uint256","internalType":"uint256"},{"name":"enabled","type":"bool","internalType":"bool"}],"outputs":[],"stateMutability":"nonpayable"},{"type":"function","name":"setListingHash","inputs":[{"name":"parentNode","type":"bytes32","internalType":"bytes32"},{"name":"labelHash","type":"bytes32","internalType":"bytes32"},{"name":"price","type":"uint256","internalType":"uint256"},{"name":"duration","type":"uint256","internalType":"uint256"},{"name":"enabled","type":"bool","internalType":"bool"}],"outputs":[],"stateMutability":"nonpayable"},{"type":"function","name":"setListingsBatch","inputs":[{"name":"parentNode","type":"bytes32","internalType":"bytes32"},{"name":"labelHashes","type":"bytes32[]","internalType":"bytes32[]"},{"name":"prices","type":"uint256[]","internalType":"uint256[]"},{"name":"durations","type":"uint256[]","internalType":"uint256[]"},{"name":"enabled","type":"bool[]","internalType":"bool[]"}],"outputs":[],"stateMutability":"nonpayable"},{"type":"function","name":"setPaused","inputs":[{"name":"value","type":"bool","internalType":"bool"}],"outputs":[],"stateMutability":"nonpayable"},{"type":"function","name":"setPolicySigner","inputs":[{"name":"signer","type":"address","internalType":"address"}],"outputs":[],"stateMutability":"nonpayable"},{"type":"function","name":"setTreasury","inputs":[{"name":"treasury_","type":"address","internalType":"address"}],"outputs":[],"stateMutability":"nonpayable"},{"type":"function","name":"shortPurchasesByNullifier","inputs":[{"name":"","type":"bytes32","internalType":"bytes32"}],"outputs":[{"name":"","type":"uint16","internalType":"uint16"}],"stateMutability":"view"},{"type":"function","name":"transferOwnership","inputs":[{"name":"newOwner","type":"address","internalType":"address"}],"outputs":[],"stateMutability":"nonpayable"},{"type":"function","name":"treasury","inputs":[],"outputs":[{"name":"","type":"address","internalType":"address"}],"stateMutability":"view"},{"type":"function","name":"usedPermitNonces","inputs":[{"name":"","type":"address","internalType":"address"},{"name":"","type":"uint256","internalType":"uint256"}],"outputs":[{"name":"","type":"bool","internalType":"bool"}],"stateMutability":"view"},{"type":"event","name":"EIP712DomainChanged","inputs":[],"anonymous":false},{"type":"event","name":"ListingUpdated","inputs":[{"name":"parentNode","type":"bytes32","indexed":true,"internalType":"bytes32"},{"name":"labelHash","type":"bytes32","indexed":true,"internalType":"bytes32"},{"name":"price","type":"uint256","indexed":false,"internalType":"uint256"},{"name":"duration","type":"uint256","indexed":false,"internalType":"uint256"},{"name":"enabled","type":"bool","indexed":false,"internalType":"bool"}],"anonymous":false},{"type":"event","name":"OwnershipTransferred","inputs":[{"name":"previousOwner","type":"address","indexed":true,"internalType":"address"},{"name":"newOwner","type":"address","indexed":true,"internalType":"address"}],"anonymous":false},{"type":"event","name":"PauseUpdated","inputs":[{"name":"paused","type":"bool","indexed":false,"internalType":"bool"}],"anonymous":false},{"type":"event","name":"PermitNonceUsed","inputs":[{"name":"buyer","type":"address","indexed":true,"internalType":"address"},{"name":"nonce","type":"uint256","indexed":true,"internalType":"uint256"}],"anonymous":false},{"type":"event","name":"PolicySignerUpdated","inputs":[{"name":"signer","type":"address","indexed":true,"internalType":"address"}],"anonymous":false},{"type":"event","name":"PurchasedWithPermit","inputs":[{"name":"parentNode","type":"bytes32","indexed":true,"internalType":"bytes32"},{"name":"labelHash","type":"bytes32","indexed":true,"internalType":"bytes32"},{"name":"label","type":"string","indexed":false,"internalType":"string"},{"name":"buyer","type":"address","indexed":false,"internalType":"address"},{"name":"recipient","type":"address","indexed":false,"internalType":"address"},{"name":"price","type":"uint256","indexed":false,"internalType":"uint256"},{"name":"duration","type":"uint256","indexed":false,"internalType":"uint256"},{"name":"policyType","type":"uint8","indexed":false,"internalType":"uint8"},{"name":"nullifierHash","type":"bytes32","indexed":false,"internalType":"bytes32"},{"name":"nonce","type":"uint256","indexed":false,"internalType":"uint256"},{"name":"tokenId","type":"uint256","indexed":false,"internalType":"uint256"}],"anonymous":false},{"type":"event","name":"TreasuryUpdated","inputs":[{"name":"treasury","type":"address","indexed":true,"internalType":"address"}],"anonymous":false},{"type":"error","name":"CallerNotBuyer","inputs":[]},{"type":"error","name":"ECDSAInvalidSignature","inputs":[]},{"type":"error","name":"ECDSAInvalidSignatureLength","inputs":[{"name":"length","type":"uint256","internalType":"uint256"}]},{"type":"error","name":"ECDSAInvalidSignatureS","inputs":[{"name":"s","type":"bytes32","internalType":"bytes32"}]},{"type":"error","name":"InvalidAddress","inputs":[]},{"type":"error","name":"InvalidArrayLength","inputs":[]},{"type":"error","name":"InvalidDuration","inputs":[]},{"type":"error","name":"InvalidLabel","inputs":[]},{"type":"error","name":"InvalidPermitSigner","inputs":[]},{"type":"error","name":"InvalidPolicyForLength","inputs":[]},{"type":"error","name":"InvalidPolicyType","inputs":[]},{"type":"error","name":"InvalidShortString","inputs":[]},{"type":"error","name":"LabelHashMismatch","inputs":[]},{"type":"error","name":"ListingRequired","inputs":[]},{"type":"error","name":"MaxPriceExceeded","inputs":[]},{"type":"error","name":"NullifierNotAllowed","inputs":[]},{"type":"error","name":"NullifierRequired","inputs":[]},{"type":"error","name":"OwnableInvalidOwner","inputs":[{"name":"owner","type":"address","internalType":"address"}]},{"type":"error","name":"OwnableUnauthorizedAccount","inputs":[{"name":"account","type":"address","internalType":"address"}]},{"type":"error","name":"PermitAlreadyUsed","inputs":[]},{"type":"error","name":"PermitExpired","inputs":[]},{"type":"error","name":"ReentrancyGuardReentrantCall","inputs":[]},{"type":"error","name":"SafeERC20FailedOperation","inputs":[{"name":"token","type":"address","internalType":"address"}]},{"type":"error","name":"ShortNameCapExceeded","inputs":[]},{"type":"error","name":"ShortNameMustBePaid","inputs":[]},{"type":"error","name":"StorePaused","inputs":[]},{"type":"error","name":"StringTooLong","inputs":[{"name":"str","type":"string","internalType":"string"}]}],"bytecode":{"object":"0x6101a0346102ea57601f61206538819003918201601f19168301926001600160401b03929091838511838610176102bf578160a092849260409788528339810103126102ea5761004e81610309565b9161005b60208301610309565b91610067858201610309565b94610080608061007960608501610309565b9301610309565b9481519261008d846102ee565b60128452602084019671283932b6b4bab6a730b6b2a9ba37b932ab1960711b88528351986100ba8a6102ee565b60018a52601960f91b60208b019081526001600160a01b03938416949085156102d3575f80546001600160a01b0319808216891783559791908716907f8be0079c531659141344cd1fd0a4f28419497f9722a3daafe3b4186f6b6457e09080a36101238861031d565b9a6101209b8c526101338d6104b3565b98610140998a525190209b8c60e052519020906101009b828d524660a05287519260208401917f8b73c3c69bb8fe3d512ecc4cf759cc79239f7b179b0ffacaa9a75d522b39400f83528985015260608401524660808401523060a084015260a0835260c0830199838b10908b11176102bf5785928a89525190206080523060c05260017f9b779b17422d0df92223018b32b4d1fa46e071723d6817e2486d003becc55f00551696871580156102b5575b80156102ab575b80156102a1575b61029257508290610160978852816101809916895216836003541617600355169060045416176004555193611a7595866105f0873960805186611632015260a051866116fc015260c051866115fc015260e05186611681015251856116a70152518461048e015251836104b70152518281816105a801528181610b790152611418015251818181610ce401528181610d3101528181610d6e0152610f0f0152f35b63e6c4247b60e01b8152600490fd5b50838316156101f1565b50838216156101ea565b50838916156101e3565b634e487b7160e01b5f52604160045260245ffd5b8651631e4fbdf760e01b81525f6004820152602490fd5b5f80fd5b604081019081106001600160401b038211176102bf57604052565b51906001600160a01b03821682036102ea57565b8051602090818110156103935750601f825111610355578082519201519080831061034757501790565b825f19910360031b1b161790565b60448260405192839163305a27a960e01b83528160048401528051918291826024860152018484015e5f828201840152601f01601f19168101030190fd5b9192916001600160401b0381116102bf5760019182548381811c911680156104a9575b8282101461049557601f8111610462575b5080601f83116001146104025750819293945f926103f7575b50505f19600383901b1c191690821b17905560ff90565b015190505f806103e0565b90601f19831695845f52825f20925f905b88821061044b5750508385969710610433575b505050811b01905560ff90565b01515f1960f88460031b161c191690555f8080610426565b808785968294968601518155019501930190610413565b835f5283601f835f20920160051c820191601f850160051c015b82811061048a5750506103c7565b5f815501849061047c565b634e487b7160e01b5f52602260045260245ffd5b90607f16906103b6565b8051602090818110156104dd5750601f825111610355578082519201519080831061034757501790565b906001600160401b0382116102bf57600254926001938481811c911680156105e5575b8382101461049557601f81116105b1575b5081601f841160011461054d57509282939183925f94610542575b50501b915f199060031b1c19161760025560ff90565b015192505f8061052c565b919083601f19811660025f52845f20945f905b88838310610597575050501061057f575b505050811b0160025560ff90565b01515f1960f88460031b161c191690555f8080610571565b858701518855909601959485019487935090810190610560565b60025f5284601f845f20920160051c820191601f860160051c015b8281106105da575050610511565b5f81550185906105cc565b90607f169061050056fe60806040526004361015610011575f80fd5b5f3560e01c806316c38b3c14610fb45780632ea4dda914610f3e5780633013ce2914610efa578063310ee8a3146107ae57806338eab6b914610786578063455e9b571461073d578063551c6ca2146107225780635c975abb146106fd57806361d027b3146106d55780636745c7571461061b578063715018a6146105d75780637b1039991461059357806384b0196e146104795780638da5cb5b14610452578063a1327fcd14610405578063cf73eeec146102e0578063d5da5532146102a9578063d5ee2fbe14610241578063e14d8da414610226578063f0f44260146101ac578063f2fde38b1461013d5763feebf6ff1461010b575f80fd5b34610139576020366003190112610139576004355f526007602052602061ffff60405f205416604051908152f35b5f80fd5b346101395760203660031901126101395761015661105c565b61015e6111fd565b6001600160a01b03908116908115610194575f548260018060a01b03198216175f55165f80516020611a008339815191525f80a3005b604051631e4fbdf760e01b81525f6004820152602490fd5b34610139576020366003190112610139576101c561105c565b6101cd6111fd565b6001600160a01b0316801561021457600380546001600160a01b031916821790557f7dae230f18360d76a040c81f050aa14eb9d6dc7901b20fc5d855e2a20fe814d15f80a2005b60405163e6c4247b60e01b8152600490fd5b34610139575f36600319011261013957602060405160038152f35b346101395760203660031901126101395761025a61105c565b6102626111fd565b6001600160a01b0316801561021457600480546001600160a01b031916821790557f2430f13ddeb46330c26961dea4f64ec887992b489dd5b2b6b21fa8ced9d1045e5f80a2005b346101395760a0366003190112610139576102de6102c5611020565b6102cd6111fd565b606435604435602435600435611324565b005b346101395760a0366003190112610139576004356001600160401b03602435818111610139576103149036906004016110af565b9290916044358181116101395761032f9036906004016110af565b9390946064358381116101395761034a9036906004016110af565b919093608435908111610139576103659036906004016110af565b909361036f6111fd565b8783148015906103fb575b80156103f1575b6103df575f5b83811061039057005b61039b8185846111d9565b35906103a8818b8d6111d9565b35916103b582888b6111d9565b356103c183878b6111d9565b35908115158203610139576001946103d9938d611324565b01610387565b604051634ec4810560e11b8152600490fd5b5081831415610381565b508383141561037a565b34610139576040366003190112610139576004355f52600560205260405f206024355f5260205260405f20805461044e60ff600260018501549401541660405193849384611096565b0390f35b34610139575f366003190112610139575f546040516001600160a01b039091168152602090f35b34610139575f366003190112610139576104b27f00000000000000000000000000000000000000000000000000000000000000006117cb565b6104db7f00000000000000000000000000000000000000000000000000000000000000006118d2565b6040516020808201926001600160401b0384118385101761057f57916020610534859461052697966040525f8452604051978897600f60f81b895260e0858a015260e0890190611072565b908782036040890152611072565b914660608701523060808701525f60a087015285830360c087015251918281520192915f5b82811061056857505050500390f35b835185528695509381019392810192600101610559565b634e487b7160e01b5f52604160045260245ffd5b34610139575f366003190112610139576040517f00000000000000000000000000000000000000000000000000000000000000006001600160a01b03168152602090f35b34610139575f366003190112610139576105ef6111fd565b5f80546001600160a01b0319811682556001600160a01b03165f80516020611a008339815191528280a3005b34610139576040366003190112610139576024356001600160401b0381116101395761064d606091369060040161102f565b6106826040519261065d846110df565b5f84525f6040602095828782015201526004355f526005845260405f20923691611138565b8281519101205f52815260405f20906040519061069e826110df565b825492838352604060ff60026001840154938587019485520154169301921515835260405193845251908301525115156040820152f35b34610139575f366003190112610139576003546040516001600160a01b039091168152602090f35b34610139575f36600319011261013957602060ff60045460a01c166040519015158152f35b34610139575f36600319011261013957602060405160058152f35b34610139576040366003190112610139576001600160a01b0361075e61105c565b165f52600660205260405f206024355f52602052602060ff60405f2054166040519015158152f35b34610139575f366003190112610139576004546040516001600160a01b039091168152602090f35b3461013957610180366003190112610139576004356001600160401b038111610139576107df90369060040161102f565b9061014036602319011261013957610164356001600160401b0381116101395761080d90369060040161102f565b60025f80516020611a208339815191525414610ee85760025f80516020611a208339815191525560045460ff8160a01c16610ed6576001600160a01b0361085261117d565b163303610ec457426101443510610eb2576001600160a01b03610873611193565b16156102145760a43515610ea057600160ff61088d6111a9565b1611610e8e576001600160a01b036108a361117d565b165f52600660205260405f20610124355f5260205260ff60405f205416610e7c576108ce8585611228565b15610e6a576108de368686611138565b60208151910120926084358403610e58576108f761117d565b9260ff610902611193565b61090a6111a9565b604080517f6663af80020c6bd9fcdcf9fbcb77a3d8f32dc450f8aafd613a7dc1491d2cf05260208201526001600160a01b0398891691810191909152969091166060870152606435608087015260843560a087015260a43560c087015260c43560e0870152166101008501526101043561012085015261012435610140850152610144356101608086019190915284526001600160401b0361018085019081119085111761057f576109f66109fc92604286610180610a059801604052602081519101206109d66115f9565b906040519161190160f01b83526002830152602282015220923691611138565b90611722565b9093919361175c565b6001600160a01b03908116911603610e46576001600160a01b03610a2761117d565b165f908152600660209081526040808320610124358085529252909120805460ff191660011790556001600160a01b03610a5f61117d565b167f6853ac1b8ef378c868fe20dc8b7a14c636ef7c2da0ed2990b39203d35b57578c5f80a3610a9560a4358285856064356113b2565b9260c4358211610e345760ff610aa96111a9565b166002811015610e205760058611610dfe57610dec576101043515610dda57610104355f52600760205261ffff60405f2054166003811015610dc8578215610db65761ffff6001820111610da257610104355f52600760205261ffff600160405f2092011661ffff198254161790555b81610ca7575b610b27611193565b936020604051808097630afbcff560e31b8252606435600483015260806024830152610b57608483018b886111b9565b6001600160a01b03918216604484015260648301869052919091039082905f907f0000000000000000000000000000000000000000000000000000000000000000165af1948515610c9c575f95610c65575b509460ff7f8ce5343e0ba5ff06a5a5b2c59df768d6bc86f35b884d5634a97aca2fd95b540792602097610bda61117d565b95610be3611193565b610c03610bee6111a9565b946040519761012089526101208901916111b9565b6001600160a01b03988916878d015297166040860152606085015260808401521660a08201526101043560c08201526101243560e082015261010081018590526064359281900390a360015f80516020611a2083398151915255604051908152f35b959094506020863d602011610c94575b81610c8260209383611115565b810103126101395794519360ff610ba9565b3d9150610c75565b6040513d5f823e3d90fd5b610caf61117d565b6003546040516323b872dd60e01b5f9081526001600160a01b03938416600452919092166024526044849052602090606481807f00000000000000000000000000000000000000000000000000000000000000005af160015f5114811615610d63575b816040525f60605215610d255750610b1f565b635274afe760e01b81527f00000000000000000000000000000000000000000000000000000000000000006001600160a01b03166004820152602490fd5b6001811516610d99577f00000000000000000000000000000000000000000000000000000000000000003b15153d151616610d12565b503d5f823e3d90fd5b634e487b7160e01b5f52601160045260245ffd5b604051631f35069760e31b8152600490fd5b604051631c22c77b60e31b8152600490fd5b60405163733a15d160e01b8152600490fd5b604051630ab5c0eb60e41b8152600490fd5b600103610dec576101043515610b1957604051638b26e21d60e01b8152600490fd5b634e487b7160e01b5f52602160045260245ffd5b604051631d5ece5360e01b8152600490fd5b604051633c4a0afd60e01b8152600490fd5b604051633335f63b60e11b8152600490fd5b604051633d36cb8d60e01b8152600490fd5b60405163493efc1960e01b8152600490fd5b60405163cb9f942f60e01b8152600490fd5b604051637616640160e01b8152600490fd5b60405163068568f360e21b8152600490fd5b60405163073459ff60e21b8152600490fd5b6040516360c35ffb60e11b8152600490fd5b604051633ee5aeb560e01b8152600490fd5b34610139575f366003190112610139576040517f00000000000000000000000000000000000000000000000000000000000000006001600160a01b03168152602090f35b346101395760a0366003190112610139576024356001600160401b03811161013957610f6e90369060040161102f565b610f76611020565b90610f7f6111fd565b610f898184611228565b15610e6a576102de92610f9d913691611138565b805190606435916020604435920120600435611324565b34610139576020366003190112610139576004358015158091036101395760207f77860e247ab9186dbe64e5bd0e0b93273cc4273e01818420e788f500078886f591610ffe6111fd565b6004805460ff60a01b191660a083901b60ff60a01b16179055604051908152a1005b60843590811515820361013957565b9181601f84011215610139578235916001600160401b038311610139576020838186019501011161013957565b600435906001600160a01b038216820361013957565b805180835260209291819084018484015e5f828201840152601f01601f1916010190565b9081526020810191909152901515604082015260600190565b9181601f84011215610139578235916001600160401b038311610139576020808501948460051b01011161013957565b606081019081106001600160401b0382111761057f57604052565b604081019081106001600160401b0382111761057f57604052565b601f909101601f19168101906001600160401b0382119082101761057f57604052565b9192916001600160401b03821161057f5760405191611161601f8201601f191660200184611115565b829481845281830111610139578281602093845f960137010152565b6024356001600160a01b03811681036101395790565b6044356001600160a01b03811681036101395790565b60e43560ff811681036101395790565b908060209392818452848401375f828201840152601f01601f1916010190565b91908110156111e95760051b0190565b634e487b7160e01b5f52603260045260245ffd5b5f546001600160a01b0316330361121057565b60405163118cdaa760e01b8152336004820152602490fd5b611233913691611138565b80518015908115611319575b50611314575f5b81518082101561130c5760ff60f81b602083850101511690606160f81b82101591826112fd575b600360fc1b81101590816112ee575b602d60f81b14921590816112e5575b50806112dd575b6112d557816112af575b506112a957600101611246565b50505f90565b8215915081156112c1575b505f61129c565b5f19810191508111610da25781145f6112ba565b505050505f90565b508115611292565b9050155f61128b565b603960f81b811115915061127c565b603d60f91b811115925061126d565b505050600190565b505f90565b603f9150115f61123f565b929093916113ad7f9e0fd7b7de37ad5d7110476296cb5fb624ca41122ef85cb019eef238259b27ec93604051611359816110df565b8381526002602082019186835260408101928415158452895f52600560205260405f208b5f5260205260405f2091518255516001820155019051151560ff8019835416911617905560405193849384611096565b0390a3565b949394805f5260209260058452604094855f20905f528452845f2085516113d8816110df565b81548152600182015460ff600288840194838652015416151580898401526115be57505085516389833db760e01b815260048101849052602481018790527f00000000000000000000000000000000000000000000000000000000000000006001600160a01b031693915085818061145460448201878a6111b9565b0381875afa90811561157e575f91611588575b50801561150c575b6114fb57918493916114a59593875196879485938493638847fbc960e01b855260048501526060602485015260648401916111b9565b8a604483015203915afa9283156114f257505f926114c4575b50509190565b90809250813d83116114eb575b6114db8183611115565b8101031261013957515f806114be565b503d6114d1565b513d5f823e3d90fd5b855163a6174e0f60e01b8152600490fd5b508551630c484d5360e11b815281600482015286602482015285818061153660448201878a6111b9565b0381875afa90811561157e575f91611551575b50151561146f565b90508581813d8311611577575b6115688183611115565b8101031261013957515f611549565b503d61155e565b87513d5f823e3d90fd5b90508581813d83116115b7575b61159f8183611115565b8101031261013957518015158103610139575f611467565b503d611595565b94509594509691505081159182156115ee575b50506115de575051915190565b51637616640160e01b8152600490fd5b141590505f806115d1565b307f00000000000000000000000000000000000000000000000000000000000000006001600160a01b031614806116f9575b15611654577f000000000000000000000000000000000000000000000000000000000000000090565b60405160208101907f8b73c3c69bb8fe3d512ecc4cf759cc79239f7b179b0ffacaa9a75d522b39400f82527f000000000000000000000000000000000000000000000000000000000000000060408201527f000000000000000000000000000000000000000000000000000000000000000060608201524660808201523060a082015260a0815260c0810181811060018060401b0382111761057f5760405251902090565b507f0000000000000000000000000000000000000000000000000000000000000000461461162b565b81519190604183036117525761174b9250602082015190606060408401519301515f1a90611987565b9192909190565b50505f9160029190565b6004811015610e20578061176e575050565b600181036117885760405163f645eedf60e01b8152600490fd5b600281036117a95760405163fce698f760e01b815260048101839052602490fd5b6003146117b35750565b602490604051906335e2f38360e21b82526004820152fd5b60ff81146118095760ff811690601f82116117f757604051916117ed836110fa565b8252602082015290565b604051632cd44ac360e21b8152600490fd5b506040515f60018054918260011c600184169283156118c8575b60209485831085146118b45782875286949081156118945750600114611855575b505061185292500382611115565b90565b9093915060015f52815f20935f915b81831061187c57505061185293508201015f80611844565b85548784018501529485019486945091830191611864565b91505061185294925060ff191682840152151560051b8201015f80611844565b634e487b7160e01b5f52602260045260245ffd5b90607f1690611823565b60ff81146118f45760ff811690601f82116117f757604051916117ed836110fa565b506040515f600254906001908260011c6001841692831561197d575b60209485831085146118b4578287528694908115611894575060011461193e57505061185292500382611115565b9093915060025f52815f20935f915b81831061196557505061185293508201015f80611844565b8554878401850152948501948694509183019161194d565b90607f1690611910565b91906fa2a8918ca85bafe22016d0b997e4df60600160ff1b0384116119f4579160209360809260ff5f9560405194855216868401526040830152606082015282805260015afa15610c9c575f516001600160a01b038116156119ea57905f905f90565b505f906001905f90565b5050505f916003919056fe8be0079c531659141344cd1fd0a4f28419497f9722a3daafe3b4186f6b6457e09b779b17422d0df92223018b32b4d1fa46e071723d6817e2486d003becc55f00a264697066735822122093d3f591c435d05148c58b892bb53c2fb2d6cc640ba2e87b854b4c7002373df664736f6c63430008190033","linkReferences":{}},"methodIdentifiers":{"SHORT_NAME_LIFETIME_CAP()":"e14d8da4","SHORT_NAME_MAX_LEN()":"551c6ca2","buyWithPermit(string,(address,address,bytes32,bytes32,uint256,uint256,uint8,bytes32,uint256,uint256),bytes)":"310ee8a3","eip712Domain()":"84b0196e","listings(bytes32,bytes32)":"a1327fcd","owner()":"8da5cb5b","paused()":"5c975abb","paymentToken()":"3013ce29","policySigner()":"38eab6b9","quote(bytes32,string)":"6745c757","registry()":"7b103999","renounceOwnership()":"715018a6","setListing(bytes32,string,uint256,uint256,bool)":"2ea4dda9","setListingHash(bytes32,bytes32,uint256,uint256,bool)":"d5da5532","setListingsBatch(bytes32,bytes32[],uint256[],uint256[],bool[])":"cf73eeec","setPaused(bool)":"16c38b3c","setPolicySigner(address)":"d5ee2fbe","setTreasury(address)":"f0f44260","shortPurchasesByNullifier(bytes32)":"feebf6ff","transferOwnership(address)":"f2fde38b","treasury()":"61d027b3","usedPermitNonces(address,uint256)":"455e9b57"},"id":50}