{"abi":[{"type":"constructor","inputs":[{"name":"paymentToken_","type":"address","internalType":"address"},{"name":"oracle_","type":"address","internalType":"address"},{"name":"treasury_","type":"address","internalType":"address"},{"name":"feeBps_","type":"uint16","internalType":"uint16"},{"name":"challengeWindowSeconds_","type":"uint48","internalType":"uint48"},{"name":"challengeBond_","type":"uint256","internalType":"uint256"},{"name":"lateCancelPenaltyBps_","type":"uint16","internalType":"uint16"},{"name":"noAttestBufferSeconds_","type":"uint48","internalType":"uint48"},{"name":"disputeTimeoutSeconds_","type":"uint48","internalType":"uint48"}],"stateMutability":"nonpayable"},{"type":"receive","stateMutability":"payable"},{"type":"function","name":"BPS","inputs":[],"outputs":[{"name":"","type":"uint256","internalType":"uint256"}],"stateMutability":"view"},{"type":"function","name":"MAX_CHALLENGE_WINDOW","inputs":[],"outputs":[{"name":"","type":"uint48","internalType":"uint48"}],"stateMutability":"view"},{"type":"function","name":"MAX_DISPUTE_TIMEOUT","inputs":[],"outputs":[{"name":"","type":"uint48","internalType":"uint48"}],"stateMutability":"view"},{"type":"function","name":"MAX_NO_ATTEST_BUFFER","inputs":[],"outputs":[{"name":"","type":"uint48","internalType":"uint48"}],"stateMutability":"view"},{"type":"function","name":"acceptOwnership","inputs":[],"outputs":[],"stateMutability":"nonpayable"},{"type":"function","name":"acceptRequest","inputs":[{"name":"requestId","type":"uint256","internalType":"uint256"},{"name":"startTime","type":"uint48","internalType":"uint48"},{"name":"graceMins","type":"uint32","internalType":"uint32"},{"name":"minOverlapMins","type":"uint32","internalType":"uint32"},{"name":"cancelCutoffMins","type":"uint32","internalType":"uint32"}],"outputs":[{"name":"slotId","type":"uint256","internalType":"uint256"},{"name":"bookingId","type":"uint256","internalType":"uint256"}],"stateMutability":"nonpayable"},{"type":"function","name":"attest","inputs":[{"name":"bookingId","type":"uint256","internalType":"uint256"},{"name":"outcome","type":"uint8","internalType":"enum SessionEscrowV1.Outcome"},{"name":"metricsHash","type":"bytes32","internalType":"bytes32"}],"outputs":[],"stateMutability":"nonpayable"},{"type":"function","name":"book","inputs":[{"name":"slotId","type":"uint256","internalType":"uint256"}],"outputs":[{"name":"bookingId","type":"uint256","internalType":"uint256"}],"stateMutability":"nonpayable"},{"type":"function","name":"bookingTerms","inputs":[{"name":"","type":"uint256","internalType":"uint256"}],"outputs":[{"name":"feeBps","type":"uint16","internalType":"uint16"},{"name":"lateCancelPenaltyBps","type":"uint16","internalType":"uint16"},{"name":"challengeWindow","type":"uint48","internalType":"uint48"},{"name":"noAttestBuffer","type":"uint48","internalType":"uint48"},{"name":"disputeTimeout","type":"uint48","internalType":"uint48"},{"name":"challengeBond","type":"uint256","internalType":"uint256"}],"stateMutability":"view"},{"type":"function","name":"bookings","inputs":[{"name":"","type":"uint256","internalType":"uint256"}],"outputs":[{"name":"slotId","type":"uint256","internalType":"uint256"},{"name":"guest","type":"address","internalType":"address"},{"name":"amount","type":"uint256","internalType":"uint256"},{"name":"status","type":"uint8","internalType":"enum SessionEscrowV1.SessionBookingStatus"},{"name":"oracleOutcome","type":"uint8","internalType":"enum SessionEscrowV1.Outcome"},{"name":"metricsHash","type":"bytes32","internalType":"bytes32"},{"name":"attestedAt","type":"uint64","internalType":"uint64"},{"name":"finalizableAt","type":"uint64","internalType":"uint64"},{"name":"challenger","type":"address","internalType":"address"},{"name":"bondAmount","type":"uint256","internalType":"uint256"},{"name":"disputedAt","type":"uint64","internalType":"uint64"}],"stateMutability":"view"},{"type":"function","name":"cancelBookingAsGuest","inputs":[{"name":"bookingId","type":"uint256","internalType":"uint256"}],"outputs":[],"stateMutability":"nonpayable"},{"type":"function","name":"cancelBookingAsHost","inputs":[{"name":"bookingId","type":"uint256","internalType":"uint256"}],"outputs":[],"stateMutability":"nonpayable"},{"type":"function","name":"cancelRequest","inputs":[{"name":"requestId","type":"uint256","internalType":"uint256"}],"outputs":[],"stateMutability":"nonpayable"},{"type":"function","name":"cancelSlot","inputs":[{"name":"slotId","type":"uint256","internalType":"uint256"}],"outputs":[],"stateMutability":"nonpayable"},{"type":"function","name":"challenge","inputs":[{"name":"bookingId","type":"uint256","internalType":"uint256"}],"outputs":[],"stateMutability":"nonpayable"},{"type":"function","name":"challengeBond","inputs":[],"outputs":[{"name":"","type":"uint256","internalType":"uint256"}],"stateMutability":"view"},{"type":"function","name":"challengeWindow","inputs":[],"outputs":[{"name":"","type":"uint48","internalType":"uint48"}],"stateMutability":"view"},{"type":"function","name":"claimIfUnattested","inputs":[{"name":"bookingId","type":"uint256","internalType":"uint256"}],"outputs":[],"stateMutability":"nonpayable"},{"type":"function","name":"createRequest","inputs":[{"name":"hostTarget","type":"address","internalType":"address"},{"name":"windowStart","type":"uint48","internalType":"uint48"},{"name":"windowEnd","type":"uint48","internalType":"uint48"},{"name":"durationMins","type":"uint32","internalType":"uint32"},{"name":"amount","type":"uint256","internalType":"uint256"},{"name":"expiry","type":"uint48","internalType":"uint48"}],"outputs":[{"name":"requestId","type":"uint256","internalType":"uint256"}],"stateMutability":"nonpayable"},{"type":"function","name":"createSlot","inputs":[{"name":"startTime","type":"uint48","internalType":"uint48"},{"name":"durationMins","type":"uint32","internalType":"uint32"},{"name":"graceMins","type":"uint32","internalType":"uint32"},{"name":"minOverlapMins","type":"uint32","internalType":"uint32"},{"name":"cancelCutoffMins","type":"uint32","internalType":"uint32"}],"outputs":[{"name":"slotId","type":"uint256","internalType":"uint256"}],"stateMutability":"nonpayable"},{"type":"function","name":"createSlotWithPrice","inputs":[{"name":"startTime","type":"uint48","internalType":"uint48"},{"name":"durationMins","type":"uint32","internalType":"uint32"},{"name":"graceMins","type":"uint32","internalType":"uint32"},{"name":"minOverlapMins","type":"uint32","internalType":"uint32"},{"name":"cancelCutoffMins","type":"uint32","internalType":"uint32"},{"name":"price","type":"uint256","internalType":"uint256"}],"outputs":[{"name":"slotId","type":"uint256","internalType":"uint256"}],"stateMutability":"nonpayable"},{"type":"function","name":"disputeTimeout","inputs":[],"outputs":[{"name":"","type":"uint48","internalType":"uint48"}],"stateMutability":"view"},{"type":"function","name":"feeBps","inputs":[],"outputs":[{"name":"","type":"uint16","internalType":"uint16"}],"stateMutability":"view"},{"type":"function","name":"finalize","inputs":[{"name":"bookingId","type":"uint256","internalType":"uint256"}],"outputs":[],"stateMutability":"nonpayable"},{"type":"function","name":"finalizeDisputeByTimeout","inputs":[{"name":"bookingId","type":"uint256","internalType":"uint256"}],"outputs":[],"stateMutability":"nonpayable"},{"type":"function","name":"getBooking","inputs":[{"name":"bookingId","type":"uint256","internalType":"uint256"}],"outputs":[{"name":"","type":"tuple","internalType":"struct SessionEscrowV1.SessionBooking","components":[{"name":"slotId","type":"uint256","internalType":"uint256"},{"name":"guest","type":"address","internalType":"address"},{"name":"amount","type":"uint256","internalType":"uint256"},{"name":"status","type":"uint8","internalType":"enum SessionEscrowV1.SessionBookingStatus"},{"name":"oracleOutcome","type":"uint8","internalType":"enum SessionEscrowV1.Outcome"},{"name":"metricsHash","type":"bytes32","internalType":"bytes32"},{"name":"attestedAt","type":"uint64","internalType":"uint64"},{"name":"finalizableAt","type":"uint64","internalType":"uint64"},{"name":"challenger","type":"address","internalType":"address"},{"name":"bondAmount","type":"uint256","internalType":"uint256"},{"name":"disputedAt","type":"uint64","internalType":"uint64"}]}],"stateMutability":"view"},{"type":"function","name":"getBookingTerms","inputs":[{"name":"bookingId","type":"uint256","internalType":"uint256"}],"outputs":[{"name":"","type":"tuple","internalType":"struct SessionEscrowV1.BookingTerms","components":[{"name":"feeBps","type":"uint16","internalType":"uint16"},{"name":"lateCancelPenaltyBps","type":"uint16","internalType":"uint16"},{"name":"challengeWindow","type":"uint48","internalType":"uint48"},{"name":"noAttestBuffer","type":"uint48","internalType":"uint48"},{"name":"disputeTimeout","type":"uint48","internalType":"uint48"},{"name":"challengeBond","type":"uint256","internalType":"uint256"}]}],"stateMutability":"view"},{"type":"function","name":"getRequest","inputs":[{"name":"requestId","type":"uint256","internalType":"uint256"}],"outputs":[{"name":"","type":"tuple","internalType":"struct SessionEscrowV1.SessionRequest","components":[{"name":"hostTarget","type":"address","internalType":"address"},{"name":"guest","type":"address","internalType":"address"},{"name":"windowStart","type":"uint48","internalType":"uint48"},{"name":"windowEnd","type":"uint48","internalType":"uint48"},{"name":"durationMins","type":"uint32","internalType":"uint32"},{"name":"amount","type":"uint256","internalType":"uint256"},{"name":"expiry","type":"uint48","internalType":"uint48"},{"name":"status","type":"uint8","internalType":"enum SessionEscrowV1.SessionRequestStatus"},{"name":"slotId","type":"uint256","internalType":"uint256"},{"name":"bookingId","type":"uint256","internalType":"uint256"},{"name":"host","type":"address","internalType":"address"}]}],"stateMutability":"view"},{"type":"function","name":"getSlot","inputs":[{"name":"slotId","type":"uint256","internalType":"uint256"}],"outputs":[{"name":"","type":"tuple","internalType":"struct SessionEscrowV1.SessionSlot","components":[{"name":"host","type":"address","internalType":"address"},{"name":"startTime","type":"uint48","internalType":"uint48"},{"name":"durationMins","type":"uint32","internalType":"uint32"},{"name":"price","type":"uint256","internalType":"uint256"},{"name":"graceMins","type":"uint32","internalType":"uint32"},{"name":"minOverlapMins","type":"uint32","internalType":"uint32"},{"name":"cancelCutoffMins","type":"uint32","internalType":"uint32"},{"name":"status","type":"uint8","internalType":"enum SessionEscrowV1.SessionSlotStatus"}]}],"stateMutability":"view"},{"type":"function","name":"hostBasePrice","inputs":[{"name":"","type":"address","internalType":"address"}],"outputs":[{"name":"","type":"uint256","internalType":"uint256"}],"stateMutability":"view"},{"type":"function","name":"lateCancelPenaltyBps","inputs":[],"outputs":[{"name":"","type":"uint16","internalType":"uint16"}],"stateMutability":"view"},{"type":"function","name":"nextBookingId","inputs":[],"outputs":[{"name":"","type":"uint256","internalType":"uint256"}],"stateMutability":"view"},{"type":"function","name":"nextRequestId","inputs":[],"outputs":[{"name":"","type":"uint256","internalType":"uint256"}],"stateMutability":"view"},{"type":"function","name":"nextSlotId","inputs":[],"outputs":[{"name":"","type":"uint256","internalType":"uint256"}],"stateMutability":"view"},{"type":"function","name":"noAttestBuffer","inputs":[],"outputs":[{"name":"","type":"uint48","internalType":"uint48"}],"stateMutability":"view"},{"type":"function","name":"oracle","inputs":[],"outputs":[{"name":"","type":"address","internalType":"address"}],"stateMutability":"view"},{"type":"function","name":"owed","inputs":[{"name":"","type":"address","internalType":"address"}],"outputs":[{"name":"","type":"uint256","internalType":"uint256"}],"stateMutability":"view"},{"type":"function","name":"owner","inputs":[],"outputs":[{"name":"","type":"address","internalType":"address"}],"stateMutability":"view"},{"type":"function","name":"paymentToken","inputs":[],"outputs":[{"name":"","type":"address","internalType":"contract IERC20"}],"stateMutability":"view"},{"type":"function","name":"pendingOwner","inputs":[],"outputs":[{"name":"","type":"address","internalType":"address"}],"stateMutability":"view"},{"type":"function","name":"requests","inputs":[{"name":"","type":"uint256","internalType":"uint256"}],"outputs":[{"name":"hostTarget","type":"address","internalType":"address"},{"name":"guest","type":"address","internalType":"address"},{"name":"windowStart","type":"uint48","internalType":"uint48"},{"name":"windowEnd","type":"uint48","internalType":"uint48"},{"name":"durationMins","type":"uint32","internalType":"uint32"},{"name":"amount","type":"uint256","internalType":"uint256"},{"name":"expiry","type":"uint48","internalType":"uint48"},{"name":"status","type":"uint8","internalType":"enum SessionEscrowV1.SessionRequestStatus"},{"name":"slotId","type":"uint256","internalType":"uint256"},{"name":"bookingId","type":"uint256","internalType":"uint256"},{"name":"host","type":"address","internalType":"address"}],"stateMutability":"view"},{"type":"function","name":"resolveDispute","inputs":[{"name":"bookingId","type":"uint256","internalType":"uint256"},{"name":"finalOutcome","type":"uint8","internalType":"enum SessionEscrowV1.Outcome"}],"outputs":[],"stateMutability":"nonpayable"},{"type":"function","name":"setChallengeBond","inputs":[{"name":"a","type":"uint256","internalType":"uint256"}],"outputs":[],"stateMutability":"nonpayable"},{"type":"function","name":"setChallengeWindow","inputs":[{"name":"s","type":"uint48","internalType":"uint48"}],"outputs":[],"stateMutability":"nonpayable"},{"type":"function","name":"setDisputeTimeout","inputs":[{"name":"s","type":"uint48","internalType":"uint48"}],"outputs":[],"stateMutability":"nonpayable"},{"type":"function","name":"setFeeBps","inputs":[{"name":"bps","type":"uint16","internalType":"uint16"}],"outputs":[],"stateMutability":"nonpayable"},{"type":"function","name":"setHostBasePrice","inputs":[{"name":"price","type":"uint256","internalType":"uint256"}],"outputs":[],"stateMutability":"nonpayable"},{"type":"function","name":"setLateCancelPenaltyBps","inputs":[{"name":"bps","type":"uint16","internalType":"uint16"}],"outputs":[],"stateMutability":"nonpayable"},{"type":"function","name":"setNoAttestBuffer","inputs":[{"name":"s","type":"uint48","internalType":"uint48"}],"outputs":[],"stateMutability":"nonpayable"},{"type":"function","name":"setOracle","inputs":[{"name":"o","type":"address","internalType":"address"}],"outputs":[],"stateMutability":"nonpayable"},{"type":"function","name":"setTreasury","inputs":[{"name":"t","type":"address","internalType":"address"}],"outputs":[],"stateMutability":"nonpayable"},{"type":"function","name":"slotToBooking","inputs":[{"name":"","type":"uint256","internalType":"uint256"}],"outputs":[{"name":"","type":"uint256","internalType":"uint256"}],"stateMutability":"view"},{"type":"function","name":"slots","inputs":[{"name":"","type":"uint256","internalType":"uint256"}],"outputs":[{"name":"host","type":"address","internalType":"address"},{"name":"startTime","type":"uint48","internalType":"uint48"},{"name":"durationMins","type":"uint32","internalType":"uint32"},{"name":"price","type":"uint256","internalType":"uint256"},{"name":"graceMins","type":"uint32","internalType":"uint32"},{"name":"minOverlapMins","type":"uint32","internalType":"uint32"},{"name":"cancelCutoffMins","type":"uint32","internalType":"uint32"},{"name":"status","type":"uint8","internalType":"enum SessionEscrowV1.SessionSlotStatus"}],"stateMutability":"view"},{"type":"function","name":"sweepNative","inputs":[],"outputs":[],"stateMutability":"nonpayable"},{"type":"function","name":"sweepTokenExcess","inputs":[],"outputs":[],"stateMutability":"nonpayable"},{"type":"function","name":"totalHeld","inputs":[],"outputs":[{"name":"","type":"uint256","internalType":"uint256"}],"stateMutability":"view"},{"type":"function","name":"transferOwnership","inputs":[{"name":"n","type":"address","internalType":"address"}],"outputs":[],"stateMutability":"nonpayable"},{"type":"function","name":"treasury","inputs":[],"outputs":[{"name":"","type":"address","internalType":"address"}],"stateMutability":"view"},{"type":"function","name":"withdrawOwed","inputs":[],"outputs":[],"stateMutability":"nonpayable"},{"type":"function","name":"withdrawOwed","inputs":[{"name":"to","type":"address","internalType":"address"}],"outputs":[],"stateMutability":"nonpayable"},{"type":"event","name":"Attested","inputs":[{"name":"bookingId","type":"uint256","indexed":true,"internalType":"uint256"},{"name":"outcome","type":"uint8","indexed":false,"internalType":"enum SessionEscrowV1.Outcome"},{"name":"metricsHash","type":"bytes32","indexed":false,"internalType":"bytes32"},{"name":"finalizableAt","type":"uint64","indexed":false,"internalType":"uint64"}],"anonymous":false},{"type":"event","name":"ChallengeBondUpdated","inputs":[{"name":"oldChallengeBond","type":"uint256","indexed":false,"internalType":"uint256"},{"name":"newChallengeBond","type":"uint256","indexed":false,"internalType":"uint256"}],"anonymous":false},{"type":"event","name":"ChallengeWindowUpdated","inputs":[{"name":"oldChallengeWindow","type":"uint48","indexed":false,"internalType":"uint48"},{"name":"newChallengeWindow","type":"uint48","indexed":false,"internalType":"uint48"}],"anonymous":false},{"type":"event","name":"Challenged","inputs":[{"name":"bookingId","type":"uint256","indexed":true,"internalType":"uint256"},{"name":"challenger","type":"address","indexed":true,"internalType":"address"},{"name":"bondAmount","type":"uint256","indexed":false,"internalType":"uint256"}],"anonymous":false},{"type":"event","name":"DisputeTimeoutUpdated","inputs":[{"name":"oldDisputeTimeout","type":"uint48","indexed":false,"internalType":"uint48"},{"name":"newDisputeTimeout","type":"uint48","indexed":false,"internalType":"uint48"}],"anonymous":false},{"type":"event","name":"FeeBpsUpdated","inputs":[{"name":"oldFeeBps","type":"uint16","indexed":false,"internalType":"uint16"},{"name":"newFeeBps","type":"uint16","indexed":false,"internalType":"uint16"}],"anonymous":false},{"type":"event","name":"Finalized","inputs":[{"name":"bookingId","type":"uint256","indexed":true,"internalType":"uint256"},{"name":"finalOutcome","type":"uint8","indexed":false,"internalType":"enum SessionEscrowV1.Outcome"},{"name":"hostPaid","type":"uint256","indexed":false,"internalType":"uint256"},{"name":"guestRefund","type":"uint256","indexed":false,"internalType":"uint256"},{"name":"feePaid","type":"uint256","indexed":false,"internalType":"uint256"}],"anonymous":false},{"type":"event","name":"HostBasePriceSet","inputs":[{"name":"host","type":"address","indexed":true,"internalType":"address"},{"name":"price","type":"uint256","indexed":false,"internalType":"uint256"}],"anonymous":false},{"type":"event","name":"LateCancelPenaltyBpsUpdated","inputs":[{"name":"oldPenaltyBps","type":"uint16","indexed":false,"internalType":"uint16"},{"name":"newPenaltyBps","type":"uint16","indexed":false,"internalType":"uint16"}],"anonymous":false},{"type":"event","name":"NativeSwept","inputs":[{"name":"amount","type":"uint256","indexed":false,"internalType":"uint256"}],"anonymous":false},{"type":"event","name":"NoAttestBufferUpdated","inputs":[{"name":"oldNoAttestBuffer","type":"uint48","indexed":false,"internalType":"uint48"},{"name":"newNoAttestBuffer","type":"uint48","indexed":false,"internalType":"uint48"}],"anonymous":false},{"type":"event","name":"OracleUpdated","inputs":[{"name":"oldOracle","type":"address","indexed":true,"internalType":"address"},{"name":"newOracle","type":"address","indexed":true,"internalType":"address"}],"anonymous":false},{"type":"event","name":"OwedWithdrawn","inputs":[{"name":"from","type":"address","indexed":true,"internalType":"address"},{"name":"to","type":"address","indexed":true,"internalType":"address"},{"name":"amount","type":"uint256","indexed":false,"internalType":"uint256"}],"anonymous":false},{"type":"event","name":"OwnershipTransferStarted","inputs":[{"name":"previousOwner","type":"address","indexed":true,"internalType":"address"},{"name":"pendingOwner","type":"address","indexed":true,"internalType":"address"}],"anonymous":false},{"type":"event","name":"OwnershipTransferred","inputs":[{"name":"previousOwner","type":"address","indexed":true,"internalType":"address"},{"name":"newOwner","type":"address","indexed":true,"internalType":"address"}],"anonymous":false},{"type":"event","name":"Resolved","inputs":[{"name":"bookingId","type":"uint256","indexed":true,"internalType":"uint256"},{"name":"finalOutcome","type":"uint8","indexed":false,"internalType":"enum SessionEscrowV1.Outcome"}],"anonymous":false},{"type":"event","name":"SessionBooked","inputs":[{"name":"bookingId","type":"uint256","indexed":true,"internalType":"uint256"},{"name":"slotId","type":"uint256","indexed":true,"internalType":"uint256"},{"name":"guest","type":"address","indexed":true,"internalType":"address"},{"name":"amount","type":"uint256","indexed":false,"internalType":"uint256"}],"anonymous":false},{"type":"event","name":"SessionBookingCancelled","inputs":[{"name":"bookingId","type":"uint256","indexed":true,"internalType":"uint256"},{"name":"reason","type":"uint8","indexed":false,"internalType":"enum SessionEscrowV1.Outcome"},{"name":"refund","type":"uint256","indexed":false,"internalType":"uint256"},{"name":"penalty","type":"uint256","indexed":false,"internalType":"uint256"},{"name":"hostPaid","type":"uint256","indexed":false,"internalType":"uint256"},{"name":"feePaid","type":"uint256","indexed":false,"internalType":"uint256"}],"anonymous":false},{"type":"event","name":"SessionRequestAccepted","inputs":[{"name":"requestId","type":"uint256","indexed":true,"internalType":"uint256"},{"name":"host","type":"address","indexed":true,"internalType":"address"},{"name":"slotId","type":"uint256","indexed":false,"internalType":"uint256"},{"name":"bookingId","type":"uint256","indexed":false,"internalType":"uint256"},{"name":"startTime","type":"uint48","indexed":false,"internalType":"uint48"}],"anonymous":false},{"type":"event","name":"SessionRequestCancelled","inputs":[{"name":"requestId","type":"uint256","indexed":true,"internalType":"uint256"},{"name":"refund","type":"uint256","indexed":false,"internalType":"uint256"}],"anonymous":false},{"type":"event","name":"SessionRequestCreated","inputs":[{"name":"requestId","type":"uint256","indexed":true,"internalType":"uint256"},{"name":"hostTarget","type":"address","indexed":true,"internalType":"address"},{"name":"guest","type":"address","indexed":true,"internalType":"address"},{"name":"windowStart","type":"uint48","indexed":false,"internalType":"uint48"},{"name":"windowEnd","type":"uint48","indexed":false,"internalType":"uint48"},{"name":"durationMins","type":"uint32","indexed":false,"internalType":"uint32"},{"name":"amount","type":"uint256","indexed":false,"internalType":"uint256"},{"name":"expiry","type":"uint48","indexed":false,"internalType":"uint48"}],"anonymous":false},{"type":"event","name":"SessionSlotCancelled","inputs":[{"name":"slotId","type":"uint256","indexed":true,"internalType":"uint256"}],"anonymous":false},{"type":"event","name":"SessionSlotCreated","inputs":[{"name":"slotId","type":"uint256","indexed":true,"internalType":"uint256"},{"name":"host","type":"address","indexed":true,"internalType":"address"},{"name":"startTime","type":"uint48","indexed":false,"internalType":"uint48"},{"name":"durationMins","type":"uint32","indexed":false,"internalType":"uint32"},{"name":"price","type":"uint256","indexed":false,"internalType":"uint256"}],"anonymous":false},{"type":"event","name":"TokenSwept","inputs":[{"name":"amount","type":"uint256","indexed":false,"internalType":"uint256"}],"anonymous":false},{"type":"event","name":"TreasuryUpdated","inputs":[{"name":"oldTreasury","type":"address","indexed":true,"internalType":"address"},{"name":"newTreasury","type":"address","indexed":true,"internalType":"address"}],"anonymous":false},{"type":"event","name":"UnattestedRefunded","inputs":[{"name":"bookingId","type":"uint256","indexed":true,"internalType":"uint256"},{"name":"refund","type":"uint256","indexed":false,"internalType":"uint256"}],"anonymous":false},{"type":"error","name":"SafeERC20FailedOperation","inputs":[{"name":"token","type":"address","internalType":"address"}]}],"bytecode":{"object":"0x60a0346103b857601f61454a38819003918201601f1916830191906001600160401b038311848410176103bc578161012092859260409586528339810103126103b85761004b826103d0565b6020926100598482016103d0565b6100648483016103d0565b610070606084016103e4565b9061007d608085016103f3565b9160a08501519261009060c087016103e4565b966100aa6101006100a360e08a016103f3565b98016103f3565b976001805f5580600a5580600b5580600c5560018060a01b03809316978815610388578316918215158061037d575b1561034e5761ffff906107d08288161161031b57169761271089116102e45787156102b45762278d0065ffffffffffff90808288161161027e57818c16116102475762ed4e00908c161161020f5767ffffffffffff0000999a9b9c5060805260018060a01b031990338282541617905560035416176003556004549165ffffffffffff60b01b9060b01b1693169063ffffffff60e01b16179061ffff60a01b9060a01b1617176004556005556dffffffffffff000000000000000060065494861b169360018060701b031916179160101b16171760065551335f7f8be0079c531659141344cd1fd0a4f28419497f9722a3daafe3b4186f6b6457e08180a361414390816104078239608051818181610ecf015281816115420152818161282901528181612b2e015281816136880152613f680152f35b8b5162461bcd60e51b8152600481018e9052601160248201527054494d454f55545f544f4f5f4c4152474560781b6044820152606490fd5b8c5162461bcd60e51b8152600481018f9052601060248201526f4255464645525f544f4f5f4c4152474560801b6044820152606490fd5b60648f8f519062461bcd60e51b82526004820152601060248201526f57494e444f575f544f4f5f4c4152474560801b6044820152fd5b8b5162461bcd60e51b8152600481018e9052600960248201526816915493d7d093d39160ba1b6044820152606490fd5b8b5162461bcd60e51b8152600481018e9052601060248201526f0a08a9c8298a8b2bea89e9ebe90928e960831b6044820152606490fd5b8c5162461bcd60e51b8152600481018f9052600c60248201526b08c8a8abea89e9ebe90928e960a31b6044820152606490fd5b8b5162461bcd60e51b8152600481018e905260086024820152672120a22fa0a2222960c11b6044820152606490fd5b5083871615156100d9565b8b5162461bcd60e51b8152600481018e905260096024820152682120a22faa27a5a2a760b91b6044820152606490fd5b5f80fd5b634e487b7160e01b5f52604160045260245ffd5b51906001600160a01b03821682036103b857565b519061ffff821682036103b857565b519065ffffffffffff821682036103b85756fe6080604052600436101561004d575b3615610018575f80fd5b60405162461bcd60e51b815260206004820152600d60248201526c09c9ebe8892a48a86a8be8aa89609b1b6044820152606490fd5b5f3560e01c8063023b1fc914613020578063046570ea14612fff57806305261aea14612cd45780630d9d763e14612c4d5780630ec95c4914612b965780631116fd0414612a6d57806318c281a6146129d45780631dab301e14612910578063249d39e9146128f457806324a9d853146128d057806326bc522c1461287557806326f20c79146128585780633013ce29146128145780633015394c1461276b57806333fe248b1461239157806335f0ae5314612346578063387dd9e9146122b657806339a72c5c1461228c5780634053ef0b1461202f5780634244c4a214611f2657806342cc019a14611e5657806343d859bf14611e2d578063475b019314611e0357806351586ecb14611dc45780635230515114611de65780635bdfbeb514611dc957806360c5849114611dc457806361d027b314611d9c578063699eb23f14611cc45780636a5c841a14611b415780636a84a98514611b245780637314e04c14611a8c57806379ba5097146119eb5780637adbf9731461196f5780637ae15ac1146119025780637dc0d1d0146118da5780637eba7ba61461177b578063804ebda71461175e57806381d12c58146116a057806381e4f660146112b257806384ff698514611280578063856b9b03146111ae578063861a1412146111865780638da5cb5b1461115e57806390955aa714610fa0578063ab803a7614610f77578063ab82d9a014610d5b578063b8a02e9814610d33578063bdbc483414610ba2578063c04c22a414610b7a578063c58343ef146109ef578063df18e047146109b7578063e30c39781461098f578063e55e4211146107ed578063f0f4426014610771578063f2fde38b146106f9578063f3ac7d77146106c1578063f43cc773146106a4578063f7c40510146103c15763ff2d438b0361000e57346103bd5760203660031901126103bd576102fe6130fe565b61031360018060a01b036001541633146131b1565b65ffffffffffff62ed4e0081831611610384577ffdab44b9ce774464b149f6907fb20c83e884f1f18bd105cb762c1aa7c4939eb39161037f6006549165ffffffffffff60401b8160401b1665ffffffffffff60401b1984161760065560405193849360401c168361364b565b0390a1005b60405162461bcd60e51b815260206004820152601160248201527054494d454f55545f544f4f5f4c4152474560781b6044820152606490fd5b5f80fd5b346103bd576020806003193601126103bd57600435906103e460015f54146131fe565b60025f55815f52600e815260405f206003810180549060ff821660078110156106905760016104139114613494565b600183019060018060a01b039261042e84845416331461345c565b84545f52600d865260405f209065ffffffffffff9081835460a01c169361045685421061360d565b600284019463ffffffff865460401c1690603c820291808304603c149015171561067c5760029161048691613664565b60ff1990931617905542116104fe575050805460ff60601b1916905582545f90815260118552604081205554600290920180545f805160206140ae8339815191529460a09490936104d8929116613c91565b5460405191600583528201525f60408201525f60608201525f6080820152a25b60015f55005b61058f61058591889460036060999798991b60ff60601b19825416179055895f52600f8552600260405f2096600160405198899461053b8661326f565b815481818c61ffff998a831681528a8360101c169e8f9101521c1660408d0152818160501c1660608d015260801c1660808b0152015460a089015201549461271093849187613507565b0495511685613507565b049461059b8685613664565b946105a68585613664565b936105ba886105b589886133a3565b6133a3565b0361064b5791858260a09896948680955f805160206140ae8339815191529c9a98610638575b50505086610625575b81610612575b5050506040519460058652850152604084015260608301526080820152a26104f8565b61061d925416613c91565b8883816105ef565b610633878260045416613c91565b6105e9565b610643925416613c91565b8b84826105e0565b60405162461bcd60e51b815260048101899052600960248201526810905117d4d413125560ba1b6044820152606490fd5b634e487b7160e01b5f52601160045260245ffd5b634e487b7160e01b5f52602160045260245ffd5b346103bd575f3660031901126103bd576020600854604051908152f35b346103bd5760203660031901126103bd576001600160a01b036106e261319b565b165f526007602052602060405f2054604051908152f35b346103bd5760203660031901126103bd5761071261319b565b6001546001600160a01b039081169161072c3384146131b1565b16906107398215156137ab565b600280546001600160a01b031916831790557f38d16b8cac22d99fc7c124b9cd0de2d3fa1faef420bfe791d8c362d765e227005f80a3005b346103bd5760203660031901126103bd5761078a61319b565b6001546001600160a01b039182916107a590831633146131b1565b16906107b28215156137ab565b600480546001600160a01b031981168417909155167f4ab5be82436d353e61ca18726e984e561f5c1cc7c6d38b29d2553c790434705a5f80a3005b346103bd5760403660031901126103bd5760043560243560068110156103bd576001546001600160a01b03919061082790831633146131b1565b61083460015f54146131fe565b60025f55825f52600e60205260405f20906003820192835460ff811660078110156106905760046108659114613852565b5f93600184148015610982575b85908015610973575b61088591506134cd565b60ff8260081c1694600686101561069057610690575f8051602061406e8339815191529560209582545f52600d875260088560405f205416935f87600183015416946006830198895416986108ea8b6007860193600585549c60ff191617815561351a565b6108ff6108f642613cbd565b60058601613539565b80546001600160a01b0319169055550180546001600160401b03191690558361093c575b505050505061093560405180926130f1565ba260015f55005b851461095757505061094d91613c91565b8480808080610923565b61096793810361096c5750613c91565b61094d565b9050613c91565b5061069057846003851461087b565b505f945060028414610872565b346103bd575f3660031901126103bd576002546040516001600160a01b039091168152602090f35b346103bd5760203660031901126103bd576001600160a01b036109d861319b565b165f526009602052602060405f2054604051908152f35b346103bd5760203660031901126103bd57610a0861375a565b506004355f52601060205261016060405f2060405190610a278261329e565b60018060a01b038154168252600181015460018060a01b038116602084015265ffffffffffff8160a01c16604084015260d01c606083015263ffffffff6002820154166080830152600381015460a083015260ff600482015465ffffffffffff811660c085015260301c16610a9b81613174565b60e083015260058101546101008301526006810154610120830152600760018060a01b03910154166101408201526040519060018060a01b03815116825260018060a01b03602082015116602083015265ffffffffffff604082015116604083015265ffffffffffff606082015116606083015263ffffffff608082015116608083015260a081015160a083015265ffffffffffff60c08201511660c083015260e0810151610b4981613174565b60e083015261010081810151908301526101208082015190830152610140908101516001600160a01b031690820152f35b346103bd575f3660031901126103bd57602065ffffffffffff60065460401c16604051908152f35b346103bd576020806003193601126103bd5760043590610bc560015f54146131fe565b60025f55815f52600e815260405f20906003820191825460ff81166007811015610690576001610bf59114613494565b81545f52600d835260405f206001830160018060a01b03908181541633148015610d27575b610c2390613955565b825465ffffffffffff9363ffffffff8260d01c1698603c8a0299808b04603c149015171561067c576006610d1997610cef610ce78c8f7f917c69b2cefdfea85d4c0c2794149409e80aa6c099826d9dfcfc306ba043d69b9f9b610c8e60029d828f9c60a01c166133a3565b915f52600f835260a0600160405f2060405193610caa8561326f565b808254809861ffff80831689528260101c16818901521c166040860152808760501c169687606087015260801c16608085015201549101526133a3565b421015613237565b60ff191617905501805460ff60601b1916600160611b179055549190930180549093909116613c91565b54604051908152a260015f55005b50825482163314610c1a565b346103bd575f3660031901126103bd57602065ffffffffffff60065460101c16604051908152f35b346103bd576020806003193601126103bd57600435610d7d60015f54146131fe565b60025f55805f52600e825260405f206003810180549060ff8216600781101561069057600303610f435760058301546001600160401b03929060401c8316421015610f1057917ff2cbc3bae809b898e4918c93cc3a0617e734ec62b3fccc2f3e58ce66cb15ad289391600460a09794875f52600f865260405f20600160405191610e068361326f565b805461ffff80821685528160101c168a85015265ffffffffffff9081818c1c166040860152818160501c16606086015260801c1660808401520154998a91015284545f52600d8652610e7460405f2060018060a01b03806001890154163314918215610f02575b5050613955565b60ff19161790556006820180546001600160a01b03191633179055600782018690556008610ea142613cbd565b920180546001600160401b03191691909216179055600854610ec49085906133a3565b600855610ef38430337f0000000000000000000000000000000000000000000000000000000000000000613c08565b6040519384523393a360015f55005b909150541633148b80610e6d565b60405162461bcd60e51b815260048101879052600b60248201526a2ba4a72227abafa7ab22a960a91b6044820152606490fd5b60405162461bcd60e51b815260048101869052600c60248201526b1393d517d055151154d5115160a21b6044820152606490fd5b346103bd575f3660031901126103bd57610f9460015f54146131fe565b60025f556104f861388d565b346103bd576020806003193601126103bd5760043590610fc360015f54146131fe565b60025f55815f52600e815260405f206003810190815460ff81166007811015610690576004610ff29114613852565b6008820180546001600160401b03168015611127579160ff9391611086610ce75f8051602061406e8339815191529897958a5f52600f895260405f209060405161103b8161326f565b60a060018c8554809161ffff80831687528260101c168187015265ffffffffffff9283911c166040860152818160501c16606086015260801c169485608085015201549101526133a3565b82545f52600d865260018060a01b03928360405f205416915f85600184015416926006810196875416966110d5600783019260058454998d1916178b5560056110ce42613cbd565b9101613539565b80546001600160a01b03191690555580546001600160401b03191690558261110e575b505050505460081c1661093560405180926130f1565b61111e93810361096c5750613c91565b858080806110f8565b60405162461bcd60e51b815260048101879052600f60248201526e4e4f5f444953505554455f54494d4560881b6044820152606490fd5b346103bd575f3660031901126103bd576001546040516001600160a01b039091168152602090f35b346103bd575f3660031901126103bd57602065ffffffffffff60045460b01c16604051908152f35b346103bd5760203660031901126103bd576111c76130fe565b6111dc60018060a01b036001541633146131b1565b65ffffffffffff62278d0081831611611248577f106f319ff2a7865a563aa99bb7c269b4879041eba2eaf3a25868e9b461fcbd4b9161037f6004549165ffffffffffff60b01b8160b01b1665ffffffffffff60b01b1984161760045560405193849360b01c168361364b565b60405162461bcd60e51b815260206004820152601060248201526f57494e444f575f544f4f5f4c4152474560801b6044820152606490fd5b346103bd5760203660031901126103bd576104f861129c61319b565b6112a960015f54146131fe565b60025f55613f1a565b346103bd5760c03660031901126103bd576112cb61319b565b6112d3613113565b906044359065ffffffffffff821682036103bd576112ef61314e565b9260a4359365ffffffffffff851685036103bd5761131060015f54146131fe565b60025f556084351561166e5763ffffffff811615158061165d575b611334906137e2565b603c420180421161067c576113529065ffffffffffff8416116135d0565b65ffffffffffff821665ffffffffffff85161061162b5761137c4265ffffffffffff871611613562565b65ffffffffffff841665ffffffffffff8616116115f95760209465ffffffffffff9163ffffffff906001600160a01b0386166115c2575b83600c54976113c18961381d565b600c556040516113d08161329e565b60018060a01b0389168152338b82015282881660408201528282166060820152848416608082015260843560a082015282861660c0820152600160e08201525f6101008201525f6101208201525f610140820152895f5260108b52600760405f2060018060a01b0383511660018060a01b03198254161781556001810160018060a01b038e8501511660018060a01b0319825416178155611477866040860151168261382b565b606084015181549060018060d01b03199060d01b169060018060d01b03161790556002810187608085015116881982541617905560a08301516003820155600481018560c08501511681549060e08601516114d181613174565b6114da81613174565b60ff60301b9060301b169166ffffffffffffff19161717905561010083015160058201556101208301516006820155019061014060018060a01b039101511660018060a01b03198254161790556115356084356008546133a3565b60085561156660843530337f0000000000000000000000000000000000000000000000000000000000000000613c08565b816040519716875216888601521660408401526084356060840152166080820152827f907d10db0ff880252feccfc2b663663b3bdc8c93b135e429d9c9f157af4fe1aa60a03394600180831b031693a460015f55604051908152f35b6001600160a01b0386165f908152600789526040902054806115e5575b506113b3565b6115f3906084351015613598565b886115df565b60405162461bcd60e51b815260206004820152600a6024820152694241445f45585049525960b01b6044820152606490fd5b60405162461bcd60e51b815260206004820152600a6024820152694241445f57494e444f5760b01b6044820152606490fd5b5060f063ffffffff8216111561132b565b60405162461bcd60e51b815260206004820152600a60248201526910905117d05353d5539560b21b6044820152606490fd5b346103bd5760203660031901126103bd576004355f52601060205261016060405f2060018060a01b038082541691600181015465ffffffffffff63ffffffff60028401541690600384015460048501549060ff8260301c169360058701549588600760068a015499015416986040519a8b52811660208b0152848160a01c1660408b015260d01c60608a0152608089015260a08801521660c086015261174581613174565b60e0850152610100840152610120830152610140820152f35b346103bd575f3660031901126103bd576020600a54604051908152f35b346103bd5760203660031901126103bd575f60e060405161179b816132ba565b8281528260208201528260408201528260608201528260808201528260a08201528260c082015201526004355f52600d60205261010060405f2060ff6002604051926117e6846132ba565b63ffffffff815460018060a01b038116865265ffffffffffff8160a01c16602087015260d01c16604085015260018101546060850152015463ffffffff8116608084015263ffffffff8160201c1660a084015263ffffffff8160401c1660c084015260601c1661185581613174565b60e082015260e06040519160018060a01b03815116835265ffffffffffff602082015116602084015263ffffffff60408201511660408401526060810151606084015263ffffffff608082015116608084015263ffffffff60a08201511660a084015263ffffffff60c08201511660c084015201516118d381613174565b60e0820152f35b346103bd575f3660031901126103bd576003546040516001600160a01b039091168152602090f35b346103bd5760203660031901126103bd576004355f52600f60205260c060405f20805461ffff91600165ffffffffffff910154916040519380821685528160101c166020850152818160201c166040850152818160501c16606085015260801c16608083015260a0820152f35b346103bd5760203660031901126103bd5761198861319b565b6001546001600160a01b039182916119a390831633146131b1565b16906119b08215156137ab565b600380546001600160a01b031981168417909155167f078c3b417dadf69374a59793b829c52001247130433427049317bde56607b1b75f80a3005b346103bd575f3660031901126103bd576002546001600160a01b038082169133839003611a5357600180546001600160a01b031980821686179092559116600255167f8be0079c531659141344cd1fd0a4f28419497f9722a3daafe3b4186f6b6457e05f80a3005b60405162461bcd60e51b81526020600482015260116024820152702727aa2fa822a72224a723afa7aba722a960791b6044820152606490fd5b346103bd5760a03660031901126103bd57611aa56130fe565b611aad613128565b90611ab661313b565b611abe61314e565b611ac6613161565b91335f52600760205260405f20548015611aef57602095611ae79533613d06565b604051908152f35b60405162461bcd60e51b815260206004820152600d60248201526c4e4f5f424153455f505249434560981b6044820152606490fd5b346103bd575f3660031901126103bd576020600c54604051908152f35b346103bd5760203660031901126103bd57611b5a61375a565b506004355f52600e60205260405f20604051611b758161329e565b8154815260018201546001600160a01b0316602082015260028201546040820152600382015460ff81169060078210156106905760ff91606084015260081c16916006831015610690576080820192909252600482015460a082015260058201546001600160401b0380821660c0840152604091821c811660e084015260068401546001600160a01b03908116610100850152600785015461012085015260089094015416610140830152805182518152602080840151909416938101939093528082015190830152606080820151610160939291611c5791908401906130e4565b611c69608082015160808401906130f1565b60a0818101519083015260c0808201516001600160401b039081169184019190915260e080830151821690840152610100808301516001600160a01b0316908401526101208083015190840152610140918201511690820152f35b346103bd576020806003193601126103bd5760c0905f60a0604051611ce88161326f565b828152828482015282604082015282606082015282608082015201526004355f52600f815260405f2060a060405191611d208361326f565b6001815480928561ffff9788841698898352818301818660101c16815265ffffffffffff98899788968760806040890198828c8a1c168a5282606082019c60501c168c52019b60801c168b5201549a01998a526040519a8b525116908901525116604087015251166060850152511660808301525160a0820152f35b346103bd575f3660031901126103bd576004546040516001600160a01b039091168152602090f35b61317e565b346103bd575f3660031901126103bd57602060405162ed4e008152f35b346103bd575f3660031901126103bd576020600554604051908152f35b346103bd5760203660031901126103bd576004355f526011602052602060405f2054604051908152f35b346103bd575f3660031901126103bd57611e4a60015f54146131fe565b60025f556104f8613671565b346103bd5760203660031901126103bd57611e6f6130fe565b611e8460018060a01b036001541633146131b1565b65ffffffffffff62278d0081831611611eee577f61b085e37d382d88a75cdf179d9194385e8a90499677f858cf6c5c48a9afa8bf9161037f6006549167ffffffffffff00008160101b1667ffffffffffff00001984161760065560405193849360101c168361364b565b60405162461bcd60e51b815260206004820152601060248201526f4255464645525f544f4f5f4c4152474560801b6044820152606490fd5b346103bd5760203660031901126103bd57600435611f4760015f54146131fe565b60025f55805f52600e60205260405f20600381019081549060ff8216600781101561069057600260a093815f805160206140ae83398151915296611f9060016120089614613494565b85545f52600d60205260405f209082825494611fca65ffffffffffff6001808d1b0397611fc0338a8316146132f9565b8c1c16421061360d565b60ff191617905501805460ff60601b1916600160611b17905583545f9081526011602052604081205560018401549190930180549093909116613c91565b54604051906004825260208201525f60408201525f60608201525f6080820152a260015f55005b346103bd5760a03660031901126103bd5760043561204b613113565b9061205461313b565b9061205d61314e565b90612066613161565b9161207460015f54146131fe565b60025f55815f526020916010835260405f209360048501948554936120aa600160ff8760301c166120a481613174565b14613330565b6120bf65ffffffffffff809616421115613562565b600182018054909890936001600160a01b0392338487161461225157908392918c9486541680612240575b50335f5260078a5260405f20549689881515968761222b575b16998160a01c168a1015908161221d575b50156121ed57603c42019283421161067c5760409d6007986121669761213e612157978e116135d0565b156121e157905b63ffffffff60028a0154169033613d06565b9854166003830154908961398d565b865460ff60301b1916600360301b1790965560058101879055600681018690550180546001600160a01b03191633908117909155865186815284810186905280880193909352917fe6d90ea495ccfaee0ee4e68d1bc346d0f33e53f9853f691c4f2c9b3284994ddb90606090a360015f558351928352820152f35b50600388015490612145565b60405162461bcd60e51b8152600481018b905260086024820152674241445f54494d4560c01b6044820152606490fd5b905060d01c8911158e612114565b61223b8a60038b01541015613598565b612103565b61224b9033146132f9565b8d6120ea565b60405162461bcd60e51b8152600481018a9052601360248201527211d55154d517d0d0539393d517d050d0d15415606a1b6044820152606490fd5b346103bd575f3660031901126103bd576122a960015f54146131fe565b60025f556104f833613f1a565b346103bd5760203660031901126103bd576004355f52600d60205261010060405f2080549063ffffffff6002600183015492015460ff8160601c1692826040519560018060a01b038116875265ffffffffffff8160a01c16602088015260d01c16604086015260608501528181166080850152818160201c1660a085015260401c1660c08301526118d381613174565b346103bd5760c03660031901126103bd576020611ae76123646130fe565b61236c613128565b9061237561313b565b61237d61314e565b91612386613161565b9360a4359133613d06565b346103bd5760603660031901126103bd57600435600660243510156103bd576003546001600160a01b0316330361273957805f52600e60205260405f20600381015460ff811660078110156106905760016123ec9114613494565b6123f960243515156134cd565b5f600160243514801561272b575b818115612719575b50156126df5782545f52600d60205260405f209081549163ffffffff8360d01c169283603c810204603c148415171561067c57600261245c603c860265ffffffffffff8460a01c166133a3565b92015463ffffffff8116603c810290808204603c149015171561067c5761248e9065ffffffffffff8460a01c166133a3565b936106905760026024351480156126d3575b1561262f575050508042106125f957603c6124bc9202906133a3565b42116125c1575f805160206140ce8339815191529160036060925b60ff19161760038201556124f06024356003830161351a565b6044356004820155600561250342613cbd565b910180546001600160401b0319166001600160401b039283161781555f858152600f602052604090819020905161259c916125969161259191906125468161326f565b60a0600183549361ffff80861685528560101c16602085015265ffffffffffff808660201c1695866040870152818160501c168d87015260801c1660808501520154910152426133a3565b613cbd565b82613539565b5460401c16604051906125b1826024356130f1565b60443560208301526040820152a2005b60405162461bcd60e51b815260206004820152601060248201526f4e4f5f53484f575f544f4f5f4c41544560801b6044820152606490fd5b60405162461bcd60e51b815260206004820152600e60248201526d23a920a1a2afa727aa2fa7ab22a960911b6044820152606490fd5b90925063ffffffff9195935060201c16603c810290808204603c149015171561067c5765ffffffffffff6126669260a01c166133a3565b421061269c57611c20830180931161067c5760036060926126975f805160206140ce833981519152954211156133b0565b6124d7565b60405162461bcd60e51b815260206004820152600f60248201526e13d5915493105417d393d517d35155608a1b6044820152606490fd5b506003602435146124a0565b60405162461bcd60e51b81526020600482015260126024820152714241445f4154544553545f4f5554434f4d4560701b6044820152606490fd5b9050610690576003602435148161240f565b50505f600260243514612407565b60405162461bcd60e51b815260206004820152600a6024820152694e4f545f4f5241434c4560b01b6044820152606490fd5b346103bd5760203660031901126103bd5760043561278c60015f54146131fe565b60025f55805f5260106020527f94684a270daf50c31a66751a64dea889bc82836f26721c7fc1bab4ff445b6912602060405f20610d19600360048301928354936127e1600160ff8760301c166120a481613174565b60018201546001600160a01b0316946127fb33871461345c565b60ff60301b1916600160311b1790550180549092613c91565b346103bd575f3660031901126103bd576040517f00000000000000000000000000000000000000000000000000000000000000006001600160a01b03168152602090f35b346103bd575f3660031901126103bd576020600b54604051908152f35b346103bd5760203660031901126103bd57600435612894811515613424565b335f5260076020528060405f20556040519081527f4e6c8dfd21634b9172efbe1eeee02b6311ba19d102e37d9570677a3ad47212fe60203392a2005b346103bd575f3660031901126103bd57602061ffff60045460a01c16604051908152f35b346103bd575f3660031901126103bd5760206040516127108152f35b346103bd5760203660031901126103bd576004355f52600e60205261016060405f2080549060018060a01b03908160018201541691600282015490600383015460048401546129aa60058601549260018060401b03946006880154169585600860078a015499015416986040519a8b5260208b015260408a015261299a60608a0160ff83166130e4565b60ff60808a019160081c166130f1565b60a087015281811660c087015260401c1660e0850152610100840152610120830152610140820152f35b346103bd5760203660031901126103bd576004356129fd60018060a01b036001541633146131b1565b8015612a3c5760407f27dee1ef8a88ee5cc611b2f0fb4dfc4eb15d16866782c4c848c9c48f4a86eae691600554908060055582519182526020820152a1005b60405162461bcd60e51b815260206004820152600960248201526816915493d7d093d39160ba1b6044820152606490fd5b346103bd5760203660031901126103bd57600435612a8e60015f54146131fe565b60025f55805f52600d60205260405f2090612abc60ff600284015460601c16612ab681613174565b15613367565b8154603c420180421161067c57612adf9065ffffffffffff8360a01c16116133b0565b815f526011602052612af560405f2054156133e7565b6001600160a01b03163314612b5e57612b52612b1a600160209401548093339061398d565b91612b27816008546133a3565b60085530337f0000000000000000000000000000000000000000000000000000000000000000613c08565b60015f55604051908152f35b60405162461bcd60e51b815260206004820152601060248201526f484f53545f43414e4e4f545f424f4f4b60801b6044820152606490fd5b346103bd5760203660031901126103bd5760043561ffff8082168083036103bd57612bcc60018060a01b036001541633146131b1565b6127108111612c155761037f7fea93df5a714cf271a61bd5ee9a7c1b86d1d16f41a20f84f1b2500f90dda3af94936006549261ffff1984161760065560405193849316836131e9565b60405162461bcd60e51b815260206004820152601060248201526f0a08a9c8298a8b2bea89e9ebe90928e960831b6044820152606490fd5b346103bd5760203660031901126103bd57600435805f52600d602052600260405f20612c8360018060a01b0382541633146132f9565b018054612c9f60ff8260601c16612c9981613174565b15613330565b60ff60601b1916600160611b1790557fd04692252eb386bc1bc47a15f8bf6bc81bc702521ef547c018d2afa2fb2d384b5f80a2005b346103bd576020806003193601126103bd5760043590612cf760015f54146131fe565b60025f55815f52600e815260405f20600381019081549160ff831660078110156106905760038114908115612ff4575b5015612fbd576005820154612d4a9060401c6001600160401b0316421015613237565b81545f52600d845260405f2090855f52600f8552600660405f2094604051612d718161326f565b60a0600188549861ffff998a81169a8b86528160101c168c860152808c65ffffffffffff9283911c166040870152818160501c16606087015260801c166080850152015491015260ff191617815560028201600360601b60ff60601b1982541617905560ff815460081c169360018060a01b038093541690600284600187015416950154955f955f965f9260068110158061069057600182148015612fb1575b15612eaa5750505050505f8051602061404e833981519152969492869492612e4b612710612e4360ff9560809b613507565b048097613664565b938680612e96575b50508380612e86575b50505b5460081c1693612e7260405180966130f1565b84015260408301526060820152a260015f55005b612e8f91613c91565b8983612e5c565b612ea39160045416613c91565b8a86612e53565b809a969399959298949a61069057600282148015612fa5575b15612ef5575050505050509160ff5f8051602061404e833981519152969492612ef0856080989695613c91565b612e5f565b9295995092965092965061069057600503612f6e575f8051602061404e833981519152969492869492612f32612710612e4360ff9560809b613507565b938680612f5a575b50508380612f4a575b5050612e5f565b612f5391613c91565b8983612f43565b612f679160045416613c91565b8a86612f3a565b60405162461bcd60e51b815260048101889052600f60248201526e554e4b4e4f574e5f4f5554434f4d4560881b6044820152606490fd5b50505f60048214612ec3565b50505f60038214612e11565b60405162461bcd60e51b815260048101859052600f60248201526e4e4f545f46494e414c495a41424c4560881b6044820152606490fd5b600591501486612d27565b346103bd575f3660031901126103bd57602061ffff60065416604051908152f35b346103bd5760203660031901126103bd5760043561ffff8082168083036103bd576107d09061305a60018060a01b036001541633146131b1565b116130b0577f8d10f5697a370f640ed5d474159aba3cc86e9bc260a5e9d2db875ad992cb1a1f9161037f6004549161ffff60a01b8160a01b1661ffff60a01b1984161760045560405193849360a01c16836131e9565b60405162461bcd60e51b815260206004820152600c60248201526b08c8a8abea89e9ebe90928e960a31b6044820152606490fd5b9060078210156106905752565b9060068210156106905752565b6004359065ffffffffffff821682036103bd57565b6024359065ffffffffffff821682036103bd57565b6024359063ffffffff821682036103bd57565b6044359063ffffffff821682036103bd57565b6064359063ffffffff821682036103bd57565b6084359063ffffffff821682036103bd57565b6004111561069057565b346103bd575f3660031901126103bd57602060405162278d008152f35b600435906001600160a01b03821682036103bd57565b156131b857565b60405162461bcd60e51b81526020600482015260096024820152682727aa2fa7aba722a960b91b6044820152606490fd5b61ffff91821681529116602082015260400190565b1561320557565b60405162461bcd60e51b815260206004820152600a6024820152695245454e5452414e435960b01b6044820152606490fd5b1561323e57565b60405162461bcd60e51b8152602060048201526009602482015268544f4f5f4541524c5960b81b6044820152606490fd5b60c081019081106001600160401b0382111761328a57604052565b634e487b7160e01b5f52604160045260245ffd5b61016081019081106001600160401b0382111761328a57604052565b61010081019081106001600160401b0382111761328a57604052565b601f909101601f19168101906001600160401b0382119082101761328a57604052565b1561330057565b60405162461bcd60e51b81526020600482015260086024820152671393d517d213d4d560c21b6044820152606490fd5b1561333757565b60405162461bcd60e51b81526020600482015260086024820152672727aa2fa7a822a760c11b6044820152606490fd5b1561336e57565b60405162461bcd60e51b815260206004820152600d60248201526c4e4f545f415641494c41424c4560981b6044820152606490fd5b9190820180921161067c57565b156133b757565b60405162461bcd60e51b8152602060048201526008602482015267544f4f5f4c41544560c01b6044820152606490fd5b156133ee57565b60405162461bcd60e51b815260206004820152600e60248201526d1053149150511657d093d3d2d15160921b6044820152606490fd5b1561342b57565b60405162461bcd60e51b81526020600482015260096024820152684241445f505249434560b81b6044820152606490fd5b1561346357565b60405162461bcd60e51b81526020600482015260096024820152681393d517d1d55154d560ba1b6044820152606490fd5b1561349b57565b60405162461bcd60e51b815260206004820152600a6024820152691393d517d093d3d2d15160b21b6044820152606490fd5b156134d457565b60405162461bcd60e51b815260206004820152600b60248201526a4241445f4f5554434f4d4560a81b6044820152606490fd5b8181029291811591840414171561067c57565b9060068110156106905761ff0082549160081b169061ff001916179055565b8054600160401b600160801b03191660409290921b600160401b600160801b0316919091179055565b1561356957565b60405162461bcd60e51b81526020600482015260076024820152661156141254915160ca1b6044820152606490fd5b1561359f57565b60405162461bcd60e51b81526020600482015260096024820152682627abafa7a32322a960b91b6044820152606490fd5b156135d757565b60405162461bcd60e51b815260206004820152600e60248201526d29aa20a92a2faa27a7afa9a7a7a760911b6044820152606490fd5b1561361457565b60405162461bcd60e51b815260206004820152600f60248201526e1053149150511657d4d51054951151608a1b6044820152606490fd5b65ffffffffffff91821681529116602082015260400190565b9190820391821161067c57565b6040516370a0823160e01b815230600482015260207f00000000000000000000000000000000000000000000000000000000000000006001600160a01b0382846024818486165afa90811561374f575f91613713575b5f8051602061408e83398151915294506008549182811115613706576136fd926136f091613664565b9283916004541690613fee565b604051908152a1565b505050506040515f8152a1565b90508284813d8311613748575b61372a81836132d6565b810103126103bd575f8051602061408e8339815191529351906136c7565b503d613720565b6040513d5f823e3d90fd5b604051906137678261329e565b5f610140838281528260208201528260408201528260608201528260808201528260a08201528260c08201528260e082015282610100820152826101208201520152565b156137b257565b60405162461bcd60e51b81526020600482015260086024820152672120a22fa0a2222960c11b6044820152606490fd5b156137e957565b60405162461bcd60e51b815260206004820152600c60248201526b2120a22fa22aa920aa24a7a760a11b6044820152606490fd5b5f19811461067c5760010190565b805465ffffffffffff60a01b191660a09290921b65ffffffffffff60a01b16919091179055565b1561385957565b60405162461bcd60e51b815260206004820152600c60248201526b1393d517d11254d41555115160a21b6044820152606490fd5b47801561393b575f8080808460018060a01b03600454165af13d15613936573d6001600160401b03811161328a57604051906138d3601f8201601f1916602001836132d6565b81525f60203d92013e5b156138fc5760205f805160206140ee83398151915291604051908152a1565b60405162461bcd60e51b815260206004820152601260248201527113905512559157d4d1539117d1905253115160721b6044820152606490fd5b6138dd565b505f805160206140ee83398151915260206040515f8152a1565b1561395c57565b60405162461bcd60e51b81526020600482015260096024820152684e4f545f504152545960b81b6044820152606490fd5b929192805f52602093600d85526040946002865f2001906139b860ff835460601c16612ab681613174565b835f52601181526139cc875f2054156133e7565b600b54926139d98461381d565b600b558397855f526011835284815f20558051936139f68561329e565b8685525f8486019860018060a01b03809116998a815284880191868352606089019860018a528a89608083019487865260a084019488865260c085019689885260e08601988a8a52600e6101008801958c87526101208901978d89526101408a019d8e525f52528c5f209651875582600188019451169360018060a01b03199485825416179055516002870155600386019e516007811015610690578f9060ff801983541691161790555195600687101561069057613ad97f629dc84b4562ce5134c489592d47293cdad8e89d7ea6523a2bf064bb954a30579f9760089861351a565b51600486015595516005850180546001600160401b03199081166001600160401b039384161782559851919791613b139190891690613539565b60068501925116908254161790555160078201550192511690825416179055600454600161ffff6006549065ffffffffffff9160055492875195613b568761326f565b838160a01c1687528a8701938084168552828a89019260b01c1682526060880192808560101c16845260808901948b1c16845260a088019586528d5f52600f8c52895f2097511663ffff00008854955160101b169165ffffffffffff60201b90518d1b169265ffffffffffff60501b905160501b169365ffffffffffff60801b905160801b1694878060b01b0319161717171717835551910155600160601b60ff60601b1982541617905551908152a4565b6040516323b872dd60e01b5f9081526001600160a01b03938416600452938316602452604494909452909160209060648180855af160015f5114811615613c72575b836040525f60605215613c5c57505050565b635274afe760e01b835216600482015260249150fd5b6001811516613c8857813b15153d151616613c4a565b833d5f823e3d90fd5b8115613cb95760018060a01b03165f526009602052613cb560405f209182546133a3565b9055565b5050565b6001600160401b0390818111613cd1571690565b60405162461bcd60e51b815260206004820152600d60248201526c54494d455f4f564552464c4f5760981b6044820152606490fd5b9094969593929196613d19831515613424565b603c42019384421161067c57613d3a65ffffffffffff8098169586116135d0565b63ffffffff80809a169283151580613f0f575b613d56906137e2565b1695828711613edc578916956127608711613eaa57600a548097613d798261381d565b600a55819b604096875190613d8d826132ba565b600160a01b600190038091169c8d835260208301908c82528a8401918a835260608501938d855286608087019b168b5260a08601998a5260c0860197885260e08601985f8a525f52600d6020528c5f20955116600160a01b60019003198654161785555116613dfc908461382b565b5182549063ffffffff60d01b9060d01b169063ffffffff60d01b191617825551600182015560020194511684549363ffffffff60201b905160201b169163ffffffff60401b9051881b169251613e5181613174565b613e5a81613174565b60ff60601b9060601b1693600160681b6001900319161717171790558151938452602084015282015260607f0a7485cbe2641ede2fefae85de83e7807d709f95d409e3c32aa6cbc795e860d291a3565b60405162461bcd60e51b815260206004820152600a6024820152692120a22fa1aaaa27a32360b11b6044820152606490fd5b60405162461bcd60e51b815260206004820152600b60248201526a04241445f4f5645524c41560ac1b6044820152606490fd5b5060f0841115613d4d565b6001600160a01b03811690613f308215156137ab565b335f52600960205260405f2054908115613fba5781613f8c91335f5260096020525f6040812055613f6382600854613664565b6008557f0000000000000000000000000000000000000000000000000000000000000000613fee565b6040519081527fa6cd4410234ac9de9d1307f26fd9ec5124f511a9135d59c0904879dd8ae28e1060203392a3565b60405162461bcd60e51b815260206004820152600c60248201526b1393d512125391d7d3d5d15160a21b6044820152606490fd5b60405163a9059cbb60e01b5f9081526001600160a01b039384166004526024949094529260209060448180855af160015f5114811615614037575b8360405215613c5c57505050565b6001811516613c8857813b15153d15161661402956fed96b99f82f8b864e76999d053eb26c3447b27db4b1ac5bbdb7ca128edc47e8af8a1c7850cb95b6648c597d19ad5a66ce32698f83f344546e66f4229ce5dacff9aea05ec7362bb7ab2c09b63a3a833265687676386ad1fcdcfbda550fd80fcf1ac933a7a4f002c0d60bdc00ce06c642f38f9e3f02dc9887ac471261e20cf0e76d24864fe9462927cd9bc51f0ddd3cfcaa0bf2716a83459138d79d7e1e35a36f4c1ed033bc10f1dd641f4df398853976d2b76ee062cce863301929fe8ee8336faaa264697066735822122062a27dee1b325acd62cfe138870ed14e2935d0807ac64c4cc1b96d07ee7d846e64736f6c63430008190033","linkReferences":{}},"methodIdentifiers":{"BPS()":"249d39e9","MAX_CHALLENGE_WINDOW()":"51586ecb","MAX_DISPUTE_TIMEOUT()":"5bdfbeb5","MAX_NO_ATTEST_BUFFER()":"60c58491","acceptOwnership()":"79ba5097","acceptRequest(uint256,uint48,uint32,uint32,uint32)":"4053ef0b","attest(uint256,uint8,bytes32)":"33fe248b","book(uint256)":"1116fd04","bookingTerms(uint256)":"7ae15ac1","bookings(uint256)":"1dab301e","cancelBookingAsGuest(uint256)":"f7c40510","cancelBookingAsHost(uint256)":"4244c4a2","cancelRequest(uint256)":"3015394c","cancelSlot(uint256)":"0d9d763e","challenge(uint256)":"ab82d9a0","challengeBond()":"52305151","challengeWindow()":"861a1412","claimIfUnattested(uint256)":"bdbc4834","createRequest(address,uint48,uint48,uint32,uint256,uint48)":"81e4f660","createSlot(uint48,uint32,uint32,uint32,uint32)":"7314e04c","createSlotWithPrice(uint48,uint32,uint32,uint32,uint32,uint256)":"35f0ae53","disputeTimeout()":"c04c22a4","feeBps()":"24a9d853","finalize(uint256)":"05261aea","finalizeDisputeByTimeout(uint256)":"90955aa7","getBooking(uint256)":"6a5c841a","getBookingTerms(uint256)":"699eb23f","getRequest(uint256)":"c58343ef","getSlot(uint256)":"7eba7ba6","hostBasePrice(address)":"f3ac7d77","lateCancelPenaltyBps()":"046570ea","nextBookingId()":"26f20c79","nextRequestId()":"6a84a985","nextSlotId()":"804ebda7","noAttestBuffer()":"b8a02e98","oracle()":"7dc0d1d0","owed(address)":"df18e047","owner()":"8da5cb5b","paymentToken()":"3013ce29","pendingOwner()":"e30c3978","requests(uint256)":"81d12c58","resolveDispute(uint256,uint8)":"e55e4211","setChallengeBond(uint256)":"18c281a6","setChallengeWindow(uint48)":"856b9b03","setDisputeTimeout(uint48)":"ff2d438b","setFeeBps(uint16)":"023b1fc9","setHostBasePrice(uint256)":"26bc522c","setLateCancelPenaltyBps(uint16)":"0ec95c49","setNoAttestBuffer(uint48)":"42cc019a","setOracle(address)":"7adbf973","setTreasury(address)":"f0f44260","slotToBooking(uint256)":"475b0193","slots(uint256)":"387dd9e9","sweepNative()":"ab803a76","sweepTokenExcess()":"43d859bf","totalHeld()":"f43cc773","transferOwnership(address)":"f2fde38b","treasury()":"61d027b3","withdrawOwed()":"39a72c5c","withdrawOwed(address)":"84ff6985"},"id":60}