{"abi":[{"type":"constructor","inputs":[{"name":"_sponsor","type":"address","internalType":"address"},{"name":"_playlistV1","type":"address","internalType":"address"}],"stateMutability":"nonpayable"},{"type":"function","name":"owner","inputs":[],"outputs":[{"name":"","type":"address","internalType":"address"}],"stateMutability":"view"},{"type":"function","name":"playlistV1","inputs":[],"outputs":[{"name":"","type":"address","internalType":"contract IPlaylistV1"}],"stateMutability":"view"},{"type":"function","name":"setSponsor","inputs":[{"name":"newSponsor","type":"address","internalType":"address"}],"outputs":[],"stateMutability":"nonpayable"},{"type":"function","name":"sharePlaylistFor","inputs":[{"name":"playlistOwner","type":"address","internalType":"address"},{"name":"playlistId","type":"bytes32","internalType":"bytes32"},{"name":"grantee","type":"address","internalType":"address"}],"outputs":[],"stateMutability":"nonpayable"},{"type":"function","name":"shares","inputs":[{"name":"","type":"bytes32","internalType":"bytes32"},{"name":"","type":"address","internalType":"address"}],"outputs":[{"name":"playlistVersion","type":"uint32","internalType":"uint32"},{"name":"trackCount","type":"uint32","internalType":"uint32"},{"name":"tracksHash","type":"bytes32","internalType":"bytes32"},{"name":"sharedAt","type":"uint64","internalType":"uint64"},{"name":"granted","type":"bool","internalType":"bool"}],"stateMutability":"view"},{"type":"function","name":"sponsor","inputs":[],"outputs":[{"name":"","type":"address","internalType":"address"}],"stateMutability":"view"},{"type":"function","name":"transferOwnership","inputs":[{"name":"newOwner","type":"address","internalType":"address"}],"outputs":[],"stateMutability":"nonpayable"},{"type":"function","name":"unsharePlaylistFor","inputs":[{"name":"playlistOwner","type":"address","internalType":"address"},{"name":"playlistId","type":"bytes32","internalType":"bytes32"},{"name":"grantee","type":"address","internalType":"address"}],"outputs":[],"stateMutability":"nonpayable"},{"type":"event","name":"OwnerUpdated","inputs":[{"name":"newOwner","type":"address","indexed":true,"internalType":"address"}],"anonymous":false},{"type":"event","name":"PlaylistShared","inputs":[{"name":"playlistId","type":"bytes32","indexed":true,"internalType":"bytes32"},{"name":"playlistOwner","type":"address","indexed":true,"internalType":"address"},{"name":"grantee","type":"address","indexed":true,"internalType":"address"},{"name":"playlistVersion","type":"uint32","indexed":false,"internalType":"uint32"},{"name":"trackCount","type":"uint32","indexed":false,"internalType":"uint32"},{"name":"tracksHash","type":"bytes32","indexed":false,"internalType":"bytes32"},{"name":"sharedAt","type":"uint64","indexed":false,"internalType":"uint64"}],"anonymous":false},{"type":"event","name":"PlaylistUnshared","inputs":[{"name":"playlistId","type":"bytes32","indexed":true,"internalType":"bytes32"},{"name":"playlistOwner","type":"address","indexed":true,"internalType":"address"},{"name":"grantee","type":"address","indexed":true,"internalType":"address"},{"name":"playlistVersion","type":"uint32","indexed":false,"internalType":"uint32"},{"name":"trackCount","type":"uint32","indexed":false,"internalType":"uint32"},{"name":"tracksHash","type":"bytes32","indexed":false,"internalType":"bytes32"},{"name":"unsharedAt","type":"uint64","indexed":false,"internalType":"uint64"}],"anonymous":false},{"type":"event","name":"SponsorUpdated","inputs":[{"name":"newSponsor","type":"address","indexed":true,"internalType":"address"}],"anonymous":false}],"bytecode":{"object":"0x60a03461016357601f610a9a38819003918201601f19168301916001600160401b0383118484101761016757808492604094855283398101031261016357610052602061004b8361017b565b920161017b565b6001600160a01b039182169190821561012f571680156100f8578160018060a01b031933815f5416175f55600154161760015560805260405190337f4ffd725fc4a22075e9ec71c59edf9c38cdeb588a91b24fc5b61388c5be41282b5f80a27fbc6ac8cce15a58ffbe2b23a9cc2620e6bb8e5b042bee95a9c10bf1a73de3e5a55f80a261090a9081610190823960805181818161025a01528181610470015261050b0152f35b60405162461bcd60e51b815260206004820152600f60248201526e7a65726f20706c61796c697374563160881b6044820152606490fd5b60405162461bcd60e51b815260206004820152600c60248201526b3d32b9379039b837b739b7b960a11b6044820152606490fd5b5f80fd5b634e487b7160e01b5f52604160045260245ffd5b51906001600160a01b03821682036101635756fe604060808152600480361015610013575f80fd5b5f3560e01c806301db83321461049f57806325c5ffce1461045c57806359753fb1146103b65780636e214514146101e957806377c93662146101c15780638da5cb5b1461019a578063b84e9bb5146101185763f2fde38b14610073575f80fd5b346101145760203660031901126101145761008c610658565b5f54906001600160a01b03906100a5338385161461086d565b169182156100e457506001600160a01b03191681175f9081557f4ffd725fc4a22075e9ec71c59edf9c38cdeb588a91b24fc5b61388c5be41282b9080a2005b606490602085519162461bcd60e51b8352820152600a6024820152693d32b9379037bbb732b960b11b6044820152fd5b5f80fd5b5090346101145780600319360112610114576024356001600160a01b038116908190036101145760a092355f526002602052815f20905f5260205260ff815f2080549263ffffffff916002600182015491015492825195818116875260201c1660208601528185015260018060401b03821660608501521c1615156080820152f35b8234610114575f366003190112610114575f5490516001600160a01b039091168152602090f35b8234610114575f3660031901126101145760015490516001600160a01b039091168152602090f35b5034610114576101f83661066e565b6001546001600160a01b039493859182919061021790831633146106a2565b16916102248315156106dd565b61022f84151561071e565b169361023c85151561075c565b855163d4aa96e960e01b8152848101849052906101009081836024817f000000000000000000000000000000000000000000000000000000000000000085165afa80156103ac576102999385935f92610378575b5050161461086d565b815f5260209260028452855f20855f528452855f20865160a0810160018060401b03938282108583111761036557508894867f01125c035a4370e4e2cfaa2f51f496f91e9703aa073b8d284f949e3858a53fd8898b976103468a5f9d9960029d998c998352608060ff83549463ffffffff808716968786528a1c1680998501526002600186015495868387015201549088821660608601521c1615159101528c51948594421692856108a5565b0390a48552838152828520918552528220828155600181018390550155005b604190634e487b7160e01b5f525260245ffd5b6103979250803d106103a5575b61038f8183610797565b8101906107f3565b505050505050505f80610290565b503d610385565b88513d5f823e3d90fd5b5034610114576020366003190112610114576103d0610658565b5f546001600160a01b0391906103e9908316331461086d565b1691821561042a57600180546001600160a01b03191684179055827fbc6ac8cce15a58ffbe2b23a9cc2620e6bb8e5b042bee95a9c10bf1a73de3e5a55f80a2005b906020606492519162461bcd60e51b8352820152600c60248201526b3d32b9379039b837b739b7b960a11b6044820152fd5b8234610114575f36600319011261011457517f00000000000000000000000000000000000000000000000000000000000000006001600160a01b03168152602090f35b5034610114576104ae3661066e565b9160018060a01b038080926104c8826001541633146106a2565b16936104d58515156106dd565b6104e084151561071e565b16936104ed85151561075c565b85519063d4aa96e960e01b82528381830152610100928383602481847f0000000000000000000000000000000000000000000000000000000000000000165afa9182156103ac575f905f80955f975f96610626575b5050156105f757507f83397f4be4f532ff6bfcc91e0dc913e210878ec48c102bdecf05fb6c5c6bca6194939261057f886105f2948c94161461086d565b5f878152600260208181528483208c845281529184902080546001600160401b03191663ffffffff8816179288901b63ffffffff60201b16929092178255600182018390550180546001600160481b031916426001600160401b0316908117600160401b179091559151948594856108a5565b0390a4005b60649060208b519162461bcd60e51b835282015260096024820152681b9bdd08199bdd5b9960ba1b6044820152fd5b93509396505093506106449250803d106103a55761038f8183610797565b989550505094909391939495935f80610542565b600435906001600160a01b038216820361011457565b6060906003190112610114576001600160a01b03600435818116810361011457916024359160443590811681036101145790565b156106a957565b60405162461bcd60e51b815260206004820152600c60248201526b1d5b985d5d1a1bdc9a5e995960a21b6044820152606490fd5b156106e457565b60405162461bcd60e51b81526020600482015260126024820152713d32b93790383630bcb634b9ba27bbb732b960711b6044820152606490fd5b1561072557565b60405162461bcd60e51b815260206004820152600f60248201526e1e995c9bc81c1b185e5b1a5cdd1259608a1b6044820152606490fd5b1561076357565b60405162461bcd60e51b815260206004820152600c60248201526b7a65726f206772616e74656560a01b6044820152606490fd5b601f909101601f19168101906001600160401b038211908210176107ba57604052565b634e487b7160e01b5f52604160045260245ffd5b519063ffffffff8216820361011457565b51906001600160401b038216820361011457565b9190826101009103126101145781516001600160a01b03811681036101145791602081015160ff81168103610114579160408201518015158103610114579161083e606082016107ce565b9161084b608083016107ce565b9161085860a082016107df565b9160e061086760c084016107df565b92015190565b1561087457565b60405162461bcd60e51b81526020600482015260096024820152683737ba1037bbb732b960b91b6044820152606490fd5b63ffffffff91821681529116602082015260408101919091526001600160401b0390911660608201526080019056fea2646970667358221220bc9e44b1ec1899963d8b8cac2980e0f556239fae71e7f4a24a69b944bbb1a94d64736f6c63430008190033","linkReferences":{}},"methodIdentifiers":{"owner()":"8da5cb5b","playlistV1()":"25c5ffce","setSponsor(address)":"59753fb1","sharePlaylistFor(address,bytes32,address)":"01db8332","shares(bytes32,address)":"b84e9bb5","sponsor()":"77c93662","transferOwnership(address)":"f2fde38b","unsharePlaylistFor(address,bytes32,address)":"6e214514"},"id":21}