{"abi":[{"type":"constructor","inputs":[{"name":"_playlistV1","type":"address","internalType":"address"}],"stateMutability":"nonpayable"},{"type":"function","name":"owner","inputs":[],"outputs":[{"name":"","type":"address","internalType":"address"}],"stateMutability":"view"},{"type":"function","name":"playlistV1","inputs":[],"outputs":[{"name":"","type":"address","internalType":"contract IPlaylistV1"}],"stateMutability":"view"},{"type":"function","name":"sharePlaylist","inputs":[{"name":"playlistId","type":"bytes32","internalType":"bytes32"},{"name":"grantee","type":"address","internalType":"address"}],"outputs":[],"stateMutability":"nonpayable"},{"type":"function","name":"shares","inputs":[{"name":"","type":"bytes32","internalType":"bytes32"},{"name":"","type":"address","internalType":"address"}],"outputs":[{"name":"playlistVersion","type":"uint32","internalType":"uint32"},{"name":"trackCount","type":"uint32","internalType":"uint32"},{"name":"tracksHash","type":"bytes32","internalType":"bytes32"},{"name":"sharedAt","type":"uint64","internalType":"uint64"},{"name":"granted","type":"bool","internalType":"bool"}],"stateMutability":"view"},{"type":"function","name":"transferOwnership","inputs":[{"name":"newOwner","type":"address","internalType":"address"}],"outputs":[],"stateMutability":"nonpayable"},{"type":"function","name":"unsharePlaylist","inputs":[{"name":"playlistId","type":"bytes32","internalType":"bytes32"},{"name":"grantee","type":"address","internalType":"address"}],"outputs":[],"stateMutability":"nonpayable"},{"type":"event","name":"OwnerUpdated","inputs":[{"name":"newOwner","type":"address","indexed":true,"internalType":"address"}],"anonymous":false},{"type":"event","name":"PlaylistShared","inputs":[{"name":"playlistId","type":"bytes32","indexed":true,"internalType":"bytes32"},{"name":"playlistOwner","type":"address","indexed":true,"internalType":"address"},{"name":"grantee","type":"address","indexed":true,"internalType":"address"},{"name":"playlistVersion","type":"uint32","indexed":false,"internalType":"uint32"},{"name":"trackCount","type":"uint32","indexed":false,"internalType":"uint32"},{"name":"tracksHash","type":"bytes32","indexed":false,"internalType":"bytes32"},{"name":"sharedAt","type":"uint64","indexed":false,"internalType":"uint64"}],"anonymous":false},{"type":"event","name":"PlaylistUnshared","inputs":[{"name":"playlistId","type":"bytes32","indexed":true,"internalType":"bytes32"},{"name":"playlistOwner","type":"address","indexed":true,"internalType":"address"},{"name":"grantee","type":"address","indexed":true,"internalType":"address"},{"name":"playlistVersion","type":"uint32","indexed":false,"internalType":"uint32"},{"name":"trackCount","type":"uint32","indexed":false,"internalType":"uint32"},{"name":"tracksHash","type":"bytes32","indexed":false,"internalType":"bytes32"},{"name":"unsharedAt","type":"uint64","indexed":false,"internalType":"uint64"}],"anonymous":false}],"bytecode":{"object":"0x60a0346100eb57601f61086038819003918201601f19168301916001600160401b038311848410176100ef578084926020946040528339810103126100eb57516001600160a01b038116908190036100eb5780156100b4573360018060a01b03195f5416175f55608052604051337f4ffd725fc4a22075e9ec71c59edf9c38cdeb588a91b24fc5b61388c5be41282b5f80a261075c908161010482396080518181816101dd0152818161037901526104050152f35b60405162461bcd60e51b815260206004820152600f60248201526e7a65726f20706c61796c697374563160881b6044820152606490fd5b5f80fd5b634e487b7160e01b5f52604160045260245ffdfe604060808152600480361015610013575f80fd5b5f3560e01c8063037168d7146103a857806325c5ffce146103655780638da5cb5b1461033e578063b6c33b3414610181578063b84e9bb5146101045763f2fde38b1461005d575f80fd5b34610100576020366003190112610100576001600160a01b0381358181169290839003610100576100935f5492831633146106bf565b82156100d057506001600160a01b03191681175f9081557f4ffd725fc4a22075e9ec71c59edf9c38cdeb588a91b24fc5b61388c5be41282b9080a2005b606490602085519162461bcd60e51b8352820152600a6024820152693d32b9379037bbb732b960b11b6044820152fd5b5f80fd5b50903461010057806003193601126101005760a09161012161055a565b90355f526001602052815f2090600180851b03165f5260205260ff815f2080549263ffffffff916002600182015491015492825195818116875260201c1660208601528185015260018060401b03821660608501521c1615156080820152f35b503461010057816003193601126101005780359061019d61055a565b916101a9811515610570565b6001600160a01b03928316926101c08415156105ae565b845163d4aa96e960e01b81528381018390526101009182826024817f000000000000000000000000000000000000000000000000000000000000000085165afa9182156103345761021c935f936102fe575b50501633146106bf565b805f5260209160018352845f20845f528352845f20855160a0810160018060401b0393828210858311176102eb575092847f01125c035a4370e4e2cfaa2f51f496f91e9703aa073b8d284f949e3858a53fd8889694886102ca8c60029c97819c9a5f9f52608060ff86549363ffffffff80861695868652881c168097850152600260018901549889838701520154908b821660608601521c1615159101528b519384933398421692856106f7565b0390a485526001815282852091855252822082815582600182015501555f80f35b604190634e487b7160e01b5f525260245ffd5b61031e929350803d1061032d575b61031681836105e9565b810190610645565b50505050505050905f80610212565b503d61030c565b87513d5f823e3d90fd5b8234610100575f366003190112610100575f5490516001600160a01b039091168152602090f35b8234610100575f36600319011261010057517f00000000000000000000000000000000000000000000000000000000000000006001600160a01b03168152602090f35b50346101005781600319360112610100578035906103c461055a565b916103d0811515610570565b6001600160a01b03928316926103e78415156105ae565b845163d4aa96e960e01b8152838101839052926101009081856024817f000000000000000000000000000000000000000000000000000000000000000087165afa928315610334575f915f80975f955f97610526575b5050156104f757508761047a7f83397f4be4f532ff6bfcc91e0dc913e210878ec48c102bdecf05fb6c5c6bca619594936104f293339116146106bf565b5f868152600160208181528383208b845281529183902080546001600160401b03191663ffffffff8b16179286901b63ffffffff60201b16929092178255810185905560020180546001600160481b031916426001600160401b0316908117600160401b1790915590513397909485949091856106f7565b0390a4005b60649060208a519162461bcd60e51b835282015260096024820152681b9bdd08199bdd5b9960ba1b6044820152fd5b93985093505093506105449250803d1061032d5761031681836105e9565b939993979296955092939192505f90508061043d565b602435906001600160a01b038216820361010057565b1561057757565b60405162461bcd60e51b815260206004820152600f60248201526e1e995c9bc81c1b185e5b1a5cdd1259608a1b6044820152606490fd5b156105b557565b60405162461bcd60e51b815260206004820152600c60248201526b7a65726f206772616e74656560a01b6044820152606490fd5b601f909101601f19168101906001600160401b0382119082101761060c57604052565b634e487b7160e01b5f52604160045260245ffd5b519063ffffffff8216820361010057565b51906001600160401b038216820361010057565b9190826101009103126101005781516001600160a01b03811681036101005791602081015160ff81168103610100579160408201518015158103610100579161069060608201610620565b9161069d60808301610620565b916106aa60a08201610631565b9160e06106b960c08401610631565b92015190565b156106c657565b60405162461bcd60e51b81526020600482015260096024820152683737ba1037bbb732b960b91b6044820152606490fd5b63ffffffff91821681529116602082015260408101919091526001600160401b0390911660608201526080019056fea264697066735822122037a8e5fe193220979c6b536e723f1347ad98d7aaea44693e01aa2bb130847ac364736f6c63430008190033","linkReferences":{}},"methodIdentifiers":{"owner()":"8da5cb5b","playlistV1()":"25c5ffce","sharePlaylist(bytes32,address)":"037168d7","shares(bytes32,address)":"b84e9bb5","transferOwnership(address)":"f2fde38b","unsharePlaylist(bytes32,address)":"b6c33b34"},"id":47}