{"abi":[{"type":"function","name":"MAX_LANGUAGE_SLOTS","inputs":[],"outputs":[{"name":"","type":"uint8","internalType":"uint8"}],"stateMutability":"view"},{"type":"function","name":"PROF_NATIVE","inputs":[],"outputs":[{"name":"","type":"uint8","internalType":"uint8"}],"stateMutability":"view"},{"type":"function","name":"getDiet","inputs":[{"name":"user","type":"address","internalType":"address"}],"outputs":[{"name":"","type":"uint8","internalType":"enum OnchainProfilesV2.Diet"}],"stateMutability":"view"},{"type":"function","name":"getLanguages","inputs":[{"name":"user","type":"address","internalType":"address"}],"outputs":[{"name":"langs","type":"bytes2[8]","internalType":"bytes2[8]"},{"name":"profs","type":"uint8[8]","internalType":"uint8[8]"}],"stateMutability":"view"},{"type":"function","name":"getPets","inputs":[{"name":"user","type":"address","internalType":"address"}],"outputs":[{"name":"","type":"uint8","internalType":"enum OnchainProfilesV2.Pets"}],"stateMutability":"view"},{"type":"function","name":"getProfile","inputs":[{"name":"user","type":"address","internalType":"address"}],"outputs":[{"name":"","type":"tuple","internalType":"struct OnchainProfilesV2.Profile","components":[{"name":"profileVersion","type":"uint8","internalType":"uint8"},{"name":"exists","type":"bool","internalType":"bool"},{"name":"age","type":"uint8","internalType":"uint8"},{"name":"heightCm","type":"uint16","internalType":"uint16"},{"name":"nationality","type":"bytes2","internalType":"bytes2"},{"name":"friendsOpenToMask","type":"uint8","internalType":"uint8"},{"name":"languagesPacked","type":"uint256","internalType":"uint256"},{"name":"locationCityId","type":"bytes32","internalType":"bytes32"},{"name":"locationLatE6","type":"int32","internalType":"int32"},{"name":"locationLngE6","type":"int32","internalType":"int32"},{"name":"schoolId","type":"bytes32","internalType":"bytes32"},{"name":"skillsCommit","type":"bytes32","internalType":"bytes32"},{"name":"hobbiesCommit","type":"bytes32","internalType":"bytes32"},{"name":"nameHash","type":"bytes32","internalType":"bytes32"},{"name":"packed","type":"uint256","internalType":"uint256"},{"name":"displayName","type":"string","internalType":"string"},{"name":"photoURI","type":"string","internalType":"string"}]}],"stateMutability":"view"},{"type":"function","name":"getReligion","inputs":[{"name":"user","type":"address","internalType":"address"}],"outputs":[{"name":"","type":"uint8","internalType":"enum OnchainProfilesV2.Religion"}],"stateMutability":"view"},{"type":"function","name":"nonces","inputs":[{"name":"","type":"address","internalType":"address"}],"outputs":[{"name":"","type":"uint256","internalType":"uint256"}],"stateMutability":"view"},{"type":"function","name":"packLanguageSlot","inputs":[{"name":"lang","type":"bytes2","internalType":"bytes2"},{"name":"proficiency","type":"uint8","internalType":"uint8"}],"outputs":[{"name":"","type":"uint32","internalType":"uint32"}],"stateMutability":"pure"},{"type":"function","name":"packLanguages","inputs":[{"name":"langs","type":"bytes2[8]","internalType":"bytes2[8]"},{"name":"profs","type":"uint8[8]","internalType":"uint8[8]"}],"outputs":[{"name":"packed","type":"uint256","internalType":"uint256"}],"stateMutability":"pure"},{"type":"function","name":"unpackLanguageSlot","inputs":[{"name":"slot","type":"uint32","internalType":"uint32"}],"outputs":[{"name":"lang","type":"bytes2","internalType":"bytes2"},{"name":"proficiency","type":"uint8","internalType":"uint8"}],"stateMutability":"pure"},{"type":"function","name":"unpackLanguages","inputs":[{"name":"packed","type":"uint256","internalType":"uint256"}],"outputs":[{"name":"langs","type":"bytes2[8]","internalType":"bytes2[8]"},{"name":"profs","type":"uint8[8]","internalType":"uint8[8]"}],"stateMutability":"pure"},{"type":"function","name":"upsertProfile","inputs":[{"name":"in_","type":"tuple","internalType":"struct OnchainProfilesV2.ProfileInput","components":[{"name":"profileVersion","type":"uint8","internalType":"uint8"},{"name":"displayName","type":"string","internalType":"string"},{"name":"nameHash","type":"bytes32","internalType":"bytes32"},{"name":"age","type":"uint8","internalType":"uint8"},{"name":"heightCm","type":"uint16","internalType":"uint16"},{"name":"nationality","type":"bytes2","internalType":"bytes2"},{"name":"languagesPacked","type":"uint256","internalType":"uint256"},{"name":"friendsOpenToMask","type":"uint8","internalType":"uint8"},{"name":"locationCityId","type":"bytes32","internalType":"bytes32"},{"name":"locationLatE6","type":"int32","internalType":"int32"},{"name":"locationLngE6","type":"int32","internalType":"int32"},{"name":"schoolId","type":"bytes32","internalType":"bytes32"},{"name":"skillsCommit","type":"bytes32","internalType":"bytes32"},{"name":"hobbiesCommit","type":"bytes32","internalType":"bytes32"},{"name":"photoURI","type":"string","internalType":"string"},{"name":"gender","type":"uint8","internalType":"enum OnchainProfilesV2.Gender"},{"name":"relocate","type":"uint8","internalType":"enum OnchainProfilesV2.Relocate"},{"name":"degree","type":"uint8","internalType":"enum OnchainProfilesV2.Degree"},{"name":"fieldBucket","type":"uint8","internalType":"enum OnchainProfilesV2.FieldBucket"},{"name":"profession","type":"uint8","internalType":"enum OnchainProfilesV2.Profession"},{"name":"industry","type":"uint8","internalType":"enum OnchainProfilesV2.Industry"},{"name":"relationshipStatus","type":"uint8","internalType":"enum OnchainProfilesV2.RelationshipStatus"},{"name":"sexuality","type":"uint8","internalType":"enum OnchainProfilesV2.Sexuality"},{"name":"ethnicity","type":"uint8","internalType":"enum OnchainProfilesV2.Ethnicity"},{"name":"datingStyle","type":"uint8","internalType":"enum OnchainProfilesV2.DatingStyle"},{"name":"children","type":"uint8","internalType":"enum OnchainProfilesV2.Children"},{"name":"wantsChildren","type":"uint8","internalType":"enum OnchainProfilesV2.WantsChildren"},{"name":"drinking","type":"uint8","internalType":"enum OnchainProfilesV2.Drinking"},{"name":"smoking","type":"uint8","internalType":"enum OnchainProfilesV2.Smoking"},{"name":"drugs","type":"uint8","internalType":"enum OnchainProfilesV2.Drugs"},{"name":"lookingFor","type":"uint8","internalType":"enum OnchainProfilesV2.LookingFor"},{"name":"religion","type":"uint8","internalType":"enum OnchainProfilesV2.Religion"},{"name":"pets","type":"uint8","internalType":"enum OnchainProfilesV2.Pets"},{"name":"diet","type":"uint8","internalType":"enum OnchainProfilesV2.Diet"}]}],"outputs":[],"stateMutability":"nonpayable"},{"type":"function","name":"upsertProfileFor","inputs":[{"name":"user","type":"address","internalType":"address"},{"name":"in_","type":"tuple","internalType":"struct OnchainProfilesV2.ProfileInput","components":[{"name":"profileVersion","type":"uint8","internalType":"uint8"},{"name":"displayName","type":"string","internalType":"string"},{"name":"nameHash","type":"bytes32","internalType":"bytes32"},{"name":"age","type":"uint8","internalType":"uint8"},{"name":"heightCm","type":"uint16","internalType":"uint16"},{"name":"nationality","type":"bytes2","internalType":"bytes2"},{"name":"languagesPacked","type":"uint256","internalType":"uint256"},{"name":"friendsOpenToMask","type":"uint8","internalType":"uint8"},{"name":"locationCityId","type":"bytes32","internalType":"bytes32"},{"name":"locationLatE6","type":"int32","internalType":"int32"},{"name":"locationLngE6","type":"int32","internalType":"int32"},{"name":"schoolId","type":"bytes32","internalType":"bytes32"},{"name":"skillsCommit","type":"bytes32","internalType":"bytes32"},{"name":"hobbiesCommit","type":"bytes32","internalType":"bytes32"},{"name":"photoURI","type":"string","internalType":"string"},{"name":"gender","type":"uint8","internalType":"enum OnchainProfilesV2.Gender"},{"name":"relocate","type":"uint8","internalType":"enum OnchainProfilesV2.Relocate"},{"name":"degree","type":"uint8","internalType":"enum OnchainProfilesV2.Degree"},{"name":"fieldBucket","type":"uint8","internalType":"enum OnchainProfilesV2.FieldBucket"},{"name":"profession","type":"uint8","internalType":"enum OnchainProfilesV2.Profession"},{"name":"industry","type":"uint8","internalType":"enum OnchainProfilesV2.Industry"},{"name":"relationshipStatus","type":"uint8","internalType":"enum OnchainProfilesV2.RelationshipStatus"},{"name":"sexuality","type":"uint8","internalType":"enum OnchainProfilesV2.Sexuality"},{"name":"ethnicity","type":"uint8","internalType":"enum OnchainProfilesV2.Ethnicity"},{"name":"datingStyle","type":"uint8","internalType":"enum OnchainProfilesV2.DatingStyle"},{"name":"children","type":"uint8","internalType":"enum OnchainProfilesV2.Children"},{"name":"wantsChildren","type":"uint8","internalType":"enum OnchainProfilesV2.WantsChildren"},{"name":"drinking","type":"uint8","internalType":"enum OnchainProfilesV2.Drinking"},{"name":"smoking","type":"uint8","internalType":"enum OnchainProfilesV2.Smoking"},{"name":"drugs","type":"uint8","internalType":"enum OnchainProfilesV2.Drugs"},{"name":"lookingFor","type":"uint8","internalType":"enum OnchainProfilesV2.LookingFor"},{"name":"religion","type":"uint8","internalType":"enum OnchainProfilesV2.Religion"},{"name":"pets","type":"uint8","internalType":"enum OnchainProfilesV2.Pets"},{"name":"diet","type":"uint8","internalType":"enum OnchainProfilesV2.Diet"}]},{"name":"signature","type":"bytes","internalType":"bytes"}],"outputs":[],"stateMutability":"nonpayable"},{"type":"event","name":"ProfileUpserted","inputs":[{"name":"user","type":"address","indexed":true,"internalType":"address"},{"name":"version","type":"uint8","indexed":false,"internalType":"uint8"}],"anonymous":false}],"bytecode":{"object":"0x60808060405234601557611c4c908161001a8239f35b5f80fdfe60806040526004361015610011575f80fd5b5f3560e01c8063088d78be14610da55780630f53a47014610b275780633cafcb9714610b0c57806345f897a914610abe57806365684b3214610a7d5780636758cc5614610a6257806378f65bc014610a245780637c076101146109d25780637ecebe001461099a578063863013801461097e578063867754c5146109215780639132f98114610836578063d8ecd789146107c85763df89a8c6146100b3575f80fd5b346107c4576003196060368201126107c4576100cd610df3565b602491823591906001600160401b038084116107c4578360040193610440809382360301126107c4576044358281116107c457366023820112156107c45780600401358381116107c457368882840101116107c45760018060a01b039081871692835f526001958a8a60209789895260405f20549a61017d61016c604051948c8601968d885260ff61015e83610ec6565b166040880152850190611178565b8360608701526104808601916111aa565b6044830135608085015260ff61019560648501610ec6565b1660a0850152608483013561ffff81168091036107c45760c085015260a48301359061ffff60f01b82168092036107c4578f61025b9061026e9360e088015260c486013561010088015260ff6101ed60e48801610ec6565b1661012088015261010486013561014088015261020d61012487016111ca565b60030b61016088015261022361014487016111ca565b60030b6101808801526101648601356101a08801526101848601356101c08801526101a48601356101e08801526101c4860190611178565b868303603f1901610200880152906111aa565b916101e481013560088110156107c45761028781610e09565b61022085015261020481013560048110156107c4576102a5816111d8565b610240850152610224810135600a8110156107c4576102c3816111e2565b61026085015261024481013560118110156107c457610280850152610264810135600b8110156107c4576102f681610e55565b6102a0850152610284810135600b8110156107c45761031481610e55565b6102c08501526102a481013560088110156107c45761033281610e09565b6102e08501526102c4810135600a8110156107c457610350816111e2565b6103008501526102e4810135600c8110156107c45761032085015261030481013560068110156107c45761034085015261032481013560038110156107c45761036085015261034481013560058110156107c4576103ad81610e4b565b61038085015261036481013560058110156107c4576103cb81610e4b565b6103a085015261038481013560058110156107c4576103e981610e4b565b6103c08501526103a481013560048110156107c457610407816111d8565b6103e08501526103c481013560088110156107c45761042581610e09565b6104008501526103e4810135600b8110156107c45761044381610e55565b61042085015261040481013560058110156107c4576104249261046582610e4b565b850152013560088110156107c45761049691816104828593610e09565b61046083015203601f198101835282610f3b565b519020906104a38a611aae565b91604051916080830190838210908211176107b1576040526042825287820190606036833782511561079e576030825382518a101561079e57908a8392607860218c9601536104f0611a76565b906041905b8d821161075d57505050604194846e3432b0bb32b71d383937b334b6329d60891b946105b49482610527603396611b5c565b8161053146611b5c565b9161053b30611aae565b946040519c8d99818b019d8e52805191829101602f8c015e8901601d60f91b9788602f830152518092603083015e0190866030830152805192839101603183015e0190846031830152805192839101603283015e019160328301528051928391018583015e015f83820152036013810185520183610f3b565b61061c603a6105c38451611b5c565b936040519384918c80840197790ca2ba3432b932bab69029b4b3b732b21026b2b9b9b0b3b29d0560311b89528051918291018686015e830190848201905f8252519283915e015f8382015203601a810184520182610f3b565b51902092036107245760648101355f1a601b8110610705575b60ff16601b811480156106fb575b156106cb57859260445f93608093604051938452868401528d810135604084015201356060820152828052875afa156106c0578161068f915f51166106898115156111ec565b146111ec565b8284018094116106ad576106ab96505f525260405f205561126c565b005b86634e487b7160e01b5f5260116004525ffd5b6040513d5f823e3d90fd5b60405162461bcd60e51b8152600481018790526009818d01526824b73b30b634b2103b60b91b6044820152606490fd5b50601c8114610643565b601b0160ff811115610635578a634e487b7160e01b5f5260116004525ffd5b60405162461bcd60e51b8152600481018690526012818c015271092dcecc2d8d2c840e6d2ce40d8cadccee8d60731b6044820152606490fd5b909250610792919394955060ff60f81b61077a600f831686611a65565b51165f1a6107888488611a65565b5360041c91611aa2565b918a9493928d926104f5565b8d634e487b7160e01b5f5260326004525ffd5b8d634e487b7160e01b5f5260416004525ffd5b5f80fd5b346107c45760203660031901126107c4576107e1610df3565b6040516107ed81610f04565b610100809136903760405161080181610f04565b36903760018060a01b03165f525f602052610822600160405f200154611082565b9061083260405192839283610e5f565b0390f35b346107c4576102003660031901126107c45736610104116107c45736610204116107c4575f805b600890818310156109165761087961087484611038565b611155565b60f01c1561090c576007916108a38360ff61089b6108968861105e565b61116a565b161115611113565b61ff0063ffff00006108b761087487611038565b60e01c16916108c86108968761105e565b901b1617838303928084116108f857848460051b948504602014911417156108f8576001921b17915b019061085d565b634e487b7160e01b5f52601160045260245ffd5b91600191506108f1565b602090604051908152f35b346107c45760403660031901126107c4576004356001600160f01b0319811681036107c45760243560ff8116918282036107c45761096460076020941115611113565b63ffff000061ff006040519360081b169160e01c16178152f35b346107c45760203660031901126107c457610822600435611082565b346107c45760203660031901126107c4576001600160a01b036109bb610df3565b165f526001602052602060405f2054604051908152f35b346107c45760203660031901126107c4576001600160a01b036109f3610df3565b165f525f602052602060ff600860405f20015460801c16610a1381610e55565b60405190610a2081610e55565b8152f35b346107c4576003196020368201126107c457600435906001600160401b0382116107c4576104409082360301126107c4576106ab906004013361126c565b346107c4575f3660031901126107c457602060405160078152f35b346107c45760203660031901126107c45760043563ffffffff811681036107c45760409060ff82519161ffff60f01b8160e01b16835260081c166020820152f35b346107c45760203660031901126107c4576001600160a01b03610adf610df3565b165f525f602052602060ff600860405f20015460881c16610aff81610e4b565b60405190610a2081610e4b565b346107c4575f3660031901126107c457602060405160088152f35b346107c45760203660031901126107c457610b40610df3565b6060610200604051610b5181610ed4565b5f81525f60208201525f60408201525f838201525f60808201525f60a08201525f60c08201525f60e08201525f6101008201525f6101208201525f6101408201525f6101608201525f6101808201525f6101a08201525f6101c0820152826101e0820152015260018060a01b03165f525f60205261083260405f20610ca3600a60405192610bde84610ed4565b60ff81548181168652818160081c1615156020870152818160101c16604087015261ffff8160181c16606087015261ffff60f01b8160c81b16608087015260381c1660a0850152600181015460c0850152600281015460e085015260038101548060030b61010086015260201c60030b61012085015260048101546101408501526005810154610160850152600681015461018085015260078101546101a085015260088101546101c0850152610c9760098201610f96565b6101e085015201610f96565b6102008201526040519182916020835260ff815116602084015260208101511515604084015260ff604082015116606084015261ffff606082015116608084015261ffff60f01b60808201511660a084015260ff60a08201511660c084015260c081015160e084015260e081015161010084015261010081015160030b61012084015261012081015160030b6101408401526101408101516101608401526101608101516101808401526101808101516101a08401526101a08101516101c08401526101c08101516101e08401526101e0810151610200610d91610220928383880152610240870190610e27565b92015190601f198584030190850152610e27565b346107c45760203660031901126107c4576001600160a01b03610dc6610df3565b165f525f602052602060ff600860405f20015460901c16610de681610e09565b60405190610a2081610e09565b600435906001600160a01b03821682036107c457565b60081115610e1357565b634e487b7160e01b5f52602160045260245ffd5b805180835260209291819084018484015e5f828201840152601f01601f1916010190565b60051115610e1357565b600b1115610e1357565b61020081019392915f90825b60088310610ea55750505061010001905f915b60088310610e8b57505050565b60019060ff83511681526020809101920192019190610e7e565b81516001600160f01b03191681526001929092019160209182019101610e6b565b359060ff821682036107c457565b61022081019081106001600160401b03821117610ef057604052565b634e487b7160e01b5f52604160045260245ffd5b61010081019081106001600160401b03821117610ef057604052565b604081019081106001600160401b03821117610ef057604052565b601f909101601f19168101906001600160401b03821190821017610ef057604052565b90600182811c92168015610f8c575b6020831014610f7857565b634e487b7160e01b5f52602260045260245ffd5b91607f1691610f6d565b9060405191825f8254610fa881610f5e565b908184526020946001916001811690815f146110165750600114610fd8575b505050610fd692500383610f3b565b565b5f90815285812095935091905b818310610ffe575050610fd693508201015f8080610fc7565b85548884018501529485019487945091830191610fe5565b92505050610fd694925060ff191682840152151560051b8201015f8080610fc7565b600881101561104a5760051b60040190565b634e487b7160e01b5f52603260045260245ffd5b600881101561104a5760051b6101040190565b90600881101561104a5760051b0190565b6040519161108f83610f04565b61010090813685378392604051926110a684610f04565b36843782935f5b6008908181101561110a576007818103908082116108f857828260051b928304602014911417156108f8576001928560ff921c9061ffff60f01b8260e01b166110f6858d611071565b521c166111038288611071565b52016110ad565b50509450509050565b1561111a57565b60405162461bcd60e51b8152602060048201526013602482015272496e76616c69642070726f66696369656e637960681b6044820152606490fd5b356001600160f01b0319811681036107c45790565b3560ff811681036107c45790565b9035601e19823603018112156107c4570160208101919035906001600160401b0382116107c45781360383136107c457565b908060209392818452848401375f828201840152601f01601f1916010190565b35908160030b82036107c457565b60041115610e1357565b600a1115610e1357565b156111f357565b60405162461bcd60e51b8152602060048201526011602482015270496e76616c6964207369676e617475726560781b6044820152606490fd5b903590601e19813603018212156107c457018035906001600160401b0382116107c4576020019181360383136107c457565b358060030b81036107c45790565b60018060a01b031690815f525f60205260405f208054610100809160ff6112928661116a565b169061ffff1916171782556112aa602084018461122c565b6001600160401b039291906009850190848111610ef057806112cc8354610f5e565b93601f948581116119fc575b505f90858311600114611995575f9261198a575b50508160011b915f199060031b1c19161790555b604085013560078501556113166060860161116a565b91845492608087013561ffff811681036107c45761ffff60281b61133c60a08a01611155565b60c81c169064ffff00000060019660c08b0135888b015562ff00008b61136960e060ff60381b920161116a565b60381b169560101b169067ffffffffffff00001916179160181b16171717855585013580155f146118a3576113a1610120870161125e565b60030b158061188c575b15611851575b60028501556113c3610120860161125e565b6003850190815463ffffffff6113dc6101408a0161125e565b811660201b92166001600160401b03199190911617179055610160850135600485015561018085013560058501556101a085013560068501556114236101c086018661122c565b9190600a8601948311610ef05761143a8554610f5e565b82811161180c575b505f9183116001146117ac579282939183925f946117a1575b50501b915f199060031b1c19161790555b60086101e083013510156107c4576114886101e0830135610e09565b600461020083013510156107c4576114a46102008301356111d8565b600a61022083013510156107c4576114c06102208301356111e2565b601161024083013510156107c457600b61026083013510156107c4576114ea610260830135610e55565b600b61028083013510156107c457611506610280830135610e55565b60086102a083013510156107c4576115226102a0830135610e09565b600a6102c083013510156107c45761153e6102c08301356111e2565b600c6102e083013510156107c457600661030083013510156107c457600361032083013510156107c457600561034083013510156107c457611584610340830135610e4b565b600561036083013510156107c4576115a0610360830135610e4b565b600561038083013510156107c4576115bc610380830135610e4b565b60046103a083013510156107c4576115d86103a08301356111d8565b60086103c083013510156107c4576115f46103c0830135610e09565b600b6103e083013510156107c4576116106103e0830135610e55565b600561040083013510156107c45761162c610400830135610e4b565b61042082013560088110156107c4577f2f11866c7ed2924cfe6ede4ac48ac8484bb31b5822d1667888492d20dc27e3069260209260088361166f61179595610e09565b60ff60901b9060901b1661ff00610200850135831b1660ff6101e0860135161762ff000061022086013560101b161763ff00000061024086013560181b161760ff871b610260860135881b161760ff60281b61028086013560281b161760ff60301b6102a086013560301b161760ff60381b6102c086013560381b161760ff60401b6102e086013560401b161760ff60481b61030086013560481b161760ff60501b61032086013560501b161760ff60581b61034086013560581b161760ff60601b61036086013560601b161760ff60681b61038086013560681b161760ff60701b6103a086013560701b161760ff60781b6103c086013560781b161760ff60801b6103e086013560801b161760ff60881b61040086013560881b16171791015561116a565b60ff60405191168152a2565b013592505f8061145b565b601f19831691855f528360205f20935f5b878282106117f3575050106117da575b505050811b01905561146c565b01355f19600384901b60f8161c191690555f80806117cd565b85850135875590950194602093840193879350016117bd565b855f5260205f208380860160051c82019260208710611848575b0160051c019085905b82811061183d575050611442565b5f815501859061182f565b92508192611826565b60405162461bcd60e51b8152602060048201526013602482015272436f6f7264732072657175697265206369747960681b6044820152606490fd5b5061189a610140870161125e565b60030b156113ab565b610120860163055d4a7f196118b78261125e565b60030b1215908161196f575b501561193c576101408601630aba94ff196118dd8261125e565b60030b12159081611921575b506113b15760405162461bcd60e51b815260206004820152600b60248201526a496e76616c6964206c6e6760a81b6044820152606490fd5b630aba950091506119319061125e565b60030b13155f6118e9565b60405162461bcd60e51b815260206004820152600b60248201526a125b9d985b1a59081b185d60aa1b6044820152606490fd5b63055d4a80915061197f9061125e565b60030b13155f6118c3565b013590505f806112ec565b909150601f19831691845f5260205f20925f5b8181106119e457509084600195949392106119cb575b505050811b019055611300565b01355f19600384901b60f8161c191690555f80806119be565b919360206001819287870135815501950192016119a8565b909150835f5260205f208580850160051c82019260208610611a41575b9085949392910160051c01905b818110611a3357506112d8565b5f8155849350600101611a26565b92508192611a19565b6001600160401b038111610ef057601f01601f191660200190565b90815181101561104a570160200190565b60405190611a8382610f20565b601082526f181899199a1a9b1b9c1cb0b131b232b360811b6020830152565b80156108f8575f190190565b60405190606082016001600160401b03811183821017610ef057604052602a825260208201604036823782511561104a57603090538151906001916001101561104a5760786021840153611b00611a76565b6029916001600160a01b03165b838311611b1b575050505090565b611b56906001600160f81b0319611b35600f831685611a65565b51165f1a611b438588611a65565b5360041c60016001609c1b031692611aa2565b91611b0d565b8015611bf85780815f925b611be15750611b7582611a4a565b91611b836040519384610f3b565b80835281601f19611b9383611a4a565b013660208601375b611ba457505090565b611bad90611aa2565b90600a90603082820681018091116108f85760f81b6001600160f81b0319165f1a611bd88486611a65565b53049081611b9b565b915f1981146108f8576001600a9101920480611b67565b50604051611c0581610f20565b60018152600360fc1b60208201529056fea2646970667358221220c82f3e739063f565c4a2c7f846be26f5aae34d71418f3e1500d95b731869d51364736f6c63430008190033","linkReferences":{}},"methodIdentifiers":{"MAX_LANGUAGE_SLOTS()":"3cafcb97","PROF_NATIVE()":"6758cc56","getDiet(address)":"088d78be","getLanguages(address)":"d8ecd789","getPets(address)":"45f897a9","getProfile(address)":"0f53a470","getReligion(address)":"7c076101","nonces(address)":"7ecebe00","packLanguageSlot(bytes2,uint8)":"867754c5","packLanguages(bytes2[8],uint8[8])":"9132f981","unpackLanguageSlot(uint32)":"65684b32","unpackLanguages(uint256)":"86301380","upsertProfile((uint8,string,bytes32,uint8,uint16,bytes2,uint256,uint8,bytes32,int32,int32,bytes32,bytes32,bytes32,string,uint8,uint8,uint8,uint8,uint8,uint8,uint8,uint8,uint8,uint8,uint8,uint8,uint8,uint8,uint8,uint8,uint8,uint8,uint8))":"78f65bc0","upsertProfileFor(address,(uint8,string,bytes32,uint8,uint16,bytes2,uint256,uint8,bytes32,int32,int32,bytes32,bytes32,bytes32,string,uint8,uint8,uint8,uint8,uint8,uint8,uint8,uint8,uint8,uint8,uint8,uint8,uint8,uint8,uint8,uint8,uint8,uint8,uint8),bytes)":"df89a8c6"},"id":51}