{"abi":[{"type":"constructor","inputs":[{"name":"paymentToken_","type":"address","internalType":"address"},{"name":"oracle_","type":"address","internalType":"address"},{"name":"treasury_","type":"address","internalType":"address"},{"name":"feeBps_","type":"uint16","internalType":"uint16"},{"name":"challengeWindowSeconds_","type":"uint48","internalType":"uint48"},{"name":"challengeBond_","type":"uint256","internalType":"uint256"},{"name":"lateCancelPenaltyBps_","type":"uint16","internalType":"uint16"},{"name":"noAttestBufferSeconds_","type":"uint48","internalType":"uint48"},{"name":"disputeTimeoutSeconds_","type":"uint48","internalType":"uint48"}],"stateMutability":"nonpayable"},{"type":"receive","stateMutability":"payable"},{"type":"function","name":"BPS","inputs":[],"outputs":[{"name":"","type":"uint256","internalType":"uint256"}],"stateMutability":"view"},{"type":"function","name":"MAX_CHALLENGE_WINDOW","inputs":[],"outputs":[{"name":"","type":"uint48","internalType":"uint48"}],"stateMutability":"view"},{"type":"function","name":"MAX_DISPUTE_TIMEOUT","inputs":[],"outputs":[{"name":"","type":"uint48","internalType":"uint48"}],"stateMutability":"view"},{"type":"function","name":"MAX_NO_ATTEST_BUFFER","inputs":[],"outputs":[{"name":"","type":"uint48","internalType":"uint48"}],"stateMutability":"view"},{"type":"function","name":"acceptOwnership","inputs":[],"outputs":[],"stateMutability":"nonpayable"},{"type":"function","name":"acceptRequest","inputs":[{"name":"requestId","type":"uint256","internalType":"uint256"},{"name":"startTime","type":"uint48","internalType":"uint48"},{"name":"graceMins","type":"uint32","internalType":"uint32"},{"name":"minOverlapMins","type":"uint32","internalType":"uint32"},{"name":"cancelCutoffMins","type":"uint32","internalType":"uint32"}],"outputs":[{"name":"slotId","type":"uint256","internalType":"uint256"},{"name":"bookingId","type":"uint256","internalType":"uint256"}],"stateMutability":"nonpayable"},{"type":"function","name":"attest","inputs":[{"name":"bookingId","type":"uint256","internalType":"uint256"},{"name":"outcome","type":"uint8","internalType":"enum SessionEscrowV1.Outcome"},{"name":"metricsHash","type":"bytes32","internalType":"bytes32"}],"outputs":[],"stateMutability":"nonpayable"},{"type":"function","name":"book","inputs":[{"name":"slotId","type":"uint256","internalType":"uint256"}],"outputs":[{"name":"bookingId","type":"uint256","internalType":"uint256"}],"stateMutability":"nonpayable"},{"type":"function","name":"bookingTerms","inputs":[{"name":"","type":"uint256","internalType":"uint256"}],"outputs":[{"name":"feeBps","type":"uint16","internalType":"uint16"},{"name":"lateCancelPenaltyBps","type":"uint16","internalType":"uint16"},{"name":"challengeWindow","type":"uint48","internalType":"uint48"},{"name":"noAttestBuffer","type":"uint48","internalType":"uint48"},{"name":"disputeTimeout","type":"uint48","internalType":"uint48"},{"name":"challengeBond","type":"uint256","internalType":"uint256"}],"stateMutability":"view"},{"type":"function","name":"bookings","inputs":[{"name":"","type":"uint256","internalType":"uint256"}],"outputs":[{"name":"slotId","type":"uint256","internalType":"uint256"},{"name":"guest","type":"address","internalType":"address"},{"name":"amount","type":"uint256","internalType":"uint256"},{"name":"status","type":"uint8","internalType":"enum SessionEscrowV1.SessionBookingStatus"},{"name":"oracleOutcome","type":"uint8","internalType":"enum SessionEscrowV1.Outcome"},{"name":"metricsHash","type":"bytes32","internalType":"bytes32"},{"name":"attestedAt","type":"uint64","internalType":"uint64"},{"name":"finalizableAt","type":"uint64","internalType":"uint64"},{"name":"challenger","type":"address","internalType":"address"},{"name":"bondAmount","type":"uint256","internalType":"uint256"},{"name":"disputedAt","type":"uint64","internalType":"uint64"}],"stateMutability":"view"},{"type":"function","name":"cancelBookingAsGuest","inputs":[{"name":"bookingId","type":"uint256","internalType":"uint256"}],"outputs":[],"stateMutability":"nonpayable"},{"type":"function","name":"cancelBookingAsHost","inputs":[{"name":"bookingId","type":"uint256","internalType":"uint256"}],"outputs":[],"stateMutability":"nonpayable"},{"type":"function","name":"cancelRequest","inputs":[{"name":"requestId","type":"uint256","internalType":"uint256"}],"outputs":[],"stateMutability":"nonpayable"},{"type":"function","name":"cancelSlot","inputs":[{"name":"slotId","type":"uint256","internalType":"uint256"}],"outputs":[],"stateMutability":"nonpayable"},{"type":"function","name":"challenge","inputs":[{"name":"bookingId","type":"uint256","internalType":"uint256"}],"outputs":[],"stateMutability":"nonpayable"},{"type":"function","name":"challengeBond","inputs":[],"outputs":[{"name":"","type":"uint256","internalType":"uint256"}],"stateMutability":"view"},{"type":"function","name":"challengeWindow","inputs":[],"outputs":[{"name":"","type":"uint48","internalType":"uint48"}],"stateMutability":"view"},{"type":"function","name":"claimIfUnattested","inputs":[{"name":"bookingId","type":"uint256","internalType":"uint256"}],"outputs":[],"stateMutability":"nonpayable"},{"type":"function","name":"createRequest","inputs":[{"name":"hostTarget","type":"address","internalType":"address"},{"name":"windowStart","type":"uint48","internalType":"uint48"},{"name":"windowEnd","type":"uint48","internalType":"uint48"},{"name":"durationMins","type":"uint32","internalType":"uint32"},{"name":"amount","type":"uint256","internalType":"uint256"},{"name":"expiry","type":"uint48","internalType":"uint48"}],"outputs":[{"name":"requestId","type":"uint256","internalType":"uint256"}],"stateMutability":"nonpayable"},{"type":"function","name":"createSlot","inputs":[{"name":"startTime","type":"uint48","internalType":"uint48"},{"name":"durationMins","type":"uint32","internalType":"uint32"},{"name":"graceMins","type":"uint32","internalType":"uint32"},{"name":"minOverlapMins","type":"uint32","internalType":"uint32"},{"name":"cancelCutoffMins","type":"uint32","internalType":"uint32"}],"outputs":[{"name":"slotId","type":"uint256","internalType":"uint256"}],"stateMutability":"nonpayable"},{"type":"function","name":"disputeTimeout","inputs":[],"outputs":[{"name":"","type":"uint48","internalType":"uint48"}],"stateMutability":"view"},{"type":"function","name":"feeBps","inputs":[],"outputs":[{"name":"","type":"uint16","internalType":"uint16"}],"stateMutability":"view"},{"type":"function","name":"finalize","inputs":[{"name":"bookingId","type":"uint256","internalType":"uint256"}],"outputs":[],"stateMutability":"nonpayable"},{"type":"function","name":"finalizeDisputeByTimeout","inputs":[{"name":"bookingId","type":"uint256","internalType":"uint256"}],"outputs":[],"stateMutability":"nonpayable"},{"type":"function","name":"getBooking","inputs":[{"name":"bookingId","type":"uint256","internalType":"uint256"}],"outputs":[{"name":"","type":"tuple","internalType":"struct SessionEscrowV1.SessionBooking","components":[{"name":"slotId","type":"uint256","internalType":"uint256"},{"name":"guest","type":"address","internalType":"address"},{"name":"amount","type":"uint256","internalType":"uint256"},{"name":"status","type":"uint8","internalType":"enum SessionEscrowV1.SessionBookingStatus"},{"name":"oracleOutcome","type":"uint8","internalType":"enum SessionEscrowV1.Outcome"},{"name":"metricsHash","type":"bytes32","internalType":"bytes32"},{"name":"attestedAt","type":"uint64","internalType":"uint64"},{"name":"finalizableAt","type":"uint64","internalType":"uint64"},{"name":"challenger","type":"address","internalType":"address"},{"name":"bondAmount","type":"uint256","internalType":"uint256"},{"name":"disputedAt","type":"uint64","internalType":"uint64"}]}],"stateMutability":"view"},{"type":"function","name":"getBookingTerms","inputs":[{"name":"bookingId","type":"uint256","internalType":"uint256"}],"outputs":[{"name":"","type":"tuple","internalType":"struct SessionEscrowV1.BookingTerms","components":[{"name":"feeBps","type":"uint16","internalType":"uint16"},{"name":"lateCancelPenaltyBps","type":"uint16","internalType":"uint16"},{"name":"challengeWindow","type":"uint48","internalType":"uint48"},{"name":"noAttestBuffer","type":"uint48","internalType":"uint48"},{"name":"disputeTimeout","type":"uint48","internalType":"uint48"},{"name":"challengeBond","type":"uint256","internalType":"uint256"}]}],"stateMutability":"view"},{"type":"function","name":"getRequest","inputs":[{"name":"requestId","type":"uint256","internalType":"uint256"}],"outputs":[{"name":"","type":"tuple","internalType":"struct SessionEscrowV1.SessionRequest","components":[{"name":"hostTarget","type":"address","internalType":"address"},{"name":"guest","type":"address","internalType":"address"},{"name":"windowStart","type":"uint48","internalType":"uint48"},{"name":"windowEnd","type":"uint48","internalType":"uint48"},{"name":"durationMins","type":"uint32","internalType":"uint32"},{"name":"amount","type":"uint256","internalType":"uint256"},{"name":"expiry","type":"uint48","internalType":"uint48"},{"name":"status","type":"uint8","internalType":"enum SessionEscrowV1.SessionRequestStatus"},{"name":"slotId","type":"uint256","internalType":"uint256"},{"name":"bookingId","type":"uint256","internalType":"uint256"},{"name":"host","type":"address","internalType":"address"}]}],"stateMutability":"view"},{"type":"function","name":"getSlot","inputs":[{"name":"slotId","type":"uint256","internalType":"uint256"}],"outputs":[{"name":"","type":"tuple","internalType":"struct SessionEscrowV1.SessionSlot","components":[{"name":"host","type":"address","internalType":"address"},{"name":"startTime","type":"uint48","internalType":"uint48"},{"name":"durationMins","type":"uint32","internalType":"uint32"},{"name":"price","type":"uint256","internalType":"uint256"},{"name":"graceMins","type":"uint32","internalType":"uint32"},{"name":"minOverlapMins","type":"uint32","internalType":"uint32"},{"name":"cancelCutoffMins","type":"uint32","internalType":"uint32"},{"name":"status","type":"uint8","internalType":"enum SessionEscrowV1.SessionSlotStatus"}]}],"stateMutability":"view"},{"type":"function","name":"hostBasePrice","inputs":[{"name":"","type":"address","internalType":"address"}],"outputs":[{"name":"","type":"uint256","internalType":"uint256"}],"stateMutability":"view"},{"type":"function","name":"lateCancelPenaltyBps","inputs":[],"outputs":[{"name":"","type":"uint16","internalType":"uint16"}],"stateMutability":"view"},{"type":"function","name":"nextBookingId","inputs":[],"outputs":[{"name":"","type":"uint256","internalType":"uint256"}],"stateMutability":"view"},{"type":"function","name":"nextRequestId","inputs":[],"outputs":[{"name":"","type":"uint256","internalType":"uint256"}],"stateMutability":"view"},{"type":"function","name":"nextSlotId","inputs":[],"outputs":[{"name":"","type":"uint256","internalType":"uint256"}],"stateMutability":"view"},{"type":"function","name":"noAttestBuffer","inputs":[],"outputs":[{"name":"","type":"uint48","internalType":"uint48"}],"stateMutability":"view"},{"type":"function","name":"oracle","inputs":[],"outputs":[{"name":"","type":"address","internalType":"address"}],"stateMutability":"view"},{"type":"function","name":"owed","inputs":[{"name":"","type":"address","internalType":"address"}],"outputs":[{"name":"","type":"uint256","internalType":"uint256"}],"stateMutability":"view"},{"type":"function","name":"owner","inputs":[],"outputs":[{"name":"","type":"address","internalType":"address"}],"stateMutability":"view"},{"type":"function","name":"paymentToken","inputs":[],"outputs":[{"name":"","type":"address","internalType":"contract IERC20"}],"stateMutability":"view"},{"type":"function","name":"pendingOwner","inputs":[],"outputs":[{"name":"","type":"address","internalType":"address"}],"stateMutability":"view"},{"type":"function","name":"requests","inputs":[{"name":"","type":"uint256","internalType":"uint256"}],"outputs":[{"name":"hostTarget","type":"address","internalType":"address"},{"name":"guest","type":"address","internalType":"address"},{"name":"windowStart","type":"uint48","internalType":"uint48"},{"name":"windowEnd","type":"uint48","internalType":"uint48"},{"name":"durationMins","type":"uint32","internalType":"uint32"},{"name":"amount","type":"uint256","internalType":"uint256"},{"name":"expiry","type":"uint48","internalType":"uint48"},{"name":"status","type":"uint8","internalType":"enum SessionEscrowV1.SessionRequestStatus"},{"name":"slotId","type":"uint256","internalType":"uint256"},{"name":"bookingId","type":"uint256","internalType":"uint256"},{"name":"host","type":"address","internalType":"address"}],"stateMutability":"view"},{"type":"function","name":"resolveDispute","inputs":[{"name":"bookingId","type":"uint256","internalType":"uint256"},{"name":"finalOutcome","type":"uint8","internalType":"enum SessionEscrowV1.Outcome"}],"outputs":[],"stateMutability":"nonpayable"},{"type":"function","name":"setChallengeBond","inputs":[{"name":"a","type":"uint256","internalType":"uint256"}],"outputs":[],"stateMutability":"nonpayable"},{"type":"function","name":"setChallengeWindow","inputs":[{"name":"s","type":"uint48","internalType":"uint48"}],"outputs":[],"stateMutability":"nonpayable"},{"type":"function","name":"setDisputeTimeout","inputs":[{"name":"s","type":"uint48","internalType":"uint48"}],"outputs":[],"stateMutability":"nonpayable"},{"type":"function","name":"setFeeBps","inputs":[{"name":"bps","type":"uint16","internalType":"uint16"}],"outputs":[],"stateMutability":"nonpayable"},{"type":"function","name":"setHostBasePrice","inputs":[{"name":"price","type":"uint256","internalType":"uint256"}],"outputs":[],"stateMutability":"nonpayable"},{"type":"function","name":"setLateCancelPenaltyBps","inputs":[{"name":"bps","type":"uint16","internalType":"uint16"}],"outputs":[],"stateMutability":"nonpayable"},{"type":"function","name":"setNoAttestBuffer","inputs":[{"name":"s","type":"uint48","internalType":"uint48"}],"outputs":[],"stateMutability":"nonpayable"},{"type":"function","name":"setOracle","inputs":[{"name":"o","type":"address","internalType":"address"}],"outputs":[],"stateMutability":"nonpayable"},{"type":"function","name":"setTreasury","inputs":[{"name":"t","type":"address","internalType":"address"}],"outputs":[],"stateMutability":"nonpayable"},{"type":"function","name":"slotToBooking","inputs":[{"name":"","type":"uint256","internalType":"uint256"}],"outputs":[{"name":"","type":"uint256","internalType":"uint256"}],"stateMutability":"view"},{"type":"function","name":"slots","inputs":[{"name":"","type":"uint256","internalType":"uint256"}],"outputs":[{"name":"host","type":"address","internalType":"address"},{"name":"startTime","type":"uint48","internalType":"uint48"},{"name":"durationMins","type":"uint32","internalType":"uint32"},{"name":"price","type":"uint256","internalType":"uint256"},{"name":"graceMins","type":"uint32","internalType":"uint32"},{"name":"minOverlapMins","type":"uint32","internalType":"uint32"},{"name":"cancelCutoffMins","type":"uint32","internalType":"uint32"},{"name":"status","type":"uint8","internalType":"enum SessionEscrowV1.SessionSlotStatus"}],"stateMutability":"view"},{"type":"function","name":"sweepNative","inputs":[],"outputs":[],"stateMutability":"nonpayable"},{"type":"function","name":"sweepTokenExcess","inputs":[],"outputs":[],"stateMutability":"nonpayable"},{"type":"function","name":"totalHeld","inputs":[],"outputs":[{"name":"","type":"uint256","internalType":"uint256"}],"stateMutability":"view"},{"type":"function","name":"transferOwnership","inputs":[{"name":"n","type":"address","internalType":"address"}],"outputs":[],"stateMutability":"nonpayable"},{"type":"function","name":"treasury","inputs":[],"outputs":[{"name":"","type":"address","internalType":"address"}],"stateMutability":"view"},{"type":"function","name":"withdrawOwed","inputs":[],"outputs":[],"stateMutability":"nonpayable"},{"type":"function","name":"withdrawOwed","inputs":[{"name":"to","type":"address","internalType":"address"}],"outputs":[],"stateMutability":"nonpayable"},{"type":"event","name":"Attested","inputs":[{"name":"bookingId","type":"uint256","indexed":true,"internalType":"uint256"},{"name":"outcome","type":"uint8","indexed":false,"internalType":"enum SessionEscrowV1.Outcome"},{"name":"metricsHash","type":"bytes32","indexed":false,"internalType":"bytes32"},{"name":"finalizableAt","type":"uint64","indexed":false,"internalType":"uint64"}],"anonymous":false},{"type":"event","name":"ChallengeBondUpdated","inputs":[{"name":"oldChallengeBond","type":"uint256","indexed":false,"internalType":"uint256"},{"name":"newChallengeBond","type":"uint256","indexed":false,"internalType":"uint256"}],"anonymous":false},{"type":"event","name":"ChallengeWindowUpdated","inputs":[{"name":"oldChallengeWindow","type":"uint48","indexed":false,"internalType":"uint48"},{"name":"newChallengeWindow","type":"uint48","indexed":false,"internalType":"uint48"}],"anonymous":false},{"type":"event","name":"Challenged","inputs":[{"name":"bookingId","type":"uint256","indexed":true,"internalType":"uint256"},{"name":"challenger","type":"address","indexed":true,"internalType":"address"},{"name":"bondAmount","type":"uint256","indexed":false,"internalType":"uint256"}],"anonymous":false},{"type":"event","name":"DisputeTimeoutUpdated","inputs":[{"name":"oldDisputeTimeout","type":"uint48","indexed":false,"internalType":"uint48"},{"name":"newDisputeTimeout","type":"uint48","indexed":false,"internalType":"uint48"}],"anonymous":false},{"type":"event","name":"FeeBpsUpdated","inputs":[{"name":"oldFeeBps","type":"uint16","indexed":false,"internalType":"uint16"},{"name":"newFeeBps","type":"uint16","indexed":false,"internalType":"uint16"}],"anonymous":false},{"type":"event","name":"Finalized","inputs":[{"name":"bookingId","type":"uint256","indexed":true,"internalType":"uint256"},{"name":"finalOutcome","type":"uint8","indexed":false,"internalType":"enum SessionEscrowV1.Outcome"},{"name":"hostPaid","type":"uint256","indexed":false,"internalType":"uint256"},{"name":"guestRefund","type":"uint256","indexed":false,"internalType":"uint256"},{"name":"feePaid","type":"uint256","indexed":false,"internalType":"uint256"}],"anonymous":false},{"type":"event","name":"HostBasePriceSet","inputs":[{"name":"host","type":"address","indexed":true,"internalType":"address"},{"name":"price","type":"uint256","indexed":false,"internalType":"uint256"}],"anonymous":false},{"type":"event","name":"LateCancelPenaltyBpsUpdated","inputs":[{"name":"oldPenaltyBps","type":"uint16","indexed":false,"internalType":"uint16"},{"name":"newPenaltyBps","type":"uint16","indexed":false,"internalType":"uint16"}],"anonymous":false},{"type":"event","name":"NativeSwept","inputs":[{"name":"amount","type":"uint256","indexed":false,"internalType":"uint256"}],"anonymous":false},{"type":"event","name":"NoAttestBufferUpdated","inputs":[{"name":"oldNoAttestBuffer","type":"uint48","indexed":false,"internalType":"uint48"},{"name":"newNoAttestBuffer","type":"uint48","indexed":false,"internalType":"uint48"}],"anonymous":false},{"type":"event","name":"OracleUpdated","inputs":[{"name":"oldOracle","type":"address","indexed":true,"internalType":"address"},{"name":"newOracle","type":"address","indexed":true,"internalType":"address"}],"anonymous":false},{"type":"event","name":"OwedWithdrawn","inputs":[{"name":"from","type":"address","indexed":true,"internalType":"address"},{"name":"to","type":"address","indexed":true,"internalType":"address"},{"name":"amount","type":"uint256","indexed":false,"internalType":"uint256"}],"anonymous":false},{"type":"event","name":"OwnershipTransferStarted","inputs":[{"name":"previousOwner","type":"address","indexed":true,"internalType":"address"},{"name":"pendingOwner","type":"address","indexed":true,"internalType":"address"}],"anonymous":false},{"type":"event","name":"OwnershipTransferred","inputs":[{"name":"previousOwner","type":"address","indexed":true,"internalType":"address"},{"name":"newOwner","type":"address","indexed":true,"internalType":"address"}],"anonymous":false},{"type":"event","name":"Resolved","inputs":[{"name":"bookingId","type":"uint256","indexed":true,"internalType":"uint256"},{"name":"finalOutcome","type":"uint8","indexed":false,"internalType":"enum SessionEscrowV1.Outcome"}],"anonymous":false},{"type":"event","name":"SessionBooked","inputs":[{"name":"bookingId","type":"uint256","indexed":true,"internalType":"uint256"},{"name":"slotId","type":"uint256","indexed":true,"internalType":"uint256"},{"name":"guest","type":"address","indexed":true,"internalType":"address"},{"name":"amount","type":"uint256","indexed":false,"internalType":"uint256"}],"anonymous":false},{"type":"event","name":"SessionBookingCancelled","inputs":[{"name":"bookingId","type":"uint256","indexed":true,"internalType":"uint256"},{"name":"reason","type":"uint8","indexed":false,"internalType":"enum SessionEscrowV1.Outcome"},{"name":"refund","type":"uint256","indexed":false,"internalType":"uint256"},{"name":"penalty","type":"uint256","indexed":false,"internalType":"uint256"},{"name":"hostPaid","type":"uint256","indexed":false,"internalType":"uint256"},{"name":"feePaid","type":"uint256","indexed":false,"internalType":"uint256"}],"anonymous":false},{"type":"event","name":"SessionRequestAccepted","inputs":[{"name":"requestId","type":"uint256","indexed":true,"internalType":"uint256"},{"name":"host","type":"address","indexed":true,"internalType":"address"},{"name":"slotId","type":"uint256","indexed":false,"internalType":"uint256"},{"name":"bookingId","type":"uint256","indexed":false,"internalType":"uint256"},{"name":"startTime","type":"uint48","indexed":false,"internalType":"uint48"}],"anonymous":false},{"type":"event","name":"SessionRequestCancelled","inputs":[{"name":"requestId","type":"uint256","indexed":true,"internalType":"uint256"},{"name":"refund","type":"uint256","indexed":false,"internalType":"uint256"}],"anonymous":false},{"type":"event","name":"SessionRequestCreated","inputs":[{"name":"requestId","type":"uint256","indexed":true,"internalType":"uint256"},{"name":"hostTarget","type":"address","indexed":true,"internalType":"address"},{"name":"guest","type":"address","indexed":true,"internalType":"address"},{"name":"windowStart","type":"uint48","indexed":false,"internalType":"uint48"},{"name":"windowEnd","type":"uint48","indexed":false,"internalType":"uint48"},{"name":"durationMins","type":"uint32","indexed":false,"internalType":"uint32"},{"name":"amount","type":"uint256","indexed":false,"internalType":"uint256"},{"name":"expiry","type":"uint48","indexed":false,"internalType":"uint48"}],"anonymous":false},{"type":"event","name":"SessionSlotCancelled","inputs":[{"name":"slotId","type":"uint256","indexed":true,"internalType":"uint256"}],"anonymous":false},{"type":"event","name":"SessionSlotCreated","inputs":[{"name":"slotId","type":"uint256","indexed":true,"internalType":"uint256"},{"name":"host","type":"address","indexed":true,"internalType":"address"},{"name":"startTime","type":"uint48","indexed":false,"internalType":"uint48"},{"name":"durationMins","type":"uint32","indexed":false,"internalType":"uint32"},{"name":"price","type":"uint256","indexed":false,"internalType":"uint256"}],"anonymous":false},{"type":"event","name":"TokenSwept","inputs":[{"name":"amount","type":"uint256","indexed":false,"internalType":"uint256"}],"anonymous":false},{"type":"event","name":"TreasuryUpdated","inputs":[{"name":"oldTreasury","type":"address","indexed":true,"internalType":"address"},{"name":"newTreasury","type":"address","indexed":true,"internalType":"address"}],"anonymous":false},{"type":"event","name":"UnattestedRefunded","inputs":[{"name":"bookingId","type":"uint256","indexed":true,"internalType":"uint256"},{"name":"refund","type":"uint256","indexed":false,"internalType":"uint256"}],"anonymous":false},{"type":"error","name":"SafeERC20FailedOperation","inputs":[{"name":"token","type":"address","internalType":"address"}]}],"bytecode":{"object":"0x60a0346103b857601f6144e938819003918201601f1916830191906001600160401b038311848410176103bc578161012092859260409586528339810103126103b85761004b826103d0565b6020926100598482016103d0565b6100648483016103d0565b610070606084016103e4565b9061007d608085016103f3565b9160a08501519261009060c087016103e4565b966100aa6101006100a360e08a016103f3565b98016103f3565b976001805f5580600a5580600b5580600c5560018060a01b03809316978815610388578316918215158061037d575b1561034e5761ffff906107d08288161161031b57169761271089116102e45787156102b45762278d0065ffffffffffff90808288161161027e57818c16116102475762ed4e00908c161161020f5767ffffffffffff0000999a9b9c5060805260018060a01b031990338282541617905560035416176003556004549165ffffffffffff60b01b9060b01b1693169063ffffffff60e01b16179061ffff60a01b9060a01b1617176004556005556dffffffffffff000000000000000060065494861b169360018060701b031916179160101b16171760065551335f7f8be0079c531659141344cd1fd0a4f28419497f9722a3daafe3b4186f6b6457e08180a36140e290816104078239608051818181610ec401528181611537015281816127db01528181612ae0015281816136270152613cf30152f35b8b5162461bcd60e51b8152600481018e9052601160248201527054494d454f55545f544f4f5f4c4152474560781b6044820152606490fd5b8c5162461bcd60e51b8152600481018f9052601060248201526f4255464645525f544f4f5f4c4152474560801b6044820152606490fd5b60648f8f519062461bcd60e51b82526004820152601060248201526f57494e444f575f544f4f5f4c4152474560801b6044820152fd5b8b5162461bcd60e51b8152600481018e9052600960248201526816915493d7d093d39160ba1b6044820152606490fd5b8b5162461bcd60e51b8152600481018e9052601060248201526f0a08a9c8298a8b2bea89e9ebe90928e960831b6044820152606490fd5b8c5162461bcd60e51b8152600481018f9052600c60248201526b08c8a8abea89e9ebe90928e960a31b6044820152606490fd5b8b5162461bcd60e51b8152600481018e905260086024820152672120a22fa0a2222960c11b6044820152606490fd5b5083871615156100d9565b8b5162461bcd60e51b8152600481018e905260096024820152682120a22faa27a5a2a760b91b6044820152606490fd5b5f80fd5b634e487b7160e01b5f52604160045260245ffd5b51906001600160a01b03821682036103b857565b519061ffff821682036103b857565b519065ffffffffffff821682036103b85756fe6080604052600436101561004d575b3615610018575f80fd5b60405162461bcd60e51b815260206004820152600d60248201526c09c9ebe8892a48a86a8be8aa89609b1b6044820152606490fd5b5f3560e01c8063023b1fc914612fd2578063046570ea14612fb157806305261aea14612c865780630d9d763e14612bff5780630ec95c4914612b485780631116fd0414612a1f57806318c281a6146129865780631dab301e146128c2578063249d39e9146128a657806324a9d8531461288257806326bc522c1461282757806326f20c791461280a5780633013ce29146127c65780633015394c1461271d57806333fe248b14612343578063387dd9e9146122b357806339a72c5c146122895780634053ef0b1461202c5780634244c4a214611f2357806342cc019a14611e5357806343d859bf14611e2a578063475b019314611e0057806351586ecb14611dc15780635230515114611de35780635bdfbeb514611dc657806360c5849114611dc157806361d027b314611d99578063699eb23f14611cc15780636a5c841a14611b3e5780636a84a98514611b215780637314e04c14611a8157806379ba5097146119e05780637adbf973146119645780637ae15ac1146118f75780637dc0d1d0146118cf5780637eba7ba614611770578063804ebda71461175357806381d12c581461169557806381e4f660146112a757806384ff698514611275578063856b9b03146111a3578063861a14121461117b5780638da5cb5b1461115357806390955aa714610f95578063ab803a7614610f6c578063ab82d9a014610d50578063b8a02e9814610d28578063bdbc483414610b97578063c04c22a414610b6f578063c58343ef146109e4578063df18e047146109ac578063e30c397814610984578063e55e4211146107e2578063f0f4426014610766578063f2fde38b146106ee578063f3ac7d77146106b6578063f43cc77314610699578063f7c40510146103b65763ff2d438b0361000e57346103b25760203660031901126103b2576102f36130cf565b61030860018060a01b03600154163314613150565b65ffffffffffff62ed4e0081831611610379577ffdab44b9ce774464b149f6907fb20c83e884f1f18bd105cb762c1aa7c4939eb3916103746006549165ffffffffffff60401b8160401b1665ffffffffffff60401b1984161760065560405193849360401c16836135ea565b0390a1005b60405162461bcd60e51b815260206004820152601160248201527054494d454f55545f544f4f5f4c4152474560781b6044820152606490fd5b5f80fd5b346103b2576020806003193601126103b257600435906103d960015f541461319d565b60025f55815f52600e815260405f206003810180549060ff821660078110156106855760016104089114613433565b600183019060018060a01b03926104238484541633146133fb565b84545f52600d865260405f209065ffffffffffff9081835460a01c169361044b8542106135ac565b600284019463ffffffff865460401c1690603c820291808304603c14901517156106715760029161047b91613603565b60ff1990931617905542116104f3575050805460ff60601b1916905582545f90815260118552604081205554600290920180545f8051602061404d8339815191529460a09490936104cd929116613c30565b5460405191600583528201525f60408201525f60608201525f6080820152a25b60015f55005b61058461057a91889460036060999798991b60ff60601b19825416179055895f52600f8552600260405f209660016040519889946105308661320e565b815481818c61ffff998a831681528a8360101c169e8f9101521c1660408d0152818160501c1660608d015260801c1660808b0152015460a0890152015494612710938491876134a6565b04955116856134a6565b04946105908685613603565b9461059b8585613603565b936105af886105aa8988613342565b613342565b036106405791858260a09896948680955f8051602061404d8339815191529c9a9861062d575b5050508661061a575b81610607575b5050506040519460058652850152604084015260608301526080820152a26104ed565b610612925416613c30565b8883816105e4565b610628878260045416613c30565b6105de565b610638925416613c30565b8b84826105d5565b60405162461bcd60e51b815260048101899052600960248201526810905117d4d413125560ba1b6044820152606490fd5b634e487b7160e01b5f52601160045260245ffd5b634e487b7160e01b5f52602160045260245ffd5b346103b2575f3660031901126103b2576020600854604051908152f35b346103b25760203660031901126103b2576001600160a01b036106d761313a565b165f526007602052602060405f2054604051908152f35b346103b25760203660031901126103b25761070761313a565b6001546001600160a01b0390811691610721338414613150565b169061072e82151561374a565b600280546001600160a01b031916831790557f38d16b8cac22d99fc7c124b9cd0de2d3fa1faef420bfe791d8c362d765e227005f80a3005b346103b25760203660031901126103b25761077f61313a565b6001546001600160a01b0391829161079a9083163314613150565b16906107a782151561374a565b600480546001600160a01b031981168417909155167f4ab5be82436d353e61ca18726e984e561f5c1cc7c6d38b29d2553c790434705a5f80a3005b346103b25760403660031901126103b25760043560243560068110156103b2576001546001600160a01b03919061081c9083163314613150565b61082960015f541461319d565b60025f55825f52600e60205260405f20906003820192835460ff8116600781101561068557600461085a91146137f1565b5f93600184148015610977575b85908015610968575b61087a915061346c565b60ff8260081c1694600686101561068557610685575f8051602061400d8339815191529560209582545f52600d875260088560405f205416935f87600183015416946006830198895416986108df8b6007860193600585549c60ff19161781556134b9565b6108f46108eb42613c5c565b600586016134d8565b80546001600160a01b0319169055550180546001600160401b031916905583610931575b505050505061092a60405180926130a3565ba260015f55005b851461094c57505061094291613c30565b8480808080610918565b61095c9381036109615750613c30565b610942565b9050613c30565b50610685578460038514610870565b505f945060028414610867565b346103b2575f3660031901126103b2576002546040516001600160a01b039091168152602090f35b346103b25760203660031901126103b2576001600160a01b036109cd61313a565b165f526009602052602060405f2054604051908152f35b346103b25760203660031901126103b2576109fd6136f9565b506004355f52601060205261016060405f2060405190610a1c8261323d565b60018060a01b038154168252600181015460018060a01b038116602084015265ffffffffffff8160a01c16604084015260d01c606083015263ffffffff6002820154166080830152600381015460a083015260ff600482015465ffffffffffff811660c085015260301c16610a90816130b0565b60e083015260058101546101008301526006810154610120830152600760018060a01b03910154166101408201526040519060018060a01b03815116825260018060a01b03602082015116602083015265ffffffffffff604082015116604083015265ffffffffffff606082015116606083015263ffffffff608082015116608083015260a081015160a083015265ffffffffffff60c08201511660c083015260e0810151610b3e816130b0565b60e083015261010081810151908301526101208082015190830152610140908101516001600160a01b031690820152f35b346103b2575f3660031901126103b257602065ffffffffffff60065460401c16604051908152f35b346103b2576020806003193601126103b25760043590610bba60015f541461319d565b60025f55815f52600e815260405f20906003820191825460ff81166007811015610685576001610bea9114613433565b81545f52600d835260405f206001830160018060a01b03908181541633148015610d1c575b610c18906138f4565b825465ffffffffffff9363ffffffff8260d01c1698603c8a0299808b04603c1490151715610671576006610d0e97610ce4610cdc8c8f7f917c69b2cefdfea85d4c0c2794149409e80aa6c099826d9dfcfc306ba043d69b9f9b610c8360029d828f9c60a01c16613342565b915f52600f835260a0600160405f2060405193610c9f8561320e565b808254809861ffff80831689528260101c16818901521c166040860152808760501c169687606087015260801c1660808501520154910152613342565b4210156131d6565b60ff191617905501805460ff60601b1916600160611b179055549190930180549093909116613c30565b54604051908152a260015f55005b50825482163314610c0f565b346103b2575f3660031901126103b257602065ffffffffffff60065460101c16604051908152f35b346103b2576020806003193601126103b257600435610d7260015f541461319d565b60025f55805f52600e825260405f206003810180549060ff8216600781101561068557600303610f385760058301546001600160401b03929060401c8316421015610f0557917ff2cbc3bae809b898e4918c93cc3a0617e734ec62b3fccc2f3e58ce66cb15ad289391600460a09794875f52600f865260405f20600160405191610dfb8361320e565b805461ffff80821685528160101c168a85015265ffffffffffff9081818c1c166040860152818160501c16606086015260801c1660808401520154998a91015284545f52600d8652610e6960405f2060018060a01b03806001890154163314918215610ef7575b50506138f4565b60ff19161790556006820180546001600160a01b03191633179055600782018690556008610e9642613c5c565b920180546001600160401b03191691909216179055600854610eb9908590613342565b600855610ee88430337f0000000000000000000000000000000000000000000000000000000000000000613ba7565b6040519384523393a360015f55005b909150541633148b80610e62565b60405162461bcd60e51b815260048101879052600b60248201526a2ba4a72227abafa7ab22a960a91b6044820152606490fd5b60405162461bcd60e51b815260048101869052600c60248201526b1393d517d055151154d5115160a21b6044820152606490fd5b346103b2575f3660031901126103b257610f8960015f541461319d565b60025f556104ed61382c565b346103b2576020806003193601126103b25760043590610fb860015f541461319d565b60025f55815f52600e815260405f206003810190815460ff81166007811015610685576004610fe791146137f1565b6008820180546001600160401b0316801561111c579160ff939161107b610cdc5f8051602061400d8339815191529897958a5f52600f895260405f20906040516110308161320e565b60a060018c8554809161ffff80831687528260101c168187015265ffffffffffff9283911c166040860152818160501c16606086015260801c16948560808501520154910152613342565b82545f52600d865260018060a01b03928360405f205416915f85600184015416926006810196875416966110ca600783019260058454998d1916178b5560056110c342613c5c565b91016134d8565b80546001600160a01b03191690555580546001600160401b031916905582611103575b505050505460081c1661092a60405180926130a3565b6111139381036109615750613c30565b858080806110ed565b60405162461bcd60e51b815260048101879052600f60248201526e4e4f5f444953505554455f54494d4560881b6044820152606490fd5b346103b2575f3660031901126103b2576001546040516001600160a01b039091168152602090f35b346103b2575f3660031901126103b257602065ffffffffffff60045460b01c16604051908152f35b346103b25760203660031901126103b2576111bc6130cf565b6111d160018060a01b03600154163314613150565b65ffffffffffff62278d008183161161123d577f106f319ff2a7865a563aa99bb7c269b4879041eba2eaf3a25868e9b461fcbd4b916103746004549165ffffffffffff60b01b8160b01b1665ffffffffffff60b01b1984161760045560405193849360b01c16836135ea565b60405162461bcd60e51b815260206004820152601060248201526f57494e444f575f544f4f5f4c4152474560801b6044820152606490fd5b346103b25760203660031901126103b2576104ed61129161313a565b61129e60015f541461319d565b60025f55613ca5565b346103b25760c03660031901126103b2576112c061313a565b6112c86130ba565b906044359065ffffffffffff821682036103b2576112e46130f7565b9260a4359365ffffffffffff851685036103b25761130560015f541461319d565b60025f55608435156116635763ffffffff8116151580611652575b61132990613781565b603c4201804211610671576113479065ffffffffffff84161161356f565b65ffffffffffff821665ffffffffffff851610611620576113714265ffffffffffff871611613501565b65ffffffffffff841665ffffffffffff8616116115ee5760209465ffffffffffff9163ffffffff906001600160a01b0386166115b7575b83600c54976113b6896137bc565b600c556040516113c58161323d565b60018060a01b0389168152338b82015282881660408201528282166060820152848416608082015260843560a082015282861660c0820152600160e08201525f6101008201525f6101208201525f610140820152895f5260108b52600760405f2060018060a01b0383511660018060a01b03198254161781556001810160018060a01b038e8501511660018060a01b031982541617815561146c86604086015116826137ca565b606084015181549060018060d01b03199060d01b169060018060d01b03161790556002810187608085015116881982541617905560a08301516003820155600481018560c08501511681549060e08601516114c6816130b0565b6114cf816130b0565b60ff60301b9060301b169166ffffffffffffff19161717905561010083015160058201556101208301516006820155019061014060018060a01b039101511660018060a01b031982541617905561152a608435600854613342565b60085561155b60843530337f0000000000000000000000000000000000000000000000000000000000000000613ba7565b816040519716875216888601521660408401526084356060840152166080820152827f907d10db0ff880252feccfc2b663663b3bdc8c93b135e429d9c9f157af4fe1aa60a03394600180831b031693a460015f55604051908152f35b6001600160a01b0386165f908152600789526040902054806115da575b506113a8565b6115e8906084351015613537565b886115d4565b60405162461bcd60e51b815260206004820152600a6024820152694241445f45585049525960b01b6044820152606490fd5b60405162461bcd60e51b815260206004820152600a6024820152694241445f57494e444f5760b01b6044820152606490fd5b5060f063ffffffff82161115611320565b60405162461bcd60e51b815260206004820152600a60248201526910905117d05353d5539560b21b6044820152606490fd5b346103b25760203660031901126103b2576004355f52601060205261016060405f2060018060a01b038082541691600181015465ffffffffffff63ffffffff60028401541690600384015460048501549060ff8260301c169360058701549588600760068a015499015416986040519a8b52811660208b0152848160a01c1660408b015260d01c60608a0152608089015260a08801521660c086015261173a816130b0565b60e0850152610100840152610120830152610140820152f35b346103b2575f3660031901126103b2576020600a54604051908152f35b346103b25760203660031901126103b2575f60e060405161179081613259565b8281528260208201528260408201528260608201528260808201528260a08201528260c082015201526004355f52600d60205261010060405f2060ff6002604051926117db84613259565b63ffffffff815460018060a01b038116865265ffffffffffff8160a01c16602087015260d01c16604085015260018101546060850152015463ffffffff8116608084015263ffffffff8160201c1660a084015263ffffffff8160401c1660c084015260601c1661184a816130b0565b60e082015260e06040519160018060a01b03815116835265ffffffffffff602082015116602084015263ffffffff60408201511660408401526060810151606084015263ffffffff608082015116608084015263ffffffff60a08201511660a084015263ffffffff60c08201511660c084015201516118c8816130b0565b60e0820152f35b346103b2575f3660031901126103b2576003546040516001600160a01b039091168152602090f35b346103b25760203660031901126103b2576004355f52600f60205260c060405f20805461ffff91600165ffffffffffff910154916040519380821685528160101c166020850152818160201c166040850152818160501c16606085015260801c16608083015260a0820152f35b346103b25760203660031901126103b25761197d61313a565b6001546001600160a01b039182916119989083163314613150565b16906119a582151561374a565b600380546001600160a01b031981168417909155167f078c3b417dadf69374a59793b829c52001247130433427049317bde56607b1b75f80a3005b346103b2575f3660031901126103b2576002546001600160a01b038082169133839003611a4857600180546001600160a01b031980821686179092559116600255167f8be0079c531659141344cd1fd0a4f28419497f9722a3daafe3b4186f6b6457e05f80a3005b60405162461bcd60e51b81526020600482015260116024820152702727aa2fa822a72224a723afa7aba722a960791b6044820152606490fd5b346103b25760a03660031901126103b257611a9a6130cf565b6024359063ffffffff821682036103b257611ab36130e4565b611abb6130f7565b611ac361310a565b91335f52600760205260405f20548015611aec57602095611ae49533613d79565b604051908152f35b60405162461bcd60e51b815260206004820152600d60248201526c4e4f5f424153455f505249434560981b6044820152606490fd5b346103b2575f3660031901126103b2576020600c54604051908152f35b346103b25760203660031901126103b257611b576136f9565b506004355f52600e60205260405f20604051611b728161323d565b8154815260018201546001600160a01b0316602082015260028201546040820152600382015460ff81169060078210156106855760ff91606084015260081c16916006831015610685576080820192909252600482015460a082015260058201546001600160401b0380821660c0840152604091821c811660e084015260068401546001600160a01b03908116610100850152600785015461012085015260089094015416610140830152805182518152602080840151909416938101939093528082015190830152606080820151610160939291611c549190840190613096565b611c66608082015160808401906130a3565b60a0818101519083015260c0808201516001600160401b039081169184019190915260e080830151821690840152610100808301516001600160a01b0316908401526101208083015190840152610140918201511690820152f35b346103b2576020806003193601126103b25760c0905f60a0604051611ce58161320e565b828152828482015282604082015282606082015282608082015201526004355f52600f815260405f2060a060405191611d1d8361320e565b6001815480928561ffff9788841698898352818301818660101c16815265ffffffffffff98899788968760806040890198828c8a1c168a5282606082019c60501c168c52019b60801c168b5201549a01998a526040519a8b525116908901525116604087015251166060850152511660808301525160a0820152f35b346103b2575f3660031901126103b2576004546040516001600160a01b039091168152602090f35b61311d565b346103b2575f3660031901126103b257602060405162ed4e008152f35b346103b2575f3660031901126103b2576020600554604051908152f35b346103b25760203660031901126103b2576004355f526011602052602060405f2054604051908152f35b346103b2575f3660031901126103b257611e4760015f541461319d565b60025f556104ed613610565b346103b25760203660031901126103b257611e6c6130cf565b611e8160018060a01b03600154163314613150565b65ffffffffffff62278d0081831611611eeb577f61b085e37d382d88a75cdf179d9194385e8a90499677f858cf6c5c48a9afa8bf916103746006549167ffffffffffff00008160101b1667ffffffffffff00001984161760065560405193849360101c16836135ea565b60405162461bcd60e51b815260206004820152601060248201526f4255464645525f544f4f5f4c4152474560801b6044820152606490fd5b346103b25760203660031901126103b257600435611f4460015f541461319d565b60025f55805f52600e60205260405f20600381019081549060ff8216600781101561068557600260a093815f8051602061404d83398151915296611f8d60016120059614613433565b85545f52600d60205260405f209082825494611fc765ffffffffffff6001808d1b0397611fbd338a831614613298565b8c1c1642106135ac565b60ff191617905501805460ff60601b1916600160611b17905583545f9081526011602052604081205560018401549190930180549093909116613c30565b54604051906004825260208201525f60408201525f60608201525f6080820152a260015f55005b346103b25760a03660031901126103b2576004356120486130ba565b906120516130e4565b9061205a6130f7565b9061206361310a565b9161207160015f541461319d565b60025f55815f526020916010835260405f209360048501948554936120a7600160ff8760301c166120a1816130b0565b146132cf565b6120bc65ffffffffffff809616421115613501565b600182018054909890936001600160a01b0392338487161461224e57908392918c948654168061223d575b50335f5260078a5260405f205496898815159687612228575b16998160a01c168a1015908161221a575b50156121ea57603c4201928342116106715760409d6007986121639761213b612154978e1161356f565b156121de57905b63ffffffff60028a0154169033613d79565b9854166003830154908961392c565b865460ff60301b1916600360301b1790965560058101879055600681018690550180546001600160a01b03191633908117909155865186815284810186905280880193909352917fe6d90ea495ccfaee0ee4e68d1bc346d0f33e53f9853f691c4f2c9b3284994ddb90606090a360015f558351928352820152f35b50600388015490612142565b60405162461bcd60e51b8152600481018b905260086024820152674241445f54494d4560c01b6044820152606490fd5b905060d01c8911158e612111565b6122388a60038b01541015613537565b612100565b612248903314613298565b8d6120e7565b60405162461bcd60e51b8152600481018a9052601360248201527211d55154d517d0d0539393d517d050d0d15415606a1b6044820152606490fd5b346103b2575f3660031901126103b2576122a660015f541461319d565b60025f556104ed33613ca5565b346103b25760203660031901126103b2576004355f52600d60205261010060405f2080549063ffffffff6002600183015492015460ff8160601c1692826040519560018060a01b038116875265ffffffffffff8160a01c16602088015260d01c16604086015260608501528181166080850152818160201c1660a085015260401c1660c08301526118c8816130b0565b346103b25760603660031901126103b257600435600660243510156103b2576003546001600160a01b031633036126eb57805f52600e60205260405f20600381015460ff8116600781101561068557600161239e9114613433565b6123ab602435151561346c565b5f60016024351480156126dd575b8181156126cb575b50156126915782545f52600d60205260405f209081549163ffffffff8360d01c169283603c810204603c148415171561067157600261240e603c860265ffffffffffff8460a01c16613342565b92015463ffffffff8116603c810290808204603c1490151715610671576124409065ffffffffffff8460a01c16613342565b93610685576002602435148015612685575b156125e1575050508042106125ab57603c61246e920290613342565b4211612573575f8051602061406d8339815191529160036060925b60ff19161760038201556124a2602435600383016134b9565b604435600482015560056124b542613c5c565b910180546001600160401b0319166001600160401b039283161781555f858152600f602052604090819020905161254e916125489161254391906124f88161320e565b60a0600183549361ffff80861685528560101c16602085015265ffffffffffff808660201c1695866040870152818160501c168d87015260801c166080850152015491015242613342565b613c5c565b826134d8565b5460401c1660405190612563826024356130a3565b60443560208301526040820152a2005b60405162461bcd60e51b815260206004820152601060248201526f4e4f5f53484f575f544f4f5f4c41544560801b6044820152606490fd5b60405162461bcd60e51b815260206004820152600e60248201526d23a920a1a2afa727aa2fa7ab22a960911b6044820152606490fd5b90925063ffffffff9195935060201c16603c810290808204603c14901517156106715765ffffffffffff6126189260a01c16613342565b421061264e57611c2083018093116106715760036060926126495f8051602061406d8339815191529542111561334f565b612489565b60405162461bcd60e51b815260206004820152600f60248201526e13d5915493105417d393d517d35155608a1b6044820152606490fd5b50600360243514612452565b60405162461bcd60e51b81526020600482015260126024820152714241445f4154544553545f4f5554434f4d4560701b6044820152606490fd5b905061068557600360243514816123c1565b50505f6002602435146123b9565b60405162461bcd60e51b815260206004820152600a6024820152694e4f545f4f5241434c4560b01b6044820152606490fd5b346103b25760203660031901126103b25760043561273e60015f541461319d565b60025f55805f5260106020527f94684a270daf50c31a66751a64dea889bc82836f26721c7fc1bab4ff445b6912602060405f20610d0e60036004830192835493612793600160ff8760301c166120a1816130b0565b60018201546001600160a01b0316946127ad3387146133fb565b60ff60301b1916600160311b1790550180549092613c30565b346103b2575f3660031901126103b2576040517f00000000000000000000000000000000000000000000000000000000000000006001600160a01b03168152602090f35b346103b2575f3660031901126103b2576020600b54604051908152f35b346103b25760203660031901126103b2576004356128468115156133c3565b335f5260076020528060405f20556040519081527f4e6c8dfd21634b9172efbe1eeee02b6311ba19d102e37d9570677a3ad47212fe60203392a2005b346103b2575f3660031901126103b257602061ffff60045460a01c16604051908152f35b346103b2575f3660031901126103b25760206040516127108152f35b346103b25760203660031901126103b2576004355f52600e60205261016060405f2080549060018060a01b039081600182015416916002820154906003830154600484015461295c60058601549260018060401b03946006880154169585600860078a015499015416986040519a8b5260208b015260408a015261294c60608a0160ff8316613096565b60ff60808a019160081c166130a3565b60a087015281811660c087015260401c1660e0850152610100840152610120830152610140820152f35b346103b25760203660031901126103b2576004356129af60018060a01b03600154163314613150565b80156129ee5760407f27dee1ef8a88ee5cc611b2f0fb4dfc4eb15d16866782c4c848c9c48f4a86eae691600554908060055582519182526020820152a1005b60405162461bcd60e51b815260206004820152600960248201526816915493d7d093d39160ba1b6044820152606490fd5b346103b25760203660031901126103b257600435612a4060015f541461319d565b60025f55805f52600d60205260405f2090612a6e60ff600284015460601c16612a68816130b0565b15613306565b8154603c420180421161067157612a919065ffffffffffff8360a01c161161334f565b815f526011602052612aa760405f205415613386565b6001600160a01b03163314612b1057612b04612acc600160209401548093339061392c565b91612ad981600854613342565b60085530337f0000000000000000000000000000000000000000000000000000000000000000613ba7565b60015f55604051908152f35b60405162461bcd60e51b815260206004820152601060248201526f484f53545f43414e4e4f545f424f4f4b60801b6044820152606490fd5b346103b25760203660031901126103b25760043561ffff8082168083036103b257612b7e60018060a01b03600154163314613150565b6127108111612bc7576103747fea93df5a714cf271a61bd5ee9a7c1b86d1d16f41a20f84f1b2500f90dda3af94936006549261ffff198416176006556040519384931683613188565b60405162461bcd60e51b815260206004820152601060248201526f0a08a9c8298a8b2bea89e9ebe90928e960831b6044820152606490fd5b346103b25760203660031901126103b257600435805f52600d602052600260405f20612c3560018060a01b038254163314613298565b018054612c5160ff8260601c16612c4b816130b0565b156132cf565b60ff60601b1916600160611b1790557fd04692252eb386bc1bc47a15f8bf6bc81bc702521ef547c018d2afa2fb2d384b5f80a2005b346103b2576020806003193601126103b25760043590612ca960015f541461319d565b60025f55815f52600e815260405f20600381019081549160ff831660078110156106855760038114908115612fa6575b5015612f6f576005820154612cfc9060401c6001600160401b03164210156131d6565b81545f52600d845260405f2090855f52600f8552600660405f2094604051612d238161320e565b60a0600188549861ffff998a81169a8b86528160101c168c860152808c65ffffffffffff9283911c166040870152818160501c16606087015260801c166080850152015491015260ff191617815560028201600360601b60ff60601b1982541617905560ff815460081c169360018060a01b038093541690600284600187015416950154955f955f965f9260068110158061068557600182148015612f63575b15612e5c5750505050505f80516020613fed833981519152969492869492612dfd612710612df560ff9560809b6134a6565b048097613603565b938680612e48575b50508380612e38575b50505b5460081c1693612e2460405180966130a3565b84015260408301526060820152a260015f55005b612e4191613c30565b8983612e0e565b612e559160045416613c30565b8a86612e05565b809a969399959298949a61068557600282148015612f57575b15612ea7575050505050509160ff5f80516020613fed833981519152969492612ea2856080989695613c30565b612e11565b9295995092965092965061068557600503612f20575f80516020613fed833981519152969492869492612ee4612710612df560ff9560809b6134a6565b938680612f0c575b50508380612efc575b5050612e11565b612f0591613c30565b8983612ef5565b612f199160045416613c30565b8a86612eec565b60405162461bcd60e51b815260048101889052600f60248201526e554e4b4e4f574e5f4f5554434f4d4560881b6044820152606490fd5b50505f60048214612e75565b50505f60038214612dc3565b60405162461bcd60e51b815260048101859052600f60248201526e4e4f545f46494e414c495a41424c4560881b6044820152606490fd5b600591501486612cd9565b346103b2575f3660031901126103b257602061ffff60065416604051908152f35b346103b25760203660031901126103b25760043561ffff8082168083036103b2576107d09061300c60018060a01b03600154163314613150565b11613062577f8d10f5697a370f640ed5d474159aba3cc86e9bc260a5e9d2db875ad992cb1a1f916103746004549161ffff60a01b8160a01b1661ffff60a01b1984161760045560405193849360a01c1683613188565b60405162461bcd60e51b815260206004820152600c60248201526b08c8a8abea89e9ebe90928e960a31b6044820152606490fd5b9060078210156106855752565b9060068210156106855752565b6004111561068557565b6024359065ffffffffffff821682036103b257565b6004359065ffffffffffff821682036103b257565b6044359063ffffffff821682036103b257565b6064359063ffffffff821682036103b257565b6084359063ffffffff821682036103b257565b346103b2575f3660031901126103b257602060405162278d008152f35b600435906001600160a01b03821682036103b257565b1561315757565b60405162461bcd60e51b81526020600482015260096024820152682727aa2fa7aba722a960b91b6044820152606490fd5b61ffff91821681529116602082015260400190565b156131a457565b60405162461bcd60e51b815260206004820152600a6024820152695245454e5452414e435960b01b6044820152606490fd5b156131dd57565b60405162461bcd60e51b8152602060048201526009602482015268544f4f5f4541524c5960b81b6044820152606490fd5b60c081019081106001600160401b0382111761322957604052565b634e487b7160e01b5f52604160045260245ffd5b61016081019081106001600160401b0382111761322957604052565b61010081019081106001600160401b0382111761322957604052565b601f909101601f19168101906001600160401b0382119082101761322957604052565b1561329f57565b60405162461bcd60e51b81526020600482015260086024820152671393d517d213d4d560c21b6044820152606490fd5b156132d657565b60405162461bcd60e51b81526020600482015260086024820152672727aa2fa7a822a760c11b6044820152606490fd5b1561330d57565b60405162461bcd60e51b815260206004820152600d60248201526c4e4f545f415641494c41424c4560981b6044820152606490fd5b9190820180921161067157565b1561335657565b60405162461bcd60e51b8152602060048201526008602482015267544f4f5f4c41544560c01b6044820152606490fd5b1561338d57565b60405162461bcd60e51b815260206004820152600e60248201526d1053149150511657d093d3d2d15160921b6044820152606490fd5b156133ca57565b60405162461bcd60e51b81526020600482015260096024820152684241445f505249434560b81b6044820152606490fd5b1561340257565b60405162461bcd60e51b81526020600482015260096024820152681393d517d1d55154d560ba1b6044820152606490fd5b1561343a57565b60405162461bcd60e51b815260206004820152600a6024820152691393d517d093d3d2d15160b21b6044820152606490fd5b1561347357565b60405162461bcd60e51b815260206004820152600b60248201526a4241445f4f5554434f4d4560a81b6044820152606490fd5b8181029291811591840414171561067157565b9060068110156106855761ff0082549160081b169061ff001916179055565b8054600160401b600160801b03191660409290921b600160401b600160801b0316919091179055565b1561350857565b60405162461bcd60e51b81526020600482015260076024820152661156141254915160ca1b6044820152606490fd5b1561353e57565b60405162461bcd60e51b81526020600482015260096024820152682627abafa7a32322a960b91b6044820152606490fd5b1561357657565b60405162461bcd60e51b815260206004820152600e60248201526d29aa20a92a2faa27a7afa9a7a7a760911b6044820152606490fd5b156135b357565b60405162461bcd60e51b815260206004820152600f60248201526e1053149150511657d4d51054951151608a1b6044820152606490fd5b65ffffffffffff91821681529116602082015260400190565b9190820391821161067157565b6040516370a0823160e01b815230600482015260207f00000000000000000000000000000000000000000000000000000000000000006001600160a01b0382846024818486165afa9081156136ee575f916136b2575b5f8051602061402d833981519152945060085491828111156136a55761369c9261368f91613603565b9283916004541690613f8d565b604051908152a1565b505050506040515f8152a1565b90508284813d83116136e7575b6136c98183613275565b810103126103b2575f8051602061402d833981519152935190613666565b503d6136bf565b6040513d5f823e3d90fd5b604051906137068261323d565b5f610140838281528260208201528260408201528260608201528260808201528260a08201528260c08201528260e082015282610100820152826101208201520152565b1561375157565b60405162461bcd60e51b81526020600482015260086024820152672120a22fa0a2222960c11b6044820152606490fd5b1561378857565b60405162461bcd60e51b815260206004820152600c60248201526b2120a22fa22aa920aa24a7a760a11b6044820152606490fd5b5f1981146106715760010190565b805465ffffffffffff60a01b191660a09290921b65ffffffffffff60a01b16919091179055565b156137f857565b60405162461bcd60e51b815260206004820152600c60248201526b1393d517d11254d41555115160a21b6044820152606490fd5b4780156138da575f8080808460018060a01b03600454165af13d156138d5573d6001600160401b0381116132295760405190613872601f8201601f191660200183613275565b81525f60203d92013e5b1561389b5760205f8051602061408d83398151915291604051908152a1565b60405162461bcd60e51b815260206004820152601260248201527113905512559157d4d1539117d1905253115160721b6044820152606490fd5b61387c565b505f8051602061408d83398151915260206040515f8152a1565b156138fb57565b60405162461bcd60e51b81526020600482015260096024820152684e4f545f504152545960b81b6044820152606490fd5b929192805f52602093600d85526040946002865f20019061395760ff835460601c16612a68816130b0565b835f526011815261396b875f205415613386565b600b5492613978846137bc565b600b558397855f526011835284815f20558051936139958561323d565b8685525f8486019860018060a01b03809116998a815284880191868352606089019860018a528a89608083019487865260a084019488865260c085019689885260e08601988a8a52600e6101008801958c87526101208901978d89526101408a019d8e525f52528c5f209651875582600188019451169360018060a01b03199485825416179055516002870155600386019e516007811015610685578f9060ff801983541691161790555195600687101561068557613a787f629dc84b4562ce5134c489592d47293cdad8e89d7ea6523a2bf064bb954a30579f976008986134b9565b51600486015595516005850180546001600160401b03199081166001600160401b039384161782559851919791613ab291908916906134d8565b60068501925116908254161790555160078201550192511690825416179055600454600161ffff6006549065ffffffffffff9160055492875195613af58761320e565b838160a01c1687528a8701938084168552828a89019260b01c1682526060880192808560101c16845260808901948b1c16845260a088019586528d5f52600f8c52895f2097511663ffff00008854955160101b169165ffffffffffff60201b90518d1b169265ffffffffffff60501b905160501b169365ffffffffffff60801b905160801b1694878060b01b0319161717171717835551910155600160601b60ff60601b1982541617905551908152a4565b6040516323b872dd60e01b5f9081526001600160a01b03938416600452938316602452604494909452909160209060648180855af160015f5114811615613c11575b836040525f60605215613bfb57505050565b635274afe760e01b835216600482015260249150fd5b6001811516613c2757813b15153d151616613be9565b833d5f823e3d90fd5b8115613c585760018060a01b03165f526009602052613c5460405f20918254613342565b9055565b5050565b6001600160401b0390818111613c70571690565b60405162461bcd60e51b815260206004820152600d60248201526c54494d455f4f564552464c4f5760981b6044820152606490fd5b6001600160a01b03811690613cbb82151561374a565b335f52600960205260405f2054908115613d455781613d1791335f5260096020525f6040812055613cee82600854613603565b6008557f0000000000000000000000000000000000000000000000000000000000000000613f8d565b6040519081527fa6cd4410234ac9de9d1307f26fd9ec5124f511a9135d59c0904879dd8ae28e1060203392a3565b60405162461bcd60e51b815260206004820152600c60248201526b1393d512125391d7d3d5d15160a21b6044820152606490fd5b9094969593929196613d8c8315156133c3565b603c42019384421161067157613dad65ffffffffffff80981695861161356f565b63ffffffff80809a169283151580613f82575b613dc990613781565b1695828711613f4f578916956127608711613f1d57600a548097613dec826137bc565b600a55819b604096875190613e0082613259565b600160a01b600190038091169c8d835260208301908c82528a8401918a835260608501938d855286608087019b168b5260a08601998a5260c0860197885260e08601985f8a525f52600d6020528c5f20955116600160a01b60019003198654161785555116613e6f90846137ca565b5182549063ffffffff60d01b9060d01b169063ffffffff60d01b191617825551600182015560020194511684549363ffffffff60201b905160201b169163ffffffff60401b9051881b169251613ec4816130b0565b613ecd816130b0565b60ff60601b9060601b1693600160681b6001900319161717171790558151938452602084015282015260607f0a7485cbe2641ede2fefae85de83e7807d709f95d409e3c32aa6cbc795e860d291a3565b60405162461bcd60e51b815260206004820152600a6024820152692120a22fa1aaaa27a32360b11b6044820152606490fd5b60405162461bcd60e51b815260206004820152600b60248201526a04241445f4f5645524c41560ac1b6044820152606490fd5b5060f0841115613dc0565b60405163a9059cbb60e01b5f9081526001600160a01b039384166004526024949094529260209060448180855af160015f5114811615613fd6575b8360405215613bfb57505050565b6001811516613c2757813b15153d151616613fc856fed96b99f82f8b864e76999d053eb26c3447b27db4b1ac5bbdb7ca128edc47e8af8a1c7850cb95b6648c597d19ad5a66ce32698f83f344546e66f4229ce5dacff9aea05ec7362bb7ab2c09b63a3a833265687676386ad1fcdcfbda550fd80fcf1ac933a7a4f002c0d60bdc00ce06c642f38f9e3f02dc9887ac471261e20cf0e76d24864fe9462927cd9bc51f0ddd3cfcaa0bf2716a83459138d79d7e1e35a36f4c1ed033bc10f1dd641f4df398853976d2b76ee062cce863301929fe8ee8336faaa2646970667358221220bd6ab4b9371f2ca4bf9a0c0e82fc471ed65ca0621895f3bbdd6812423d70bade64736f6c63430008190033","linkReferences":{}},"methodIdentifiers":{"BPS()":"249d39e9","MAX_CHALLENGE_WINDOW()":"51586ecb","MAX_DISPUTE_TIMEOUT()":"5bdfbeb5","MAX_NO_ATTEST_BUFFER()":"60c58491","acceptOwnership()":"79ba5097","acceptRequest(uint256,uint48,uint32,uint32,uint32)":"4053ef0b","attest(uint256,uint8,bytes32)":"33fe248b","book(uint256)":"1116fd04","bookingTerms(uint256)":"7ae15ac1","bookings(uint256)":"1dab301e","cancelBookingAsGuest(uint256)":"f7c40510","cancelBookingAsHost(uint256)":"4244c4a2","cancelRequest(uint256)":"3015394c","cancelSlot(uint256)":"0d9d763e","challenge(uint256)":"ab82d9a0","challengeBond()":"52305151","challengeWindow()":"861a1412","claimIfUnattested(uint256)":"bdbc4834","createRequest(address,uint48,uint48,uint32,uint256,uint48)":"81e4f660","createSlot(uint48,uint32,uint32,uint32,uint32)":"7314e04c","disputeTimeout()":"c04c22a4","feeBps()":"24a9d853","finalize(uint256)":"05261aea","finalizeDisputeByTimeout(uint256)":"90955aa7","getBooking(uint256)":"6a5c841a","getBookingTerms(uint256)":"699eb23f","getRequest(uint256)":"c58343ef","getSlot(uint256)":"7eba7ba6","hostBasePrice(address)":"f3ac7d77","lateCancelPenaltyBps()":"046570ea","nextBookingId()":"26f20c79","nextRequestId()":"6a84a985","nextSlotId()":"804ebda7","noAttestBuffer()":"b8a02e98","oracle()":"7dc0d1d0","owed(address)":"df18e047","owner()":"8da5cb5b","paymentToken()":"3013ce29","pendingOwner()":"e30c3978","requests(uint256)":"81d12c58","resolveDispute(uint256,uint8)":"e55e4211","setChallengeBond(uint256)":"18c281a6","setChallengeWindow(uint48)":"856b9b03","setDisputeTimeout(uint48)":"ff2d438b","setFeeBps(uint16)":"023b1fc9","setHostBasePrice(uint256)":"26bc522c","setLateCancelPenaltyBps(uint16)":"0ec95c49","setNoAttestBuffer(uint48)":"42cc019a","setOracle(address)":"7adbf973","setTreasury(address)":"f0f44260","slotToBooking(uint256)":"475b0193","slots(uint256)":"387dd9e9","sweepNative()":"ab803a76","sweepTokenExcess()":"43d859bf","totalHeld()":"f43cc773","transferOwnership(address)":"f2fde38b","treasury()":"61d027b3","withdrawOwed()":"39a72c5c","withdrawOwed(address)":"84ff6985"},"id":6}