{"abi":[{"type":"constructor","inputs":[{"name":"operator_","type":"address","internalType":"address"},{"name":"paymentToken_","type":"address","internalType":"address"},{"name":"treasury_","type":"address","internalType":"address"}],"stateMutability":"nonpayable"},{"type":"function","name":"CREDITS_PER_FULFILL","inputs":[],"outputs":[{"name":"","type":"uint256","internalType":"uint256"}],"stateMutability":"view"},{"type":"function","name":"CREDIT_PRICE","inputs":[],"outputs":[{"name":"","type":"uint256","internalType":"uint256"}],"stateMutability":"view"},{"type":"function","name":"MAX_STUDY_SET_REF","inputs":[],"outputs":[{"name":"","type":"uint256","internalType":"uint256"}],"stateMutability":"view"},{"type":"function","name":"buyCredits","inputs":[{"name":"creditCount","type":"uint256","internalType":"uint256"}],"outputs":[],"stateMutability":"nonpayable"},{"type":"function","name":"computeStudySetKey","inputs":[{"name":"trackId","type":"bytes32","internalType":"bytes32"},{"name":"langHash","type":"bytes32","internalType":"bytes32"},{"name":"version","type":"uint8","internalType":"uint8"}],"outputs":[{"name":"","type":"bytes32","internalType":"bytes32"}],"stateMutability":"pure"},{"type":"function","name":"credits","inputs":[{"name":"","type":"address","internalType":"address"}],"outputs":[{"name":"","type":"uint256","internalType":"uint256"}],"stateMutability":"view"},{"type":"function","name":"fulfillFromCredit","inputs":[{"name":"user","type":"address","internalType":"address"},{"name":"trackId","type":"bytes32","internalType":"bytes32"},{"name":"lang","type":"string","internalType":"string"},{"name":"version","type":"uint8","internalType":"uint8"},{"name":"studySetRef","type":"string","internalType":"string"},{"name":"studySetHash","type":"bytes32","internalType":"bytes32"}],"outputs":[{"name":"studySetKey","type":"bytes32","internalType":"bytes32"}],"stateMutability":"nonpayable"},{"type":"function","name":"getStudySet","inputs":[{"name":"trackId","type":"bytes32","internalType":"bytes32"},{"name":"lang","type":"string","internalType":"string"},{"name":"version","type":"uint8","internalType":"uint8"}],"outputs":[{"name":"studySetRef","type":"string","internalType":"string"},{"name":"studySetHash","type":"bytes32","internalType":"bytes32"},{"name":"submitter","type":"address","internalType":"address"},{"name":"createdAt","type":"uint64","internalType":"uint64"},{"name":"exists","type":"bool","internalType":"bool"}],"stateMutability":"view"},{"type":"function","name":"hashLang","inputs":[{"name":"lang","type":"string","internalType":"string"}],"outputs":[{"name":"","type":"bytes32","internalType":"bytes32"}],"stateMutability":"pure"},{"type":"function","name":"isOperator","inputs":[{"name":"","type":"address","internalType":"address"}],"outputs":[{"name":"","type":"bool","internalType":"bool"}],"stateMutability":"view"},{"type":"function","name":"owner","inputs":[],"outputs":[{"name":"","type":"address","internalType":"address"}],"stateMutability":"view"},{"type":"function","name":"paymentToken","inputs":[],"outputs":[{"name":"","type":"address","internalType":"contract IERC20Like"}],"stateMutability":"view"},{"type":"function","name":"setOperator","inputs":[{"name":"operator_","type":"address","internalType":"address"},{"name":"active","type":"bool","internalType":"bool"}],"outputs":[],"stateMutability":"nonpayable"},{"type":"function","name":"studySetPaidBy","inputs":[{"name":"","type":"bytes32","internalType":"bytes32"}],"outputs":[{"name":"","type":"address","internalType":"address"}],"stateMutability":"view"},{"type":"function","name":"studySets","inputs":[{"name":"","type":"bytes32","internalType":"bytes32"}],"outputs":[{"name":"studySetRef","type":"string","internalType":"string"},{"name":"studySetHash","type":"bytes32","internalType":"bytes32"},{"name":"submitter","type":"address","internalType":"address"},{"name":"createdAt","type":"uint64","internalType":"uint64"},{"name":"exists","type":"bool","internalType":"bool"}],"stateMutability":"view"},{"type":"function","name":"transferOwnership","inputs":[{"name":"newOwner","type":"address","internalType":"address"}],"outputs":[],"stateMutability":"nonpayable"},{"type":"function","name":"treasury","inputs":[],"outputs":[{"name":"","type":"address","internalType":"address"}],"stateMutability":"view"},{"type":"event","name":"CreditsConsumed","inputs":[{"name":"user","type":"address","indexed":true,"internalType":"address"},{"name":"studySetKey","type":"bytes32","indexed":true,"internalType":"bytes32"},{"name":"creditsUsed","type":"uint256","indexed":false,"internalType":"uint256"},{"name":"newBalance","type":"uint256","indexed":false,"internalType":"uint256"}],"anonymous":false},{"type":"event","name":"CreditsPurchased","inputs":[{"name":"user","type":"address","indexed":true,"internalType":"address"},{"name":"creditsAdded","type":"uint256","indexed":false,"internalType":"uint256"},{"name":"totalCost","type":"uint256","indexed":false,"internalType":"uint256"},{"name":"newBalance","type":"uint256","indexed":false,"internalType":"uint256"}],"anonymous":false},{"type":"event","name":"OperatorUpdated","inputs":[{"name":"operator","type":"address","indexed":true,"internalType":"address"},{"name":"active","type":"bool","indexed":false,"internalType":"bool"}],"anonymous":false},{"type":"event","name":"OwnerUpdated","inputs":[{"name":"newOwner","type":"address","indexed":true,"internalType":"address"}],"anonymous":false},{"type":"event","name":"StudySetRegistered","inputs":[{"name":"studySetKey","type":"bytes32","indexed":true,"internalType":"bytes32"},{"name":"trackId","type":"bytes32","indexed":true,"internalType":"bytes32"},{"name":"langHash","type":"bytes32","indexed":true,"internalType":"bytes32"},{"name":"version","type":"uint8","indexed":false,"internalType":"uint8"},{"name":"studySetRef","type":"string","indexed":false,"internalType":"string"},{"name":"studySetHash","type":"bytes32","indexed":false,"internalType":"bytes32"},{"name":"submitter","type":"address","indexed":false,"internalType":"address"},{"name":"paidBy","type":"address","indexed":false,"internalType":"address"}],"anonymous":false},{"type":"error","name":"Reentrancy","inputs":[]},{"type":"error","name":"Unauthorized","inputs":[]},{"type":"error","name":"ZeroAddress","inputs":[]}],"bytecode":{"object":"0x60c03461015557601f6110ab38819003918201601f191683019291906001600160401b038411838510176101595781606092849260409687528339810103126101555761004b8161016d565b6100628361005b6020850161016d565b930161016d565b60016002556001600160a01b0391821692909190831561014457811690811561014457821615610133573360018060a01b03195f5416175f55825f526001602052835f20600160ff1982541617905560805260a0527f966c160e1c4dbc7df8d69af4ace01e9297c3cf016397b7914971f2fbfa32672d60208351337f4ffd725fc4a22075e9ec71c59edf9c38cdeb588a91b24fc5b61388c5be41282b5f80a260018152a251610f29908161018282396080518181816109a20152610af3015260a0518181816108d60152610ab90152f35b835163d92e233d60e01b8152600490fd5b845163d92e233d60e01b8152600490fd5b5f80fd5b634e487b7160e01b5f52604160045260245ffd5b51906001600160a01b03821682036101555756fe6080806040526004361015610012575f80fd5b5f3560e01c9081630c4dfe3f14610a53575080631183383714610a385780631bd4cbef146109d15780633013ce291461098d578063558a72971461090557806361d027b3146108c15780636d70f7ae1461088457806378aa88f31461033e57806389c05eeb1461030c5780638da5cb5b146102e55780638e3b785c146102bc5780639fc018161461029f578063d7b82e2614610200578063d92c6f0a146101bd578063ebfe885b146101a2578063f2fde38b146101135763fe5ff468146100d7575f80fd5b3461010f57602036600319011261010f576001600160a01b036100f8610dc3565b165f526003602052602060405f2054604051908152f35b5f80fd5b3461010f57602036600319011261010f5761012c610dc3565b5f54906001600160a01b03908183163303610191571690811561017f576001600160a01b03191681175f9081557f4ffd725fc4a22075e9ec71c59edf9c38cdeb588a91b24fc5b61388c5be41282b9080a2005b60405163d92e233d60e01b8152600490fd5b6040516282b42960e81b8152600490fd5b3461010f575f36600319011261010f57602060405160018152f35b3461010f57602036600319011261010f576004356001600160401b03811161010f576101f86101f26020923690600401610dd9565b90610e89565b604051908152f35b3461010f57606036600319011261010f576001600160401b0360243581811161010f57610248610237610250923690600401610dd9565b610242929192610e06565b92610e89565b600435610e4d565b5f52600460205260405f209061029b600183015491610273600285015494610cc7565b60405194859460e082901c60ff169360a083901c16926001600160a01b039092169186610d69565b0390f35b3461010f575f36600319011261010f576020604051620186a08152f35b3461010f57606036600319011261010f5760206101f86102da610e06565b602435600435610e4d565b3461010f575f36600319011261010f575f546040516001600160a01b039091168152602090f35b3461010f57602036600319011261010f576004355f526005602052602060018060a01b0360405f205416604051908152f35b3461010f5760c036600319011261010f57610357610dc3565b6044356001600160401b03811161010f57610376903690600401610dd9565b919060ff606435166064350361010f576084356001600160401b03811161010f576103a5903690600401610dd9565b919093335f52600160205260ff60405f20541615610191576001600160a01b03841615610853576024351561081f5780156107ed5760ff60643516156107b95782156107885760a083116107545760a43515610723576001600160a01b0384165f908152600360205260409020546001116106e75761042391610e89565b9061043360643583602435610e4d565b92835f52600460205260405f209060ff600283015460e01c166106aa576001600160a01b0381165f90815260036020526040902080545f190190556001600160401b038311610696576104868254610c6c565b601f8111610651575b5060209585915f9385601f81116001146105de575f80516020610ed483398151915294955f916105d3575b508660011b905f198860031b1c19161781555b60a435600182810191909155600290910180546001600160a01b0319908116331782555f87815260058c52604080822080549093166001600160a01b0387169081179093558354600160a01b600160e81b0319164260a01b600160a01b600160e01b031617600160e01b1790935581815260038c52829020548251938452838c0152869290917f4be4dc5c09fea9801dd10aaf79b3fc8e0a05332d0dcf5ac315a1fc384cf7b90591a3846040519260ff60643516845260a08a8501528160a085015260c08401375f60c0868401015260a435604083015233606083015260018060a01b0316608082015260c08160243595601f80199101168101030190a4604051908152f35b90508301358a6104ba565b50805f52885f205f5b601f198816811061063757505f80516020610ed4833981519152949587601f1981161061061e575b5050600186811b0181556104cd565b8401355f19600389901b60f8161c19169055898061060f565b848701358255958a01958995506001909101908a016105e7565b825f5260205f20601f850160051c8101916020861061068c575b601f0160051c01905b818110610681575061048f565b5f8155600101610674565b909150819061066b565b634e487b7160e01b5f52604160045260245ffd5b60405162461bcd60e51b81526020600482015260156024820152741cdd1d591e481cd95d08185b1c9958591e481cd95d605a1b6044820152606490fd5b60405162461bcd60e51b8152602060048201526014602482015273696e73756666696369656e74206372656469747360601b6044820152606490fd5b60405162461bcd60e51b81526020600482015260096024820152680f4cae4de40d0c2e6d60bb1b6044820152606490fd5b60405162461bcd60e51b815260206004820152600c60248201526b72656620746f6f206c6f6e6760a01b6044820152606490fd5b60405162461bcd60e51b815260206004820152600960248201526832b6b83a3c903932b360b91b6044820152606490fd5b60405162461bcd60e51b815260206004820152600c60248201526b3d32b937903b32b939b4b7b760a11b6044820152606490fd5b60405162461bcd60e51b815260206004820152600a602482015269656d707479206c616e6760b01b6044820152606490fd5b60405162461bcd60e51b815260206004820152600c60248201526b1e995c9bc81d1c9858dad25960a21b6044820152606490fd5b60405162461bcd60e51b81526020600482015260096024820152683d32b937903ab9b2b960b91b6044820152606490fd5b3461010f57602036600319011261010f576001600160a01b036108a5610dc3565b165f526001602052602060ff60405f2054166040519015158152f35b3461010f575f36600319011261010f576040517f00000000000000000000000000000000000000000000000000000000000000006001600160a01b03168152602090f35b3461010f57604036600319011261010f5761091e610dc3565b6024359081151580920361010f575f546001600160a01b03919082163303610191571690811561017f5760207f966c160e1c4dbc7df8d69af4ace01e9297c3cf016397b7914971f2fbfa32672d91835f526001825260405f2060ff1981541660ff8316179055604051908152a2005b3461010f575f36600319011261010f576040517f00000000000000000000000000000000000000000000000000000000000000006001600160a01b03168152602090f35b3461010f57602036600319011261010f576004355f52600460205260405f206109f981610cc7565b600182015460029092015460405192839261029b9260ff60e082901c16926001600160401b0360a083901c16926001600160a01b039092169186610d69565b3461010f575f36600319011261010f57602060405160a08152f35b3461010f5760208060031936011261010f5760043591600160025403610c5d5750600280558115610c2a57620186a0808302908382048103610b9f5783610a9c91830414610e16565b6040516323b872dd60e01b81523360048201526001600160a01b037f000000000000000000000000000000000000000000000000000000000000000081166024830152604482018390528390829060649082905f907f0000000000000000000000000000000000000000000000000000000000000000165af1908115610c1f575f91610be9575b5015610bb357335f526003825260405f205491838301809311610b9f57335f5260038152610b5760405f2054841015610e16565b335f52600381528260405f205560405193845283015260408201527f7852f393fd6a99c61648e39af92ae0e784b77281fc2af871edce1b51304ecd7c60603392a26001600255005b634e487b7160e01b5f52601160045260245ffd5b60405162461bcd60e51b815260048101839052600e60248201526d1c185e5b595b9d0819985a5b195960921b6044820152606490fd5b90508281813d8311610c18575b610c008183610ca4565b8101031261010f5751801515810361010f5784610b23565b503d610bf6565b6040513d5f823e3d90fd5b6064906040519062461bcd60e51b82526004820152600c60248201526b7a65726f206372656469747360a01b6044820152fd5b63558a1e0360e11b8152600490fd5b90600182811c92168015610c9a575b6020831014610c8657565b634e487b7160e01b5f52602260045260245ffd5b91607f1691610c7b565b601f909101601f19168101906001600160401b0382119082101761069657604052565b9060405191825f8254610cd981610c6c565b908184526020946001916001811690815f14610d475750600114610d09575b505050610d0792500383610ca4565b565b5f90815285812095935091905b818310610d2f575050610d0793508201015f8080610cf8565b85548884018501529485019487945091830191610d16565b92505050610d0794925060ff191682840152151560051b8201015f8080610cf8565b93909260c060206080959897949860a0885280519182918260a08b0152018389015e5f828289010152601f801991011686010196602086015260018060a01b0316604085015260018060401b031660608401521515910152565b600435906001600160a01b038216820361010f57565b9181601f8401121561010f578235916001600160401b03831161010f576020838186019501011161010f57565b6044359060ff8216820361010f57565b15610e1d57565b60405162461bcd60e51b81526020600482015260086024820152676f766572666c6f7760c01b6044820152606490fd5b9160ff9060405192602084019485526040840152166060820152606081526080810181811060018060401b038211176106965760405251902090565b906001600160401b0381116106965760405190610eb0601f8201601f191660200183610ca4565b8082526020820192368282011161010f57815f926020928637830101525190209056fe5ec5e1f729ec5c4b910024655a50d5505889270aaae0cea41a476113da0f91cba26469706673582212201054f5a7490555b6eb0ebd8e644af5d21f1e155f28eb91ff6cdd545aa753406a64736f6c63430008190033","linkReferences":{}},"methodIdentifiers":{"CREDITS_PER_FULFILL()":"ebfe885b","CREDIT_PRICE()":"9fc01816","MAX_STUDY_SET_REF()":"11833837","buyCredits(uint256)":"0c4dfe3f","computeStudySetKey(bytes32,bytes32,uint8)":"8e3b785c","credits(address)":"fe5ff468","fulfillFromCredit(address,bytes32,string,uint8,string,bytes32)":"78aa88f3","getStudySet(bytes32,string,uint8)":"d7b82e26","hashLang(string)":"d92c6f0a","isOperator(address)":"6d70f7ae","owner()":"8da5cb5b","paymentToken()":"3013ce29","setOperator(address,bool)":"558a7297","studySetPaidBy(bytes32)":"89c05eeb","studySets(bytes32)":"1bd4cbef","transferOwnership(address)":"f2fde38b","treasury()":"61d027b3"},"id":58}