{"abi":[{"type":"constructor","inputs":[{"name":"operator_","type":"address","internalType":"address"}],"stateMutability":"nonpayable"},{"type":"function","name":"MAX_CID","inputs":[],"outputs":[{"name":"","type":"uint256","internalType":"uint256"}],"stateMutability":"view"},{"type":"function","name":"MAX_SCROBBLES","inputs":[],"outputs":[{"name":"","type":"uint256","internalType":"uint256"}],"stateMutability":"view"},{"type":"function","name":"MAX_STR","inputs":[],"outputs":[{"name":"","type":"uint256","internalType":"uint256"}],"stateMutability":"view"},{"type":"function","name":"MAX_TRACK_REG","inputs":[],"outputs":[{"name":"","type":"uint256","internalType":"uint256"}],"stateMutability":"view"},{"type":"function","name":"getTrack","inputs":[{"name":"trackId","type":"bytes32","internalType":"bytes32"}],"outputs":[{"name":"title","type":"string","internalType":"string"},{"name":"artist","type":"string","internalType":"string"},{"name":"album","type":"string","internalType":"string"},{"name":"kind","type":"uint8","internalType":"uint8"},{"name":"payload","type":"bytes32","internalType":"bytes32"},{"name":"registeredAt","type":"uint64","internalType":"uint64"},{"name":"coverCid","type":"string","internalType":"string"},{"name":"durationSec","type":"uint32","internalType":"uint32"}],"stateMutability":"view"},{"type":"function","name":"getTrackLyrics","inputs":[{"name":"trackId","type":"bytes32","internalType":"bytes32"}],"outputs":[{"name":"","type":"string","internalType":"string"}],"stateMutability":"view"},{"type":"function","name":"isOperator","inputs":[{"name":"","type":"address","internalType":"address"}],"outputs":[{"name":"","type":"bool","internalType":"bool"}],"stateMutability":"view"},{"type":"function","name":"isRegistered","inputs":[{"name":"trackId","type":"bytes32","internalType":"bytes32"}],"outputs":[{"name":"","type":"bool","internalType":"bool"}],"stateMutability":"view"},{"type":"function","name":"overwriteTrackCover","inputs":[{"name":"trackId","type":"bytes32","internalType":"bytes32"},{"name":"coverRef","type":"string","internalType":"string"}],"outputs":[],"stateMutability":"nonpayable"},{"type":"function","name":"overwriteTrackLyrics","inputs":[{"name":"trackId","type":"bytes32","internalType":"bytes32"},{"name":"lyricsRef","type":"string","internalType":"string"}],"outputs":[],"stateMutability":"nonpayable"},{"type":"function","name":"owner","inputs":[],"outputs":[{"name":"","type":"address","internalType":"address"}],"stateMutability":"view"},{"type":"function","name":"registerAndScrobbleBatch","inputs":[{"name":"user","type":"address","internalType":"address"},{"name":"regKinds","type":"uint8[]","internalType":"uint8[]"},{"name":"regPayloads","type":"bytes32[]","internalType":"bytes32[]"},{"name":"titles","type":"string[]","internalType":"string[]"},{"name":"artists","type":"string[]","internalType":"string[]"},{"name":"albums","type":"string[]","internalType":"string[]"},{"name":"durations","type":"uint32[]","internalType":"uint32[]"},{"name":"trackIds","type":"bytes32[]","internalType":"bytes32[]"},{"name":"timestamps","type":"uint64[]","internalType":"uint64[]"}],"outputs":[],"stateMutability":"nonpayable"},{"type":"function","name":"registerTracksBatch","inputs":[{"name":"kinds","type":"uint8[]","internalType":"uint8[]"},{"name":"payloads","type":"bytes32[]","internalType":"bytes32[]"},{"name":"titles","type":"string[]","internalType":"string[]"},{"name":"artists","type":"string[]","internalType":"string[]"},{"name":"albums","type":"string[]","internalType":"string[]"},{"name":"durations","type":"uint32[]","internalType":"uint32[]"}],"outputs":[],"stateMutability":"nonpayable"},{"type":"function","name":"registerTracksForUser","inputs":[{"name":"user","type":"address","internalType":"address"},{"name":"kinds","type":"uint8[]","internalType":"uint8[]"},{"name":"payloads","type":"bytes32[]","internalType":"bytes32[]"},{"name":"titles","type":"string[]","internalType":"string[]"},{"name":"artists","type":"string[]","internalType":"string[]"},{"name":"albums","type":"string[]","internalType":"string[]"},{"name":"durations","type":"uint32[]","internalType":"uint32[]"}],"outputs":[],"stateMutability":"nonpayable"},{"type":"function","name":"scrobbleBatch","inputs":[{"name":"user","type":"address","internalType":"address"},{"name":"trackIds","type":"bytes32[]","internalType":"bytes32[]"},{"name":"timestamps","type":"uint64[]","internalType":"uint64[]"}],"outputs":[],"stateMutability":"nonpayable"},{"type":"function","name":"setOperator","inputs":[{"name":"operator_","type":"address","internalType":"address"},{"name":"active","type":"bool","internalType":"bool"}],"outputs":[],"stateMutability":"nonpayable"},{"type":"function","name":"setTrackCover","inputs":[{"name":"trackId","type":"bytes32","internalType":"bytes32"},{"name":"coverCid","type":"string","internalType":"string"}],"outputs":[],"stateMutability":"nonpayable"},{"type":"function","name":"setTrackCoverBatch","inputs":[{"name":"trackIds","type":"bytes32[]","internalType":"bytes32[]"},{"name":"coverCids","type":"string[]","internalType":"string[]"}],"outputs":[],"stateMutability":"nonpayable"},{"type":"function","name":"setTrackCoverFor","inputs":[{"name":"user","type":"address","internalType":"address"},{"name":"trackId","type":"bytes32","internalType":"bytes32"},{"name":"coverRef","type":"string","internalType":"string"}],"outputs":[],"stateMutability":"nonpayable"},{"type":"function","name":"setTrackLyricsFor","inputs":[{"name":"user","type":"address","internalType":"address"},{"name":"trackId","type":"bytes32","internalType":"bytes32"},{"name":"lyricsRef","type":"string","internalType":"string"}],"outputs":[],"stateMutability":"nonpayable"},{"type":"function","name":"trackLyricsRefs","inputs":[{"name":"","type":"bytes32","internalType":"bytes32"}],"outputs":[{"name":"","type":"string","internalType":"string"}],"stateMutability":"view"},{"type":"function","name":"tracks","inputs":[{"name":"","type":"bytes32","internalType":"bytes32"}],"outputs":[{"name":"title","type":"string","internalType":"string"},{"name":"artist","type":"string","internalType":"string"},{"name":"album","type":"string","internalType":"string"},{"name":"coverCid","type":"string","internalType":"string"},{"name":"payload","type":"bytes32","internalType":"bytes32"},{"name":"kind","type":"uint8","internalType":"uint8"},{"name":"durationSec","type":"uint32","internalType":"uint32"},{"name":"registeredAt","type":"uint64","internalType":"uint64"},{"name":"exists","type":"bool","internalType":"bool"}],"stateMutability":"view"},{"type":"function","name":"transferOwnership","inputs":[{"name":"newOwner","type":"address","internalType":"address"}],"outputs":[],"stateMutability":"nonpayable"},{"type":"function","name":"updateTrack","inputs":[{"name":"trackId","type":"bytes32","internalType":"bytes32"},{"name":"title","type":"string","internalType":"string"},{"name":"artist","type":"string","internalType":"string"},{"name":"album","type":"string","internalType":"string"}],"outputs":[],"stateMutability":"nonpayable"},{"type":"event","name":"OperatorUpdated","inputs":[{"name":"operator","type":"address","indexed":true,"internalType":"address"},{"name":"active","type":"bool","indexed":false,"internalType":"bool"}],"anonymous":false},{"type":"event","name":"OwnerUpdated","inputs":[{"name":"newOwner","type":"address","indexed":true,"internalType":"address"}],"anonymous":false},{"type":"event","name":"Scrobbled","inputs":[{"name":"user","type":"address","indexed":true,"internalType":"address"},{"name":"trackId","type":"bytes32","indexed":true,"internalType":"bytes32"},{"name":"timestamp","type":"uint64","indexed":false,"internalType":"uint64"}],"anonymous":false},{"type":"event","name":"TrackCoverOverwritten","inputs":[{"name":"trackId","type":"bytes32","indexed":true,"internalType":"bytes32"},{"name":"coverCid","type":"string","indexed":false,"internalType":"string"}],"anonymous":false},{"type":"event","name":"TrackCoverSet","inputs":[{"name":"trackId","type":"bytes32","indexed":true,"internalType":"bytes32"},{"name":"coverCid","type":"string","indexed":false,"internalType":"string"}],"anonymous":false},{"type":"event","name":"TrackLyricsOverwritten","inputs":[{"name":"trackId","type":"bytes32","indexed":true,"internalType":"bytes32"},{"name":"lyricsRef","type":"string","indexed":false,"internalType":"string"}],"anonymous":false},{"type":"event","name":"TrackLyricsSet","inputs":[{"name":"trackId","type":"bytes32","indexed":true,"internalType":"bytes32"},{"name":"lyricsRef","type":"string","indexed":false,"internalType":"string"}],"anonymous":false},{"type":"event","name":"TrackRegistered","inputs":[{"name":"trackId","type":"bytes32","indexed":true,"internalType":"bytes32"},{"name":"kind","type":"uint8","indexed":true,"internalType":"uint8"},{"name":"payload","type":"bytes32","indexed":false,"internalType":"bytes32"},{"name":"metaHash","type":"bytes32","indexed":true,"internalType":"bytes32"},{"name":"registeredAt","type":"uint64","indexed":false,"internalType":"uint64"},{"name":"durationSec","type":"uint32","indexed":false,"internalType":"uint32"}],"anonymous":false},{"type":"event","name":"TrackUpdated","inputs":[{"name":"trackId","type":"bytes32","indexed":true,"internalType":"bytes32"},{"name":"metaHash","type":"bytes32","indexed":true,"internalType":"bytes32"}],"anonymous":false},{"type":"error","name":"NotUserSender","inputs":[]},{"type":"error","name":"Unauthorized","inputs":[]},{"type":"error","name":"ZeroAddress","inputs":[]}],"bytecode":{"object":"0x6080346100ee57601f6127a438819003918201601f19168301916001600160401b038311848410176100f2578084926020946040528339810103126100ee57516001600160a01b038116908190036100ee5780156100dc573360018060a01b03195f5416175f55805f52600160205260405f20600160ff198254161790557f966c160e1c4dbc7df8d69af4ace01e9297c3cf016397b7914971f2fbfa32672d6020604051337f4ffd725fc4a22075e9ec71c59edf9c38cdeb588a91b24fc5b61388c5be41282b5f80a260018152a260405161269d90816101078239f35b60405163d92e233d60e01b8152600490fd5b5f80fd5b634e487b7160e01b5f52604160045260245ffdfe6101006040526004361015610012575f80fd5b5f3560e01c806302d626d3146117e95780630810900914611722578063098910611461171d57806315e84f451461170257806327258b22146116cd5780633062c3a4146116b25780634538e55a1461150157806345eb98a6146111da5780634a18285514610dcc578063547d703514611028578063558a729714610fa057806357e8eb6b14610e4b5780636d70f7ae14610e0e5780636f750e2614610dcc57806373f7f8dc14610ba557806382368a6b14610abd578063886599ab146109a55780638da5cb5b1461097e5780639f80ccae146107ff578063a911a25114610694578063be67d07c146104d3578063cc891ece1461023d578063e5e0042c146101b55763f2fde38b14610122575f80fd5b346101b15760203660031901126101b15761013b611925565b5f54906001600160a01b039081831633036101a0571690811561018e576001600160a01b03191681175f9081557f4ffd725fc4a22075e9ec71c59edf9c38cdeb588a91b24fc5b61388c5be41282b9080a2005b60405163d92e233d60e01b8152600490fd5b6040516282b42960e81b8152600490fd5b5f80fd5b346101b15760603660031901126101b1576101ce611925565b6001600160401b036024358181116101b1576101ee90369060040161193b565b916044359081116101b15761020790369060040161193b565b9290916001600160a01b038516801561018e57330361022b576102299461246f565b005b604051636916f8c760e01b8152600490fd5b346101b1576101203660031901126101b157610257611925565b6001600160401b036024358181116101b15761027790369060040161193b565b60e052916044358281116101b15761029390369060040161193b565b906064358481116101b1576102ac90369060040161193b565b6084358681116101b1576102c490369060040161193b565b9060a4358881116101b1576102dd90369060040161193b565b92909360c4358a81116101b1576102f890369060040161193b565b96909760e4358c81116101b15761031390369060040161193b565b9d909c61010435116101b15761032f366101043560040161193b565b60c0526080526001600160a01b038c16801561018e57330361022b5760e051610367575b506102298c8c8f60c051926080519261246f565b8a60e05114806104c8575b806104bd575b806104b2575b806104a7575b1561046c57603260e05111610431575f60a0525b60e05160a0511015610353576104238b8b8b8b8b8b8b8b61041d61041861040c6104008f8f908f6103f4926103df6103da6103e99360a0519060e05190611a89565b611aad565b9f60a05191611a89565b359660a05191611abb565b97909660a05191611abb565b98909760a05191611abb565b99909860a05191611a89565b611afc565b9761241d565b600160a0510160a052610398565b60405162461bcd60e51b815260206004820152601360248201527272656720626174636820746f6f206c6172676560681b6044820152606490fd5b60405162461bcd60e51b81526020600482015260136024820152720e4cace40d8cadccee8d040dad2e6dac2e8c6d606b1b6044820152606490fd5b508860e05114610384565b508660e0511461037e565b508460e05114610378565b508360e05114610372565b346101b1576104e136611998565b90335f526001906020916001835260ff60405f205416156101a057845f526002835261051960ff600560405f20015460681c16611b0d565b610524841515611cc0565b6105316080851115611cf8565b845f526003835261054560405f2054611804565b1561065e575f8581526003845260409020906001600160401b03851161064a57610579856105738454611804565b84611c02565b5f90601f86116001146105d35750916105c3916105af86805f805160206126088339815191529897965f916105c8575b50611c51565b90555b604051938385948552840191611c63565b0390a2005b90508401358a6105a9565b90601f198616835f52855f20925f905b828210610633575050916105c39391875f80516020612608833981519152989796941061061a575b5050600185811b0190556105b2565b8301355f19600388901b60f8161c19169055878061060b565b8684013585559384019392870192908701906105e3565b634e487b7160e01b5f52604160045260245ffd5b60405162461bcd60e51b815260048101849052600e60248201526d1b1e5c9a58dcc81b9bdd081cd95d60921b6044820152606490fd5b346101b1576106a2366119cb565b91926001600160a01b0316801561018e57330361022b57825f52602090600282526106d960ff600560405f20015460681c16611b0d565b6106e4831515611cc0565b6106f16080841115611cf8565b835f526003825261070560405f2054611804565b6107c5575f84815260038352604090206001600160401b03841161064a57610737846107318354611804565b83611c02565b5f601f851160011461076a57916105c3916105af86805f805160206126488339815191529897965f916105c85750611c51565b601f19851690825f52845f20915f5b8181106107ae5750916105c39391875f80516020612648833981519152989796941061061a575050600185811b0190556105b2565b919286600181928689013581550194019201610779565b60405162461bcd60e51b81526004810183905260126024820152711b1e5c9a58dcc8185b1c9958591e481cd95d60721b6044820152606490fd5b346101b15761080d36611998565b90335f526001906020916001835260ff60405f205416156101a057845f526002835260405f2061084660ff600583015460681c16611b0d565b841561094d57608085116109195760030190815461086c61086682611804565b15611d33565b6001600160401b03861161064a578561057361088792611804565b5f90601f86116001146108bc5750916105c3916105af86805f805160206125e88339815191529897965f916105c85750611c51565b90601f198616835f52855f20925f905b828210610902575050916105c39391875f805160206125e8833981519152989796941061061a575050600185811b0190556105b2565b8684013585559384019392870192908701906108cc565b60405162461bcd60e51b815260048101859052600c60248201526b63696420746f6f206c6f6e6760a01b6044820152606490fd5b60405162461bcd60e51b8152600481018590526009602482015268195b5c1d1e4818da5960ba1b6044820152606490fd5b346101b1575f3660031901126101b1575f546040516001600160a01b039091168152602090f35b346101b1576109b3366119cb565b91926001600160a01b0316801561018e57330361022b57825f5260209060028252600360405f206109ed60ff600583015460681c16611b0d565b6109f8851515611cc0565b610a056080861115611cf8565b018054610a1461086682611804565b6001600160401b03851161064a5784610731610a2f92611804565b5f601f8511600114610a6257916105c3916105af86805f805160206125e88339815191529897965f916105c85750611c51565b601f19851690825f52845f20915f5b818110610aa65750916105c39391875f805160206125e8833981519152989796941061061a575050600185811b0190556105b2565b919286600181928689013581550194019201610a71565b346101b15760203660031901126101b1576004355f526002602052610b4a60405f206005810154610af360ff8260681c16611b0d565b63ffffffff610b976004840154610b098561185f565b94610b66610b196001830161185f565b91610b58610b356003610b2e6002850161185f565b930161185f565b936040519a8b9a610100808d528c0190611901565b908a820360208c0152611901565b9088820360408a0152611901565b60ff861660608801526080870192909252602885901c6001600160401b031660a087015285820360c0870152611901565b9160081c1660e08301520390f35b346101b15760403660031901126101b1576004356001600160401b0381116101b157610bd590369060040161193b565b6024356001600160401b0381116101b157610bf490369060040161193b565b335f52600160205260ff60405f205416156101a057610c14818414611a0d565b610c216032841115611a4b565b5f5b838110610c2c57005b610c37818587611a89565b355f52600260205260405f2060ff600582015460681c1680610db7575b80610da0575b80610d8c575b610c6e575b50600101610c23565b610c79828486611abb565b906001600160401b03821161064a57610ca282610c996003860154611804565b60038601611c02565b5f90601f8311600114610d1e57826001959493600393610cca935f92610d13575b5050611c51565b9101555b610cd9818688611a89565b355f805160206125e8833981519152610cf3838688611abb565b610d0a604051928392602084526020840191611c63565b0390a290610c65565b013590508b80610cc3565b600384015f5260205f20915f5b601f1985168110610d74575092600392600196959492879383601f19811610610d5d575b505050811b01910155610cce565b01355f1983861b60f8161c191690558a8080610d4f565b82820135845560019093019260209182019101610d2b565b50610d9a6003820154611804565b15610c60565b506080610dae838587611abb565b90501115610c5a565b50610dc3828486611abb565b90501515610c54565b346101b15760203660031901126101b1576004355f526003602052610e0a610df660405f2061185f565b604051918291602083526020830190611901565b0390f35b346101b15760203660031901126101b1576001600160a01b03610e2f611925565b165f526001602052602060ff60405f2054166040519015158152f35b346101b157610e5936611998565b90335f526001906020916001835260ff60405f205416156101a057845f5260028352600360405f20610e9460ff600583015460681c16611b0d565b610e9f861515611cc0565b610eac6080871115611cf8565b01908154610eb981611804565b15610f6b576001600160401b03861161064a5785610573610ed992611804565b5f90601f8611600114610f0e5750916105c3916105af86805f805160206126288339815191529897965f916105c85750611c51565b90601f198616835f52855f20925f905b828210610f54575050916105c39391875f80516020612628833981519152989796941061061a575050600185811b0190556105b2565b868401358555938401939287019290870190610f1e565b60405162461bcd60e51b815260048101869052600d60248201526c18dbdd995c881b9bdd081cd95d609a1b6044820152606490fd5b346101b15760403660031901126101b157610fb9611925565b602435908115158092036101b1575f546001600160a01b039190821633036101a0571690811561018e5760207f966c160e1c4dbc7df8d69af4ace01e9297c3cf016397b7914971f2fbfa32672d91835f526001825260405f2060ff1981541660ff8316179055604051908152a2005b346101b15760c03660031901126101b1576001600160401b036004358181116101b15761105990369060040161193b565b6024929192358281116101b15761107490369060040161193b565b916044358481116101b15761108d90369060040161193b565b9290946064358181116101b1576110a890369060040161193b565b6084929192358281116101b1576110c390369060040161193b565b93909260a4359081116101b1576110de90369060040161193b565b969095335f5260019b600160205260ff60405f205416156101a0578a8314806111d1575b806111c8575b806111bf575b806111b6575b61111d90611a0d565b61112a6032841115611a4b565b5f5b83811061113557005b808c8f928f8c8f928f928c8f928f9290808f928f908f8f908461115b8180968195611a89565b61116490611aad565b9e61116e92611a89565b359b61117992611abb565b95611185929195611abb565b96611191929196611abb565b9761119d929197611a89565b6111a690611afc565b966111b09861241d565b0161112c565b50828914611114565b5086831461110e565b50848314611108565b50898314611102565b346101b15760803660031901126101b1576004356001600160401b036024358181116101b15761120e90369060040161196b565b90916044358181116101b15761122890369060040161196b565b906064358381116101b15761124190369060040161196b565b929091335f5260019460209580875260ff60405f205416156101a057895f526002875260405f2061127b60ff600583015460681c16611b0d565b61128860808a1115611b4a565b6112956080861115611b87565b6112a26080881115611bc5565b82891161064a576112b7896107318354611804565b5f89601f811160011461149457806112d5925f916114895750611c51565b81555b8181019083861161064a576112f1866105738454611804565b5f9186601f81116001146114225780611313916002955f916114175750611c51565b90555b0191861161064a5761132c866105738454611804565b5f90601f87116001146113ad57509185939161135885611378999861136a98965f916113a25750611c51565b90555b6040519788968701998a611c83565b03601f19810183528261183c565b519020907f6f18b9c6009a070f802165814ef94a948ea726e7b520b5310345d865f74990875f80a3005b90508601358e6105a9565b90601f19871690835f52885f20915f5b81811061140257509161136a97959391896113789b9a989694106113e9575b505085811b01905561135b565b8601355f19600389901b60f8161c191690558c806113dc565b88830135845592840192918a01918a016113bd565b90508801355f6105a9565b505f8181528a8120909388601f1981165b8d8882891061146f5750506002965010611456575b50508387811b019055611316565b8701355f1960038a901b60f8161c191690558d80611448565b848c013586559781019790940193909201918a9150611433565b90508c01358e6105a9565b50601f198a1690825f528a8a5f20928d8c875f925b8484106114e15750505050106114c8575b50508189811b0181556112d8565b8b01355f1960038c901b60f8161c191690558b806114ba565b8294955095809791929396013581550194019201908c918c8f88906114a9565b346101b15760e03660031901126101b15761151a611925565b6001600160401b03906024358281116101b15761153b90369060040161193b565b92906044358281116101b15761155590369060040161193b565b93906064358481116101b15761156f90369060040161193b565b9490966084358281116101b15761158a90369060040161193b565b9160a4358481116101b1576115a390369060040161193b565b95909460c4359081116101b1576115be90369060040161193b565b9890976001600160a01b0316801561018e57330361022b578a8314806116a9575b806116a0575b80611697575b8061168e575b6115fa90611a0d565b6116076032841115611a4b565b5f5b83811061161257005b8b8b8b8f8b8b8b8f938880808f938f8f8f6116308580948193611a89565b61163990611aad565b9e61164392611a89565b359b61164e92611abb565b9561165a929195611abb565b96611666929196611abb565b97611672929197611a89565b61167b90611afc565b9661168598611db8565b50600101611609565b508289146115f1565b508683146115eb565b508483146115e5565b508983146115df565b346101b1575f3660031901126101b157602060405160328152f35b346101b15760203660031901126101b1576004355f526002602052602060ff600560405f20015460681c166040519015158152f35b346101b1575f3660031901126101b157602060405160c88152f35b6117e9565b346101b15760203660031901126101b1576004355f526002602052610b4a60405f2061174d8161185f565b9060ff61175c6001830161185f565b6117ab61176b6002850161185f565b61179d61177a6003870161185f565b91610b5860056004890154980154956040519a8b9a610120808d528c0190611901565b908682036060880152611901565b92608085015281811660a085015263ffffffff8160081c1660c085015260018060401b038160281c1660e085015260681c1615156101008301520390f35b346101b1575f3660031901126101b157602060405160808152f35b90600182811c92168015611832575b602083101461181e57565b634e487b7160e01b5f52602260045260245ffd5b91607f1691611813565b601f909101601f19168101906001600160401b0382119082101761064a57604052565b9060405191825f825461187181611804565b908184526020946001916001811690815f146118df57506001146118a1575b50505061189f9250038361183c565b565b5f90815285812095935091905b8183106118c757505061189f93508201015f8080611890565b855488840185015294850194879450918301916118ae565b9250505061189f94925060ff191682840152151560051b8201015f8080611890565b805180835260209291819084018484015e5f828201840152601f01601f1916010190565b600435906001600160a01b03821682036101b157565b9181601f840112156101b1578235916001600160401b0383116101b1576020808501948460051b0101116101b157565b9181601f840112156101b1578235916001600160401b0383116101b157602083818601950101116101b157565b9060406003198301126101b15760043591602435906001600160401b0382116101b1576119c79160040161196b565b9091565b60606003198201126101b1576004356001600160a01b03811681036101b1579160243591604435906001600160401b0382116101b1576119c79160040161196b565b15611a1457565b60405162461bcd60e51b815260206004820152600f60248201526e0d8cadccee8d040dad2e6dac2e8c6d608b1b6044820152606490fd5b15611a5257565b60405162461bcd60e51b815260206004820152600f60248201526e626174636820746f6f206c6172676560881b6044820152606490fd5b9190811015611a995760051b0190565b634e487b7160e01b5f52603260045260245ffd5b3560ff811681036101b15790565b9190811015611a995760051b81013590601e19813603018212156101b15701803591906001600160401b0383116101b15760200182360381136101b1579190565b3563ffffffff811681036101b15790565b15611b1457565b60405162461bcd60e51b815260206004820152600e60248201526d1b9bdd081c9959da5cdd195c995960921b6044820152606490fd5b15611b5157565b60405162461bcd60e51b815260206004820152600e60248201526d7469746c6520746f6f206c6f6e6760901b6044820152606490fd5b15611b8e57565b60405162461bcd60e51b815260206004820152600f60248201526e61727469737420746f6f206c6f6e6760881b6044820152606490fd5b15611bcc57565b60405162461bcd60e51b815260206004820152600e60248201526d616c62756d20746f6f206c6f6e6760901b6044820152606490fd5b601f8211611c0f57505050565b5f5260205f20906020601f840160051c83019310611c47575b601f0160051c01905b818110611c3c575050565b5f8155600101611c31565b9091508190611c28565b8160011b915f199060031b1c19161790565b908060209392818452848401375f828201840152601f01601f1916010190565b94929093611ca1611cbd9795611caf94606089526060890191611c63565b918683036020880152611c63565b926040818503910152611c63565b90565b15611cc757565b60405162461bcd60e51b815260206004820152600960248201526832b6b83a3c903932b360b91b6044820152606490fd5b15611cff57565b60405162461bcd60e51b815260206004820152600c60248201526b72656620746f6f206c6f6e6760a01b6044820152606490fd5b15611d3a57565b60405162461bcd60e51b815260206004820152601160248201527018dbdd995c88185b1c9958591e481cd95d607a1b6044820152606490fd5b9192916001600160401b03821161064a5760405191611d9c601f8201601f19166020018461183c565b8294818452818301116101b1578281602093845f960137010152565b949596909693929193600160ff871610158061240f575b156123db5787156123a75760ff861660010361235b576001600160801b038816612323575b611e016080841115611b4a565b611e0e6080881115611b87565b611e1b6080831115611bc5565b604051966020880160ff881681528960408a01526040895288606081011060018060401b0360608b01111761064a57606089016040528851902097885f52600260205260ff600560405f20015460681c166123145761018081016001600160401b0381116060830182101761064a57604052611e98368689611d73565b6060820152611ea8368388611d73565b6080820152611eb8368585611d73565b60a0820152604051602081016001600160401b0381118282101761064a576040525f815260c08201528960e082015260ff881661010082015263ffffffff8b1661012082015260018060401b0342166101408201526001610160820152885f52600260205260405f20606082015180519060018060401b03821161064a57611f4a82611f448554611804565b85611c02565b602090601f83116001146122ac57611f6b92915f918361212f575050611c51565b81555b60808201518051906001600160401b03821161064a57611f9e82611f956001860154611804565b60018601611c02565b602090601f831160011461223e57611fbf92915f918361212f575050611c51565b60018201555b60a08201518051906001600160401b03821161064a57611ff582611fec6002860154611804565b60028601611c02565b602090601f83116001146121d05761201692915f918361212f575050611c51565b60028201555b60c08201518051906001600160401b03821161064a5761204382610c996003860154611804565b602090601f831160011461213a579560ff99956121069560055f805160206125c88339815191529e9b9661208e60609f9b978063ffffffff9e9861136a9a5f9261212f575050611c51565b60038201555b60e0830151600482015501908c610100820151169082549164ffffffff0061012083015160081b1690600160281b600160681b0361014084015160281b169260ff6101609060681b910151151560681b169360018060701b03191617171717905560405196879560208701998a611c83565b51902060408051988952426001600160401b031660208a015291909816908701521693a4600190565b015190505f80610cc3565b90600384015f5260205f20915f5b601f19851681106121b85750956121069560055f805160206125c88339815191529e9b96600160609f9b959760ff9f9b9761136a9963ffffffff9f9983601f198116106121a0575b505050811b016003820155612094565b01515f1960f88460031b161c191690555f8080612190565b91926020600181928685015181550194019201612148565b9190600284015f5260205f20905f935b601f1984168510612223576001945083601f1981161061220b575b505050811b01600282015561201c565b01515f1960f88460031b161c191690555f80806121fb565b818101518355602094850194600190930192909101906121e0565b9190600184015f5260205f20905f935b601f1984168510612291576001945083601f19811610612279575b505050811b016001820155611fc5565b01515f1960f88460031b161c191690555f8080612269565b8181015183556020948501946001909301929091019061224e565b9190835f5260205f20905f935b601f19841685106122f9576001945083601f198116106122e1575b505050811b018155611f6e565b01515f1960f88460031b161c191690555f80806122d4565b818101518355602094850194600190930192909101906122b9565b50505050505050505050505f90565b60405162461bcd60e51b815260206004820152601060248201526f189859081b589a59081c185e5b1bd85960821b6044820152606490fd5b600260ff871603611df4578760a01c15611df45760405162461bcd60e51b815260206004820152601060248201526f189859081a5c1a59081c185e5b1bd85960821b6044820152606490fd5b60405162461bcd60e51b815260206004820152600c60248201526b1e995c9bc81c185e5b1bd85960a21b6044820152606490fd5b60405162461bcd60e51b815260206004820152600c60248201526b1a5b9d985b1a59081ada5b9960a21b6044820152606490fd5b50600360ff87161115611dcf565b9061242e9897969594939291611db8565b1561243557565b60405162461bcd60e51b8152602060048201526012602482015271185b1c9958591e481c9959da5cdd195c995960721b6044820152606490fd5b9092916001600160a01b039091169081156125965761248f858214611a0d565b61249c60c8821115611a4b565b5f5b8181106124ad57505050505050565b6124b8818387611a89565b3590811561256257815f5260209160028352604060ff6005825f20015460681c161561252f576124e9838a89611a89565b356001600160401b03811691908290036101b15760019487927fe4535246dec82f5f9313b71f0e50716106f16725e5528d9ef8f5b670656d19a89251908152a30161249e565b5162461bcd60e51b815260048101849052600d60248201526c756e6b6e6f776e20747261636b60981b6044820152606490fd5b60405162461bcd60e51b815260206004820152600c60248201526b1e995c9bc81d1c9858dad25960a21b6044820152606490fd5b60405162461bcd60e51b81526020600482015260096024820152683d32b937903ab9b2b960b91b6044820152606490fdfe05affcc33e7039d50830191484621884eab8761158278ee980f93530aa54c70da56fb3e55ae5094550614771c571d25e25f23201dfeea48aa7c04e9f6843a80794daf655e01a2c94312c7bdafdf16152f516c6c0efd73a2b5631fd718aac465c34495bff27da77fc654453d8630f8c4e4149c681f301e433ae49da185864bc3ac2390b19f0a95d2391617f9ebb8ea97bc6ad170745dd2bcb2cc8c8e8b4685f7fa2646970667358221220c16bb409a0f313fc7016aa6224818a87ee151b2c77ed0f911a3fbc299fd4525764736f6c63430008190033","linkReferences":{}},"methodIdentifiers":{"MAX_CID()":"09891061","MAX_SCROBBLES()":"15e84f45","MAX_STR()":"02d626d3","MAX_TRACK_REG()":"3062c3a4","getTrack(bytes32)":"82368a6b","getTrackLyrics(bytes32)":"4a182855","isOperator(address)":"6d70f7ae","isRegistered(bytes32)":"27258b22","overwriteTrackCover(bytes32,string)":"57e8eb6b","overwriteTrackLyrics(bytes32,string)":"be67d07c","owner()":"8da5cb5b","registerAndScrobbleBatch(address,uint8[],bytes32[],string[],string[],string[],uint32[],bytes32[],uint64[])":"cc891ece","registerTracksBatch(uint8[],bytes32[],string[],string[],string[],uint32[])":"547d7035","registerTracksForUser(address,uint8[],bytes32[],string[],string[],string[],uint32[])":"4538e55a","scrobbleBatch(address,bytes32[],uint64[])":"e5e0042c","setOperator(address,bool)":"558a7297","setTrackCover(bytes32,string)":"9f80ccae","setTrackCoverBatch(bytes32[],string[])":"73f7f8dc","setTrackCoverFor(address,bytes32,string)":"886599ab","setTrackLyricsFor(address,bytes32,string)":"a911a251","trackLyricsRefs(bytes32)":"6f750e26","tracks(bytes32)":"08109009","transferOwnership(address)":"f2fde38b","updateTrack(bytes32,string,string,string)":"45eb98a6"},"id":58}