{"abi":[{"type":"constructor","inputs":[{"name":"operator_","type":"address","internalType":"address"}],"stateMutability":"nonpayable"},{"type":"function","name":"MAX_CID","inputs":[],"outputs":[{"name":"","type":"uint256","internalType":"uint256"}],"stateMutability":"view"},{"type":"function","name":"MAX_SCROBBLES","inputs":[],"outputs":[{"name":"","type":"uint256","internalType":"uint256"}],"stateMutability":"view"},{"type":"function","name":"MAX_STR","inputs":[],"outputs":[{"name":"","type":"uint256","internalType":"uint256"}],"stateMutability":"view"},{"type":"function","name":"MAX_TRACK_REG","inputs":[],"outputs":[{"name":"","type":"uint256","internalType":"uint256"}],"stateMutability":"view"},{"type":"function","name":"getTrack","inputs":[{"name":"trackId","type":"bytes32","internalType":"bytes32"}],"outputs":[{"name":"title","type":"string","internalType":"string"},{"name":"artist","type":"string","internalType":"string"},{"name":"album","type":"string","internalType":"string"},{"name":"kind","type":"uint8","internalType":"uint8"},{"name":"payload","type":"bytes32","internalType":"bytes32"},{"name":"registeredAt","type":"uint64","internalType":"uint64"},{"name":"coverCid","type":"string","internalType":"string"},{"name":"durationSec","type":"uint32","internalType":"uint32"}],"stateMutability":"view"},{"type":"function","name":"getTrackLyrics","inputs":[{"name":"trackId","type":"bytes32","internalType":"bytes32"}],"outputs":[{"name":"","type":"string","internalType":"string"}],"stateMutability":"view"},{"type":"function","name":"isOperator","inputs":[{"name":"","type":"address","internalType":"address"}],"outputs":[{"name":"","type":"bool","internalType":"bool"}],"stateMutability":"view"},{"type":"function","name":"isRegistered","inputs":[{"name":"trackId","type":"bytes32","internalType":"bytes32"}],"outputs":[{"name":"","type":"bool","internalType":"bool"}],"stateMutability":"view"},{"type":"function","name":"overwriteTrackCover","inputs":[{"name":"trackId","type":"bytes32","internalType":"bytes32"},{"name":"coverRef","type":"string","internalType":"string"}],"outputs":[],"stateMutability":"nonpayable"},{"type":"function","name":"overwriteTrackLyrics","inputs":[{"name":"trackId","type":"bytes32","internalType":"bytes32"},{"name":"lyricsRef","type":"string","internalType":"string"}],"outputs":[],"stateMutability":"nonpayable"},{"type":"function","name":"owner","inputs":[],"outputs":[{"name":"","type":"address","internalType":"address"}],"stateMutability":"view"},{"type":"function","name":"registerAndScrobbleBatch","inputs":[{"name":"user","type":"address","internalType":"address"},{"name":"regKinds","type":"uint8[]","internalType":"uint8[]"},{"name":"regPayloads","type":"bytes32[]","internalType":"bytes32[]"},{"name":"titles","type":"string[]","internalType":"string[]"},{"name":"artists","type":"string[]","internalType":"string[]"},{"name":"albums","type":"string[]","internalType":"string[]"},{"name":"durations","type":"uint32[]","internalType":"uint32[]"},{"name":"trackIds","type":"bytes32[]","internalType":"bytes32[]"},{"name":"timestamps","type":"uint64[]","internalType":"uint64[]"}],"outputs":[],"stateMutability":"nonpayable"},{"type":"function","name":"registerTracksBatch","inputs":[{"name":"kinds","type":"uint8[]","internalType":"uint8[]"},{"name":"payloads","type":"bytes32[]","internalType":"bytes32[]"},{"name":"titles","type":"string[]","internalType":"string[]"},{"name":"artists","type":"string[]","internalType":"string[]"},{"name":"albums","type":"string[]","internalType":"string[]"},{"name":"durations","type":"uint32[]","internalType":"uint32[]"}],"outputs":[],"stateMutability":"nonpayable"},{"type":"function","name":"scrobbleBatch","inputs":[{"name":"user","type":"address","internalType":"address"},{"name":"trackIds","type":"bytes32[]","internalType":"bytes32[]"},{"name":"timestamps","type":"uint64[]","internalType":"uint64[]"}],"outputs":[],"stateMutability":"nonpayable"},{"type":"function","name":"setOperator","inputs":[{"name":"operator_","type":"address","internalType":"address"},{"name":"active","type":"bool","internalType":"bool"}],"outputs":[],"stateMutability":"nonpayable"},{"type":"function","name":"setTrackCover","inputs":[{"name":"trackId","type":"bytes32","internalType":"bytes32"},{"name":"coverCid","type":"string","internalType":"string"}],"outputs":[],"stateMutability":"nonpayable"},{"type":"function","name":"setTrackCoverBatch","inputs":[{"name":"trackIds","type":"bytes32[]","internalType":"bytes32[]"},{"name":"coverCids","type":"string[]","internalType":"string[]"}],"outputs":[],"stateMutability":"nonpayable"},{"type":"function","name":"setTrackCoverFor","inputs":[{"name":"user","type":"address","internalType":"address"},{"name":"trackId","type":"bytes32","internalType":"bytes32"},{"name":"coverRef","type":"string","internalType":"string"}],"outputs":[],"stateMutability":"nonpayable"},{"type":"function","name":"setTrackLyricsFor","inputs":[{"name":"user","type":"address","internalType":"address"},{"name":"trackId","type":"bytes32","internalType":"bytes32"},{"name":"lyricsRef","type":"string","internalType":"string"}],"outputs":[],"stateMutability":"nonpayable"},{"type":"function","name":"trackLyricsRefs","inputs":[{"name":"","type":"bytes32","internalType":"bytes32"}],"outputs":[{"name":"","type":"string","internalType":"string"}],"stateMutability":"view"},{"type":"function","name":"tracks","inputs":[{"name":"","type":"bytes32","internalType":"bytes32"}],"outputs":[{"name":"title","type":"string","internalType":"string"},{"name":"artist","type":"string","internalType":"string"},{"name":"album","type":"string","internalType":"string"},{"name":"coverCid","type":"string","internalType":"string"},{"name":"payload","type":"bytes32","internalType":"bytes32"},{"name":"kind","type":"uint8","internalType":"uint8"},{"name":"durationSec","type":"uint32","internalType":"uint32"},{"name":"registeredAt","type":"uint64","internalType":"uint64"},{"name":"exists","type":"bool","internalType":"bool"}],"stateMutability":"view"},{"type":"function","name":"transferOwnership","inputs":[{"name":"newOwner","type":"address","internalType":"address"}],"outputs":[],"stateMutability":"nonpayable"},{"type":"function","name":"updateTrack","inputs":[{"name":"trackId","type":"bytes32","internalType":"bytes32"},{"name":"title","type":"string","internalType":"string"},{"name":"artist","type":"string","internalType":"string"},{"name":"album","type":"string","internalType":"string"}],"outputs":[],"stateMutability":"nonpayable"},{"type":"event","name":"OperatorUpdated","inputs":[{"name":"operator","type":"address","indexed":true,"internalType":"address"},{"name":"active","type":"bool","indexed":false,"internalType":"bool"}],"anonymous":false},{"type":"event","name":"OwnerUpdated","inputs":[{"name":"newOwner","type":"address","indexed":true,"internalType":"address"}],"anonymous":false},{"type":"event","name":"Scrobbled","inputs":[{"name":"user","type":"address","indexed":true,"internalType":"address"},{"name":"trackId","type":"bytes32","indexed":true,"internalType":"bytes32"},{"name":"timestamp","type":"uint64","indexed":false,"internalType":"uint64"}],"anonymous":false},{"type":"event","name":"TrackCoverOverwritten","inputs":[{"name":"trackId","type":"bytes32","indexed":true,"internalType":"bytes32"},{"name":"coverCid","type":"string","indexed":false,"internalType":"string"}],"anonymous":false},{"type":"event","name":"TrackCoverSet","inputs":[{"name":"trackId","type":"bytes32","indexed":true,"internalType":"bytes32"},{"name":"coverCid","type":"string","indexed":false,"internalType":"string"}],"anonymous":false},{"type":"event","name":"TrackLyricsOverwritten","inputs":[{"name":"trackId","type":"bytes32","indexed":true,"internalType":"bytes32"},{"name":"lyricsRef","type":"string","indexed":false,"internalType":"string"}],"anonymous":false},{"type":"event","name":"TrackLyricsSet","inputs":[{"name":"trackId","type":"bytes32","indexed":true,"internalType":"bytes32"},{"name":"lyricsRef","type":"string","indexed":false,"internalType":"string"}],"anonymous":false},{"type":"event","name":"TrackRegistered","inputs":[{"name":"trackId","type":"bytes32","indexed":true,"internalType":"bytes32"},{"name":"kind","type":"uint8","indexed":true,"internalType":"uint8"},{"name":"payload","type":"bytes32","indexed":false,"internalType":"bytes32"},{"name":"metaHash","type":"bytes32","indexed":true,"internalType":"bytes32"},{"name":"registeredAt","type":"uint64","indexed":false,"internalType":"uint64"},{"name":"durationSec","type":"uint32","indexed":false,"internalType":"uint32"}],"anonymous":false},{"type":"event","name":"TrackUpdated","inputs":[{"name":"trackId","type":"bytes32","indexed":true,"internalType":"bytes32"},{"name":"metaHash","type":"bytes32","indexed":true,"internalType":"bytes32"}],"anonymous":false},{"type":"error","name":"NotUserSender","inputs":[]},{"type":"error","name":"Unauthorized","inputs":[]},{"type":"error","name":"ZeroAddress","inputs":[]}],"bytecode":{"object":"0x6080346100ee57601f6125b438819003918201601f19168301916001600160401b038311848410176100f2578084926020946040528339810103126100ee57516001600160a01b038116908190036100ee5780156100dc573360018060a01b03195f5416175f55805f52600160205260405f20600160ff198254161790557f966c160e1c4dbc7df8d69af4ace01e9297c3cf016397b7914971f2fbfa32672d6020604051337f4ffd725fc4a22075e9ec71c59edf9c38cdeb588a91b24fc5b61388c5be41282b5f80a260018152a26040516124ad90816101078239f35b60405163d92e233d60e01b8152600490fd5b5f80fd5b634e487b7160e01b5f52604160045260245ffdfe6101006040526004361015610012575f80fd5b5f3560e01c806302d626d31461162d5780630810900914611566578063098910611461156157806315e84f451461154657806327258b22146115115780633062c3a4146114f657806345eb98a6146111cf5780634a18285514610dc1578063547d70351461101d578063558a729714610f9557806357e8eb6b14610e405780636d70f7ae14610e035780636f750e2614610dc157806373f7f8dc14610b9a57806382368a6b14610ab2578063886599ab1461099a5780638da5cb5b146109735780639f80ccae146107f4578063a911a25114610689578063be67d07c146104c8578063cc891ece14610232578063e5e0042c146101aa5763f2fde38b14610117575f80fd5b346101a65760203660031901126101a6576101306117c6565b5f54906001600160a01b039081831633036101955716908115610183576001600160a01b03191681175f9081557f4ffd725fc4a22075e9ec71c59edf9c38cdeb588a91b24fc5b61388c5be41282b9080a2005b60405163d92e233d60e01b8152600490fd5b6040516282b42960e81b8152600490fd5b5f80fd5b346101a65760603660031901126101a6576101c36117c6565b6001600160401b036024358181116101a6576101e3903690600401611796565b916044359081116101a6576101fc903690600401611796565b9290916001600160a01b03851680156101835733036102205761021e9461227f565b005b604051636916f8c760e01b8152600490fd5b346101a6576101203660031901126101a65761024c6117c6565b6001600160401b036024358181116101a65761026c903690600401611796565b60e052916044358281116101a657610288903690600401611796565b906064358481116101a6576102a1903690600401611796565b6084358681116101a6576102b9903690600401611796565b9060a4358881116101a6576102d2903690600401611796565b92909360c4358a81116101a6576102ed903690600401611796565b96909760e4358c81116101a657610308903690600401611796565b9d909c61010435116101a6576103243661010435600401611796565b60c0526080526001600160a01b038c1680156101835733036102205760e05161035c575b5061021e8c8c8f60c051926080519261227f565b8a60e05114806104bd575b806104b2575b806104a7575b8061049c575b1561046157603260e05111610426575f60a0525b60e05160a0511015610348576104188b8b8b8b8b8b8b8b61041261040d6104016103f58f8f908f6103e9926103d46103cf6103de9360a0519060e05190611a80565b611aa4565b9f60a05191611a80565b359660a05191611ab2565b97909660a05191611ab2565b98909760a05191611ab2565b99909860a05191611a80565b611af3565b97611bfc565b600160a0510160a05261038d565b60405162461bcd60e51b815260206004820152601360248201527272656720626174636820746f6f206c6172676560681b6044820152606490fd5b60405162461bcd60e51b81526020600482015260136024820152720e4cace40d8cadccee8d040dad2e6dac2e8c6d606b1b6044820152606490fd5b508860e05114610379565b508660e05114610373565b508460e0511461036d565b508360e05114610367565b346101a6576104d6366117dc565b90335f526001906020916001835260ff60405f2054161561019557845f526002835261050e60ff600560405f20015460681c16611851565b610519841515611b04565b6105266080851115611b3c565b845f526003835261053a60405f2054611648565b15610653575f8581526003845260409020906001600160401b03851161063f5761056e856105688454611648565b84611946565b5f90601f86116001146105c85750916105b8916105a486805f805160206124188339815191529897965f916105bd575b50611995565b90555b6040519383859485528401916119a7565b0390a2005b90508401358a61059e565b90601f198616835f52855f20925f905b828210610628575050916105b89391875f80516020612418833981519152989796941061060f575b5050600185811b0190556105a7565b8301355f19600388901b60f8161c191690558780610600565b8684013585559384019392870192908701906105d8565b634e487b7160e01b5f52604160045260245ffd5b60405162461bcd60e51b815260048101849052600e60248201526d1b1e5c9a58dcc81b9bdd081cd95d60921b6044820152606490fd5b346101a6576106973661180f565b91926001600160a01b0316801561018357330361022057825f52602090600282526106ce60ff600560405f20015460681c16611851565b6106d9831515611b04565b6106e66080841115611b3c565b835f52600382526106fa60405f2054611648565b6107ba575f84815260038352604090206001600160401b03841161063f5761072c846107268354611648565b83611946565b5f601f851160011461075f57916105b8916105a486805f805160206124588339815191529897965f916105bd5750611995565b601f19851690825f52845f20915f5b8181106107a35750916105b89391875f80516020612458833981519152989796941061060f575050600185811b0190556105a7565b91928660018192868901358155019401920161076e565b60405162461bcd60e51b81526004810183905260126024820152711b1e5c9a58dcc8185b1c9958591e481cd95d60721b6044820152606490fd5b346101a657610802366117dc565b90335f526001906020916001835260ff60405f2054161561019557845f526002835260405f2061083b60ff600583015460681c16611851565b8415610942576080851161090e5760030190815461086161085b82611648565b15611b77565b6001600160401b03861161063f578561056861087c92611648565b5f90601f86116001146108b15750916105b8916105a486805f805160206123f88339815191529897965f916105bd5750611995565b90601f198616835f52855f20925f905b8282106108f7575050916105b89391875f805160206123f8833981519152989796941061060f575050600185811b0190556105a7565b8684013585559384019392870192908701906108c1565b60405162461bcd60e51b815260048101859052600c60248201526b63696420746f6f206c6f6e6760a01b6044820152606490fd5b60405162461bcd60e51b8152600481018590526009602482015268195b5c1d1e4818da5960ba1b6044820152606490fd5b346101a6575f3660031901126101a6575f546040516001600160a01b039091168152602090f35b346101a6576109a83661180f565b91926001600160a01b0316801561018357330361022057825f5260209060028252600360405f206109e260ff600583015460681c16611851565b6109ed851515611b04565b6109fa6080861115611b3c565b018054610a0961085b82611648565b6001600160401b03851161063f5784610726610a2492611648565b5f601f8511600114610a5757916105b8916105a486805f805160206123f88339815191529897965f916105bd5750611995565b601f19851690825f52845f20915f5b818110610a9b5750916105b89391875f805160206123f8833981519152989796941061060f575050600185811b0190556105a7565b919286600181928689013581550194019201610a66565b346101a65760203660031901126101a6576004355f526002602052610b3f60405f206005810154610ae860ff8260681c16611851565b63ffffffff610b8c6004840154610afe856116a3565b94610b5b610b0e600183016116a3565b91610b4d610b2a6003610b23600285016116a3565b93016116a3565b936040519a8b9a610100808d528c0190611745565b908a820360208c0152611745565b9088820360408a0152611745565b60ff861660608801526080870192909252602885901c6001600160401b031660a087015285820360c0870152611745565b9160081c1660e08301520390f35b346101a65760403660031901126101a6576004356001600160401b0381116101a657610bca903690600401611796565b6024356001600160401b0381116101a657610be9903690600401611796565b335f52600160205260ff60405f2054161561019557610c09818414611a04565b610c166032841115611a42565b5f5b838110610c2157005b610c2c818587611a80565b355f52600260205260405f2060ff600582015460681c1680610dac575b80610d95575b80610d81575b610c63575b50600101610c18565b610c6e828486611ab2565b906001600160401b03821161063f57610c9782610c8e6003860154611648565b60038601611946565b5f90601f8311600114610d1357826001959493600393610cbf935f92610d08575b5050611995565b9101555b610cce818688611a80565b355f805160206123f8833981519152610ce8838688611ab2565b610cff6040519283926020845260208401916119a7565b0390a290610c5a565b013590508b80610cb8565b600384015f5260205f20915f5b601f1985168110610d69575092600392600196959492879383601f19811610610d52575b505050811b01910155610cc3565b01355f1983861b60f8161c191690558a8080610d44565b82820135845560019093019260209182019101610d20565b50610d8f6003820154611648565b15610c55565b506080610da3838587611ab2565b90501115610c4f565b50610db8828486611ab2565b90501515610c49565b346101a65760203660031901126101a6576004355f526003602052610dff610deb60405f206116a3565b604051918291602083526020830190611745565b0390f35b346101a65760203660031901126101a6576001600160a01b03610e246117c6565b165f526001602052602060ff60405f2054166040519015158152f35b346101a657610e4e366117dc565b90335f526001906020916001835260ff60405f2054161561019557845f5260028352600360405f20610e8960ff600583015460681c16611851565b610e94861515611b04565b610ea16080871115611b3c565b01908154610eae81611648565b15610f60576001600160401b03861161063f5785610568610ece92611648565b5f90601f8611600114610f035750916105b8916105a486805f805160206124388339815191529897965f916105bd5750611995565b90601f198616835f52855f20925f905b828210610f49575050916105b89391875f80516020612438833981519152989796941061060f575050600185811b0190556105a7565b868401358555938401939287019290870190610f13565b60405162461bcd60e51b815260048101869052600d60248201526c18dbdd995c881b9bdd081cd95d609a1b6044820152606490fd5b346101a65760403660031901126101a657610fae6117c6565b602435908115158092036101a6575f546001600160a01b0391908216330361019557169081156101835760207f966c160e1c4dbc7df8d69af4ace01e9297c3cf016397b7914971f2fbfa32672d91835f526001825260405f2060ff1981541660ff8316179055604051908152a2005b346101a65760c03660031901126101a6576001600160401b036004358181116101a65761104e903690600401611796565b6024929192358281116101a657611069903690600401611796565b916044358481116101a657611082903690600401611796565b9290946064358181116101a65761109d903690600401611796565b6084929192358281116101a6576110b8903690600401611796565b93909260a4359081116101a6576110d3903690600401611796565b969095335f5260019b600160205260ff60405f20541615610195578a8314806111c6575b806111bd575b806111b4575b806111ab575b61111290611a04565b61111f6032841115611a42565b5f5b83811061112a57005b808c8f928f8c8f928f928c8f928f9290808f928f908f8f90846111508180968195611a80565b61115990611aa4565b9e61116392611a80565b359b61116e92611ab2565b9561117a929195611ab2565b96611186929196611ab2565b97611192929197611a80565b61119b90611af3565b966111a598611bfc565b01611121565b50828914611109565b50868314611103565b508483146110fd565b508983146110f7565b346101a65760803660031901126101a6576004356001600160401b036024358181116101a657611203903690600401611769565b90916044358181116101a65761121d903690600401611769565b906064358381116101a657611236903690600401611769565b929091335f5260019460209580875260ff60405f2054161561019557895f526002875260405f2061127060ff600583015460681c16611851565b61127d60808a111561188e565b61128a60808611156118cb565b6112976080881115611909565b82891161063f576112ac896107268354611648565b5f89601f811160011461148957806112ca925f9161147e5750611995565b81555b8181019083861161063f576112e6866105688454611648565b5f9186601f81116001146114175780611308916002955f9161140c5750611995565b90555b0191861161063f57611321866105688454611648565b5f90601f87116001146113a257509185939161134d8561136d999861135f98965f916113975750611995565b90555b6040519788968701998a6119c7565b03601f198101835282611680565b519020907f6f18b9c6009a070f802165814ef94a948ea726e7b520b5310345d865f74990875f80a3005b90508601358e61059e565b90601f19871690835f52885f20915f5b8181106113f757509161135f979593918961136d9b9a989694106113de575b505085811b019055611350565b8601355f19600389901b60f8161c191690558c806113d1565b88830135845592840192918a01918a016113b2565b90508801355f61059e565b505f8181528a8120909388601f1981165b8d88828910611464575050600296501061144b575b50508387811b01905561130b565b8701355f1960038a901b60f8161c191690558d8061143d565b848c013586559781019790940193909201918a9150611428565b90508c01358e61059e565b50601f198a1690825f528a8a5f20928d8c875f925b8484106114d65750505050106114bd575b50508189811b0181556112cd565b8b01355f1960038c901b60f8161c191690558b806114af565b8294955095809791929396013581550194019201908c918c8f889061149e565b346101a6575f3660031901126101a657602060405160328152f35b346101a65760203660031901126101a6576004355f526002602052602060ff600560405f20015460681c166040519015158152f35b346101a6575f3660031901126101a657602060405160c88152f35b61162d565b346101a65760203660031901126101a6576004355f526002602052610b3f60405f20611591816116a3565b9060ff6115a0600183016116a3565b6115ef6115af600285016116a3565b6115e16115be600387016116a3565b91610b4d60056004890154980154956040519a8b9a610120808d528c0190611745565b908682036060880152611745565b92608085015281811660a085015263ffffffff8160081c1660c085015260018060401b038160281c1660e085015260681c1615156101008301520390f35b346101a6575f3660031901126101a657602060405160808152f35b90600182811c92168015611676575b602083101461166257565b634e487b7160e01b5f52602260045260245ffd5b91607f1691611657565b601f909101601f19168101906001600160401b0382119082101761063f57604052565b9060405191825f82546116b581611648565b908184526020946001916001811690815f1461172357506001146116e5575b5050506116e392500383611680565b565b5f90815285812095935091905b81831061170b5750506116e393508201015f80806116d4565b855488840185015294850194879450918301916116f2565b925050506116e394925060ff191682840152151560051b8201015f80806116d4565b805180835260209291819084018484015e5f828201840152601f01601f1916010190565b9181601f840112156101a6578235916001600160401b0383116101a657602083818601950101116101a657565b9181601f840112156101a6578235916001600160401b0383116101a6576020808501948460051b0101116101a657565b600435906001600160a01b03821682036101a657565b9060406003198301126101a65760043591602435906001600160401b0382116101a65761180b91600401611769565b9091565b60606003198201126101a6576004356001600160a01b03811681036101a6579160243591604435906001600160401b0382116101a65761180b91600401611769565b1561185857565b60405162461bcd60e51b815260206004820152600e60248201526d1b9bdd081c9959da5cdd195c995960921b6044820152606490fd5b1561189557565b60405162461bcd60e51b815260206004820152600e60248201526d7469746c6520746f6f206c6f6e6760901b6044820152606490fd5b156118d257565b60405162461bcd60e51b815260206004820152600f60248201526e61727469737420746f6f206c6f6e6760881b6044820152606490fd5b1561191057565b60405162461bcd60e51b815260206004820152600e60248201526d616c62756d20746f6f206c6f6e6760901b6044820152606490fd5b601f821161195357505050565b5f5260205f20906020601f840160051c8301931061198b575b601f0160051c01905b818110611980575050565b5f8155600101611975565b909150819061196c565b8160011b915f199060031b1c19161790565b908060209392818452848401375f828201840152601f01601f1916010190565b949290936119e5611a0197956119f3946060895260608901916119a7565b9186830360208801526119a7565b9260408185039101526119a7565b90565b15611a0b57565b60405162461bcd60e51b815260206004820152600f60248201526e0d8cadccee8d040dad2e6dac2e8c6d608b1b6044820152606490fd5b15611a4957565b60405162461bcd60e51b815260206004820152600f60248201526e626174636820746f6f206c6172676560881b6044820152606490fd5b9190811015611a905760051b0190565b634e487b7160e01b5f52603260045260245ffd5b3560ff811681036101a65790565b9190811015611a905760051b81013590601e19813603018212156101a65701803591906001600160401b0383116101a65760200182360381136101a6579190565b3563ffffffff811681036101a65790565b15611b0b57565b60405162461bcd60e51b815260206004820152600960248201526832b6b83a3c903932b360b91b6044820152606490fd5b15611b4357565b60405162461bcd60e51b815260206004820152600c60248201526b72656620746f6f206c6f6e6760a01b6044820152606490fd5b15611b7e57565b60405162461bcd60e51b815260206004820152601160248201527018dbdd995c88185b1c9958591e481cd95d607a1b6044820152606490fd5b9192916001600160401b03821161063f5760405191611be0601f8201601f191660200184611680565b8294818452818301116101a6578281602093845f960137010152565b949596909693929193600160ff8716101580612271575b1561223d5787156122095760ff86166001036121bd576001600160801b038816612185575b611c45608084111561188e565b611c5260808811156118cb565b611c5f6080831115611909565b604051966020880160ff881681528960408a015260408952606089019089821060018060401b0383111761063f57816040528951902098895f52600260205260ff600560405f20015460681c1661214f5750506040516001600160401b0361012082019081119082111761063f576101208101604052611ce0368689611bb7565b8152611ced368388611bb7565b6020820152611cfd368585611bb7565b60408281019190915251602081016001600160401b0381118282101761063f576040525f8152606082015289608082015260ff881660a082015263ffffffff8b1660c082015260018060401b03421660e08201526001610100820152885f52600260205260405f20815180519060018060401b03821161063f57611d8b82611d858554611648565b85611946565b602090601f83116001146120e757611dac92915f9183611f6a575050611995565b81555b60208201518051906001600160401b03821161063f57611ddf82611dd66001860154611648565b60018601611946565b602090601f831160011461207957611e0092915f9183611f6a575050611995565b60018201555b60408201518051906001600160401b03821161063f57611e3682611e2d6002860154611648565b60028601611946565b602090601f831160011461200b57611e5792915f9183611f6a575050611995565b60028201555b60608201518051906001600160401b03821161063f57611e8482610c8e6003860154611648565b602090601f8311600114611f75579560ff9995611f449560055f805160206123d88339815191529e9b96611ecf60609f9b978063ffffffff9e9861135f9a5f92611f6a575050611995565b60038201555b6080830151600482015501908c60a0820151169082549164ffffffff0060c083015160081b1690600160281b600160681b0360e084015160281b169260ff6101009060681b910151151560681b169360018060701b03191617171717905560405196879560208701998a6119c7565b51902060408051988952426001600160401b031660208a015291909816908701521693a4565b015190505f80610cb8565b90600384015f5260205f20915f5b601f1985168110611ff3575095611f449560055f805160206123d88339815191529e9b96600160609f9b959760ff9f9b9761135f9963ffffffff9f9983601f19811610611fdb575b505050811b016003820155611ed5565b01515f1960f88460031b161c191690555f8080611fcb565b91926020600181928685015181550194019201611f83565b9190600284015f5260205f20905f935b601f198416851061205e576001945083601f19811610612046575b505050811b016002820155611e5d565b01515f1960f88460031b161c191690555f8080612036565b8181015183556020948501946001909301929091019061201b565b9190600184015f5260205f20905f935b601f19841685106120cc576001945083601f198116106120b4575b505050811b016001820155611e06565b01515f1960f88460031b161c191690555f80806120a4565b81810151835560209485019460019093019290910190612089565b9190835f5260205f20905f935b601f1984168510612134576001945083601f1981161061211c575b505050811b018155611daf565b01515f1960f88460031b161c191690555f808061210f565b818101518355602094850194600190930192909101906120f4565b9071185b1c9958591e481c9959da5cdd195c995960721b60a460649362461bcd60e51b8452602085820152601260848201520152fd5b60405162461bcd60e51b815260206004820152601060248201526f189859081b589a59081c185e5b1bd85960821b6044820152606490fd5b600260ff871603611c38578760a01c15611c385760405162461bcd60e51b815260206004820152601060248201526f189859081a5c1a59081c185e5b1bd85960821b6044820152606490fd5b60405162461bcd60e51b815260206004820152600c60248201526b1e995c9bc81c185e5b1bd85960a21b6044820152606490fd5b60405162461bcd60e51b815260206004820152600c60248201526b1a5b9d985b1a59081ada5b9960a21b6044820152606490fd5b50600360ff87161115611c13565b9092916001600160a01b039091169081156123a65761229f858214611a04565b6122ac60c8821115611a42565b5f5b8181106122bd57505050505050565b6122c8818387611a80565b3590811561237257815f5260209160028352604060ff6005825f20015460681c161561233f576122f9838a89611a80565b356001600160401b03811691908290036101a65760019487927fe4535246dec82f5f9313b71f0e50716106f16725e5528d9ef8f5b670656d19a89251908152a3016122ae565b5162461bcd60e51b815260048101849052600d60248201526c756e6b6e6f776e20747261636b60981b6044820152606490fd5b60405162461bcd60e51b815260206004820152600c60248201526b1e995c9bc81d1c9858dad25960a21b6044820152606490fd5b60405162461bcd60e51b81526020600482015260096024820152683d32b937903ab9b2b960b91b6044820152606490fdfe05affcc33e7039d50830191484621884eab8761158278ee980f93530aa54c70da56fb3e55ae5094550614771c571d25e25f23201dfeea48aa7c04e9f6843a80794daf655e01a2c94312c7bdafdf16152f516c6c0efd73a2b5631fd718aac465c34495bff27da77fc654453d8630f8c4e4149c681f301e433ae49da185864bc3ac2390b19f0a95d2391617f9ebb8ea97bc6ad170745dd2bcb2cc8c8e8b4685f7fa2646970667358221220f571f85dd40df366192cc2b704c15d27e26c6f6c6aa08f3e0d6ecf9a117c5b0764736f6c63430008190033","linkReferences":{}},"methodIdentifiers":{"MAX_CID()":"09891061","MAX_SCROBBLES()":"15e84f45","MAX_STR()":"02d626d3","MAX_TRACK_REG()":"3062c3a4","getTrack(bytes32)":"82368a6b","getTrackLyrics(bytes32)":"4a182855","isOperator(address)":"6d70f7ae","isRegistered(bytes32)":"27258b22","overwriteTrackCover(bytes32,string)":"57e8eb6b","overwriteTrackLyrics(bytes32,string)":"be67d07c","owner()":"8da5cb5b","registerAndScrobbleBatch(address,uint8[],bytes32[],string[],string[],string[],uint32[],bytes32[],uint64[])":"cc891ece","registerTracksBatch(uint8[],bytes32[],string[],string[],string[],uint32[])":"547d7035","scrobbleBatch(address,bytes32[],uint64[])":"e5e0042c","setOperator(address,bool)":"558a7297","setTrackCover(bytes32,string)":"9f80ccae","setTrackCoverBatch(bytes32[],string[])":"73f7f8dc","setTrackCoverFor(address,bytes32,string)":"886599ab","setTrackLyricsFor(address,bytes32,string)":"a911a251","trackLyricsRefs(bytes32)":"6f750e26","tracks(bytes32)":"08109009","transferOwnership(address)":"f2fde38b","updateTrack(bytes32,string,string,string)":"45eb98a6"},"id":16}