{"abi":[{"type":"constructor","inputs":[{"name":"operator_","type":"address","internalType":"address"}],"stateMutability":"nonpayable"},{"type":"function","name":"MAX_CID","inputs":[],"outputs":[{"name":"","type":"uint256","internalType":"uint256"}],"stateMutability":"view"},{"type":"function","name":"MAX_SCROBBLES","inputs":[],"outputs":[{"name":"","type":"uint256","internalType":"uint256"}],"stateMutability":"view"},{"type":"function","name":"MAX_STR","inputs":[],"outputs":[{"name":"","type":"uint256","internalType":"uint256"}],"stateMutability":"view"},{"type":"function","name":"MAX_TRACK_REG","inputs":[],"outputs":[{"name":"","type":"uint256","internalType":"uint256"}],"stateMutability":"view"},{"type":"function","name":"getTrack","inputs":[{"name":"trackId","type":"bytes32","internalType":"bytes32"}],"outputs":[{"name":"title","type":"string","internalType":"string"},{"name":"artist","type":"string","internalType":"string"},{"name":"album","type":"string","internalType":"string"},{"name":"kind","type":"uint8","internalType":"uint8"},{"name":"payload","type":"bytes32","internalType":"bytes32"},{"name":"registeredAt","type":"uint64","internalType":"uint64"},{"name":"coverCid","type":"string","internalType":"string"},{"name":"durationSec","type":"uint32","internalType":"uint32"}],"stateMutability":"view"},{"type":"function","name":"isOperator","inputs":[{"name":"","type":"address","internalType":"address"}],"outputs":[{"name":"","type":"bool","internalType":"bool"}],"stateMutability":"view"},{"type":"function","name":"isRegistered","inputs":[{"name":"trackId","type":"bytes32","internalType":"bytes32"}],"outputs":[{"name":"","type":"bool","internalType":"bool"}],"stateMutability":"view"},{"type":"function","name":"owner","inputs":[],"outputs":[{"name":"","type":"address","internalType":"address"}],"stateMutability":"view"},{"type":"function","name":"registerAndScrobbleBatch","inputs":[{"name":"user","type":"address","internalType":"address"},{"name":"regKinds","type":"uint8[]","internalType":"uint8[]"},{"name":"regPayloads","type":"bytes32[]","internalType":"bytes32[]"},{"name":"titles","type":"string[]","internalType":"string[]"},{"name":"artists","type":"string[]","internalType":"string[]"},{"name":"albums","type":"string[]","internalType":"string[]"},{"name":"durations","type":"uint32[]","internalType":"uint32[]"},{"name":"trackIds","type":"bytes32[]","internalType":"bytes32[]"},{"name":"timestamps","type":"uint64[]","internalType":"uint64[]"}],"outputs":[],"stateMutability":"nonpayable"},{"type":"function","name":"registerTracksBatch","inputs":[{"name":"kinds","type":"uint8[]","internalType":"uint8[]"},{"name":"payloads","type":"bytes32[]","internalType":"bytes32[]"},{"name":"titles","type":"string[]","internalType":"string[]"},{"name":"artists","type":"string[]","internalType":"string[]"},{"name":"albums","type":"string[]","internalType":"string[]"},{"name":"durations","type":"uint32[]","internalType":"uint32[]"}],"outputs":[],"stateMutability":"nonpayable"},{"type":"function","name":"scrobbleBatch","inputs":[{"name":"user","type":"address","internalType":"address"},{"name":"trackIds","type":"bytes32[]","internalType":"bytes32[]"},{"name":"timestamps","type":"uint64[]","internalType":"uint64[]"}],"outputs":[],"stateMutability":"nonpayable"},{"type":"function","name":"setOperator","inputs":[{"name":"operator_","type":"address","internalType":"address"},{"name":"active","type":"bool","internalType":"bool"}],"outputs":[],"stateMutability":"nonpayable"},{"type":"function","name":"setTrackCover","inputs":[{"name":"trackId","type":"bytes32","internalType":"bytes32"},{"name":"coverCid","type":"string","internalType":"string"}],"outputs":[],"stateMutability":"nonpayable"},{"type":"function","name":"setTrackCoverBatch","inputs":[{"name":"trackIds","type":"bytes32[]","internalType":"bytes32[]"},{"name":"coverCids","type":"string[]","internalType":"string[]"}],"outputs":[],"stateMutability":"nonpayable"},{"type":"function","name":"tracks","inputs":[{"name":"","type":"bytes32","internalType":"bytes32"}],"outputs":[{"name":"title","type":"string","internalType":"string"},{"name":"artist","type":"string","internalType":"string"},{"name":"album","type":"string","internalType":"string"},{"name":"coverCid","type":"string","internalType":"string"},{"name":"payload","type":"bytes32","internalType":"bytes32"},{"name":"kind","type":"uint8","internalType":"uint8"},{"name":"durationSec","type":"uint32","internalType":"uint32"},{"name":"registeredAt","type":"uint64","internalType":"uint64"},{"name":"exists","type":"bool","internalType":"bool"}],"stateMutability":"view"},{"type":"function","name":"transferOwnership","inputs":[{"name":"newOwner","type":"address","internalType":"address"}],"outputs":[],"stateMutability":"nonpayable"},{"type":"function","name":"updateTrack","inputs":[{"name":"trackId","type":"bytes32","internalType":"bytes32"},{"name":"title","type":"string","internalType":"string"},{"name":"artist","type":"string","internalType":"string"},{"name":"album","type":"string","internalType":"string"}],"outputs":[],"stateMutability":"nonpayable"},{"type":"event","name":"OperatorUpdated","inputs":[{"name":"operator","type":"address","indexed":true,"internalType":"address"},{"name":"active","type":"bool","indexed":false,"internalType":"bool"}],"anonymous":false},{"type":"event","name":"OwnerUpdated","inputs":[{"name":"newOwner","type":"address","indexed":true,"internalType":"address"}],"anonymous":false},{"type":"event","name":"Scrobbled","inputs":[{"name":"user","type":"address","indexed":true,"internalType":"address"},{"name":"trackId","type":"bytes32","indexed":true,"internalType":"bytes32"},{"name":"timestamp","type":"uint64","indexed":false,"internalType":"uint64"}],"anonymous":false},{"type":"event","name":"TrackCoverSet","inputs":[{"name":"trackId","type":"bytes32","indexed":true,"internalType":"bytes32"},{"name":"coverCid","type":"string","indexed":false,"internalType":"string"}],"anonymous":false},{"type":"event","name":"TrackRegistered","inputs":[{"name":"trackId","type":"bytes32","indexed":true,"internalType":"bytes32"},{"name":"kind","type":"uint8","indexed":true,"internalType":"uint8"},{"name":"payload","type":"bytes32","indexed":false,"internalType":"bytes32"},{"name":"metaHash","type":"bytes32","indexed":true,"internalType":"bytes32"},{"name":"registeredAt","type":"uint64","indexed":false,"internalType":"uint64"},{"name":"durationSec","type":"uint32","indexed":false,"internalType":"uint32"}],"anonymous":false},{"type":"event","name":"TrackUpdated","inputs":[{"name":"trackId","type":"bytes32","indexed":true,"internalType":"bytes32"},{"name":"metaHash","type":"bytes32","indexed":true,"internalType":"bytes32"}],"anonymous":false},{"type":"error","name":"NotUserSender","inputs":[]},{"type":"error","name":"Unauthorized","inputs":[]},{"type":"error","name":"ZeroAddress","inputs":[]}],"bytecode":{"object":"0x6080346100ee57601f611ec238819003918201601f19168301916001600160401b038311848410176100f2578084926020946040528339810103126100ee57516001600160a01b038116908190036100ee5780156100dc573360018060a01b03195f5416175f55805f52600160205260405f20600160ff198254161790557f966c160e1c4dbc7df8d69af4ace01e9297c3cf016397b7914971f2fbfa32672d6020604051337f4ffd725fc4a22075e9ec71c59edf9c38cdeb588a91b24fc5b61388c5be41282b5f80a260018152a2604051611dbb90816101078239f35b60405163d92e233d60e01b8152600490fd5b5f80fd5b634e487b7160e01b5f52604160045260245ffdfe6101006040526004361015610012575f80fd5b5f3560e01c806302d626d3146110c35780630810900914610ffc5780630989106114610ff757806315e84f4514610fdc57806327258b2214610fa75780633062c3a414610f8c57806345eb98a614610c5f578063547d703514610aad578063558a729714610a255780636d70f7ae146109e857806373f7f8dc146107c157806382368a6b146106d95780638da5cb5b146106b25780639f80ccae14610486578063cc891ece146101f0578063e5e0042c146101685763f2fde38b146100d5575f80fd5b34610164576020366003190112610164576100ee61125c565b5f54906001600160a01b039081831633036101535716908115610141576001600160a01b03191681175f9081557f4ffd725fc4a22075e9ec71c59edf9c38cdeb588a91b24fc5b61388c5be41282b9080a2005b60405163d92e233d60e01b8152600490fd5b6040516282b42960e81b8152600490fd5b5f80fd5b346101645760603660031901126101645761018161125c565b6001600160401b03602435818111610164576101a190369060040161122c565b91604435908111610164576101ba90369060040161122c565b9290916001600160a01b03851680156101415733036101de576101dc94611bed565b005b604051636916f8c760e01b8152600490fd5b34610164576101203660031901126101645761020a61125c565b6001600160401b036024358181116101645761022a90369060040161122c565b60e052916044358281116101645761024690369060040161122c565b906064358481116101645761025f90369060040161122c565b6084358681116101645761027790369060040161122c565b9060a4358881116101645761029090369060040161122c565b92909360c4358a8111610164576102ab90369060040161122c565b96909760e4358c8111610164576102c690369060040161122c565b9d909c6101043511610164576102e2366101043560040161122c565b60c0526080526001600160a01b038c1680156101415733036101de5760e05161031a575b506101dc8c8c8f60c0519260805192611bed565b8a60e051148061047b575b80610470575b80610465575b8061045a575b1561041f57603260e051116103e4575f60a0525b60e05160a0511015610306576103d68b8b8b8b8b8b8b8b6103d06103cb6103bf6103b38f8f908f6103a79261039261038d61039c9360a0519060e051906114a1565b6114c5565b9f60a051916114a1565b359660a051916114d3565b97909660a051916114d3565b98909760a051916114d3565b99909860a051916114a1565b611514565b9761156a565b600160a0510160a05261034b565b60405162461bcd60e51b815260206004820152601360248201527272656720626174636820746f6f206c6172676560681b6044820152606490fd5b60405162461bcd60e51b81526020600482015260136024820152720e4cace40d8cadccee8d040dad2e6dac2e8c6d606b1b6044820152606490fd5b508860e05114610337565b508660e05114610331565b508460e0511461032b565b508360e05114610325565b34610164576040366003190112610164576004356001600160401b03602435818111610164576104ba9036906004016111ff565b9190335f526001916020926001845260ff60405f2054161561015357855f526002845260405f206104f460ff600583015460681c16611272565b8515610681576080861161064d5760030191825490610512826110de565b610614578611610600578561052961052f926110de565b84611367565b5f90601f86116001146105895750916105799161056586805f80516020611d668339815191529897965f9161057e575b506113b6565b90555b6040519383859485528401916113c8565b0390a2005b90508401358a61055f565b90601f198616835f52855f20925f905b8282106105e9575050916105799391875f80516020611d6683398151915298979694106105d0575b5050600185811b019055610568565b8301355f19600388901b60f8161c1916905587806105c1565b868401358555938401939287019290870190610599565b634e487b7160e01b5f52604160045260245ffd5b60405162461bcd60e51b815260048101879052601160248201527018dbdd995c88185b1c9958591e481cd95d607a1b6044820152606490fd5b60405162461bcd60e51b815260048101869052600c60248201526b63696420746f6f206c6f6e6760a01b6044820152606490fd5b60405162461bcd60e51b8152600481018690526009602482015268195b5c1d1e4818da5960ba1b6044820152606490fd5b34610164575f366003190112610164575f546040516001600160a01b039091168152602090f35b34610164576020366003190112610164576004355f52600260205261076660405f20600581015461070f60ff8260681c16611272565b63ffffffff6107b3600484015461072585611139565b9461078261073560018301611139565b91610774610751600361074a60028501611139565b9301611139565b936040519a8b9a610100808d528c01906111db565b908a820360208c01526111db565b9088820360408a01526111db565b60ff861660608801526080870192909252602885901c6001600160401b031660a087015285820360c08701526111db565b9160081c1660e08301520390f35b34610164576040366003190112610164576004356001600160401b038111610164576107f190369060040161122c565b6024356001600160401b0381116101645761081090369060040161122c565b335f52600160205260ff60405f2054161561015357610830818414611425565b61083d6032841115611463565b5f5b83811061084857005b6108538185876114a1565b355f52600260205260405f2060ff600582015460681c16806109d3575b806109bc575b806109a8575b61088a575b5060010161083f565b6108958284866114d3565b906001600160401b038211610600576108be826108b560038601546110de565b60038601611367565b5f90601f831160011461093a578260019594936003936108e6935f9261092f575b50506113b6565b9101555b6108f58186886114a1565b355f80516020611d6683398151915261090f8386886114d3565b6109266040519283926020845260208401916113c8565b0390a290610881565b013590508b806108df565b600384015f5260205f20915f5b601f1985168110610990575092600392600196959492879383601f19811610610979575b505050811b019101556108ea565b01355f1983861b60f8161c191690558a808061096b565b82820135845560019093019260209182019101610947565b506109b660038201546110de565b1561087c565b5060806109ca8385876114d3565b90501115610876565b506109df8284866114d3565b90501515610870565b34610164576020366003190112610164576001600160a01b03610a0961125c565b165f526001602052602060ff60405f2054166040519015158152f35b3461016457604036600319011261016457610a3e61125c565b60243590811515809203610164575f546001600160a01b0391908216330361015357169081156101415760207f966c160e1c4dbc7df8d69af4ace01e9297c3cf016397b7914971f2fbfa32672d91835f526001825260405f2060ff1981541660ff8316179055604051908152a2005b346101645760c0366003190112610164576001600160401b0360043581811161016457610ade90369060040161122c565b60249291923582811161016457610af990369060040161122c565b9160443584811161016457610b1290369060040161122c565b92909460643581811161016457610b2d90369060040161122c565b60849291923582811161016457610b4890369060040161122c565b93909260a43590811161016457610b6390369060040161122c565b969095335f5260019b600160205260ff60405f20541615610153578a831480610c56575b80610c4d575b80610c44575b80610c3b575b610ba290611425565b610baf6032841115611463565b5f5b838110610bba57005b808c8f928f8c8f928f928c8f928f9290808f928f908f8f9084610be081809681956114a1565b610be9906114c5565b9e610bf3926114a1565b359b610bfe926114d3565b95610c0a9291956114d3565b96610c169291966114d3565b97610c229291976114a1565b610c2b90611514565b96610c359861156a565b01610bb1565b50828914610b99565b50868314610b93565b50848314610b8d565b50898314610b87565b34610164576080366003190112610164576004356001600160401b0360243581811161016457610c939036906004016111ff565b909160443581811161016457610cad9036906004016111ff565b9060643583811161016457610cc69036906004016111ff565b929091335f5260019460209580875260ff60405f2054161561015357895f526002875260405f20610d0060ff600583015460681c16611272565b610d0d60808a11156112af565b610d1a60808611156112ec565b610d27608088111561132a565b82891161060057610d4289610d3c83546110de565b83611367565b5f89601f8111600114610f1f5780610d60925f91610f1457506113b6565b81555b8181019083861161060057610d7c8661052984546110de565b5f9186601f8111600114610ead5780610d9e916002955f91610ea257506113b6565b90555b0191861161060057610db78661052984546110de565b5f90601f8711600114610e38575091859391610de385610e039998610df598965f91610e2d57506113b6565b90555b6040519788968701998a6113e8565b03601f198101835282611116565b519020907f6f18b9c6009a070f802165814ef94a948ea726e7b520b5310345d865f74990875f80a3005b90508601358e61055f565b90601f19871690835f52885f20915f5b818110610e8d575091610df59795939189610e039b9a98969410610e74575b505085811b019055610de6565b8601355f19600389901b60f8161c191690558c80610e67565b88830135845592840192918a01918a01610e48565b90508801355f61055f565b505f8181528a8120909388601f1981165b8d88828910610efa5750506002965010610ee1575b50508387811b019055610da1565b8701355f1960038a901b60f8161c191690558d80610ed3565b848c013586559781019790940193909201918a9150610ebe565b90508c01358e61055f565b50601f198a1690825f528a8a5f20928d8c875f925b848410610f6c575050505010610f53575b50508189811b018155610d63565b8b01355f1960038c901b60f8161c191690558b80610f45565b8294955095809791929396013581550194019201908c918c8f8890610f34565b34610164575f36600319011261016457602060405160328152f35b34610164576020366003190112610164576004355f526002602052602060ff600560405f20015460681c166040519015158152f35b34610164575f36600319011261016457602060405160c88152f35b6110c3565b34610164576020366003190112610164576004355f52600260205261076660405f2061102781611139565b9060ff61103660018301611139565b61108561104560028501611139565b61107761105460038701611139565b9161077460056004890154980154956040519a8b9a610120808d528c01906111db565b9086820360608801526111db565b92608085015281811660a085015263ffffffff8160081c1660c085015260018060401b038160281c1660e085015260681c1615156101008301520390f35b34610164575f36600319011261016457602060405160808152f35b90600182811c9216801561110c575b60208310146110f857565b634e487b7160e01b5f52602260045260245ffd5b91607f16916110ed565b601f909101601f19168101906001600160401b0382119082101761060057604052565b9060405191825f825461114b816110de565b908184526020946001916001811690815f146111b9575060011461117b575b50505061117992500383611116565b565b5f90815285812095935091905b8183106111a157505061117993508201015f808061116a565b85548884018501529485019487945091830191611188565b9250505061117994925060ff191682840152151560051b8201015f808061116a565b805180835260209291819084018484015e5f828201840152601f01601f1916010190565b9181601f84011215610164578235916001600160401b038311610164576020838186019501011161016457565b9181601f84011215610164578235916001600160401b038311610164576020808501948460051b01011161016457565b600435906001600160a01b038216820361016457565b1561127957565b60405162461bcd60e51b815260206004820152600e60248201526d1b9bdd081c9959da5cdd195c995960921b6044820152606490fd5b156112b657565b60405162461bcd60e51b815260206004820152600e60248201526d7469746c6520746f6f206c6f6e6760901b6044820152606490fd5b156112f357565b60405162461bcd60e51b815260206004820152600f60248201526e61727469737420746f6f206c6f6e6760881b6044820152606490fd5b1561133157565b60405162461bcd60e51b815260206004820152600e60248201526d616c62756d20746f6f206c6f6e6760901b6044820152606490fd5b601f821161137457505050565b5f5260205f20906020601f840160051c830193106113ac575b601f0160051c01905b8181106113a1575050565b5f8155600101611396565b909150819061138d565b8160011b915f199060031b1c19161790565b908060209392818452848401375f828201840152601f01601f1916010190565b949290936114066114229795611414946060895260608901916113c8565b9186830360208801526113c8565b9260408185039101526113c8565b90565b1561142c57565b60405162461bcd60e51b815260206004820152600f60248201526e0d8cadccee8d040dad2e6dac2e8c6d608b1b6044820152606490fd5b1561146a57565b60405162461bcd60e51b815260206004820152600f60248201526e626174636820746f6f206c6172676560881b6044820152606490fd5b91908110156114b15760051b0190565b634e487b7160e01b5f52603260045260245ffd5b3560ff811681036101645790565b91908110156114b15760051b81013590601e19813603018212156101645701803591906001600160401b038311610164576020018236038113610164579190565b3563ffffffff811681036101645790565b9192916001600160401b038211610600576040519161154e601f8201601f191660200184611116565b829481845281830111610164578281602093845f960137010152565b949596909693929193600160ff8716101580611bdf575b15611bab578715611b775760ff8616600103611b2b576001600160801b038816611af3575b6115b360808411156112af565b6115c060808811156112ec565b6115cd608083111561132a565b604051966020880160ff881681528960408a015260408952606089019089821060018060401b0383111761060057816040528951902098895f52600260205260ff600560405f20015460681c16611abd5750506040516001600160401b0361012082019081119082111761060057610120810160405261164e368689611525565b815261165b368388611525565b602082015261166b368585611525565b60408281019190915251602081016001600160401b03811182821017610600576040525f8152606082015289608082015260ff881660a082015263ffffffff8b1660c082015260018060401b03421660e08201526001610100820152885f52600260205260405f20815180519060018060401b038211610600576116f9826116f385546110de565b85611367565b602090601f8311600114611a555761171a92915f91836118d85750506113b6565b81555b60208201518051906001600160401b0382116106005761174d8261174460018601546110de565b60018601611367565b602090601f83116001146119e75761176e92915f91836118d85750506113b6565b60018201555b60408201518051906001600160401b038211610600576117a48261179b60028601546110de565b60028601611367565b602090601f8311600114611979576117c592915f91836118d85750506113b6565b60028201555b60608201518051906001600160401b038211610600576117f2826108b560038601546110de565b602090601f83116001146118e3579560ff99956118b29560055f80516020611d468339815191529e9b9661183d60609f9b978063ffffffff9e98610df59a5f926118d85750506113b6565b60038201555b6080830151600482015501908c60a0820151169082549164ffffffff0060c083015160081b1690600160281b600160681b0360e084015160281b169260ff6101009060681b910151151560681b169360018060701b03191617171717905560405196879560208701998a6113e8565b51902060408051988952426001600160401b031660208a015291909816908701521693a4565b015190505f806108df565b90600384015f5260205f20915f5b601f19851681106119615750956118b29560055f80516020611d468339815191529e9b96600160609f9b959760ff9f9b97610df59963ffffffff9f9983601f19811610611949575b505050811b016003820155611843565b01515f1960f88460031b161c191690555f8080611939565b919260206001819286850151815501940192016118f1565b9190600284015f5260205f20905f935b601f19841685106119cc576001945083601f198116106119b4575b505050811b0160028201556117cb565b01515f1960f88460031b161c191690555f80806119a4565b81810151835560209485019460019093019290910190611989565b9190600184015f5260205f20905f935b601f1984168510611a3a576001945083601f19811610611a22575b505050811b016001820155611774565b01515f1960f88460031b161c191690555f8080611a12565b818101518355602094850194600190930192909101906119f7565b9190835f5260205f20905f935b601f1984168510611aa2576001945083601f19811610611a8a575b505050811b01815561171d565b01515f1960f88460031b161c191690555f8080611a7d565b81810151835560209485019460019093019290910190611a62565b9071185b1c9958591e481c9959da5cdd195c995960721b60a460649362461bcd60e51b8452602085820152601260848201520152fd5b60405162461bcd60e51b815260206004820152601060248201526f189859081b589a59081c185e5b1bd85960821b6044820152606490fd5b600260ff8716036115a6578760a01c156115a65760405162461bcd60e51b815260206004820152601060248201526f189859081a5c1a59081c185e5b1bd85960821b6044820152606490fd5b60405162461bcd60e51b815260206004820152600c60248201526b1e995c9bc81c185e5b1bd85960a21b6044820152606490fd5b60405162461bcd60e51b815260206004820152600c60248201526b1a5b9d985b1a59081ada5b9960a21b6044820152606490fd5b50600360ff87161115611581565b9092916001600160a01b03909116908115611d1457611c0d858214611425565b611c1a60c8821115611463565b5f5b818110611c2b57505050505050565b611c368183876114a1565b35908115611ce057815f5260209160028352604060ff6005825f20015460681c1615611cad57611c67838a896114a1565b356001600160401b03811691908290036101645760019487927fe4535246dec82f5f9313b71f0e50716106f16725e5528d9ef8f5b670656d19a89251908152a301611c1c565b5162461bcd60e51b815260048101849052600d60248201526c756e6b6e6f776e20747261636b60981b6044820152606490fd5b60405162461bcd60e51b815260206004820152600c60248201526b1e995c9bc81d1c9858dad25960a21b6044820152606490fd5b60405162461bcd60e51b81526020600482015260096024820152683d32b937903ab9b2b960b91b6044820152606490fdfe05affcc33e7039d50830191484621884eab8761158278ee980f93530aa54c70da56fb3e55ae5094550614771c571d25e25f23201dfeea48aa7c04e9f6843a807a26469706673582212203b8204dcabd8ab31ad21f3055d06a6f139d05b066be6a3048d2bdd324b16274a64736f6c63430008190033","linkReferences":{}},"methodIdentifiers":{"MAX_CID()":"09891061","MAX_SCROBBLES()":"15e84f45","MAX_STR()":"02d626d3","MAX_TRACK_REG()":"3062c3a4","getTrack(bytes32)":"82368a6b","isOperator(address)":"6d70f7ae","isRegistered(bytes32)":"27258b22","owner()":"8da5cb5b","registerAndScrobbleBatch(address,uint8[],bytes32[],string[],string[],string[],uint32[],bytes32[],uint64[])":"cc891ece","registerTracksBatch(uint8[],bytes32[],string[],string[],string[],uint32[])":"547d7035","scrobbleBatch(address,bytes32[],uint64[])":"e5e0042c","setOperator(address,bool)":"558a7297","setTrackCover(bytes32,string)":"9f80ccae","setTrackCoverBatch(bytes32[],string[])":"73f7f8dc","tracks(bytes32)":"08109009","transferOwnership(address)":"f2fde38b","updateTrack(bytes32,string,string,string)":"45eb98a6"},"id":21}