{"abi":[{"type":"constructor","inputs":[{"name":"registry_","type":"address","internalType":"address"},{"name":"paymentToken_","type":"address","internalType":"address"},{"name":"treasury_","type":"address","internalType":"address"},{"name":"owner_","type":"address","internalType":"address"}],"stateMutability":"nonpayable"},{"type":"function","name":"buy","inputs":[{"name":"parentNode","type":"bytes32","internalType":"bytes32"},{"name":"label","type":"string","internalType":"string"},{"name":"recipient","type":"address","internalType":"address"}],"outputs":[{"name":"tokenId","type":"uint256","internalType":"uint256"}],"stateMutability":"nonpayable"},{"type":"function","name":"listings","inputs":[{"name":"","type":"bytes32","internalType":"bytes32"},{"name":"","type":"bytes32","internalType":"bytes32"}],"outputs":[{"name":"price","type":"uint256","internalType":"uint256"},{"name":"duration","type":"uint256","internalType":"uint256"},{"name":"enabled","type":"bool","internalType":"bool"}],"stateMutability":"view"},{"type":"function","name":"owner","inputs":[],"outputs":[{"name":"","type":"address","internalType":"address"}],"stateMutability":"view"},{"type":"function","name":"paymentToken","inputs":[],"outputs":[{"name":"","type":"address","internalType":"contract IERC20Like"}],"stateMutability":"view"},{"type":"function","name":"quote","inputs":[{"name":"parentNode","type":"bytes32","internalType":"bytes32"},{"name":"label","type":"string","internalType":"string"}],"outputs":[{"name":"","type":"tuple","internalType":"struct PremiumNameStore.Listing","components":[{"name":"price","type":"uint256","internalType":"uint256"},{"name":"duration","type":"uint256","internalType":"uint256"},{"name":"enabled","type":"bool","internalType":"bool"}]}],"stateMutability":"view"},{"type":"function","name":"registry","inputs":[],"outputs":[{"name":"","type":"address","internalType":"contract IRegistryV2Operator"}],"stateMutability":"view"},{"type":"function","name":"renounceOwnership","inputs":[],"outputs":[],"stateMutability":"nonpayable"},{"type":"function","name":"setListing","inputs":[{"name":"parentNode","type":"bytes32","internalType":"bytes32"},{"name":"label","type":"string","internalType":"string"},{"name":"price","type":"uint256","internalType":"uint256"},{"name":"duration","type":"uint256","internalType":"uint256"},{"name":"enabled","type":"bool","internalType":"bool"}],"outputs":[],"stateMutability":"nonpayable"},{"type":"function","name":"setListingHash","inputs":[{"name":"parentNode","type":"bytes32","internalType":"bytes32"},{"name":"labelHash","type":"bytes32","internalType":"bytes32"},{"name":"price","type":"uint256","internalType":"uint256"},{"name":"duration","type":"uint256","internalType":"uint256"},{"name":"enabled","type":"bool","internalType":"bool"}],"outputs":[],"stateMutability":"nonpayable"},{"type":"function","name":"setListingsBatch","inputs":[{"name":"parentNode","type":"bytes32","internalType":"bytes32"},{"name":"labelHashes","type":"bytes32[]","internalType":"bytes32[]"},{"name":"prices","type":"uint256[]","internalType":"uint256[]"},{"name":"durations","type":"uint256[]","internalType":"uint256[]"},{"name":"enabled","type":"bool[]","internalType":"bool[]"}],"outputs":[],"stateMutability":"nonpayable"},{"type":"function","name":"setTreasury","inputs":[{"name":"treasury_","type":"address","internalType":"address"}],"outputs":[],"stateMutability":"nonpayable"},{"type":"function","name":"transferOwnership","inputs":[{"name":"newOwner","type":"address","internalType":"address"}],"outputs":[],"stateMutability":"nonpayable"},{"type":"function","name":"treasury","inputs":[],"outputs":[{"name":"","type":"address","internalType":"address"}],"stateMutability":"view"},{"type":"event","name":"ListingUpdated","inputs":[{"name":"parentNode","type":"bytes32","indexed":true,"internalType":"bytes32"},{"name":"labelHash","type":"bytes32","indexed":true,"internalType":"bytes32"},{"name":"price","type":"uint256","indexed":false,"internalType":"uint256"},{"name":"duration","type":"uint256","indexed":false,"internalType":"uint256"},{"name":"enabled","type":"bool","indexed":false,"internalType":"bool"}],"anonymous":false},{"type":"event","name":"OwnershipTransferred","inputs":[{"name":"previousOwner","type":"address","indexed":true,"internalType":"address"},{"name":"newOwner","type":"address","indexed":true,"internalType":"address"}],"anonymous":false},{"type":"event","name":"Purchased","inputs":[{"name":"parentNode","type":"bytes32","indexed":true,"internalType":"bytes32"},{"name":"labelHash","type":"bytes32","indexed":true,"internalType":"bytes32"},{"name":"label","type":"string","indexed":false,"internalType":"string"},{"name":"buyer","type":"address","indexed":false,"internalType":"address"},{"name":"recipient","type":"address","indexed":false,"internalType":"address"},{"name":"price","type":"uint256","indexed":false,"internalType":"uint256"},{"name":"duration","type":"uint256","indexed":false,"internalType":"uint256"},{"name":"tokenId","type":"uint256","indexed":false,"internalType":"uint256"}],"anonymous":false},{"type":"event","name":"TreasuryUpdated","inputs":[{"name":"treasury","type":"address","indexed":true,"internalType":"address"}],"anonymous":false},{"type":"error","name":"InvalidAddress","inputs":[]},{"type":"error","name":"InvalidArrayLength","inputs":[]},{"type":"error","name":"InvalidDuration","inputs":[]},{"type":"error","name":"InvalidLabel","inputs":[]},{"type":"error","name":"ListingNotActive","inputs":[]},{"type":"error","name":"OwnableInvalidOwner","inputs":[{"name":"owner","type":"address","internalType":"address"}]},{"type":"error","name":"OwnableUnauthorizedAccount","inputs":[{"name":"account","type":"address","internalType":"address"}]},{"type":"error","name":"PaymentFailed","inputs":[]},{"type":"error","name":"ReentrancyGuardReentrantCall","inputs":[]}],"bytecode":{"object":"0x60c03461017857601f610de938819003918201601f19168301916001600160401b0383118484101761017c5780849260809460405283398101031261017857606061004982610190565b9161005660208201610190565b61006260408301610190565b6001600160a01b0393909284916100799101610190565b1693841561016057835f549160018060a01b03199680888516175f558260405194167f8be0079c531659141344cd1fd0a4f28419497f9722a3daafe3b4186f6b6457e05f80a360017f9b779b17422d0df92223018b32b4d1fa46e071723d6817e2486d003becc55f0055169081158015610156575b801561014c575b61013d57509083916080521660a05216906001541617600155604051610c4490816101a582396080518181816104240152610679015260a05181818161053101526107da0152f35b63e6c4247b60e01b8152600490fd5b50848416156100f5565b50848316156100ee565b604051631e4fbdf760e01b81525f6004820152602490fd5b5f80fd5b634e487b7160e01b5f52604160045260245ffd5b51906001600160a01b03821682036101785756fe604060808152600480361015610013575f80fd5b5f3560e01c80632ea4dda9146108095780633013ce29146107c657806361d027b31461079e5780636745c757146106ec578063715018a6146106a85780637b103999146106655780638da5cb5b1461063e578063a1327fcd146105f4578063b1827daa146102f0578063cf73eeec146101d1578063d5da553214610196578063f0f442601461011e5763f2fde38b146100aa575f80fd5b3461011a57602036600319011261011a576100c36108e5565b906100cc610a06565b6001600160a01b039182169283156101045750505f548260018060a01b03198216175f55165f80516020610bef8339815191525f80a3005b905f6024925191631e4fbdf760e01b8352820152fd5b5f80fd5b503461011a57602036600319011261011a576101386108e5565b610140610a06565b6001600160a01b031691821561018957600180546001600160a01b03191684179055827f7dae230f18360d76a040c81f050aa14eb9d6dc7901b20fc5d855e2a20fe814d15f80a2005b5163e6c4247b60e01b8152fd5b503461011a5760a036600319011261011a576101cf906101b46108bd565b906101bd610a06565b60643590604435906024359035610b41565b005b50903461011a5760a036600319011261011a5781356001600160401b0360243581811161011a5761020590369086016108fb565b939060443583811161011a5761021e90369088016108fb565b95909660643585811161011a5761023890369083016108fb565b93909560843590811161011a5761025290369084016108fb565b92909561025d610a06565b8985148015906102e6575b80156102dc575b6102cf5750505f5b83811061028057005b61028b8185846109e2565b3590610298818b8d6109e2565b35916102a582888b6109e2565b356102b183878b6109e2565b3590811515820361011a576001946102c9938d610b41565b01610277565b51634ec4810560e11b8152fd5b508385141561026f565b5085851415610268565b503461011a57606036600319011261011a5780356024356001600160401b03811161011a576103229036908401610890565b93909260443560018060a01b03938482169687830361011a577f9b779b17422d0df92223018b32b4d1fa46e071723d6817e2486d003becc55f009360028554146105e6576002855561037536838a61097d565b80519960209a8b8093012095855f5260028352885f20875f528352885f209160ff60028b51946103a48661092b565b8054865260018101549686019687520154161580158b8501526105d6578351156105c6578a878e938e93155f146105c0575033965b855180610500575b508651978d519e8f9586948594630afbcff560e31b865285015260248401608090528b6084850190610412926109c2565b911698896044840152606483015203917f0000000000000000000000000000000000000000000000000000000000000000165a905f91f19889156104f6575f996104ae575b50915f80516020610bcf8339815191529391600198999a93519051906104898b5195869560c0875260c08701916109c2565b928d33908601528b850152606084015260808301528960a08301520390a35551908152f35b939197985098918a84813d83116104ef575b6104ca818361095a565b8101031261011a57925191989197969092915f80516020610bcf833981519152610457565b503d6104c0565b88513d5f823e3d90fd5b91509391925060648c5f8560015416915195869485936323b872dd60e01b8552338a860152602485015260448401527f0000000000000000000000000000000000000000000000000000000000000000165af19081156105b6575f91610580575b5015610572578a8a878e935f6103e1565b88516307a4ced160e51b8152fd5b90508c81813d83116105af575b610597818361095a565b8101031261011a5751801515810361011a575f610561565b503d61058d565b8a513d5f823e3d90fd5b966103d9565b8951637616640160e01b81528590fd5b89516366cb03e960e01b81528590fd5b8551633ee5aeb560e01b8152fd5b503461011a578160031936011261011a57355f526002602052805f206024355f52602052805f209061063a82549160ff60026001860154950154169051938493846108cc565b0390f35b823461011a575f36600319011261011a575f5490516001600160a01b039091168152602090f35b823461011a575f36600319011261011a57517f00000000000000000000000000000000000000000000000000000000000000006001600160a01b03168152602090f35b3461011a575f36600319011261011a576106c0610a06565b5f80546001600160a01b0319811682556001600160a01b03165f80516020610bef8339815191528280a3005b503461011a578160031936011261011a57602435916001600160401b03831161011a5761075061072160609436908501610890565b919083519461072f8661092b565b5f86525f8560209782898201520152355f5260028552835f2092369161097d565b8381519101205f528252805f209181519061076a8261092b565b8354938483528360ff6002600184015493858701948552015416930192151583528351948552519084015251151590820152f35b823461011a575f36600319011261011a5760015490516001600160a01b039091168152602090f35b823461011a575f36600319011261011a57517f00000000000000000000000000000000000000000000000000000000000000006001600160a01b03168152602090f35b50903461011a5760a036600319011261011a576024356001600160401b03811161011a5761083a9036908401610890565b6108426108bd565b9261084b610a06565b6108558284610a31565b1561088157506101cf939161086b91369161097d565b8051916064359260206044359301209035610b41565b51633d36cb8d60e01b81528490fd5b9181601f8401121561011a578235916001600160401b03831161011a576020838186019501011161011a57565b60843590811515820361011a57565b9081526020810191909152901515604082015260600190565b600435906001600160a01b038216820361011a57565b9181601f8401121561011a578235916001600160401b03831161011a576020808501948460051b01011161011a57565b606081019081106001600160401b0382111761094657604052565b634e487b7160e01b5f52604160045260245ffd5b601f909101601f19168101906001600160401b0382119082101761094657604052565b9192916001600160401b03821161094657604051916109a6601f8201601f19166020018461095a565b82948184528183011161011a578281602093845f960137010152565b908060209392818452848401375f828201840152601f01601f1916010190565b91908110156109f25760051b0190565b634e487b7160e01b5f52603260045260245ffd5b5f546001600160a01b03163303610a1957565b60405163118cdaa760e01b8152336004820152602490fd5b610a3c91369161097d565b80518015908115610b36575b50610b31575f5b815180821015610b295760ff60f81b602083850101511690606160f81b8210159182610b1a575b600360fc1b8110159081610b0b575b602d60f81b1492159081610b02575b5080610afa575b610af25781610ab8575b50610ab257600101610a4f565b50505f90565b821591508115610aca575b505f610aa5565b5f19810191508111610ade5781145f610ac3565b634e487b7160e01b5f52601160045260245ffd5b505050505f90565b508115610a9b565b9050155f610a94565b603960f81b8111159150610a85565b603d60f91b8111159250610a76565b505050600190565b505f90565b603f9150115f610a48565b92909391610bc97f9e0fd7b7de37ad5d7110476296cb5fb624ca41122ef85cb019eef238259b27ec93604051610b768161092b565b8381526002602082019186835260408101928415158452895f528260205260405f208b5f5260205260405f2091518255516001820155019051151560ff80198354169116179055604051938493846108cc565b0390a356fec41c629125c07343b78cac2262dd2b99de2d7c8fa718834c752dc416abe0fb268be0079c531659141344cd1fd0a4f28419497f9722a3daafe3b4186f6b6457e0a264697066735822122053892dd80ff628236aaa5129d69558eda2ca02adeb84adeeb37cb6efdb4d624164736f6c63430008190033","linkReferences":{}},"methodIdentifiers":{"buy(bytes32,string,address)":"b1827daa","listings(bytes32,bytes32)":"a1327fcd","owner()":"8da5cb5b","paymentToken()":"3013ce29","quote(bytes32,string)":"6745c757","registry()":"7b103999","renounceOwnership()":"715018a6","setListing(bytes32,string,uint256,uint256,bool)":"2ea4dda9","setListingHash(bytes32,bytes32,uint256,uint256,bool)":"d5da5532","setListingsBatch(bytes32,bytes32[],uint256[],uint256[],bool[])":"cf73eeec","setTreasury(address)":"f0f44260","transferOwnership(address)":"f2fde38b","treasury()":"61d027b3"},"id":52}