{"abi":[{"type":"constructor","inputs":[{"name":"paymentToken_","type":"address","internalType":"address"},{"name":"oracle_","type":"address","internalType":"address"},{"name":"treasury_","type":"address","internalType":"address"},{"name":"feeBps_","type":"uint16","internalType":"uint16"},{"name":"challengeWindowSeconds_","type":"uint48","internalType":"uint48"},{"name":"challengeBond_","type":"uint256","internalType":"uint256"},{"name":"lateCancelPenaltyBps_","type":"uint16","internalType":"uint16"},{"name":"noAttestBufferSeconds_","type":"uint48","internalType":"uint48"},{"name":"disputeTimeoutSeconds_","type":"uint48","internalType":"uint48"}],"stateMutability":"nonpayable"},{"type":"receive","stateMutability":"payable"},{"type":"function","name":"BPS","inputs":[],"outputs":[{"name":"","type":"uint256","internalType":"uint256"}],"stateMutability":"view"},{"type":"function","name":"MAX_CHALLENGE_WINDOW","inputs":[],"outputs":[{"name":"","type":"uint48","internalType":"uint48"}],"stateMutability":"view"},{"type":"function","name":"MAX_DISPUTE_TIMEOUT","inputs":[],"outputs":[{"name":"","type":"uint48","internalType":"uint48"}],"stateMutability":"view"},{"type":"function","name":"MAX_NO_ATTEST_BUFFER","inputs":[],"outputs":[{"name":"","type":"uint48","internalType":"uint48"}],"stateMutability":"view"},{"type":"function","name":"acceptOwnership","inputs":[],"outputs":[],"stateMutability":"nonpayable"},{"type":"function","name":"acceptRequest","inputs":[{"name":"requestId","type":"uint256","internalType":"uint256"},{"name":"startTime","type":"uint48","internalType":"uint48"},{"name":"graceMins","type":"uint32","internalType":"uint32"},{"name":"minOverlapMins","type":"uint32","internalType":"uint32"},{"name":"cancelCutoffMins","type":"uint32","internalType":"uint32"}],"outputs":[{"name":"slotId","type":"uint256","internalType":"uint256"},{"name":"bookingId","type":"uint256","internalType":"uint256"}],"stateMutability":"nonpayable"},{"type":"function","name":"attest","inputs":[{"name":"bookingId","type":"uint256","internalType":"uint256"},{"name":"outcome","type":"uint8","internalType":"enum SessionEscrowV1.Outcome"},{"name":"metricsHash","type":"bytes32","internalType":"bytes32"}],"outputs":[],"stateMutability":"nonpayable"},{"type":"function","name":"book","inputs":[{"name":"slotId","type":"uint256","internalType":"uint256"}],"outputs":[{"name":"bookingId","type":"uint256","internalType":"uint256"}],"stateMutability":"nonpayable"},{"type":"function","name":"bookingTerms","inputs":[{"name":"","type":"uint256","internalType":"uint256"}],"outputs":[{"name":"feeBps","type":"uint16","internalType":"uint16"},{"name":"lateCancelPenaltyBps","type":"uint16","internalType":"uint16"},{"name":"challengeWindow","type":"uint48","internalType":"uint48"},{"name":"noAttestBuffer","type":"uint48","internalType":"uint48"},{"name":"disputeTimeout","type":"uint48","internalType":"uint48"},{"name":"challengeBond","type":"uint256","internalType":"uint256"}],"stateMutability":"view"},{"type":"function","name":"bookings","inputs":[{"name":"","type":"uint256","internalType":"uint256"}],"outputs":[{"name":"slotId","type":"uint256","internalType":"uint256"},{"name":"guest","type":"address","internalType":"address"},{"name":"amount","type":"uint256","internalType":"uint256"},{"name":"status","type":"uint8","internalType":"enum SessionEscrowV1.SessionBookingStatus"},{"name":"oracleOutcome","type":"uint8","internalType":"enum SessionEscrowV1.Outcome"},{"name":"metricsHash","type":"bytes32","internalType":"bytes32"},{"name":"attestedAt","type":"uint64","internalType":"uint64"},{"name":"finalizableAt","type":"uint64","internalType":"uint64"},{"name":"challenger","type":"address","internalType":"address"},{"name":"bondAmount","type":"uint256","internalType":"uint256"},{"name":"disputedAt","type":"uint64","internalType":"uint64"}],"stateMutability":"view"},{"type":"function","name":"cancelBookingAsGuest","inputs":[{"name":"bookingId","type":"uint256","internalType":"uint256"}],"outputs":[],"stateMutability":"nonpayable"},{"type":"function","name":"cancelBookingAsHost","inputs":[{"name":"bookingId","type":"uint256","internalType":"uint256"}],"outputs":[],"stateMutability":"nonpayable"},{"type":"function","name":"cancelRequest","inputs":[{"name":"requestId","type":"uint256","internalType":"uint256"}],"outputs":[],"stateMutability":"nonpayable"},{"type":"function","name":"cancelSlot","inputs":[{"name":"slotId","type":"uint256","internalType":"uint256"}],"outputs":[],"stateMutability":"nonpayable"},{"type":"function","name":"challenge","inputs":[{"name":"bookingId","type":"uint256","internalType":"uint256"}],"outputs":[],"stateMutability":"nonpayable"},{"type":"function","name":"challengeBond","inputs":[],"outputs":[{"name":"","type":"uint256","internalType":"uint256"}],"stateMutability":"view"},{"type":"function","name":"challengeWindow","inputs":[],"outputs":[{"name":"","type":"uint48","internalType":"uint48"}],"stateMutability":"view"},{"type":"function","name":"claimIfUnattested","inputs":[{"name":"bookingId","type":"uint256","internalType":"uint256"}],"outputs":[],"stateMutability":"nonpayable"},{"type":"function","name":"createRequest","inputs":[{"name":"hostTarget","type":"address","internalType":"address"},{"name":"windowStart","type":"uint48","internalType":"uint48"},{"name":"windowEnd","type":"uint48","internalType":"uint48"},{"name":"durationMins","type":"uint32","internalType":"uint32"},{"name":"amount","type":"uint256","internalType":"uint256"},{"name":"expiry","type":"uint48","internalType":"uint48"}],"outputs":[{"name":"requestId","type":"uint256","internalType":"uint256"}],"stateMutability":"nonpayable"},{"type":"function","name":"createSlot","inputs":[{"name":"startTime","type":"uint48","internalType":"uint48"},{"name":"durationMins","type":"uint32","internalType":"uint32"},{"name":"graceMins","type":"uint32","internalType":"uint32"},{"name":"minOverlapMins","type":"uint32","internalType":"uint32"},{"name":"cancelCutoffMins","type":"uint32","internalType":"uint32"}],"outputs":[{"name":"slotId","type":"uint256","internalType":"uint256"}],"stateMutability":"nonpayable"},{"type":"function","name":"createSlots","inputs":[{"name":"inputs","type":"tuple[]","internalType":"struct SessionEscrowV1.SessionSlotInput[]","components":[{"name":"startTime","type":"uint48","internalType":"uint48"},{"name":"durationMins","type":"uint32","internalType":"uint32"},{"name":"graceMins","type":"uint32","internalType":"uint32"},{"name":"minOverlapMins","type":"uint32","internalType":"uint32"},{"name":"cancelCutoffMins","type":"uint32","internalType":"uint32"}]}],"outputs":[{"name":"firstSlotId","type":"uint256","internalType":"uint256"}],"stateMutability":"nonpayable"},{"type":"function","name":"disputeTimeout","inputs":[],"outputs":[{"name":"","type":"uint48","internalType":"uint48"}],"stateMutability":"view"},{"type":"function","name":"feeBps","inputs":[],"outputs":[{"name":"","type":"uint16","internalType":"uint16"}],"stateMutability":"view"},{"type":"function","name":"finalize","inputs":[{"name":"bookingId","type":"uint256","internalType":"uint256"}],"outputs":[],"stateMutability":"nonpayable"},{"type":"function","name":"finalizeDisputeByTimeout","inputs":[{"name":"bookingId","type":"uint256","internalType":"uint256"}],"outputs":[],"stateMutability":"nonpayable"},{"type":"function","name":"getBooking","inputs":[{"name":"bookingId","type":"uint256","internalType":"uint256"}],"outputs":[{"name":"","type":"tuple","internalType":"struct SessionEscrowV1.SessionBooking","components":[{"name":"slotId","type":"uint256","internalType":"uint256"},{"name":"guest","type":"address","internalType":"address"},{"name":"amount","type":"uint256","internalType":"uint256"},{"name":"status","type":"uint8","internalType":"enum SessionEscrowV1.SessionBookingStatus"},{"name":"oracleOutcome","type":"uint8","internalType":"enum SessionEscrowV1.Outcome"},{"name":"metricsHash","type":"bytes32","internalType":"bytes32"},{"name":"attestedAt","type":"uint64","internalType":"uint64"},{"name":"finalizableAt","type":"uint64","internalType":"uint64"},{"name":"challenger","type":"address","internalType":"address"},{"name":"bondAmount","type":"uint256","internalType":"uint256"},{"name":"disputedAt","type":"uint64","internalType":"uint64"}]}],"stateMutability":"view"},{"type":"function","name":"getBookingTerms","inputs":[{"name":"bookingId","type":"uint256","internalType":"uint256"}],"outputs":[{"name":"","type":"tuple","internalType":"struct SessionEscrowV1.BookingTerms","components":[{"name":"feeBps","type":"uint16","internalType":"uint16"},{"name":"lateCancelPenaltyBps","type":"uint16","internalType":"uint16"},{"name":"challengeWindow","type":"uint48","internalType":"uint48"},{"name":"noAttestBuffer","type":"uint48","internalType":"uint48"},{"name":"disputeTimeout","type":"uint48","internalType":"uint48"},{"name":"challengeBond","type":"uint256","internalType":"uint256"}]}],"stateMutability":"view"},{"type":"function","name":"getRequest","inputs":[{"name":"requestId","type":"uint256","internalType":"uint256"}],"outputs":[{"name":"","type":"tuple","internalType":"struct SessionEscrowV1.SessionRequest","components":[{"name":"hostTarget","type":"address","internalType":"address"},{"name":"guest","type":"address","internalType":"address"},{"name":"windowStart","type":"uint48","internalType":"uint48"},{"name":"windowEnd","type":"uint48","internalType":"uint48"},{"name":"durationMins","type":"uint32","internalType":"uint32"},{"name":"amount","type":"uint256","internalType":"uint256"},{"name":"expiry","type":"uint48","internalType":"uint48"},{"name":"status","type":"uint8","internalType":"enum SessionEscrowV1.SessionRequestStatus"},{"name":"slotId","type":"uint256","internalType":"uint256"},{"name":"bookingId","type":"uint256","internalType":"uint256"},{"name":"host","type":"address","internalType":"address"}]}],"stateMutability":"view"},{"type":"function","name":"getSlot","inputs":[{"name":"slotId","type":"uint256","internalType":"uint256"}],"outputs":[{"name":"","type":"tuple","internalType":"struct SessionEscrowV1.SessionSlot","components":[{"name":"host","type":"address","internalType":"address"},{"name":"startTime","type":"uint48","internalType":"uint48"},{"name":"durationMins","type":"uint32","internalType":"uint32"},{"name":"price","type":"uint256","internalType":"uint256"},{"name":"graceMins","type":"uint32","internalType":"uint32"},{"name":"minOverlapMins","type":"uint32","internalType":"uint32"},{"name":"cancelCutoffMins","type":"uint32","internalType":"uint32"},{"name":"status","type":"uint8","internalType":"enum SessionEscrowV1.SessionSlotStatus"}]}],"stateMutability":"view"},{"type":"function","name":"hostBasePrice","inputs":[{"name":"","type":"address","internalType":"address"}],"outputs":[{"name":"","type":"uint256","internalType":"uint256"}],"stateMutability":"view"},{"type":"function","name":"lateCancelPenaltyBps","inputs":[],"outputs":[{"name":"","type":"uint16","internalType":"uint16"}],"stateMutability":"view"},{"type":"function","name":"nextBookingId","inputs":[],"outputs":[{"name":"","type":"uint256","internalType":"uint256"}],"stateMutability":"view"},{"type":"function","name":"nextRequestId","inputs":[],"outputs":[{"name":"","type":"uint256","internalType":"uint256"}],"stateMutability":"view"},{"type":"function","name":"nextSlotId","inputs":[],"outputs":[{"name":"","type":"uint256","internalType":"uint256"}],"stateMutability":"view"},{"type":"function","name":"noAttestBuffer","inputs":[],"outputs":[{"name":"","type":"uint48","internalType":"uint48"}],"stateMutability":"view"},{"type":"function","name":"oracle","inputs":[],"outputs":[{"name":"","type":"address","internalType":"address"}],"stateMutability":"view"},{"type":"function","name":"owed","inputs":[{"name":"","type":"address","internalType":"address"}],"outputs":[{"name":"","type":"uint256","internalType":"uint256"}],"stateMutability":"view"},{"type":"function","name":"owner","inputs":[],"outputs":[{"name":"","type":"address","internalType":"address"}],"stateMutability":"view"},{"type":"function","name":"paymentToken","inputs":[],"outputs":[{"name":"","type":"address","internalType":"contract IERC20"}],"stateMutability":"view"},{"type":"function","name":"pendingOwner","inputs":[],"outputs":[{"name":"","type":"address","internalType":"address"}],"stateMutability":"view"},{"type":"function","name":"requests","inputs":[{"name":"","type":"uint256","internalType":"uint256"}],"outputs":[{"name":"hostTarget","type":"address","internalType":"address"},{"name":"guest","type":"address","internalType":"address"},{"name":"windowStart","type":"uint48","internalType":"uint48"},{"name":"windowEnd","type":"uint48","internalType":"uint48"},{"name":"durationMins","type":"uint32","internalType":"uint32"},{"name":"amount","type":"uint256","internalType":"uint256"},{"name":"expiry","type":"uint48","internalType":"uint48"},{"name":"status","type":"uint8","internalType":"enum SessionEscrowV1.SessionRequestStatus"},{"name":"slotId","type":"uint256","internalType":"uint256"},{"name":"bookingId","type":"uint256","internalType":"uint256"},{"name":"host","type":"address","internalType":"address"}],"stateMutability":"view"},{"type":"function","name":"resolveDispute","inputs":[{"name":"bookingId","type":"uint256","internalType":"uint256"},{"name":"finalOutcome","type":"uint8","internalType":"enum SessionEscrowV1.Outcome"}],"outputs":[],"stateMutability":"nonpayable"},{"type":"function","name":"setChallengeBond","inputs":[{"name":"a","type":"uint256","internalType":"uint256"}],"outputs":[],"stateMutability":"nonpayable"},{"type":"function","name":"setChallengeWindow","inputs":[{"name":"s","type":"uint48","internalType":"uint48"}],"outputs":[],"stateMutability":"nonpayable"},{"type":"function","name":"setDisputeTimeout","inputs":[{"name":"s","type":"uint48","internalType":"uint48"}],"outputs":[],"stateMutability":"nonpayable"},{"type":"function","name":"setFeeBps","inputs":[{"name":"bps","type":"uint16","internalType":"uint16"}],"outputs":[],"stateMutability":"nonpayable"},{"type":"function","name":"setHostBasePrice","inputs":[{"name":"price","type":"uint256","internalType":"uint256"}],"outputs":[],"stateMutability":"nonpayable"},{"type":"function","name":"setLateCancelPenaltyBps","inputs":[{"name":"bps","type":"uint16","internalType":"uint16"}],"outputs":[],"stateMutability":"nonpayable"},{"type":"function","name":"setNoAttestBuffer","inputs":[{"name":"s","type":"uint48","internalType":"uint48"}],"outputs":[],"stateMutability":"nonpayable"},{"type":"function","name":"setOracle","inputs":[{"name":"o","type":"address","internalType":"address"}],"outputs":[],"stateMutability":"nonpayable"},{"type":"function","name":"setTreasury","inputs":[{"name":"t","type":"address","internalType":"address"}],"outputs":[],"stateMutability":"nonpayable"},{"type":"function","name":"slotToBooking","inputs":[{"name":"","type":"uint256","internalType":"uint256"}],"outputs":[{"name":"","type":"uint256","internalType":"uint256"}],"stateMutability":"view"},{"type":"function","name":"slots","inputs":[{"name":"","type":"uint256","internalType":"uint256"}],"outputs":[{"name":"host","type":"address","internalType":"address"},{"name":"startTime","type":"uint48","internalType":"uint48"},{"name":"durationMins","type":"uint32","internalType":"uint32"},{"name":"price","type":"uint256","internalType":"uint256"},{"name":"graceMins","type":"uint32","internalType":"uint32"},{"name":"minOverlapMins","type":"uint32","internalType":"uint32"},{"name":"cancelCutoffMins","type":"uint32","internalType":"uint32"},{"name":"status","type":"uint8","internalType":"enum SessionEscrowV1.SessionSlotStatus"}],"stateMutability":"view"},{"type":"function","name":"sweepNative","inputs":[],"outputs":[],"stateMutability":"nonpayable"},{"type":"function","name":"sweepTokenExcess","inputs":[],"outputs":[],"stateMutability":"nonpayable"},{"type":"function","name":"totalHeld","inputs":[],"outputs":[{"name":"","type":"uint256","internalType":"uint256"}],"stateMutability":"view"},{"type":"function","name":"transferOwnership","inputs":[{"name":"n","type":"address","internalType":"address"}],"outputs":[],"stateMutability":"nonpayable"},{"type":"function","name":"treasury","inputs":[],"outputs":[{"name":"","type":"address","internalType":"address"}],"stateMutability":"view"},{"type":"function","name":"withdrawOwed","inputs":[],"outputs":[],"stateMutability":"nonpayable"},{"type":"function","name":"withdrawOwed","inputs":[{"name":"to","type":"address","internalType":"address"}],"outputs":[],"stateMutability":"nonpayable"},{"type":"event","name":"Attested","inputs":[{"name":"bookingId","type":"uint256","indexed":true,"internalType":"uint256"},{"name":"outcome","type":"uint8","indexed":false,"internalType":"enum SessionEscrowV1.Outcome"},{"name":"metricsHash","type":"bytes32","indexed":false,"internalType":"bytes32"},{"name":"finalizableAt","type":"uint64","indexed":false,"internalType":"uint64"}],"anonymous":false},{"type":"event","name":"ChallengeBondUpdated","inputs":[{"name":"oldChallengeBond","type":"uint256","indexed":false,"internalType":"uint256"},{"name":"newChallengeBond","type":"uint256","indexed":false,"internalType":"uint256"}],"anonymous":false},{"type":"event","name":"ChallengeWindowUpdated","inputs":[{"name":"oldChallengeWindow","type":"uint48","indexed":false,"internalType":"uint48"},{"name":"newChallengeWindow","type":"uint48","indexed":false,"internalType":"uint48"}],"anonymous":false},{"type":"event","name":"Challenged","inputs":[{"name":"bookingId","type":"uint256","indexed":true,"internalType":"uint256"},{"name":"challenger","type":"address","indexed":true,"internalType":"address"},{"name":"bondAmount","type":"uint256","indexed":false,"internalType":"uint256"}],"anonymous":false},{"type":"event","name":"DisputeTimeoutUpdated","inputs":[{"name":"oldDisputeTimeout","type":"uint48","indexed":false,"internalType":"uint48"},{"name":"newDisputeTimeout","type":"uint48","indexed":false,"internalType":"uint48"}],"anonymous":false},{"type":"event","name":"FeeBpsUpdated","inputs":[{"name":"oldFeeBps","type":"uint16","indexed":false,"internalType":"uint16"},{"name":"newFeeBps","type":"uint16","indexed":false,"internalType":"uint16"}],"anonymous":false},{"type":"event","name":"Finalized","inputs":[{"name":"bookingId","type":"uint256","indexed":true,"internalType":"uint256"},{"name":"finalOutcome","type":"uint8","indexed":false,"internalType":"enum SessionEscrowV1.Outcome"},{"name":"hostPaid","type":"uint256","indexed":false,"internalType":"uint256"},{"name":"guestRefund","type":"uint256","indexed":false,"internalType":"uint256"},{"name":"feePaid","type":"uint256","indexed":false,"internalType":"uint256"}],"anonymous":false},{"type":"event","name":"HostBasePriceSet","inputs":[{"name":"host","type":"address","indexed":true,"internalType":"address"},{"name":"price","type":"uint256","indexed":false,"internalType":"uint256"}],"anonymous":false},{"type":"event","name":"LateCancelPenaltyBpsUpdated","inputs":[{"name":"oldPenaltyBps","type":"uint16","indexed":false,"internalType":"uint16"},{"name":"newPenaltyBps","type":"uint16","indexed":false,"internalType":"uint16"}],"anonymous":false},{"type":"event","name":"NativeSwept","inputs":[{"name":"amount","type":"uint256","indexed":false,"internalType":"uint256"}],"anonymous":false},{"type":"event","name":"NoAttestBufferUpdated","inputs":[{"name":"oldNoAttestBuffer","type":"uint48","indexed":false,"internalType":"uint48"},{"name":"newNoAttestBuffer","type":"uint48","indexed":false,"internalType":"uint48"}],"anonymous":false},{"type":"event","name":"OracleUpdated","inputs":[{"name":"oldOracle","type":"address","indexed":true,"internalType":"address"},{"name":"newOracle","type":"address","indexed":true,"internalType":"address"}],"anonymous":false},{"type":"event","name":"OwedWithdrawn","inputs":[{"name":"from","type":"address","indexed":true,"internalType":"address"},{"name":"to","type":"address","indexed":true,"internalType":"address"},{"name":"amount","type":"uint256","indexed":false,"internalType":"uint256"}],"anonymous":false},{"type":"event","name":"OwnershipTransferStarted","inputs":[{"name":"previousOwner","type":"address","indexed":true,"internalType":"address"},{"name":"pendingOwner","type":"address","indexed":true,"internalType":"address"}],"anonymous":false},{"type":"event","name":"OwnershipTransferred","inputs":[{"name":"previousOwner","type":"address","indexed":true,"internalType":"address"},{"name":"newOwner","type":"address","indexed":true,"internalType":"address"}],"anonymous":false},{"type":"event","name":"Resolved","inputs":[{"name":"bookingId","type":"uint256","indexed":true,"internalType":"uint256"},{"name":"finalOutcome","type":"uint8","indexed":false,"internalType":"enum SessionEscrowV1.Outcome"}],"anonymous":false},{"type":"event","name":"SessionBooked","inputs":[{"name":"bookingId","type":"uint256","indexed":true,"internalType":"uint256"},{"name":"slotId","type":"uint256","indexed":true,"internalType":"uint256"},{"name":"guest","type":"address","indexed":true,"internalType":"address"},{"name":"amount","type":"uint256","indexed":false,"internalType":"uint256"}],"anonymous":false},{"type":"event","name":"SessionBookingCancelled","inputs":[{"name":"bookingId","type":"uint256","indexed":true,"internalType":"uint256"},{"name":"reason","type":"uint8","indexed":false,"internalType":"enum SessionEscrowV1.Outcome"},{"name":"refund","type":"uint256","indexed":false,"internalType":"uint256"},{"name":"penalty","type":"uint256","indexed":false,"internalType":"uint256"},{"name":"hostPaid","type":"uint256","indexed":false,"internalType":"uint256"},{"name":"feePaid","type":"uint256","indexed":false,"internalType":"uint256"}],"anonymous":false},{"type":"event","name":"SessionRequestAccepted","inputs":[{"name":"requestId","type":"uint256","indexed":true,"internalType":"uint256"},{"name":"host","type":"address","indexed":true,"internalType":"address"},{"name":"slotId","type":"uint256","indexed":false,"internalType":"uint256"},{"name":"bookingId","type":"uint256","indexed":false,"internalType":"uint256"},{"name":"startTime","type":"uint48","indexed":false,"internalType":"uint48"}],"anonymous":false},{"type":"event","name":"SessionRequestCancelled","inputs":[{"name":"requestId","type":"uint256","indexed":true,"internalType":"uint256"},{"name":"refund","type":"uint256","indexed":false,"internalType":"uint256"}],"anonymous":false},{"type":"event","name":"SessionRequestCreated","inputs":[{"name":"requestId","type":"uint256","indexed":true,"internalType":"uint256"},{"name":"hostTarget","type":"address","indexed":true,"internalType":"address"},{"name":"guest","type":"address","indexed":true,"internalType":"address"},{"name":"windowStart","type":"uint48","indexed":false,"internalType":"uint48"},{"name":"windowEnd","type":"uint48","indexed":false,"internalType":"uint48"},{"name":"durationMins","type":"uint32","indexed":false,"internalType":"uint32"},{"name":"amount","type":"uint256","indexed":false,"internalType":"uint256"},{"name":"expiry","type":"uint48","indexed":false,"internalType":"uint48"}],"anonymous":false},{"type":"event","name":"SessionSlotCancelled","inputs":[{"name":"slotId","type":"uint256","indexed":true,"internalType":"uint256"}],"anonymous":false},{"type":"event","name":"SessionSlotCreated","inputs":[{"name":"slotId","type":"uint256","indexed":true,"internalType":"uint256"},{"name":"host","type":"address","indexed":true,"internalType":"address"},{"name":"startTime","type":"uint48","indexed":false,"internalType":"uint48"},{"name":"durationMins","type":"uint32","indexed":false,"internalType":"uint32"},{"name":"price","type":"uint256","indexed":false,"internalType":"uint256"}],"anonymous":false},{"type":"event","name":"TokenSwept","inputs":[{"name":"amount","type":"uint256","indexed":false,"internalType":"uint256"}],"anonymous":false},{"type":"event","name":"TreasuryUpdated","inputs":[{"name":"oldTreasury","type":"address","indexed":true,"internalType":"address"},{"name":"newTreasury","type":"address","indexed":true,"internalType":"address"}],"anonymous":false},{"type":"event","name":"UnattestedRefunded","inputs":[{"name":"bookingId","type":"uint256","indexed":true,"internalType":"uint256"},{"name":"refund","type":"uint256","indexed":false,"internalType":"uint256"}],"anonymous":false},{"type":"error","name":"SafeERC20FailedOperation","inputs":[{"name":"token","type":"address","internalType":"address"}]}],"bytecode":{"object":"0x60a03461020b57601f61382a38819003918201601f19168301916001600160401b0383118484101761021a578084926101209460405283398101031261020b576100488161022e565b906100556020820161022e565b6100616040830161022e565b61006d60608401610242565b61007960808501610251565b9160a08501519161008c60c08701610242565b936100a661010061009f60e08a01610251565b9801610251565b97600195865f5586600a5586600b5586600c5560018060a01b0380921697881561020b578216908115158061020f575b1561020b5761ffff906107d08287161161020b571696612710881161020b57861561020b5762278d0065ffffffffffff90808287161161020b57818c161161020b5762ed4e00908c161161020b5767ffffffffffff00009860805260018060a01b031990338282541617905560035416176003556004549165ffffffffffff60b01b9060b01b1693169063ffffffff60e01b16179061ffff60a01b9060a01b1617176004556005556dffffffffffff00000000000000006006549460401b169360018060701b031916179160101b161717600655604051335f7f8be0079c531659141344cd1fd0a4f28419497f9722a3daafe3b4186f6b6457e08180a36135c590816102658239608051818181610dea0152818161136b01528181612432015281816126ed01528181612d6d01526132d00152f35b5f80fd5b5082861615156100d6565b634e487b7160e01b5f52604160045260245ffd5b51906001600160a01b038216820361020b57565b519061ffff8216820361020b57565b519065ffffffffffff8216820361020b5756fe608080604052600436101561001e575b50361561001a575f80fd5b5f80fd5b5f3560e01c908163023b1fc914612ae757508063046570ea14612ac657806305261aea146128195780630d9d763e146127995780630ec95c491461271d5780631116fd041461263e57806318c281a6146125d85780631dab301e14612514578063249d39e9146124f857806324a9d853146124d457806326bc522c1461247e57806326f20c79146124615780633013ce291461241d5780633015394c1461237557806333fe248b14612080578063387dd9e914611ff057806339a72c5c14611fca5780634053ef0b14611df75780634244c4a214611cfa57806342cc019a14611c6557806343d859bf14611c40578063475b019314611c1657806351586ecb14611bd75780635230515114611bf95780635bdfbeb514611bdc57806360c5849114611bd757806361d027b314611baf578063699eb23f14611ad75780636a5c841a146119545780636a84a985146119375780637314e04c146118cc57806379ba5097146118645780637adbf973146117f25780637ae15ac1146117855780637d47a828146116905780637dc0d1d0146116685780637eba7ba614611509578063804ebda7146114ec57806381d12c581461142e57806381e4f660146110eb57806384ff6985146110bc578063856b9b0314611025578063861a141214610ffd5780638da5cb5b14610fd557806390955aa714610e50578063ab803a7614610e2b578063ab82d9a014610c86578063b8a02e9814610c5e578063bdbc483414610ade578063c04c22a414610ab6578063c58343ef1461092b578063df18e047146108f3578063e30c3978146108cb578063e55e421114610733578063f0f44260146106c1578063f2fde38b14610651578063f3ac7d7714610619578063f43cc773146105fc578063f7c405101461035a5763ff2d438b146102be575f61000f565b3461001a57602036600319011261001a576102d7612ba8565b6001546001600160a01b0316330361001a5765ffffffffffff62ed4e008183161161001a577ffdab44b9ce774464b149f6907fb20c83e884f1f18bd105cb762c1aa7c4939eb3916103556006549165ffffffffffff60401b8160401b1665ffffffffffff60401b1984161760065560405193849360401c1683612d30565b0390a1005b3461001a5760208060031936011261001a576004359060015f540361001a5760025f55815f52600e815260405f20906003820191825460ff811660078110156105e85760010361001a5760018201805490946001600160a01b039290918316330361001a5783545f52600d855260405f2065ffffffffffff9182825460a01c16938442101561001a57600283019463ffffffff865460401c1690603c820291808304603c14901517156105d45760029161041391612d49565b60ff19909316179055421161048b575050805460ff60601b1916905581545f9081526011845260408120559254600290910180545f805160206135858339815191529460a09493610465929116613264565b5460405191600583528201525f60408201525f60608201525f6080820152a25b60015f55005b825460ff60601b1916600360601b179092555f878152600f865260409081902090519395949193916104bc83612c3e565b81549161ffff958684168552868460101c1693848987015281818a1c166040870152818160501c16606087015260801c1660808501526001015460a0840152600201549361271061050e819387612cd5565b0492511661051c9083612cd5565b04926105288483612d49565b926105338383612d49565b918561053f8685612cc8565b9061054991612cc8565b0361001a5783875f80516020613585833981519152998460a09a816105c1575b505050866105ae575b8161059b575b5050506040519460058652850152604084015260608301526080820152a2610485565b6105a6925416613264565b888381610578565b6105bc878260045416613264565b610572565b6105cc925416613264565b8b8482610569565b634e487b7160e01b5f52601160045260245ffd5b634e487b7160e01b5f52602160045260245ffd5b3461001a575f36600319011261001a576020600854604051908152f35b3461001a57602036600319011261001a576001600160a01b0361063a612c13565b165f526007602052602060405f2054604051908152f35b3461001a57602036600319011261001a5761066a612c13565b6001546001600160a01b03908116913383900361001a571690811561001a57600280546001600160a01b031916831790557f38d16b8cac22d99fc7c124b9cd0de2d3fa1faef420bfe791d8c362d765e227005f80a3005b3461001a57602036600319011261001a576106da612c13565b6001546001600160a01b0391908216330361001a57811690811561001a57600480546001600160a01b031981168417909155167f4ab5be82436d353e61ca18726e984e561f5c1cc7c6d38b29d2553c790434705a5f80a3005b3461001a57604036600319011261001a57600435602435600681101561001a576001546001600160a01b03908116330361001a5760015f540361001a5760025f55825f52600e60205260405f20916003830191825460ff811660078110156105e85760040361001a575f6001841480156108bf575b8181156108af575b501561001a5760ff8260081c169060068210156105e8576105e85785545f52600d6020528260405f2054169083600188015416906006880194855416946108078760078b019960058b549860ff1916178155612ce8565b6001600160401b0398428a1061001a575f60209960089361083b5f805160206135458339815191529d421660058601612d07565b80546001600160a01b0319169055550180546001600160401b031916905583610878575b50505050506108716040518092612b7c565ba260015f55005b851461089357505061088991613264565b848080808061085f565b6108a39381036108a85750613264565b610889565b9050613264565b90506105e85760038414816107b0565b50505f600284146107a8565b3461001a575f36600319011261001a576002546040516001600160a01b039091168152602090f35b3461001a57602036600319011261001a576001600160a01b03610914612c13565b165f526009602052602060405f2054604051908152f35b3461001a57602036600319011261001a57610944612e3f565b506004355f52601060205261016060405f206040519061096382612c6d565b60018060a01b038154168252600181015460018060a01b038116602084015265ffffffffffff8160a01c16604084015260d01c606083015263ffffffff6002820154166080830152600381015460a083015260ff600482015465ffffffffffff811660c085015260301c166109d781612b89565b60e083015260058101546101008301526006810154610120830152600760018060a01b03910154166101408201526040519060018060a01b03815116825260018060a01b03602082015116602083015265ffffffffffff604082015116604083015265ffffffffffff606082015116606083015263ffffffff608082015116608083015260a081015160a083015265ffffffffffff60c08201511660c083015260e0810151610a8581612b89565b60e083015261010081810151908301526101208082015190830152610140908101516001600160a01b031690820152f35b3461001a575f36600319011261001a57602065ffffffffffff60065460401c16604051908152f35b3461001a5760208060031936011261001a576004359060015f540361001a5760025f55815f52600e815260405f2090600382019182549260ff841660078110156105e85760010361001a5781545f52600d835260405f20906001830160018060a01b03908181541633148015610c52575b1561001a57835465ffffffffffff63ffffffff8260d01c1690603c820291808304603c14901517156105d457610b8e899282610be89560a01c16612cc8565b908b5f52600f835260a0600160405f2060405193610bab85612c3e565b808254809861ffff80831689528260101c16818901521c166040860152808760501c169687606087015260801c1660808501520154910152612cc8565b421061001a5760ff199096166006179091556002918201805460ff60601b1916600160611b1790559354910180547f917c69b2cefdfea85d4c0c2794149409e80aa6c099826d9dfcfc306ba043d69b949192610c449216613264565b54604051908152a260015f55005b50818454163314610b4f565b3461001a575f36600319011261001a57602065ffffffffffff60065460101c16604051908152f35b3461001a5760208060031936011261001a5760043560015f540361001a5760025f55805f52600e825260405f20600381019283549360ff851660078110156105e85760030361001a5760058301546001600160401b03919060401c821642101561001a5760a095855f52600f845260405f20600160405191610d0783612c3e565b805461ffff80821685528160101c168885015265ffffffffffff9081818a1c166040860152818160501c16606086015260801c1660808401520154978891015284545f52600d845260405f2060018060a01b03806001880154163314918215610e1d575b50501561001a5760ff191660041790556006830180546001600160a01b031916331790556007830185905542811061001a5760087ff2cbc3bae809b898e4918c93cc3a0617e734ec62b3fccc2f3e58ce66cb15ad28930190421660018060401b0319825416179055610ddf84600854612cc8565b600855610e0e8430337f00000000000000000000000000000000000000000000000000000000000000006131db565b6040519384523393a360015f55005b909150541633148880610d6b565b3461001a575f36600319011261001a5760015f540361001a5760025f55610485612ed6565b3461001a5760208060031936011261001a576004359060015f540361001a5760025f55815f52600e815260405f20906003820180549060ff821660078110156105e85760040361001a5760088401805490946001600160401b039390918416801561001a57610f1b90885f52600f875260405f2090604051610ed181612c3e565b60a06001845461ffff80821685528160101c168c850152808c65ffffffffffff9283911c166040860152818160501c16606086015260801c16948560808501520154910152612cc8565b421061001a5781545f52600d855260018060a01b03958660405f20541690876001850154169060068501988954169460078101600581549660ff191617885588421161001a575f805160206135458339815191529a610f835f93600560ff9c42169101612d07565b80546001600160a01b03191690555580546001600160401b031916905582610fbc575b505050505460081c166108716040518092612b7c565b610fcc9381036108a85750613264565b85808080610fa6565b3461001a575f36600319011261001a576001546040516001600160a01b039091168152602090f35b3461001a575f36600319011261001a57602065ffffffffffff60045460b01c16604051908152f35b3461001a57602036600319011261001a5761103e612ba8565b6001546001600160a01b0316330361001a5765ffffffffffff62278d008183161161001a577f106f319ff2a7865a563aa99bb7c269b4879041eba2eaf3a25868e9b461fcbd4b916103556004549165ffffffffffff60b01b8160b01b1665ffffffffffff60b01b1984161760045560405193849360b01c1683612d30565b3461001a57602036600319011261001a576110d5612c13565b60015f540361001a576104859060025f55613290565b3461001a5760c036600319011261001a57611104612c13565b61110c612b93565b906044359065ffffffffffff8216820361001a57611128612bd0565b9260a4359365ffffffffffff8516850361001a5760015f540361001a5760025f556084351561001a5763ffffffff811615158061141d575b1561001a57603c42018042116105d45765ffffffffffff8316111561001a5765ffffffffffff821665ffffffffffff85161061001a574265ffffffffffff8616111561001a5765ffffffffffff841665ffffffffffff86161161001a576001600160a01b0383166113eb575b60209463ffffffff65ffffffffffff9283600c54976111ea89612ea1565b600c556040516111f981612c6d565b60018060a01b0389168152338b82015282881660408201528282166060820152848416608082015260843560a082015282861660c0820152600160e08201525f6101008201525f6101208201525f610140820152895f5260108b52600760405f2060018060a01b0383511660018060a01b03198254161781556001810160018060a01b038e8501511660018060a01b03198254161781556112a08660408601511682612eaf565b606084015181549060018060d01b03199060d01b169060018060d01b03161790556002810187608085015116881982541617905560a08301516003820155600481018560c08501511681549060e08601516112fa81612b89565b61130381612b89565b60ff60301b9060301b169166ffffffffffffff19161717905561010083015160058201556101208301516006820155019061014060018060a01b039101511660018060a01b031982541617905561135e608435600854612cc8565b60085561138f60843530337f00000000000000000000000000000000000000000000000000000000000000006131db565b816040519716875216888601521660408401526084356060840152166080820152827f907d10db0ff880252feccfc2b663663b3bdc8c93b135e429d9c9f157af4fe1aa60a03394600180831b031693a460015f55604051908152f35b6001600160a01b0383165f908152600760205260409020548061140f575b506111cc565b6084351061001a5785611409565b5060f063ffffffff82161115611160565b3461001a57602036600319011261001a576004355f52601060205261016060405f2060018060a01b038082541691600181015465ffffffffffff63ffffffff60028401541690600384015460048501549060ff8260301c169360058701549588600760068a015499015416986040519a8b52811660208b0152848160a01c1660408b015260d01c60608a0152608089015260a08801521660c08601526114d381612b89565b60e0850152610100840152610120830152610140820152f35b3461001a575f36600319011261001a576020600a54604051908152f35b3461001a57602036600319011261001a575f60e060405161152981612c89565b8281528260208201528260408201528260608201528260808201528260a08201528260c082015201526004355f52600d60205261010060405f2060ff60026040519261157484612c89565b63ffffffff815460018060a01b038116865265ffffffffffff8160a01c16602087015260d01c16604085015260018101546060850152015463ffffffff8116608084015263ffffffff8160201c1660a084015263ffffffff8160401c1660c084015260601c166115e381612b89565b60e082015260e06040519160018060a01b03815116835265ffffffffffff602082015116602084015263ffffffff60408201511660408401526060810151606084015263ffffffff608082015116608084015263ffffffff60a08201511660a084015263ffffffff60c08201511660c0840152015161166181612b89565b60e0820152f35b3461001a575f36600319011261001a576003546040516001600160a01b039091168152602090f35b3461001a57602036600319011261001a576001600160401b0360043581811161001a573660238201121561001a57806004013591821161001a5760249160a09136602460a084028301011161001a57335f52600760205260405f205490811561001a578215158061177a575b1561001a57600a54935f5b84811061171957602086604051908152f35b818102830190878201359165ffffffffffff8316830361001a576001928161174660446117739401612e90565b8861175360648401612e90565b9161176c60a461176560848701612e90565b9501612e90565b9433613322565b5001611707565b5060c88311156116fc565b3461001a57602036600319011261001a576004355f52600f60205260c060405f20805461ffff91600165ffffffffffff910154916040519380821685528160101c166020850152818160201c166040850152818160501c16606085015260801c16608083015260a0820152f35b3461001a57602036600319011261001a5761180b612c13565b6001546001600160a01b0391908216330361001a57811690811561001a57600380546001600160a01b031981168417909155167f078c3b417dadf69374a59793b829c52001247130433427049317bde56607b1b75f80a3005b3461001a575f36600319011261001a576002546001600160a01b03808216913383900361001a57600180546001600160a01b031980821686179092559116600255167f8be0079c531659141344cd1fd0a4f28419497f9722a3daafe3b4186f6b6457e05f80a3005b3461001a5760a036600319011261001a576118e5612ba8565b6024359063ffffffff8216820361001a576118fe612bbd565b611906612bd0565b61190e612be3565b91335f52600760205260405f2054801561001a5760209561192f9533613322565b604051908152f35b3461001a575f36600319011261001a576020600c54604051908152f35b3461001a57602036600319011261001a5761196d612e3f565b506004355f52600e60205260405f2060405161198881612c6d565b8154815260018201546001600160a01b0316602082015260028201546040820152600382015460ff81169060078210156105e85760ff91606084015260081c169160068310156105e8576080820192909252600482015460a082015260058201546001600160401b0380821660c0840152604091821c811660e084015260068401546001600160a01b03908116610100850152600785015461012085015260089094015416610140830152805182518152602080840151909416938101939093528082015190830152606080820151610160939291611a6a9190840190612b6f565b611a7c60808201516080840190612b7c565b60a0818101519083015260c0808201516001600160401b039081169184019190915260e080830151821690840152610100808301516001600160a01b0316908401526101208083015190840152610140918201511690820152f35b3461001a5760208060031936011261001a5760c0905f60a0604051611afb81612c3e565b828152828482015282604082015282606082015282608082015201526004355f52600f815260405f2060a060405191611b3383612c3e565b6001815480928561ffff9788841698898352818301818660101c16815265ffffffffffff98899788968760806040890198828c8a1c168a5282606082019c60501c168c52019b60801c168b5201549a01998a526040519a8b525116908901525116604087015251166060850152511660808301525160a0820152f35b3461001a575f36600319011261001a576004546040516001600160a01b039091168152602090f35b612bf6565b3461001a575f36600319011261001a57602060405162ed4e008152f35b3461001a575f36600319011261001a576020600554604051908152f35b3461001a57602036600319011261001a576004355f526011602052602060405f2054604051908152f35b3461001a575f36600319011261001a5760015f540361001a5760025f55610485612d56565b3461001a57602036600319011261001a57611c7e612ba8565b6001546001600160a01b0316330361001a5765ffffffffffff62278d008183161161001a577f61b085e37d382d88a75cdf179d9194385e8a90499677f858cf6c5c48a9afa8bf916103556006549167ffffffffffff00008160101b1667ffffffffffff00001984161760065560405193849360101c1683612d30565b3461001a57602036600319011261001a5760043560015f540361001a5760025f55805f52600e60205260405f20600381019081549060ff821660078110156105e85760010361001a5780545f908152600d6020526040902080546001600160a01b039490338682160361001a5760a01c65ffffffffffff1642101561001a5760ff1990931660029081179093558201805460ff60601b1916600160611b17905580545f908152601160205260408120556001810154910180545f805160206135858339815191529360a093611dd0929116613264565b54604051906004825260208201525f60408201525f60608201525f6080820152a260015f55005b3461001a5760a036600319011261001a57600435611e13612b93565b90611e1c612bbd565b91611e25612bd0565b611e2d612be3565b9260015f540361001a5760025f55805f52601060205260405f20926004840193845493600160ff8660301c16611e6281612b89565b0361001a5765ffffffffffff809516421161001a5760018201805490976001600160a01b039190338383161461001a578285541680611fbe575b50335f52600760205260405f2054938415159283611fae575b898816998160a01c168a10159081611fa0575b501561001a57603c42018042116105d45789111561001a5760409b600797611f1696611f079515611f9457905b63ffffffff60028a0154169033613322565b97541660038301549088612f64565b855460ff60301b1916600360301b1790955560058101869055600681018590550180546001600160a01b0319163390811790915585518581526020810185905280870193909352917fe6d90ea495ccfaee0ee4e68d1bc346d0f33e53f9853f691c4f2c9b3284994ddb90606090a360015f5582519182526020820152f35b50600388015490611ef5565b905060d01c8911158d611ec8565b8560038801541015611eb5575f80fd5b330361001a578b611e9c565b3461001a575f36600319011261001a5760015f540361001a5760025f5561048533613290565b3461001a57602036600319011261001a576004355f52600d60205261010060405f2080549063ffffffff6002600183015492015460ff8160601c1692826040519560018060a01b038116875265ffffffffffff8160a01c16602088015260d01c16604086015260608501528181166080850152818160201c1660a085015260401c1660c083015261166181612b89565b3461001a57606036600319011261001a5760043560248035600681101561001a5760035460443591906001600160a01b0316330361001a57835f526020600e815260405f209260038401805460ff811660078110156123565760010361001a57841561001a575f600186148015612369575b818115612346575b501561001a5786545f52600d855260405f2080549065ffffffffffff998a8360a01c169263ffffffff809160d01c1693603c918286029580870484149015171561233357600261214a8784612cc8565b950154818116848102908082048614901517156123205761216b9084612cc8565b9761230d5760028d148015612303575b156122925750505050505081421061001a5761219691612cc8565b421161001a576121b191600386925b60ff1916178155612ce8565b600484018190556001600160401b039342851061001a57600561223c91019585421660018060401b0319885416178755875f52600f845260405f2060a06001604051926121fd84612c3e565b80549461ffff80871686528660101c168986015280868a1c1695866040870152818160501c16606087015260801c166080850152015491015242612cc8565b9380851161001a577f24864fe9462927cd9bc51f0ddd3cfcaa0bf2716a83459138d79d7e1e35a36f4c95612274826060971682612d07565b5460401c16916122876040518095612b7c565b8301526040820152a2005b9193955091939550891c168281029281840414901517156122f057906122b791612cc8565b421061001a57611c2082018092116122dd5750421161001a576121b191600386926121a5565b634e487b7160e01b5f9081526011600452fd5b82634e487b7160e01b5f5260116004525ffd5b5060038d1461217b565b84634e487b7160e01b5f5260216004525ffd5b85634e487b7160e01b5f5260116004525ffd5b83634e487b7160e01b5f5260116004525ffd5b90506123565760038614816120fa565b87634e487b7160e01b5f5260216004525ffd5b50505f600286146120f2565b3461001a57602036600319011261001a5760043560015f540361001a5760025f55805f52601060205260405f206004810190815491600160ff8460301c166123bc81612b89565b0361001a5760018201546001600160a01b03169033820361001a5760ff60301b19909316600160311b1790925560030180547f94684a270daf50c31a66751a64dea889bc82836f26721c7fc1bab4ff445b69129260209291610c4491613264565b3461001a575f36600319011261001a576040517f00000000000000000000000000000000000000000000000000000000000000006001600160a01b03168152602090f35b3461001a575f36600319011261001a576020600b54604051908152f35b3461001a57602036600319011261001a57600435801561001a57335f5260076020528060405f20556040519081527f4e6c8dfd21634b9172efbe1eeee02b6311ba19d102e37d9570677a3ad47212fe60203392a2005b3461001a575f36600319011261001a57602061ffff60045460a01c16604051908152f35b3461001a575f36600319011261001a5760206040516127108152f35b3461001a57602036600319011261001a576004355f52600e60205261016060405f2080549060018060a01b03908160018201541691600282015490600383015460048401546125ae60058601549260018060401b03946006880154169585600860078a015499015416986040519a8b5260208b015260408a015261259e60608a0160ff8316612b6f565b60ff60808a019160081c16612b7c565b60a087015281811660c087015260401c1660e0850152610100840152610120830152610140820152f35b3461001a57602036600319011261001a57600154600435906001600160a01b0316330361001a57801561001a5760407f27dee1ef8a88ee5cc611b2f0fb4dfc4eb15d16866782c4c848c9c48f4a86eae691600554908060055582519182526020820152a1005b3461001a57602036600319011261001a5760043560015f540361001a5760025f55805f52600d60205260405f209060ff600283015460601c1661268081612b89565b61001a578154603c42018042116105d45765ffffffffffff8260a01c16111561001a57815f52601160205260405f205461001a576001600160a01b0316331461001a576127116126d96001602094015480933390612f64565b916126e681600854612cc8565b60085530337f00000000000000000000000000000000000000000000000000000000000000006131db565b60015f55604051908152f35b3461001a57602036600319011261001a5760043561ffff80821680830361001a576001546001600160a01b0316330361001a57612710811161001a576103557fea93df5a714cf271a61bd5ee9a7c1b86d1d16f41a20f84f1b2500f90dda3af94936006549261ffff198416176006556040519384931683612c29565b3461001a57602036600319011261001a576004355f818152600d6020526040902080546001600160a01b0316330361001a57600201805460ff8160601c166127e081612b89565b61001a5760ff60601b1916600160611b1790557fd04692252eb386bc1bc47a15f8bf6bc81bc702521ef547c018d2afa2fb2d384b5f80a2005b3461001a5760208060031936011261001a576004359060015f540361001a5760025f55815f52600e815260405f2090600382019182549060ff821660078110156105e85760038114908115612abb575b501561001a57600581015460401c6001600160401b0316421061001a5780545f52600d835260405f20855f52600f8452600660405f20936040516128ac81612c3e565b60a0600187549761ffff98898116998a86528160101c168b86015265ffffffffffff9081818d1c166040870152818160501c16606087015260801c166080850152015491015260ff191617855560028101600360601b60ff60601b1982541617905560ff855460081c169260018060a01b038092541690600283600186015416940154945f945f955f926006811015806105e857600182148015612aaf575b156129e45750505050505f80516020613525833981519152968594939261298561271061297d60ff9560809b9a612cd5565b048097612d49565b9386806129d0575b505083806129c0575b50505b5460081c16936129ac6040518096612b7c565b84015260408301526060820152a260015f55005b6129c991613264565b8983612996565b6129dd9160045416613264565b8a8661298d565b809996959297939894996105e857600282148015612aa3575b15612a2d575050505050509060ff5f8051602061352583398151915296612a28846080989796613264565b612999565b92959750929550929796506105e85760050361001a575f8051602061352583398151915296608096612a6761271061297d60ff9589612cd5565b938680612a8f575b50508380612a7f575b5050612999565b612a8891613264565b8983612a78565b612a9c9160045416613264565b8a86612a6f565b50505f600482146129fd565b50505f6003821461294b565b600591501486612869565b3461001a575f36600319011261001a57602061ffff60065416604051908152f35b3461001a57602036600319011261001a5761ffff9060043582811680820361001a576001546001600160a01b0316330361001a576107d01061001a5761035582917f8d10f5697a370f640ed5d474159aba3cc86e9bc260a5e9d2db875ad992cb1a1f9460045461ffff60a01b8360a01b1661ffff60a01b1982161760045560a01c1683612c29565b9060078210156105e85752565b9060068210156105e85752565b600411156105e857565b6024359065ffffffffffff8216820361001a57565b6004359065ffffffffffff8216820361001a57565b6044359063ffffffff8216820361001a57565b6064359063ffffffff8216820361001a57565b6084359063ffffffff8216820361001a57565b3461001a575f36600319011261001a57602060405162278d008152f35b600435906001600160a01b038216820361001a57565b61ffff91821681529116602082015260400190565b60c081019081106001600160401b03821117612c5957604052565b634e487b7160e01b5f52604160045260245ffd5b61016081019081106001600160401b03821117612c5957604052565b61010081019081106001600160401b03821117612c5957604052565b601f909101601f19168101906001600160401b03821190821017612c5957604052565b919082018092116105d457565b818102929181159184041417156105d457565b9060068110156105e85761ff0082549160081b169061ff001916179055565b8054600160401b600160801b03191660409290921b600160401b600160801b0316919091179055565b65ffffffffffff91821681529116602082015260400190565b919082039182116105d457565b6040516370a0823160e01b815230600482015260207f00000000000000000000000000000000000000000000000000000000000000006001600160a01b0382846024818486165afa908115612e34575f91612df8575b5f8051602061356583398151915294506008549182811115612deb57612de292612dd591612d49565b92839160045416906134c5565b604051908152a1565b505050506040515f8152a1565b90508284813d8311612e2d575b612e0f8183612ca5565b8101031261001a575f80516020613565833981519152935190612dac565b503d612e05565b6040513d5f823e3d90fd5b60405190612e4c82612c6d565b5f610140838281528260208201528260408201528260608201528260808201528260a08201528260c08201528260e082015282610100820152826101208201520152565b3563ffffffff8116810361001a5790565b5f1981146105d45760010190565b805465ffffffffffff60a01b191660a09290921b65ffffffffffff60a01b16919091179055565b478015612f4a575f8080808460018060a01b03600454165af13d15612f45573d6001600160401b038111612c595760405190612f1c601f8201601f191660200183612ca5565b81525f60203d92013e5b1561001a5760205f805160206135a583398151915291604051908152a1565b612f26565b505f805160206135a583398151915260206040515f8152a1565b929192805f52602093600d85526040946002865f20019060ff825460601c16612f8c81612b89565b61001a57835f5260118152865f205461001a57600b5492612fac84612ea1565b600b558397855f526011835284815f2055805193612fc985612c6d565b8685525f8486019860018060a01b03809116998a815284880191868352606089019860018a528a89608083019487865260a084019488865260c085019689885260e08601988a8a52600e6101008801958c87526101208901978d89526101408a019d8e525f52528c5f209651875582600188019451169360018060a01b03199485825416179055516002870155600386019e5160078110156105e8578f9060ff80198354169116179055519560068710156105e8576130ac7f629dc84b4562ce5134c489592d47293cdad8e89d7ea6523a2bf064bb954a30579f97600898612ce8565b51600486015595516005850180546001600160401b03199081166001600160401b0393841617825598519197916130e69190891690612d07565b60068501925116908254161790555160078201550192511690825416179055600454600161ffff6006549065ffffffffffff916005549287519561312987612c3e565b838160a01c1687528a8701938084168552828a89019260b01c1682526060880192808560101c16845260808901948b1c16845260a088019586528d5f52600f8c52895f2097511663ffff00008854955160101b169165ffffffffffff60201b90518d1b169265ffffffffffff60501b905160501b169365ffffffffffff60801b905160801b1694878060b01b0319161717171717835551910155600160601b60ff60601b1982541617905551908152a4565b6040516323b872dd60e01b5f9081526001600160a01b03938416600452938316602452604494909452909160209060648180855af160015f5114811615613245575b836040525f6060521561322f57505050565b635274afe760e01b835216600482015260249150fd5b600181151661325b57813b15153d15161661321d565b833d5f823e3d90fd5b811561328c5760018060a01b03165f52600960205261328860405f20918254612cc8565b9055565b5050565b6001600160a01b03811690811561001a57335f52600960205260405f2090815491821561001a576132f4915f8492556132cb82600854612d49565b6008557f00000000000000000000000000000000000000000000000000000000000000006134c5565b6040519081527fa6cd4410234ac9de9d1307f26fd9ec5124f511a9135d59c0904879dd8ae28e1060203392a3565b9094969593929196821561001a57603c4201938442116105d45765ffffffffffff8097169485111561001a5763ffffffff80991691821515806134ba575b1561001a5789169582871161001a57891695612760871161001a57600a54809761338982612ea1565b600a55819b60409687519061339d82612c89565b600160a01b600190038091169c8d835260208301908c82528a8401918a835260608501938d855286608087019b168b5260a08601998a5260c0860197885260e08601985f8a525f52600d6020528c5f20955116600160a01b6001900319865416178555511661340c9084612eaf565b5182549063ffffffff60d01b9060d01b169063ffffffff60d01b191617825551600182015560020194511684549363ffffffff60201b905160201b169163ffffffff60401b9051881b16925161346181612b89565b61346a81612b89565b60ff60601b9060601b1693600160681b6001900319161717171790558151938452602084015282015260607f0a7485cbe2641ede2fefae85de83e7807d709f95d409e3c32aa6cbc795e860d291a3565b5060f0831115613360565b60405163a9059cbb60e01b5f9081526001600160a01b039384166004526024949094529260209060448180855af160015f511481161561350e575b836040521561322f57505050565b600181151661325b57813b15153d15161661350056fed96b99f82f8b864e76999d053eb26c3447b27db4b1ac5bbdb7ca128edc47e8af8a1c7850cb95b6648c597d19ad5a66ce32698f83f344546e66f4229ce5dacff9aea05ec7362bb7ab2c09b63a3a833265687676386ad1fcdcfbda550fd80fcf1ac933a7a4f002c0d60bdc00ce06c642f38f9e3f02dc9887ac471261e20cf0e76d1ed033bc10f1dd641f4df398853976d2b76ee062cce863301929fe8ee8336faa","linkReferences":{}},"methodIdentifiers":{"BPS()":"249d39e9","MAX_CHALLENGE_WINDOW()":"51586ecb","MAX_DISPUTE_TIMEOUT()":"5bdfbeb5","MAX_NO_ATTEST_BUFFER()":"60c58491","acceptOwnership()":"79ba5097","acceptRequest(uint256,uint48,uint32,uint32,uint32)":"4053ef0b","attest(uint256,uint8,bytes32)":"33fe248b","book(uint256)":"1116fd04","bookingTerms(uint256)":"7ae15ac1","bookings(uint256)":"1dab301e","cancelBookingAsGuest(uint256)":"f7c40510","cancelBookingAsHost(uint256)":"4244c4a2","cancelRequest(uint256)":"3015394c","cancelSlot(uint256)":"0d9d763e","challenge(uint256)":"ab82d9a0","challengeBond()":"52305151","challengeWindow()":"861a1412","claimIfUnattested(uint256)":"bdbc4834","createRequest(address,uint48,uint48,uint32,uint256,uint48)":"81e4f660","createSlot(uint48,uint32,uint32,uint32,uint32)":"7314e04c","createSlots((uint48,uint32,uint32,uint32,uint32)[])":"7d47a828","disputeTimeout()":"c04c22a4","feeBps()":"24a9d853","finalize(uint256)":"05261aea","finalizeDisputeByTimeout(uint256)":"90955aa7","getBooking(uint256)":"6a5c841a","getBookingTerms(uint256)":"699eb23f","getRequest(uint256)":"c58343ef","getSlot(uint256)":"7eba7ba6","hostBasePrice(address)":"f3ac7d77","lateCancelPenaltyBps()":"046570ea","nextBookingId()":"26f20c79","nextRequestId()":"6a84a985","nextSlotId()":"804ebda7","noAttestBuffer()":"b8a02e98","oracle()":"7dc0d1d0","owed(address)":"df18e047","owner()":"8da5cb5b","paymentToken()":"3013ce29","pendingOwner()":"e30c3978","requests(uint256)":"81d12c58","resolveDispute(uint256,uint8)":"e55e4211","setChallengeBond(uint256)":"18c281a6","setChallengeWindow(uint48)":"856b9b03","setDisputeTimeout(uint48)":"ff2d438b","setFeeBps(uint16)":"023b1fc9","setHostBasePrice(uint256)":"26bc522c","setLateCancelPenaltyBps(uint16)":"0ec95c49","setNoAttestBuffer(uint48)":"42cc019a","setOracle(address)":"7adbf973","setTreasury(address)":"f0f44260","slotToBooking(uint256)":"475b0193","slots(uint256)":"387dd9e9","sweepNative()":"ab803a76","sweepTokenExcess()":"43d859bf","totalHeld()":"f43cc773","transferOwnership(address)":"f2fde38b","treasury()":"61d027b3","withdrawOwed()":"39a72c5c","withdrawOwed(address)":"84ff6985"},"id":6}